:100000006841002041570000419C01002D5700002D
:100010002D5700002D5700002D5700002D570000D0
:10002000000000000000000000000000595800001F
:100030002D57000000000000DD5700002D57000084
:10004000855B0000855B0000855B0000855B000030
:10005000855B0000855B0000855B0000855B000020
:10006000855B0000855B0000855B0000855B000010
:10007000855B0000855B0000855B0000855B000000
:10008000855B0000855B0000855B0000855B0000F0
:10009000855B0000855B0000855B0000855B0000E0
:1000A000855B0000855B0000855B0000855B0000D0
:1000B000855B0000855B0000855B0000855B0000C0
:1000C000855B0000855B0000855B0000855B0000B0
:1000D000855B0000855B0000855B0000855B0000A0
:1000E000855B0000855B0000855B0000855B000090
:1000F000855B0000855B0000855B0000855B000080
:10010000855B0000855B0000855B0000855B00006F
:10011000855B0000855B0000855B0000855B00005F
:10012000855B0000855B0000855B0000855B00004F
:10013000855B0000855B0000855B0000855B00003F
:10014000855B0000855B0000855B0000855B00002F
:04015000855B0000CB
:1001540053B94AB9002908BF00281CBF4FF0FF312A
:100164004FF0FF3000F00CB8ADF1080C6DE904CE8F
:1001740000F010F8DDF804E0DDE9022304B0704774
:10018400704700BF034613F8012B002AFBD1181A4D
:10019400013870472DE9F04786468C460846089E8C
:1001A400154674461946002B40F0C1808542B2FAC8
:1001B40082F245D94AB1C2F1200300FA02FC95400B
:1001C40094402EFA03F343EA0C0C4FEA154EA8B2FE
:1001D400230CBCFBFEF80EFB18CC08FB00F943EA29
:1001E4000C43994528D9EB1808F1FF3704D29945F7
:1001F40002D9A8F102072B44A3EB0903A4B2B3FB71
:10020400FEFC0EFB1C330CFB00F044EA0344A0424A
:1002140014D92C190CF1FF3304D2A04202D9ACF149
:1002240002032C44241A43EA07401EB1D44000239D
:1002340034607360BDE8F0874746DDE76346F1E765
:1002440092BB431B01214FEA154EAFB2200CB3FB06
:10025400FEFC0EFB1C330CFB07F840EA03439845F5
:1002640061D9EB180CF1FF3004D2984502D9ACF1F6
:1002740002002B44A3EB0803A4B2B3FBFEFC0EFB69
:100284001C330CFB07F744EA0344A7424DD92C194D
:100294000CF1FF3304D2A74202D9ACF102032C447F
:1002A400E41B43EA0040C0E7C2F1200395409440B8
:1002B40020FA03F12EFA03F34FEA154E9040AFB241
:1002C4000343B1FBFEFC0EFB1C10190C0CFB07F8DE
:1002D40041EA0041884522D969180CF1FF3004D263
:1002E400884502D9ACF102002944A1EB08019BB274
:1002F400B1FBFEFC0EFB1C110CFB07F743EA0143A8
:100304009F420ED9EB180CF1FF3104D29F4202D95F
:10031400ACF102012B44DB1B41EA004193E7604648
:10032400E3E76146F7E76046A4E76346B8E783423C
:1003340006D916B9002108467CE7C6E900E0F9E7CA
:10034400B3FA83F78FB9834201D3724508D8BEEB61
:10035400020460EB030301209C461EB9002169E7F7
:100364003846FAE7C6E9004CF8E7C7F1200CBB4071
:100374000EFA07F522FA0CF42EFA0CF1BA401C43DB
:1003840020FA0CF3B8404FEA144901431FFA84FEE3
:10039400B3FBF9F809FB18300B0C08FB0EFA43EA1F
:1003A40000439A4540D9E31808F1FF3004D29A4536
:1003B40002D9A8F102002344A3EB0A0389B2B3FBD8
:1003C400F9F809FB183308FB0EFE41EA03418E4598
:1003D4002CD9611808F1FF3304D28E4502D9A8F153
:1003E4000203214443EA0040A1EB0E01A0FB029862
:1003F4004145CE46434602D306D14D4504D2013889
:10040400B9EB020E68EB0403002EA7D0B5EB0E0285
:1004140061EB030101FA0CFC22FA07F3F9404CEA00
:100424000303C6E9003199E74046C5E74346D9E7E7
:1004340090B58BB000AFF8600B467A60FB72FB6836
:100444009B687B62FB685B683B62FB681B69FB61C2
:100454007B6A9B69002B02D16FF057039BE07B689A
:1004640003F4C003B3F5C00F0ED140F27B334C4A02
:100474004C494D4817F016FF4C4817F013FF40F253
:100484007B31474817F0F5FE7B6803F4C003002B6B
:100494000ED140F27F33424A4549434817F002FFE8
:1004A400444817F0FFFE40F27F313D4817F0E1FE6B
:1004B4007B6803F48003002B19D07B6803F08073FE
:1004C400002B14D17B6803F0C063B3F1C06F0ED16D
:1004D40040F28233324A3849334817F0E3FE374852
:1004E40017F0E0FE40F282312D4817F0C2FE7B681F
:1004F40003F48003002B13D07B6803F0C063002B4C
:100504000ED140F28F33264A2D49274817F0CAFEF0
:100514002C4817F0C7FE40F28F31214817F0A9FE8E
:100524003B6A1A68FB7A012101FA03F31340002B9A
:100534000ED14FF465731A4A23491B4817F0B2FED3
:10054400224817F0AFFE4FF46571154817F091FE7D
:100554007B6803F40003002B0CD0FB691A68FB7A58
:10056400012101FA03F31340002B03D07B6883F0CD
:10057400C0637B607A68164B1340BB617B6803F0F1
:10058400B0737B617B6A9C69F97ABB697A69F868A4
:10059400A04738613B6918462C37BD4690BD00BF63
:1005A400502B02008C2B0200DC2B0200FC2B0200DF
:1005B400282C0200582C0200842C0200182D020062
:1005C4006C2D0200D42D02001C2E02005C2E0200B1
:1005D4004000000680B588B000AFF8600B467A6032
:1005E400FB72FB689B68FB61FB685B68BB61FB6833
:1005F4001B697B617B6803F0FC63002B0ED04FF416
:1006040078736B4A6B496C4817F04CFE6B4817F0D3
:1006140049FE4FF47871664817F02BFE7B6803F0AF
:100624003003302B0ED140F2E333614A644962480F
:1006340017F038FE634817F035FE40F2E3315C48AA
:1006440017F017FE7B6803F48033002B18D07B6807
:1006540003F40033002B13D17B6803F00203002B57
:100664000ED040F2E733524A5749534817F01AFE66
:10067400564817F017FE40F2E7314D4817F0F9FDE0
:100684007B6803F00203002B10D17B6803F00403A2
:10069400002B0BD040F2EA33454A4D49464817F047
:1006A40001FE40F2EA31424817F0E3FD7B6803F4AF
:1006B4004023002B13D07B6803F40033002B0ED1AE
:1006C40040F2ED333A4A43493B4817F0EBFD4248C8
:1006D40017F0E8FD40F2ED31354817F0CAFD7B68AC
:1006E40003F44023B3F5402F0ED140F2F133304AE6
:1006F4003A49314817F0D6FD394817F0D3FD40F296
:10070400F1312B4817F0B5FD7B6803F48013002BFF
:100714000DD07B6803F44023002B08D07B6803F0E2
:100724000103002B03D07B6883F440237B607B6848
:1007340023F480137B60BB691A68FB7A012101FAF8
:1007440003F31340002B0ED140F2FD33184A254920
:10075400194817F0A7FD244817F0A4FD40F2FD3115
:10076400134817F086FD7B6803F00103002B09D0C2
:100774007B691A68FB7A012101FA03F31A437B6946
:100784001A6009E07B691A68FB7A012101FA03F314
:10079400DB431A407B691A60FB691B68F97A7A6843
:1007A400F868984738613B6918462037BD4680BDD4
:1007B400502B0200702E0200DC2B0200E02E0200FF
:1007C400042F0200402F0200802F0200D02F0200CD
:1007D4002030020054300200A4300200E030020055
:1007E400303102001C2E02005C2E020080B584B061
:1007F40000AF78600B46FB707B685B68FB60FB684E
:100804001A68FB78012101FA03F31340002B0ED17F
:1008140040F2B7630C4A0D490D4817F043FD0D48EB
:1008240017F040FD40F2B761074817F022FDFB784E
:10083400012202FA03F31946786817F036FA0346E0
:1008440018461037BD4680BD502B02001C2E0200F6
:10085400DC2B02005C2E020080B584B000AFF8608F
:10086400B9607A60FB68002B0ED14FF4DB63144A45
:100874001449154817F016FD144817F013FD4FF4EA
:10088400DB610F4817F0F5FCBB68002B0ED140F27A
:10089400D9630B4A0E490C4817F004FD0D4817F0B4
:1008A40001FD40F2D961064817F0E3FCFB68BA6821
:1008B4005A60FB687A689A6000BF1037BD4680BDF5
:1008C400502B02005C310200DC2B02006831020074
:1008D400903102009831020080B592B004AFF86004
:1008E400B9607A60664B674A1A60654B00221A71D8
:1008F400634B08225A71624B08221A81604B012211
:100904009A715F4B00221A735D4B00225A735C4B41
:100914000E229A725A4B0122DA725B4B58491846DE
:1009240017F0F0F878637B6B002B1BDA0323002BA2
:1009340017D00123FB76FB7E83F00103DBB2002B8F
:100944000FD1524B1968524B029300230193002399
:10095400009300230122002017F0B5F900237B61E6
:100964008AE089E00323022B18D9012387F8333066
:1009740097F8333083F00103DBB2002B0ED1434BE5
:100984001968444B0293002301930023009300232E
:100994000322002017F097F90023FB623A4B0C2244
:1009A4003D49184617F0C0F878637B6B002B1DDABD
:1009B4000323002B19D0012387F8233097F8233021
:1009C40083F00103DBB2002B0FD1304B1968334B9A
:1009D40002930023019300230093002301220020AB
:1009E40017F071F90023FB6146E045E0244B254AEA
:1009F4001A60234B00221A71214B08225A71204B92
:100A040008221A811E4B01229A711D4B00221A736F
:100A14001B4B00225A731A4B0E229A72184B002257
:100A2400DA72194B1649184617F06CF878637B6B29
:100A3400002B1DDA0323002B19D0012387F82B3058
:100A440097F82B3083F00103DBB2002B0FD10F4B4F
:100A540019680F4B02930023019300230093002392
:100A64000122002017F02FF900237B6204E003E049
:100A74000B4817F023F875E73837BD4680BD00BF33
:100A8400240C0020E0609033E027020008000020DE
:100A9400D0310200E43102000C000020F4310200E5
:100AA4008802002080B584B000AFF860B9607A6035
:100AB4000A4817F0AAF80A4B1B78DBB2002B06D0C1
:100AC400074B00221A70074816F0B4FF02E00548ED
:100AD40016F0FFFF00BF1037BD4680BD00000020A8
:100AE400C80100208802002080B590B008AFF860EB
:100AF400B96011461A460B46FB801346BB8003239C
:100B0400022B19D901237B757B7D83F00103DBB2B2
:100B1400002B11D12D4B1968FB681B6803932C4BD8
:100B24000293002301930023009300230322002057
:100B340017F0C9F800233B610323022B1CD90123BE
:100B4400BB75BB7D83F00103DBB2002B14D11F4BBB
:100B54001968B7F9043097F92820049203931D4BC0
:100B64000293002301930023009300230322002017
:100B740017F0A9F80023BB610323022B22D9012318
:100B8400FB75FB7D83F00103DBB2002B1AD10F4B05
:100B94001868FB88B7F9042097F928100691059284
:100BA4000493BB6803930C4B02930023019300232B
:100BB4000093002303220146002017F084F8002349
:100BC400FB6100BF00BF2037BD4680BD0800002088
:100BD40008320200143202003832020080B59CB0A0
:100BE40008AF774816F0C8FF034683F00103DBB271
:100BF400002B1ED00323002B19D00123FB71FB799A
:100C040083F00103DBB2002B11D16E4B19686E4BDC
:100C14001B6803936D4B02930023019300230093FD
:100C240000230122002017F04EF800233B6000232C
:100C3400D7E14FF48031624816F0BEFF78627B6AD8
:100C4400002B22D00323002B1DD00123BB73BB7BBD
:100C540083F00103DBB2002B15D15A4B19685A4BB0
:100C64001B681722059204937B6A0393584B0293E3
:100C7400002301930023009300230122002017F096
:100C840022F80023BB600023ABE14FF0B8614C486D
:100C940016F080FF78627B6A002B24D00323002B9C
:100CA4001FD0012387F84F3097F84F3083F00103AA
:100CB400DBB2002B15D1434B1968434B1B68172239
:100CC400059204937B6A0393424B0293002301939E
:100CD4000023009300230122002016F0F4FF0023D8
:100CE400BB6400237DE13C4B184616F097FE034697
:100CF40083F00103DBB2002B20D00323002B1BD095
:100D0400012387F83B3097F83B3083F00103DBB2D3
:100D1400002B11D12B4B19682F4B1B6803932F4BBE
:100D24000293002301930023009300230122002057
:100D340016F0C9FF00237B64002352E1284B294AA3
:100D44001A60274B00221A71254B08225A71244B32
:100D540008221A81224B01229A71214B00221A7314
:100D64001F4B00225A731E4B0E229A721C4B0022F8
:100D7400DA72194B1A49184616F0C4FE78627B6A77
:100D8400002B33DA0323002B18D0012387F84330D8
:100D940097F8433083F00103DBB2002B0ED1094BEB
:100DA4001968114B0293002301930023009300233D
:100DB4000122002016F087FF0023FB63002310E1CB
:100DC4003890020008000020602702006032020010
:100DD40088320200B0320200E0270200E83202004A
:100DE400240C0020E0609033D031020017231A460F
:100DF400012393401A467D497D48FFF72DFD7D4B25
:100E04007B49184616F012FF0323022B1BD901233A
:100E1400FB75FB7D83F00103DBB2002B13D1764B12
:100E24001968744B1B68172204920393734B029343
:100E3400002301930023009300230322002016F0D3
:100E440042FF00233B616E4B1B68002B2BD06C4888
:100E540016F092FE034683F00103DBB2002B22D08E
:100E64000323002B1CD00123FB73FB7B83F00103C2
:100E7400DBB2002B14D1604B1968614B1B681B68F3
:100E840004937B6A03935F4B029300230193002333
:100E9400009300230122002016F015FF0023BB61FC
:100EA400574B00221A60564B1B68002B54D04FF44A
:100EB4000031534816F080FE78627B6A002B28D0FC
:100EC4000323002B21D0012387F82F3097F82F30EC
:100ED40083F00103DBB2002B17D1474B1968484B51
:100EE4001B681B68464A1279059204937B6A039334
:100EF400454B029300230193002300930023012216
:100F0400002016F0E0FE0023BB623D4B00221A6075
:100F140022E00323022B1FD9012387F8233097F8FB
:100F2400233083F00103DBB2002B15D1324B196857
:100F3400334B1B681B68324A127904920393334B78
:100F44000293002301930023009300230322002033
:100F540016F0B9FE0023FB610323022B18D90123E9
:100F640087F83A3097F83A3083F00103DBB2002B6C
:100F74000ED1214B1968264B0293002301930023C1
:100F8400009300230322002016F09DFE00237B63C0
:100F94004FF0FF304FF0FF31CDE9060100230493F9
:100FA4000723039300230293002301930023009358
:100FB400184B4FF480521849184816F046FD386310
:100FC4001749386B16F090FD164B00221649184647
:100FD40016F0BEFD4FF0FF304FF0FF3116F055FD17
:100FE400002318465037BD4680BD00BFA90A000043
:100FF400180C00206027020008000020FC320200C8
:1010040000000020183302004C3302008033020039
:1010140098330200DD0800006811002088020020D7
:10102400D8330200E0270200ED0A000080B58CB03E
:1010340000AFF860B9607A60786816F0B9FF0246CC
:101044007B6893420ED840F21A23584A58495948AB
:1010540017F028F9584817F025F940F21A21534897
:1010640017F007F9786816F0A3FF02467B689B1A0D
:101074007B60BB68073323F00703BB62BA687B68F5
:10108400134423F007037B627A6ABB6AD31ADB0832
:101094003B62102016F09DFF02463B6A93420ED835
:1010A40040F22323414A4549424817F0FBF842489D
:1010B40017F0F8F840F223213C4817F0DAF8BB6A3D
:1010C400FB61FB68FA691A60FB693A6A9A60FB691A
:1010D4000022DA60396AF86916F098FF0346013392
:1010E400BB61BB6904339B00184616F072FF78613C
:1010F400F86916F07AFF02467B6913443A6A9A4209
:101104000ED24FF40E73294A2D492A4817F0CAF813
:10111400294817F0C7F84FF40E71244817F0A9F8BE
:101124000023FB6208E0FB69FA6A0432002143F8F9
:101134002210FB6A0133FB62FA6ABB699A42F2DB52
:101144007A690021F86916F0B6FE00220021F869D8
:1011540016F0F1FE01220021F86916F067FE3A6AE2
:101164007B69D31A1A467969F86916F0A4FE7A697C
:101174007969F86916F0DFFE0022396AF86916F019
:101184009AFE3A6A7B69D31A1A46396AF86916F0E4
:10119400D2FE0122396AF86916F048FE7969F869C5
:1011A40016F091FF00BF3037BD4680BDE833020022
:1011B4002035020028340200443502006035020064
:1011C4008C35020080B483B000AF78607B68094A34
:1011D400934205D37B68084A934201D2012300E07D
:1011E400002303F00103DBB218460C37BD4680BC74
:1011F400704700BFE02602007898020080B5A4B0D2
:1012040000AFF860B9607A603B60FB68FB65FB6D1A
:10121400C7F88C300023C7F880300023FB67002315
:10122400BB674FF0FF337B67002387F86B307B6825
:1012340003F00403002B14BF0123002387F85B3061
:101244007B68DB0803F0070301337B66002387F820
:101254006330FB687B65FB6803F00303002B02D05B
:101264006FF00D03E3E3D7F88C300433C7F88C3008
:10127400FB6D002B0DD1BB6803F00703D7F88C205E
:101284001344C7F88C30BB6803F00703C3F10803A9
:10129400BB60FB6D002B0AD0FB6DD7F88C20D31AF2
:1012A4000433BA689A4202D26FF01B03BFE33B686F
:1012B400FB663B68013B3B600423C7F8843004238E
:1012C400C7F8883097E197F86B3083F00103DBB2FD
:1012D400002B11D03B681B78252B40F09E82012304
:1012E40087F86B307B6F01337B670423C7F8843046
:1012F4000423C7F8883090E23B681B787A2B00F30C
:1013040049814C2B11DA472B00F344812A2B71DAE3
:10131400252B00F09280252B00F33C81202B00F03C
:101324007E82232B00F07B8234E14C3B2E2B00F297
:10133400318101A252F823F023180000991500000E
:1013440099150000991500009915000099150000E1
:1013540099150000991500009915000099150000D1
:1013640099150000991500007714000099150000E4
:1013740099150000991500009915000099150000B1
:10138400991500009915000099150000C714000074
:10139400991500007714000077140000C7140000AA
:1013A400C7140000C71400002318000077140000BD
:1013B4004D14000099150000231800009915000031
:1013C400B314000077140000B31400009915000052
:1013D40099150000AD140000691400007714000092
:1013E4009915000099150000771400009915000064
:1013F4005B1400002A3B012202FA03F34FF6DA726F
:101404001A40002A14BF01220022D2B2002A40F05E
:10141400068203F06252002A14BF01220022D2B2D3
:10142400002A4ED103F00103002B14BF0123002333
:10143400DBB2002B40F0B280ACE0002387F86B30C5
:101444007B6F013B7B67EBE10823C7F884300823FB
:10145400C7F88830E4E10423C7F884300423C7F8CC
:101464008830DDE10423C7F884300423C7F88830CA
:10147400D6E13B68013B1B786C2B11D13B68023BE6
:101484001B786C2B06D10823C7F884300823C7F8CF
:10149400883005E00423C7F884300423C7F8883073
:1014A400002387F86B307AE0012387F86330042344
:1014B400C7F884300423C7F88830002387F86B30DA
:1014C4006DE03B68013B1B784C2B13D1D7F8983067
:1014D400073323F0070303F10802C7F89820D3E980
:1014E4000023C7E906230823C7F884300823C7F874
:1014F400883012E0D7F89830073323F0070303F15C
:101504000802C7F89820D3E90023C7E90623082373
:10151400C7F884300823C7F88830D7F88420D7F870
:101524008C3013445A1ED7F88430B2FBF3F2D7F848
:10153400843002FB03F3C7F88C30FB6D002B1ED004
:10154400FB6DD7F88C20D21AD7F888301344BA68C8
:101554009A4202D26FF01B0369E23B68013B1B789D
:101564004C2B06D1D7F88C10D7E90623C1E9002308
:1015740005E0D7F88C10D7E90623C1E90023D7F892
:101584008C20D7F888301344C7F88C30002387F8B0
:101594006B3045E1002387F86B3041E100BFD7F899
:1015A4008420D7F88C3013445A1ED7F88430B2FB09
:1015B400F3F2D7F8843002FB03F3C7F88C30FB6DE9
:1015C400002B0CD0FB6DD7F88C20D21AD7F88830BA
:1015D4001344BA689A4202D26FF01B0327E297F8C9
:1015E4006330002B00F0B880D7F898301A1DC7F884
:1015F40098201B68FB66FB6D002B03D0D7F88C305A
:10160400FA6E1A607B6E5A1E7A66002B05DCF86E41
:1016140016F07BFD0346002B01D0012300E00023DC
:1016240087F853307B6803F00203002B14BF0123B7
:10163400002387F8523097F85330002B06D097F8E0
:10164400523083F00103DBB2002B7CD1FB6DD7F861
:101654008C20D31A9B08FB6497F85230002B11D0CE
:10166400FB6C7F2B0ED94FF41F73B04AB049B148BD
:1016740016F018FEB04816F015FE4FF41F71AB4873
:1016840016F0F7FDD7F880300F2B0ED940F28123E6
:10169400A64AA749A74816F005FEA84816F002FE78
:1016A40040F28121A14816F0E4FDFB6D002B2DD002
:1016B400FB6CD9B207F13002D7F8803013440A46E4
:1016C4001A707B6FD9B207F12002D7F88030134427
:1016D4000A461A7097F85330002B13D007F13002E2
:1016E400D7F8803013441B7863F07F03D9B207F135
:1016F4003002D7F8803013440A461A70BB6F0133A6
:10170400BB671BE0FB6F0133FB6717E097F85330AF
:10171400002B03D0BB680133BB600FE097F85B304C
:10172400002B03D0BB680233BB6007E0F86EFEF702
:1017340029FD0246BB6813440233BB60D7F88030EE
:101744000133C7F88030D7F88C300433C7F88C30B5
:10175400002387F8633063E0D7F88830042B13D173
:10176400D7F898301A1DC7F898201B687B64FB6D66
:10177400002B03D0D7F88C307A6C1A60D7F88C30F1
:101784000433C7F88C304BE0D7F88830042B13D1DE
:10179400D7F898301A1DC7F898201B68BB64FB6DF6
:1017A400002B03D0D7F88C30BA6C1A60D7F88C3081
:1017B4000433C7F88C3033E0D7F88830082B1BD1BA
:1017C400D7F89830073323F0070303F10802C7F86A
:1017D4009820D3E90023C7E90423FB6D002B05D02F
:1017E400D7F88C10D7E90423C1E90023D7F88C304B
:1017F4000833C7F88C3013E040F2C6234B4A4C49F7
:101804004C4816F04FFDD7F888104D4816F04AFDA5
:1018140040F2C621454816F02CFD00BF00E000BF91
:101824003B6801333B603B681B78002B7FF44BAD76
:1018340000BFFB6DD7F88C20D31AB3F5806F0ED39D
:1018440040F2D223394A3A493A4816F02BFD3D4832
:1018540016F028FD40F2D221344816F00AFDFB6D43
:10186400002B07D1FB6DD7F88C20D21ABB68134428
:10187400083BDCE0FB6D00221A60FB6DD7F88C207E
:10188400D31A9B08DAB27B6D1A7097F85B30002B81
:1018940007D07B6D00225A70FB6FDAB27B6DDA7071
:1018A40006E0FB6FDAB27B6D5A707B6D0022DA7052
:1018B400BB6FDAB27B6D9A70BB6F002B32D0002302
:1018C4003B672AE007F130023B6F13441B785BB29D
:1018D400002B1EDA07F130023B6F13441B7803F030
:1018E4007F0387F84330FB6DD7F88C20D31A01337C
:1018F400BA689A4202D26FF01B0398E0D7F88C3092
:1019040097F843201A70D7F88C300133C7F88C301D
:1019140000E000BF3B6F01333B673A6FD7F880307C
:101924009A42CFD300233B6778E000BFCC35020056
:101934003C3602001C3602004036020064360200C7
:101944008036020098360200BB6F002B07D007F1E7
:1019540030023B6F13441B785BB2002B5ADB97F8C1
:101964005B30002B10D00023C7F88830D7F88C30B8
:1019740007F120013A6F0A4412781A70D7F88C30B4
:101984000133C7F88C301AE007F130023B6F13447F
:101994001B789B00FA6D13441B68FB6607F1300249
:1019A4003B6F13441B789B00FA6D134400221A60AA
:1019B400F86EFEF7E7FB03460133C7F88830FB6D8A
:1019C400D7F88C20D21AD7F8883013440133BA6878
:1019D4009A4202D26FF01B0329E0D7F88C3007F14A
:1019E40030013A6F0A4412781A70D7F88C300133F8
:1019F400C7F88C30D7F88C30D7F88820F96E1846A1
:101A040020F0D2FDD7F88C20D7F888301344C7F8DB
:101A14008C3000E000BF3B6F01333B673A6FD7F86F
:101A240080309A4290D3FB6DD7F88C20D31A184695
:101A34009037BD4680BD00BF80B483B000AF7860EE
:101A4400034A7B68136000BF0C37BD4680BC7047F7
:101A54001800002080B500AF20F036FE0346024A8D
:101A64009B58184680BD00BF0800000080B584B0B4
:101A740000AFF860B9607A603B6016F0E8FB02469C
:101A840020F022FE034606495A50FB683A687968FA
:101A9400B8689847FFF7DEFF0346184616F0DEFBEA
:101AA4000800000080B584B000AF7860396020225F
:101AB4000021786820F085FD3B68DA687B68DA618C
:101AC4003B689A687B689A613B681A687B681A620B
:101AD4003B685A687B685A627B6800229A623B685A
:101AE4001A697B681A617B685B6A184616F0ECFB1E
:101AF4000346002B05D07B681B6943F001027B6819
:101B04001A617B682C3301220021184616F0F4FB7D
:101B1400F860FB68002B09D02F23064A06490748C2
:101B240016F0C0FB2F21034816F0A3FB00BF1037AB
:101B3400BD4680BDB0370200E0370200EC3702003A
:101B440080B5A6B000AFF860B960C7E900230023F0
:101B5400C7F894300023FB62012387F893300023F5
:101B64007B620023C7F88C30FB685B6ABA689A42D0
:101B740001D9002374E1FB681433C7F88030EFF314
:101B84001183FB67FB6FBB6720237B677B6F83F34A
:101B9400128800BFBFF36F8F00BFBB6FBB61D7F864
:101BA40080303B67386F13F0FFFB034683F001037B
:101BB400DBB2002B0DD08823AB4AAC49AC4816F0FD
:101BC40071FB396FAB4816F06DFB8821A64816F0FF
:101BD40050FB00BFD7F88030FB66F86E13F032FC80
:101BE40000BFBB693B627B6A002B08D07B6A1A4644
:101BF400D7F88C10F86816F0C0FD00237B6207F15B
:101C040028031946F86816F0A2FB034687F88B30C0
:101C1400BB6ABA689A4232D8FB681A6AFB681B68C6
:101C24009B001344C7F89430D7F8942013786FF3CB
:101C340000031370D7F8942013786FF341031370E3
:101C4400BB68FA68BA667B66BB6E1B687A6E194617
:101C5400B86E16F03BFC0246BB6E1A60BB6E1A6887
:101C6400BB6EDB689A4205D1BB6E1B6943F0080268
:101C7400BB6E1A6100BF002387F89330AFE097F87A
:101C84008B30002B08D0BB6A1946F86816F07AFC32
:101C9400012387F89330A2E0D7E900234FF0000036
:101CA4004FF000018B4208BF824200F085801FF094
:101CB400BAFA034683F00103DBB2002B7CD03B6A03
:101CC4003B663B6E002B0CBF01230023DBB2002BD1
:101CD40072D0FB6814337B643B6A7B61786C13F0CD
:101CE4007FFB034683F00103DBB2002B0FD040F2ED
:101CF40031135D4A60495E4816F0D4FA796C5F4846
:101D040016F0D0FA40F23111574816F0B2FA7B6956
:101D14003B643B6CFB63FB6B83F3118800BFBFF335
:101D24006F8F00BF00BF00BFFB6803F12C01D7E930
:101D34000023084616F0F0FAC7F88400FB68143351
:101D4400FB65EFF31183BB65BB6D7B6520233B65AE
:101D54003B6D83F3128800BFBFF36F8F00BF7B6DB1
:101D64003B61FB6DFB64F86C13F01EFB034683F0D0
:101D74000103DBB2002B0DD088233B4A3B493C488E
:101D840016F090FAF96C3B4816F08CFA8821364824
:101D940016F06FFA00BFFB6DBB64B86C13F052FB16
:101DA40000BF3B693B62D7F88430002B0CBF012392
:101DB400002387F8933012E097F89330002B0ED06D
:101DC400FB681B68C7F88C30B96A07F1240307F174
:101DD4002C02F86816F01BFC034687F89330FB6866
:101DE4001433BB633B6AFB61B86B13F0F9FA034627
:101DF40083F00103DBB2002B0FD040F231131A4AF7
:101E04001D491B4816F04EFAB96B1C4816F04AFAE5
:101E140040F23111144816F02CFAFB697B637B6B9A
:101E24003B633B6B83F3118800BFBFF36F8F00BF2D
:101E340000BF00BFFB6A002B0BD0FB689B69002B23
:101E440005D0FB689B69FA6A1146F8689847002335
:101E5400FB6297F89330002B7FF48DAED7F8943063
:101E640018469837BD4680BD0C380200443802003D
:101E7400EC3702005C380200743802008C3802002F
:101E840080B590B000AF786039607B68DB693868F2
:101E94009847F8637B681433FB62EFF31183BB62EA
:101EA400BB6A7B6220233B623B6A83F3128800BFD8
:101EB400BFF36F8F00BF7B6A3B61FB6AFB61F8690C
:101EC40013F072FA034683F00103DBB2002B0DD04A
:101ED40088232B4A2B492C4816F0E4F9F9692B483E
:101EE40016F0E0F98821264816F0C3F900BFFB6A12
:101EF400BB61B86913F0A6FA00BF3B697B613A681D
:101F0400137843F0010313707B685B68FA6B19461E
:101F1400786816F0DBFA02467B685A60786816F037
:101F240085FA7B681433BB637B69FB60B86B13F081
:101F340057FA034683F00103DBB2002B0FD040F2C3
:101F440031130F4A1249104816F0ACF9B96B114815
:101F540016F0A8F940F23111094816F08AF9FB6825
:101F64007B637B6B3B633B6B83F3118800BFBFF3E5
:101F74006F8F00BF00BF00BF00BF4037BD4680BDAC
:101F84000C38020044380200EC3702005C380200CE
:101F9400743802008C38020090B595B000AF7860B8
:101FA400002387F84F307B681433FB63EFF311830E
:101FB400BB63BB6B7B6320233B633B6B83F3128864
:101FC40000BFBFF36F8F00BF7B6BFB60FB6BFB62DB
:101FD400F86A13F0E9F9034683F00103DBB2002B3E
:101FE4000DD08823524A5349534816F05BF9F96AD5
:101FF400524816F057F988214D4816F03AF900BFB7
:10200400FB6BBB62B86A13F01DFA00BFFB687B610F
:1020140007F118031946786816F0C5F97B681A6A3F
:102024007B689B689B001344BB64BB69002B05D091
:10203400B86C16F02EFA0346002B02D00023BB64C2
:1020440041E0B86C16F068FA78647B6C002B08D118
:10205400B86C16F00BFA034683F00103DBB2002BD5
:102064001DD07B6C002B05D17B68DB69B86C98476D
:10207400034600E07B6C3B647B689B683A6C1946C2
:10208400786816F023FA02467B689A603B6C19461E
:10209400786816F05EFA012387F84F3013E0BA6CC3
:1020A400137843F0020313707B689C687B68DB69D8
:1020B400B86C984703461A462146786816F006FA23
:1020C40002467B689A607B6814337B627B693B6160
:1020D400786A13F085F9034683F00103DBB2002B21
:1020E4000FD040F23113124A1549134816F0DAF8AA
:1020F400796A144816F0D6F840F231110C4816F0FB
:10210400B8F83B693B623B6AFB61FB6983F3118866
:1021140000BFBFF36F8F00BF00BF00BF97F84F3001
:10212400002B7FF43DAFBB6C18465437BD4690BDC1
:102134000C38020044380200EC3702005C3802001C
:10214400743802008C38020080B590B000AF78601B
:1021540039607B68DB6938689847F8637B681433B7
:102164007B63EFF311833B633B6BFB622023BB6216
:10217400BB6A83F3128800BFBFF36F8F00BFFB6A93
:10218400BB607B6B7B62786A13F00EF9034683F0C5
:102194000103DBB2002B0DD08823414A4149424858
:1021A40016F080F8796A414816F07CF888213C489A
:1021B40016F05FF800BF7B6B3B62386A13F042F99C
:1021C40000BFBB683B613B68BB63BA6B13786FF3BA
:1021D400000313707B681B6903F00203002B08D013
:1021E4007B681A6A7B68DB689B0013443A689A42EE
:1021F4001AD1BA6B13786FF3410313707B68DA68F2
:102204007B689B689A4209D17B689B68FA6B194684
:10221400786816F05BF902467B689A60FB6B194696
:10222400786816F096F907E0FB6B23F04041BA6B2F
:10223400136861F39F0313607B681433FB613B698C
:10224400FB60F86913F0CCF8034683F00103DBB2BA
:10225400002B0FD040F23113114A1549124816F0E1
:1022640021F8F969134816F01DF840F231110C48B1
:1022740015F0FFFFFB68BB61BB697B617B6983F37E
:10228400118800BFBFF36F8F00BF00BF00BF7B6822
:102294002C33184616F050F800BF4037BD4680BDB9
:1022A4000C38020044380200EC3702005C380200AB
:1022B400743802008C38020080B590B000AF7860AA
:1022C4007B6814333B63EFF31183FB62FB6ABB62ED
:1022D40020237B627B6A83F3128800BFBFF36F8F76
:1022E40000BFBB6A3B613B6B3B62386A13F05CF82E
:1022F400034683F00103DBB2002B0DD08823284A68
:102304002849294815F0CEFF396A284815F0CAFF34
:102314008821234815F0ADFF00BF3B6BFB61F869D2
:1023240013F090F800BF3B697B6107F1180319466D
:10233400786816F038F87B681433FB637B69FB60BC
:10234400F86B13F04DF8034683F00103DBB2002B66
:102354000FD040F23113124A1549134815F0A2FF69
:10236400F96B144815F09EFF40F231110C4815F03A
:1023740080FFFB68BB63BB6B7B637B6B83F3118860
:1023840000BFBFF36F8F00BF00BF00BFBB69002B4E
:1023940014BF01230023DBB218464037BD4680BD7D
:1023A4000C38020044380200EC3702005C380200AA
:1023B400743802008C38020080B58AB000AF7860AF
:1023C40039607B6814337B62EFF311833B623B6AB1
:1023D400FB612023BB61BB6983F3128800BFBFF399
:1023E4006F8F00BFFB69BB607B6A7B61786912F009
:1023F400DBFF034683F00103DBB2002B0DD08823FF
:10240400104A1149114815F04DFF7969104815F02B
:1024140049FF88210B4815F02CFF00BF7B6A3B6104
:10242400386913F00FF800BFBB68FB607B683A683B
:102434009A61FA680121786800F0BAF800BF283779
:10244400BD4680BDA4380200DC380200F438020026
:102454001439020080B586B000AFF860B9607A60C4
:10246400FB689B8B03F007033B617B68002B0EDA50
:10247400BB68FA6892E8030083E80300FB68184627
:1024840016F0BAF90121F86816F086FA84E03B697F
:10249400062B02D03B69052B5DD1BB68FA6892E834
:1024A400030083E80300FB68184616F0A5F93B69AE
:1024B400062B2FD1B86816F0E0F90346002B04D0A0
:1024C400B86816F0DAF9034600E000237B6119E0EE
:1024D400FB68DB8B01339AB2FB68DA837B69002BE0
:1024E4000ED07B69184616F0FBF90346002B05D085
:1024F4007B69184616F0F4F9034602E0002300E075
:1025040000237B617B69002BE2D10221F86816F07D
:1025140043FA12E03B69052B0BD040F20913204A21
:102524002049214815F0BEFE40F209111C4815F05F
:10253400A0FE0021F86816F02FFAF86816F019FBCF
:102544000346002B28D0FB689B8B43F020039AB2F0
:10255400FB689A8320E03B69042B11D10021F868C1
:1025640016F01AFAF86816F004FB0346002B13D091
:10257400FB689B8B43F020039AB2FB689A830BE0C1
:1025840040F21B13064A0949074815F08BFE40F236
:102594001B11034815F06DFE00BF1837BD4680BD02
:1025A4002C3902005C390200F4380200843902003C
:1025B40080B59AB000AFF860B9607A60FB689B8B15
:1025C40003F007037B6600233B66FB689B8B03F0E9
:1025D4000803002B14BF0123002387F85B30BB687A
:1025E400002B0BD140F23313924A9349934815F0D0
:1025F40059FE40F233118F4815F03BFE97F85B30DB
:10260400002B21D0BB68012B07D1FB689B8B43F0C7
:1026140010039AB2FB689A8301E2BB68022B0BD0C9
:102624004FF49E73834A8649844815F03BFE4FF469
:102634009E71804815F01DFEFB689B8B43F02003C0
:102644009AB2FB689A83EAE107F11C03184616F074
:10265400D3F80023FB65BB68022B03D1F86816F09E
:1026640088FAB860BB68002B00F0D88100233B6671
:10267400BB68012B0AD1FB689B693B6607F11C030D
:102684003A6E1946F868FFF7E5FEBFE0BB68032B16
:1026940039D17B6E002B0BD04FF4AB73654A69497B
:1026A400664815F0FFFD4FF4AB71624815F0E1FD8B
:1026B400FB68184616F0F7F80346002B0BD040F2DF
:1026C40057135C4A60495D4815F0ECFD40F2571120
:1026D400584815F0CEFDFB681B691B68FB65FB6D54
:1026E400002B0BD14FF4AD73524A5849534815F09F
:1026F400D9FD4FF4AD714F4815F0BBFD0621F868C4
:1027040016F04AF982E0BB68042B36D17B6E022BAB
:102714000BD040F25D13474A4D49484815F0C2FDBD
:1027240040F25D11434815F0A4FDFB68DB8B002BE0
:102734000BD04FF4AF733F4A4649404815F0B2FD01
:102744004FF4AF713B4815F094FDFB681B695B685F
:10275400FB65FB6D002B0BD140F26113354A3B49FD
:10276400364815F09FFD40F26111324815F081FDA5
:102774000421F86816F010F948E0BB68052B39D13C
:102784007B6E012B0BD04FF4B2732A4A32492B488B
:1027940015F088FD4FF4B271264815F06AFDFB6808
:1027A400184616F080F80346002B0BD040F2651350
:1027B400204A2549214815F075FD40F265111D4850
:1027C40015F057FDFB681B699B68FB65FB6D002BCF
:1027D4000BD14FF4B473174A1C49184815F062FD25
:1027E4004FF4B471134815F044FD0521F86816F050
:1027F400D3F80BE040F26B130E4A18490F4815F05A
:1028040051FD40F26B110B4815F033FDFB689B8BB7
:1028140003F007037A6E9A4222D0FB680833184605
:1028240016F041F8034683F00103DBB2002B17D006
:10283400012316E02C39020088390200F438020022
:1028440098390200AC390200B8390200DC390200C0
:10285400F43902000C3A02001C3A020084390200E6
:10286400002387F85A3097F85A3003F0010387F8A9
:102874005A300023BB6097F85A30002B0ED107F171
:102884001C03184616F00FF8034683F00103DBB26D
:10289400002B03D1FB6D002B00F09780FB689B8B12
:1028A40043F008039BB27B657B6D9AB2FB689A8305
:1028B4007B6D03F007037B66FB6814333B657B6821
:1028C4003B61386D12F08CFD034683F00103DBB2EB
:1028D400002B0FD040F23113684A6949694815F05A
:1028E400E1FC396D684815F0DDFC40F231116348B4
:1028F40015F0BFFC3B69FB64FB6CBB64BB6C83F3EE
:10290400118800BFBFF36F8F00BF00BF00BF97F8EF
:102914005A30002B04D03A6E796EF86816F09CF8A1
:1029240007F11C03184615F0BEFF034683F00103AC
:10293400DBB2002B06D007F11C013B6E7A6EF868FF
:1029440016F0F5F8FB6D002B03D0FB6D4F49F868CA
:102954009847FB6814337B64EFF311833B643B6C4F
:10296400FB632023BB63BB6B83F3128800BFBFF3FD
:102974006F8F00BFFB6B7B617B6C7B63786B12F0AA
:1029840013FD034683F00103DBB2002B0DD0882333
:102994003A4A3F493B4815F085FC796B3D4815F0B0
:1029A40081FC8821354815F064FC00BF7B6C3B63D7
:1029B400386B12F047FD00BF7B697B60FB689B8B23
:1029C40023F008039AB2FB689A83FB689B8B03F09D
:1029D4001003002B09D0FB689B8B23F010039AB2E1
:1029E400FB689A830123BB600EE0FB689B8B03F0BA
:1029F4002003002B08D0FB689B8B23F020039AB2A2
:102A0400FB689A830223BB60FB689B8B03F007037C
:102A14007B66BB68002B7FF41CAE00E000BFFB6844
:102A24001433FB627B68BB61F86A12F0D9FC03467D
:102A340083F00103DBB2002B0FD040F231130F4AB5
:102A44000F49104815F02EFCF96A0F4815F02AFCBE
:102A540040F23111094815F00CFCBB69BB62BB6A3A
:102A64007B627B6A83F3118800BFBFF36F8F00BF63
:102A740000BF00BF00BF6837BD4680BDA438020058
:102A8400343A0200F43802004C3A0200BD2300003C
:102A9400DC3802001439020080B592B000AF7860CF
:102AA4003960002387F84730002387F84630002335
:102AB40087F845303968786815F086FF38643B6CD0
:102AC400002B01DA3B6CC9E07B681433BB63EFF382
:102AD40011837B637B6B3B632023FB62FB6A83F381
:102AE400128800BFBFF36F8F00BF3B6BFB60BB6BF3
:102AF400BB62B86A12F058FC034683F00103DBB2F0
:102B0400002B0DD08823574A5749584815F0CAFB63
:102B1400B96A574815F0C6FB8821524815F0A9FB3D
:102B240000BFBB6B7B62786A12F08CFC00BFFB6851
:102B34007B617B689B8B03F00703FB637B68DB8B08
:102B44004FF6FF72934203D16FF00A033B643BE0FC
:102B5400FB6B3B64FB6B022B09D1012387F84530E7
:102B64007B68DB8B01339AB27B68DA832CE0FB6BE6
:102B7400002B05D0FB6B042B02D0FB6B062B0AD178
:102B8400FB6B002B0CBF0123002387F84630012385
:102B940087F8473018E0FB6B052B03D16FF08503F2
:102BA4003B6411E0FB6B012B0BD04FF4E473314A0F
:102BB40031492E4815F076FB4FF4E4712D4815F099
:102BC40058FB6FF004033B6497F84730002B05D0A3
:102BD4007B683A681146184615F093FE97F846301C
:102BE400002B05D07A6902217868FFF7E1FC34E014
:102BF4007B6814333B627B693B61386A12F0F0FBFB
:102C0400034683F00103DBB2002B0FD040F23113F3
:102C1400144A1A49154815F045FB396A184815F045
:102C240041FB40F231110F4815F023FB3B69FB6176
:102C3400FB69BB61BB6983F3118800BFBFF36F8F6E
:102C440000BF00BF00BF97F84530002B05D000231C
:102C5400FA6B3968786815F04FFF3B6C18464837B3
:102C6400BD4680BDA4380200DC380200F4380200FE
:102C7400143902002C3902001C3A0200343A0200D2
:102C84004C3A020080B586B000AF7860396000230A
:102C94007B6100233B61786815F0B2FFF8607B68C4
:102CA4003A689A60FB68032B09D0FB68032B0ED8A3
:102CB400FB68012B15D0FB68022B04D007E07B686E
:102CC4001B683B610EE07B681B687B610AE045235F
:102CD4000C4A0D490D4815F0E5FA4521094815F04F
:102CE400C8FA00BF7B6800225A607B69002B03D0BE
:102CF4003968786915F076FF3B6918461837BD4680
:102D040080BD00BFF03A0200203B0200243B0200D9
:102D140080B500AF1FF0D8FC0346024A9B58184602
:102D240080BD00BF0800000080B582B000AF7860AD
:102D34007B68002B09D18C230D4A0E490E4815F0EF
:102D4400B1FA8C210A4815F094FA7B681B68DB6899
:102D5400002B04D07B681B68DB68786898477B6825
:102D64005B6801229A7100BF0837BD4680BD00BF71
:102D7400443B0200883B0200A03B020080B582B0C5
:102D840000AF78607B68002B09D1A0230C4A0D4961
:102D94000D4815F087FAA021094815F06AFA7B68F6
:102DA4001B681B69002B06D07B681B681B6978684D
:102DB4009847034600E0002318460837BD4680BD07
:102DC400443B0200883B0200A03B020080B582B075
:102DD40000AF786039607B68002B09D1B423104AB6
:102DE4001049114815F05EFAB4210D4815F041FA66
:102DF4003B68002B09D1B523094A0C490A4815F050
:102E040051FAB521064815F034FA7B681B681B6833
:102E140039687868984700BF0837BD4680BD00BF51
:102E2400443B0200883B0200A03B0200C03B02007E
:102E340080B582B000AF786039607B68002B09D11F
:102E4400C4230C4A0C490D4815F02CFAC421094836
:102E540015F00FFA7B681B685B68002B05D07B6854
:102E64001B685B6839687868984700BF0837BD46B7
:102E740080BD00BF443B0200883B0200A03B02002F
:102E840080B582B000AF78607B68002B09D1D22373
:102E9400084A0949094815F005FAD221054815F0F0
:102EA400E8F97B681B689B687868984700BF083717
:102EB400BD4680BD443B0200883B0200A03B0200AB
:102EC40080B582B000AF78600B46FB707B68002B46
:102ED40009D1E123084A0949094815F0E3F9E12138
:102EE400054815F0C6F97B685B68FA781A7100BF6B
:102EF4000837BD4680BD00BF443B0200883B02004A
:102F0400A03B020080B485B000AF78607B681B01F1
:102F1400044A1344FB60FB6818461437BD4680BC62
:102F2400704700BFFC2A020080B483B000AF054A9A
:102F3400054BD31A1B097B607B6818460C37BD46CA
:102F440080BC70470C2B0200FC2A020080B582B0C2
:102F540000AF78607B68002B0BD140F23513084A30
:102F64000849094815F09EF940F23511044815F056
:102F740080F97B685B685B7918460837BD4680BD7D
:102F8400443B0200883B0200A03B020080B584B0B1
:102F940000AFF8600B467A60FB72FB68002B0BD124
:102FA4004FF4B2730C4A0D490D4815F07BF94FF4F8
:102FB400B271094815F05DF9FB681B689B69002B29
:102FC40006D0FB681B689B69F97A7A68F8689847A9
:102FD40000BF1037BD4680BD443B0200883B020061
:102FE400A03B020080B483B000AF7860044A7B68E1
:102FF40052F8233018460C37BD4680BC704700BFDA
:103004004090020080B590B002AF464815F074FEBF
:103014007863454B1B78002B60D0444B7B62EFF305
:1030240011833B623B6AFB612023BB61BB6983F371
:10303400128800BFBFF36F8F00BFFB69BB607B6A60
:103044007B61786912F0B0F9034683F00103DBB2C7
:10305400002B0DD08823364A3649374815F022F91B
:103064007969364815F01EF98821314815F001F9BF
:1030740000BF7B6A3B61386912F0E4F900BFBB68AA
:10308400FB6015F0D0FF294B3B63FB687B60386B1A
:1030940012F0A6F9034683F00103DBB2002B0FD034
:1030A40040F23113224A2649234815F0FBF8396BC4
:1030B400244815F0F7F840F231111D4815F0D9F8FD
:1030C4007B68FB62FB6ABB62BB6A83F3118800BF47
:1030D400BFF36F8F00BF00BF00BF1FE01A4B1B6818
:1030E400002B1BD07B6B002B0FD14FF400404FF013
:1030F40000014FF000024FF00003CDE90023024627
:103104000B46124815F041FF08E07B6B092B05D1F3
:103114000E4815F04DFF0E4815F06EFF00BF38370E
:10312400BD4680BD380C0020541100204C0C0020FA
:10313400D83B0200103C0200A03B0200283C0200E5
:10314400403C0200583C0200400C00205003002088
:103154007002002080B584B000AF254B00221A70A5
:10316400244B00221A60244B00221A604FF40043BF
:10317400BB60B968214800F0F7F800F0DBFA204B97
:10318400FB6015E001237B600020FFF7BBFE0246D5
:10319400FB689B1A1B111A467B6813447B607B688F
:1031A400DBB21946F868FFF78BFEFB681033FB604F
:1031B400FB68144A93420ED940F22713124A13496A
:1031C400134815F06FF8134815F06CF840F2271106
:1031D4000D4815F04EF8FB680A4A934234BF0123A8
:1031E4000023DBB2002BCDD11037BD4680BD00BF1C
:1031F400541100203C0C0020380C00207390010076
:10320400FC2A02000C2B0200703C0200A83C0200C5
:10321400A03B0200CC3C020080B586B000AF034660
:103224000A46FB711346BB7100237B61FFF77CFEEA
:103234000346082B0BD94FF4A673364A3649374850
:1032440015F030F84FF4A671324815F012F83448EE
:1032540015F052FD0346002B01D0002355E0002356
:103264003B61304BFB6022E0FB681B7B002B18D0DA
:10327400F868FFF759FDF868FFF780FD0346002B57
:1032840008D1FB685B681B6804221946F86815F0CE
:10329400C1FF06E001223B6902FA03F37A69134392
:1032A4007B613B6901333B61FB681033FB60FB6866
:1032B4001D4A93420ED94FF4AC73164A1B49174862
:1032C40014F0F0FF1A4814F0EDFF4FF4AC711148FC
:1032D40014F0CFFFFB68144A934234BF0123002348
:1032E400DBB2002BC0D1FB79002B0DD009E078694B
:1032F40015F0C4FE7861BB79002B02D00A2015F0CA
:1033040091FD7B69002BF2D17B6918461837BD46C5
:1033140080BD00BF703C0200EC3C0200A03B0200F8
:10332400340C0020FC2A02000C2B0200A83C0200F2
:10333400CC3C020080B582B000AF7860074A7B685D
:1033440013607B68002B06D0054B1B68092B02DD3C
:10335400044815F051FE0837BD4680BD400C0020DE
:10336400380C00207002002080B582B000AF786075
:1033740039607B68002B02D16FF0150309E0074A1E
:103384007B681360064A3B681360386801F00EF9E5
:10339400002318460837BD4680BD00BF200000202A
:1033A400440C002080B582B000AF214B1B78002B69
:1033B40039D100210120FFF72FFF1E4B7B600BE06A
:1033C4007868FFF7C3FD0346002B02D07868FFF747
:1033D40057FD7B6810337B607B68174A93420ED994
:1033E40040F2C513154A1649164814F05BFF1648F7
:1033F40014F058FF40F2C511104814F03AFF7B68EE
:103404000D4A934234BF01230023DBB2002BD7D1F2
:1034140000BF15F008FE0346002BFAD100BF044B91
:1034240001221A7000E000BF0837BD4680BD00BF0E
:1034340054110020FC2A02000C2B0200703C0200F4
:10344400A83C0200A03B0200CC3C020080B584B042
:1034540000AF78601B4BFB6013E0F868FFF776FD64
:103464000346002B0AD07968F86815F042FE03463B
:10347400002B03D07968F868FFF7A8FCFB681033C9
:10348400FB60FB68104A93420ED94FF400730F4A55
:103494000F49104814F006FF0F4814F003FF4FF4CF
:1034A40000710A4814F0E5FEFB68074A934234BFF2
:1034B40001230023DBB2002BCFD100BF00BF1037A4
:1034C400BD4680BDFC2A02000C2B0200703C0200A9
:1034D400A83C0200A03B0200CC3C020080B582B0B4
:1034E40000AF00F00BF93860184B7B600CE0786893
:1034F400FFF72CFD0346002B03D039687868FFF7EB
:1035040097FC7B6810337B607B68114A93420ED929
:103514004FF403730F4A1049104814F0C3FE1048C7
:1035240014F0C0FE4FF403710A4814F0A2FE7B6845
:10353400074A934234BF01230023DBB2002BD6D1C8
:1035440000BF00BF0837BD4680BD00BFFC2A020093
:103554000C2B0200703C0200A83C0200A03B0200BD
:10356400CC3C020080B588B004AF0021124815F0AD
:10357400DDFB0346FB600323012B19D90123FB72F6
:10358400FB7A83F00103DBB2002B11D10B4B1968DA
:10359400FB6803930A4B02930023019300230093D7
:1035A40000230222002015F0DBFB00237B6000BF18
:1035B40000BF1037BD4680BD480C00201C00002011
:1035C400203D020080B500AF074B1B7883F0010358
:1035D400DBB2002B02D0054815F00EFD024B012290
:1035E4001A7000BF80BD00BF55110020700200207A
:1035F4002DE9B04384B000AF4FF000024FF0000358
:10360400C7E900232A4B1B7883F00103DBB2002BAC
:1036140001D0002347E03B46184600F0CDF8F8609F
:10362400FB68002B08D0F868FFF710FFF86800F07B
:10363400DDF8204815F06DFB00F06CF80346FB72D2
:1036440015F06CFD0346BB72FB7A002B02D1BB7AEA
:10365400002B1BD015F014FC02460B4610461946ED
:10366400154BD3E90023841A61EB030540F2E933D7
:103674009C4275F1000309D3FB7A002B01D0FFF7BC
:103684002DFFBB7A002B01D0FFF76CFF0A4BD3E967
:10369400002312F57A7843F10009074BC3E9008946
:1036A40000F0B4F8034618461037BD46BDE8B083B1
:1036B40055110020380C00208803002080B582B00A
:1036C40000AF0346FB71094815F016FBFB79002B8C
:1036D40002D0074815F01DFB064815F069FC0648A2
:1036E40015F08AFC00BF0837BD4680BD3C0C0020A5
:1036F400380C0020500300207002002080B500AF79
:103704000021034815F012FB0346184680BD00BF94
:103714003C0C002080B400AF054B1B68002BCCBFD1
:1037240001230023DBB21846BD4680BC704700BFAE
:103734003C0C002080B500AF04490548FEF7B2F9FF
:10374400044B034A1A6000BF80BD00BF50900200C2
:10375400D8010020500C002080B582B000AF786002
:103764007968044815F0E1FC034618460837BD465D
:1037740080BD00BFD801002080B582B000AF786062
:10378400064B1B68984702467B689A607968044830
:1037940015F0DFFC00BF0837BD4680BD20000020C7
:1037A400D801002080B500AF0248FEF7F5FB0346C0
:1037B400184680BDD801002080B584B000AF786081
:1037C400074A084BD31A084AA2FB03239B09FB6050
:1037D400FFF7E8FF034618461037BD4680BD00BF1B
:1037E4001C020020D8010020F1F0F0F080B582B076
:1037F40000AF7860044B1B687968184615F0BAFC72
:1038040000BF0837BD4680BD500C002080B584B091
:1038140000AF0023FB60084A084BD31A084AA2FBF6
:1038240003239B09BB60074815F0B2FC0346184606
:103834001037BD4680BD00BF1C020020D801002007
:10384400F1F0F0F0D801002080B584B000AF034659
:103854003960FB71164BFB6008E0FB793A68194646
:10386400F868FFF793FBFB681033FB60FB68114AB1
:1038740093420ED940F29D330F4A1049104814F078
:1038840011FD104814F00EFD40F29D310A4814F069
:10389400F0FCFB68074A934234BF01230023DBB2E8
:1038A400002BDAD100BF00BF1037BD4680BD00BF7A
:1038B400FC2A02000C2B0200703C0200A83C02000F
:1038C400A03B0200CC3C020080B582B000AF78601F
:1038D400034815F091FB00BF0837BD4680BD00BF0B
:1038E4007002002080B58AB000AFF860B9607A60D9
:1038F400FFF71AFB0346002B0BDC40F2A9332D4AD9
:103904002D492E4814F0CEFC40F2A931294814F078
:10391400B0FC4FF0FF33FB610023FB760021002055
:10392400FFF77AFC78627B6A002B06D040F267626C
:103934004FF00003C7E9042305E04FF0FF324FF0D6
:10394400FF33C7E90423002387F82330FFF7E0F9A6
:1039540003461846FFF7EEFC7B6A002B0CD0786A0E
:1039640015F08CFB78627B6A002B05D14FF0FF3297
:103974004FF0FF33C7E9042315F055FB034683F0EA
:103984000103DBB2002B10D097F82330002B06D0B4
:10399400002387F8233000210020FFF755FFD7E9E3
:1039A4000423074815F018FBD6E7012387F82330D2
:1039B400D2E700BF703C0200B03D0200A03B020011
:1039C4007002002080B588B008AF00221149124867
:1039D4001EF081FA4FF000024FF00003CDE90623F8
:1039E400002304930E2303930023029300230193E3
:1039F40000230093094B4FF480520949094815F0FC
:103A040088FA0949074815F0B2FA00231846BD465A
:103A140080BD00BFCD38000050030020E93800000D
:103A24006821002090070020CC3D020080B483B0C0
:103A340000AF78607B68044A9B1ADB0818460C3791
:103A4400BD4680BC704700BF942A020080B500AF19
:103A54000248FFF7EBFF0346184680BDFC2A02002C
:103A640080B582B000AF786039607B68002B0BD1E1
:103A74004FF48D730A4A0B490B4814F013FC4FF4AE
:103A84008D71074814F0F5FB7B685B683A681A602F
:103A94007B685B6801225A7100BF0837BD4680BD50
:103AA400D43D0200183E0200303E020080B582B0D0
:103AB40000AF786039607B68002B09D1B823094ACC
:103AC40009490A4814F0EEFBB821064814F0D1FB6A
:103AD4007B689A683B685B0013449B8818460837E8
:103AE400BD4680BD503E0200903E0200303E0200C2
:103AF40090B587B002AFF860B9603B601346FB80B5
:103B0400FB68002B09D1E223124A1349134814F02D
:103B1400C9FBE2210F4814F0ACFB3B68002B09D130
:103B2400E3230C4A0E490D4814F0BCFBE321094879
:103B340014F09FFBFB681B68DC68FA883B6A0093FF
:103B44003B68B968F868A047034618461437BD4671
:103B540090BD00BF503E0200903E0200303E020085
:103B6400983E020080B584B000AF03463960FB7113
:103B7400204BFB601BE0FB689B689B68DAB2FB6828
:103B84009B681B68DBB21344FB72FA79FB7A9A4296
:103B94000AD2FB689B689B68DBB2FA79D31ADAB263
:103BA4003B681A70FB6820E0FB681833FB60FB6815
:103BB400114A93420CD95823104A1149114814F060
:103BC40071FB114814F06EFB58210C4814F051FBA2
:103BD400FB68094A934234BF01230023DBB2002B64
:103BE400C9D13B6800221A70002318461037BD461D
:103BF40080BD00BF0C2B02000C2B0200B03E020063
:103C0400E83E0200303E0200043F020080B584B06A
:103C140000AF0346FB7107F10B02FB79114618460E
:103C2400FFF7A0FFF860FB68002B09D1C123094A04
:103C340009490A4814F036FBC121064814F019FB5F
:103C4400FB7A1946F868FFF731FF03461846103728
:103C5400BD4680BDB03E0200243F0200303E02005B
:103C640080B58AB002AF03463960FB71234BDB6930
:103C74003B61FB793B733B689BB2FB81FB6807F1BB
:103C8400140219461D4815F0E9FB034683F00103AD
:103C9400DBB2002B2CD007F10B02FB79114618463E
:103CA400FFF760FFF861FB69002B09D1E523144A93
:103CB4001449154814F0F6FAE521114814F0D9FA1C
:103CC400FB7A18463B689AB2796907F110030093AE
:103CD4000B460146F869FFF70BFFB861BB69002B7F
:103CE40001DA002305E07B691946044815F039FC24
:103CF4007B6918462037BD4680BD00BF540C0020A8
:103D0400B03E0200243F0200303E020080B582B083
:103D140000AF786039607B68DBB2184615F04BFA67
:103D24000346002B0DD0786815F050FA02463B6824
:103D3400934204D2084A3B6852F8333008E0002327
:103D440006E07B68DBB239681846FFF789FF034653
:103D540018460837BD4680BD942A020080B483B05B
:103D640000AF78607B68044A9B1ADB0818460C375E
:103D7400BD4680BC704700BF942A020080B590B055
:103D840004AFB9607B600346FB731346BB733B6CA3
:103D9400002B19D07B6C3B613B6900933B6CFA6B45
:103DA40010210020FDF72AFAF862FB6A002B0DDAD5
:103DB40040F265134A4A4B494B4814F073FA40F2F7
:103DC4006511474814F055FA0023FB62FB6AB3F50A
:103DD400006F1DD30323012B7FD90123FB77FB7FC6
:103DE40083F00103DBB2002B77D1404B196840F21A
:103DF400FF7303933E4B029300230193002300932C
:103E040000230222002015F0BEFB0023BB6164E006
:103E1400FA6ABB6B1344173323F0070303339B087D
:103E2400BB623B7D6FF300033B753B7D6FF3410346
:103E34003B753B7D6FF382033B75FB7B03F007030C
:103E4400DAB23B7D62F3C5033B75BB7B03F007032A
:103E5400DAB2BB8A62F38813BB82FB6AC3F30A0338
:103E64009AB27B6962F353237B61BB6BC3F30B038D
:103E74009AB2FB8A62F30F13FB82B86AFFF76CFCF9
:103E840078627B6A002B02D07B6A103300E0002347
:103E94003B623B6A002B1AD03B6C002B17D0F96AAB
:103EA4007B6C00933B6CFA6B386AFDF7A7F9F862F8
:103EB400FB6A002B0BDA4FF4C473094A09490A4818
:103EC40014F0F0F94FF4C471054814F0D2F97B688A
:103ED4007A69B968786A15F0A4FB3037BD4680BDAD
:103EE400F83F02005C4002003C4002002400002035
:103EF4006840020080B584B000AFF860B9607A60B1
:103F04007B68BA680449F86814F01FF90346184638
:103F14001037BD4680BD00BF5568000080B586B02F
:103F240000AF786039603B687B617B695B681B68C4
:103F34007A69D268934202D1786915F069FC7B6989
:103F44005B68184615F0DAFB38617B699A683B694F
:103F540013447A68D2B21A707B695B681B681A468C
:103F64007B69DB689A4209D97223074A07490848E2
:103F740014F098F97221044814F07BF900231846D0
:103F84001837BD4680BD00BFC0400200F8400200A3
:103F9400284102000EB480B585B000AF78600023DC
:103FA400FB6007F12003BB60BB68FA6979680648C7
:103FB40002F04EFCF860FB6818461437BD46BDE8B5
:103FC400804003B0704700BF213F000080B592B02D
:103FD40004AFF860B9607A60BB6803F04403002B57
:103FE40014BF0123002387F8333097F8333083F06C
:103FF4000103DBB2002B06D07A683849F868FFF772
:10400400C9FF786365E0364B1B68002B5FD0354BE6
:104014001B687A68B2FBF3F37B60314B1B687A68E8
:10402400B2FBF3F3FB622E4B1A687B68B3FBF2F12D
:1040340001FB02F29B1ABB62BB6A4FF47A7203FB68
:1040440002F2274B1B68B2FBF3F37B62BB6A4FF4AB
:104054007A7203FB02F2224B1B68796A01FB03F3B9
:10406400D31A4FF47A7203FB02F21D4B1B68B2FBA6
:10407400F3F33B62FB6AFB61FB691B4AA2FB03236C
:10408400DB0ABB61BB694FF4616202FB03F3FA69AB
:10409400D31AFB61FB69154AA2FB03235B097B610D
:1040A4007A6913461B019B1A9B001A46FB699B1AEB
:1040B400FB613B6A02937B6A0193FB6900937B6912
:1040C400BA690B49F868FFF765FF786301E00023DC
:1040D4007B637B6B18463837BD4680BD4841020080
:1040E400740C0020780C0020C5B3A29189888888BC
:1040F4005441020080B586B000AFF8607B600B4687
:10410400FB721346BB72FB7A002B14D0BB7A002BD4
:104114000AD00B4A7B6852F82330002B04D0084A9B
:104124007B6852F8233000E0064B7B617A690649CC
:10413400F868FFF72FFF00BF1837BD4680BD00BFEA
:1041440078900200704102007841020080B584B08A
:1041540000AF7860084611461A460346FB700B46CA
:10416400BB7013467B700023FB60FB78002B0CD0E4
:10417400194A7B6A52F823301A4618497868FFF7BF
:1041840009FF0246FB681344FB60BB69002B08D09F
:10419400BA6913497868FFF7FDFE0246FB681344C9
:1041A400FB60FB69002B11D0BB78002B04D07B6A29
:1041B400042B01D10B4B00E00B4BFA6919467868CC
:1041C400FFF7E8FE0246FB681344FB60FB681846F1
:1041D4001037BD4680BD00BF649002007C410200E0
:1041E40084410200884102008C41020080B582B003
:1041F40000AF786039603B6803F01003002B0ED1E8
:104204003B6803F02003002B04D007497868FFF7CC
:10421400C1FE05E005497868FFF7BCFE00E000BF79
:104224000837BD4680BD00BF94410200984102009A
:1042340080B588B000AFF860B9607A603B60B96A55
:10424400F868FFF7D3FF0023FB6106E03749F868FD
:10425400FFF7A0FEFB690133FB61FA693B689A42F0
:10426400F4DB0023BB6120E0BB69002B08DDBB69E4
:1042740003F00703002B03D12C49F868FFF78AFEEB
:10428400BB697A689A4209D9BB69BA6813441B7836
:104294001A462749F868FFF77DFE03E02549F868C8
:1042A400FFF778FEBB690133BB61BB690F2BDBDD14
:1042B4002149F868FFF76EFE00237B612DE07B69DE
:1042C400002B08DD7B6903F00703002B03D117499A
:1042D400F868FFF75FFE7B697A689A4216D97B69B2
:1042E400BA6813441B78FB74FB7C8033134A134471
:1042F4001B7803F09703002B01D0FB7C00E02E23F6
:104304001A460F49F868FFF745FE03E00749F868C5
:10431400FFF740FE7B6901337B617B690F2BCEDDA8
:1043240000BF00BF2037BD4680BD00BF9C410200D6
:10433400A0410200A8410200AC410200E79602003D
:10434400B041020090B58DB004AFF860B9603B6035
:104354001346FB7197F83C30042B0BD940F24623EB
:10436400384A3949394813F09DFF40F2462135480F
:1043740013F07FFF0023FB61BB6803F00203002BF3
:1043840014BF01230023FB76BB6803F00103002B59
:1043940014BF01230023BB76BB6803F00803002B82
:1043A40014BF012300237B760023FB74BB6803F452
:1043B4008073002B14BF012300233B7614F0F4FE1A
:1043C40078617B69002B09D07A692149F868FFF785
:1043D400E1FD03461A46FB691344FB61FB7E002B97
:1043E40009D03A68B968F868FFF7F0FD03461A4641
:1043F400FB691344FB6197F83C20BB7E1946F868BF
:1044040015F034FAFC7C3B7E002B01D0002300E045
:104414007B6B97F83C20F879797E0392BA6B029211
:1044240001933B6B009323460246F868FFF78EFE28
:1044340003461A46FB691344FB61FB69184624379B
:10444400BD4690BDC0400200D44102002841020094
:10445400BC41020080B58CB004AFF860B9607A60EA
:104464003B6097F82C30002B0CBF01230023FB7515
:10447400FB7D83F00103DBB2002B12D097F82C30C4
:104484000393BB6A02933B6801937B680093BB6808
:104494000022F96BF868FFF755FFF861214BBB6107
:1044A40008E00023FB613B68012B01D11D4B00E0B8
:1044B4001D4BBB613B6B002B14D03A6BF968B86998
:1044C400FFF718FD38613B69002B0BDA4FF42873B2
:1044D400164A1749174813F0E5FE4FF4287113489C
:1044E40013F0C7FEBB6B002B08D0FA69FB6B00937B
:1044F4001346BA6B796BF86815F0DAF9FB7D83F033
:104504000103DBB2002B06D097F82C301A46F96B66
:10451400F86815F0F1F9F86815F07AF900BF20375A
:10452400BD4680BD213F000047980100C040020005
:10453400E04102002841020080B586B000AF7860F7
:1045440039607B681B687B613B6842F20F7293425F
:1045540028BF13463B6007F108003B68104A052159
:1045640012F0D2FF38617B685B685B680B220D49EF
:10457400786915F02FF93A697B685B685B6807F125
:104584000801786915F026F97B685B685B681B2273
:104594000549786915F01EF900BF1837BD4680BD7E
:1045A400EC4102008C9002009890020080B483B029
:1045B40000AF78600B4B01221A6007E07B685B0850
:1045C4007B60084B1B685B00064A13607B68064AE5
:1045D4009342F3D8054A7B68136000BF0C37BD468D
:1045E40080BC7047780C002040420F00740C0020FF
:1045F40080B588B000AFF860B9607A607B68BB6151
:10460400BB695B687B61154B3B61386915F085FAC2
:104614000346002B01DAB9681AE00023FB610AE0C3
:10462400FA68FB6913441B781946386915F066FA71
:10463400FB690133FB61FA69BB689A42F0D300BF9E
:104644004FF021024FF00003386915F070FAB96891
:104654000B4618462037BD4680BD00BFA027020088
:1046640080B586B000AF78607B685B681B683B618F
:10467400104BFB603B695B687B61F86815F0AFF930
:10468400034683F00103DBB2002B09D099230A4AC5
:104694000A490B4813F006FE9921074813F0E9FD77
:1046A4003B691B683969184615F0DCF91837BD46B3
:1046B40080BD00BFA0270200FC410200444202006A
:1046C4006042020080B586B000AF78607B685B68AA
:1046D4001B687B617B695B683B61074BFB603B69E3
:1046E40001221A777B691B68184615F0DCF900BFB4
:1046F4001837BD4680BD00BFA027020080B483B038
:1047040000AF78607B68044A1A60002318460C37AF
:10471400BD4680BC704700BFE890020080B590B0F1
:1047240006AF78600323002B20D00123BB73BB7B2F
:1047340083F00103DBB2002B18D13E4B18687B6871
:104744001B687A68526879688968059104920393B2
:10475400394B029300230193002300930023012289
:104764000146002015F036FA00233B610323002B99
:1047740020D00123FB73FB7B83F00103DBB2002B0E
:1047840018D12C4B18687B68DB687A6812697968E1
:104794004969059104920393284B029300230193E2
:1047A40000230093002301220146002015F012FA91
:1047B40000233B620323002B19D00123FB77FB7FEB
:1047C40083F00103DBB2002B11D11A4B19687B680B
:1047D400DB6903931A4B0293002301930023009394
:1047E40000230122002015F0F5F90023BB61032307
:1047F400002B1AD00123FB75FB7D83F00103DBB290
:10480400002B12D10B4B19687B689B6903930D4BEA
:10481400029300230193002300930023012200202C
:1048240015F0D8F900237B6200BF00BF2837BD46CE
:1048340080BD00BF3000002094420200C442020048
:10484400F44202000443020080B58AB004AF7860E9
:1048540039603B68002B02D03868FFF75FFF7B6844
:10486400012B21D1EFF30583BB60BB68103B7B6157
:104874000323002B18D00123FB74FB7C83F001037A
:10488400DBB2002B10D10C4B19687B6903930B4BE3
:1048940002930023019300230093002301220020AC
:1048A40015F098F90023FB60396878680BF054FC24
:1048B40000BF1837BD4680BD3000002034430200DD
:1048C40030BFFFF7FDBF00BF80B400AF034A044B05
:1048D40013441846BD4680BC704700BF000000006A
:1048E4000400000080B582B000AF7860094B1A461E
:1048F400094978681DF058FE064A7B6813447B60BA
:10490400064B1A46002178681DF05BFE00BF08378D
:10491400BD4680BD000000004D2B020004000000D5
:1049240080B400AF074BDA69064B9B689A4205D006
:10493400054B5B68044A43F08053536000BFBD4697
:1049440080BC70477808002000ED00E080B59AB084
:1049540004AFF860B9607A6010237B656FF01503CB
:104964003B650323002B18D0012387F84F3097F8B9
:104974004F3083F00103DBB2002B0ED1994B196841
:10498400994B0293002301930023009300230122F7
:10499400002015F079F90023BB64944B9B6A03F063
:1049A4001003002B1DD011237B650323002B18D08B
:1049B400012387F8473097F8473083F00103DBB2CF
:1049C400002B0ED1874B1968894B02930023019366
:1049D4000023009300230122002015F055F9002341
:1049E4003B64824B9B6A03F00803002B1DD0122307
:1049F4007B650323002B18D0012387F83F3097F8F9
:104A04003F3083F00103DBB2002B0ED1754B1968E4
:104A1400784B029300230193002300930023012287
:104A2400002015F031F90023BB63704B9B6A03F03F
:104A34000203002B4FD013237B650323002B18D0D4
:104A4400012387F8373097F8373083F00103DBB25E
:104A5400002B0ED1634B1968674B0293002301931B
:104A64000023009300230122002015F00DF90023F8
:104A74003B635E4B5B6BFB625C4B9B6A03F08003A6
:104A8400002B28D0FB6A3B650323002B1AD001239B
:104A940087F82B3097F82B3083F00103DBB2002B1F
:104AA40010D1504B19683B6D0393544B0293002370
:104AB40001930023009300230122002015F0E4F861
:104AC40000237B62BB68002B05D0484B9B6A474A96
:104AD40023F080039362454B9B6A03F00103002B90
:104AE4001DD014237B650323002B18D0012387F8E2
:104AF400233097F8233083F00103DBB2002B0ED16F
:104B0400384B19683E4B0293002301930023009312
:104B140000230122002015F0B7F80023FB61334B7A
:104B24009B6A03F02003002B1BD015237B65032312
:104B3400002B16D00123FB76FB7E83F00103DBB24E
:104B4400002B0ED1274B19682E4B0293002301939F
:104B54000023009300230122002015F095F8002380
:104B64007B61224B9B6A03F01003002B05D11F4B82
:104B74009B6A03F00203002B14D01C4B9B6A03F0C6
:104B84001003002B0ED04FF495731F4A1F49204881
:104B940013F088FB1F4813F085FB4FF495711A48F6
:104BA40013F067FB114B9B6A03F02003002B05D025
:104BB4000E4B5B6A0D4A23F4005353620B4B9B6A02
:104BC4000A4A43F0FF0393620121F86815F084F860
:104BD40003461A467B681A707B6D18465837BD46E3
:104BE40080BD00BF340000204843020000ED00E017
:104BF4006043020094430200A8430200C043020041
:104C0400D8430200F843020028440200644402002E
:104C1400B0440200D044020080B59AB004AFF860FA
:104C2400B9607A6016237B650323002B18D0012317
:104C340087F8533097F8533083F00103DBB2002B2D
:104C44000ED1934B1968934B0293002301930023D5
:104C5400009300230122002015F016F80023FB64C2
:104C64008D4B9B6A03F48053002B1DD017237B6567
:104C74000323002B18D0012387F84B3097F84B30CF
:104C840083F00103DBB2002B0ED1814B1968834BF7
:104C940002930023019300230093002301220020A8
:104CA40014F0F2FF00237B647B4B9B6A03F40063E4
:104CB400002B1DD018237B650323002B18D0012360
:104CC40087F8433097F8433083F00103DBB2002BBD
:104CD4000ED16F4B1968724B02930023019300238A
:104CE400009300230122002014F0CEFF0023FB6375
:104CF400694B9B6A03F40073002B4DD019237B6529
:104D04000323002B18D0012387F83B3097F83B305E
:104D140083F00103DBB2002B0ED15D4B1968614BAC
:104D24000293002301930023009300230122002017
:104D340014F0AAFF00237B63574B9B6B3B63564BDA
:104D44009B6A03F40043002B26D00323002B1AD0C4
:104D5400012387F82F3097F82F3083F00103DBB25B
:104D6400002B10D14A4B19683B6B03934E4B0293B3
:104D7400002301930023009300230122002014F058
:104D840083FF0023BB62BB68002B05D0424B9B6AA8
:104D9400414A23F4004393623F4B9B6A03F48063CC
:104DA400002B1DD01A237B650323002B18D001236D
:104DB40087F8273097F8273083F00103DBB2002B04
:104DC4000ED1334B1968394B02930023019300230E
:104DD400009300230122002014F056FF00233B62BD
:104DE4002D4B9B6A03F48073002B1CD01B237B6523
:104DF4000323002B39D00123FB75FB7D83F00103D2
:104E0400DBB2002B31D1224B1968294B02930023CA
:104E140001930023009300230122002014F034FFA7
:104E240000233B6121E01C4B9B6A03F40053002BDD
:104E34001BD01C237B650323002B16D00123FB7797
:104E4400FB7F83F00103DBB2002B0ED1104B1968FA
:104E5400184B0293002301930023009300230122A3
:104E6400002014F011FF0023BB610B4B9B6A0A4A1C
:104E740043F47F4393620121F86814F02DFF034645
:104E84001A467B681A707B6D18465837BD4680BD3C
:104E9400340000203445020000ED00E04C450200DF
:104EA40094430200604502007C45020094450200E0
:104EB400B0450200F843020080B598B004AF7860B2
:104EC4001D23FB640323002B18D0012387F84B30E8
:104ED40097F84B3083F00103DBB2002B0ED18B4BE0
:104EE40019688B4B02930023019300230093002342
:104EF4000122002014F0C8FE00237B64854B9B6ACA
:104F040003F00073002B1DD01E23FB640323002B2E
:104F140018D0012387F8433097F8433083F0010316
:104F2400DBB2002B0ED1794B19687B4B0293002323
:104F340001930023009300230122002014F0A4FE17
:104F44000023FB63734B9B6A03F08073002B1DD01B
:104F54001F23FB640323002B18D0012387F83B3065
:104F640097F83B3083F00103DBB2002B0ED1674B83
:104F740019686A4B029300230193002300930023D2
:104F84000122002014F080FE00237B63614B9B6AA6
:104F940003F48013002B1FD02023FB640323002B76
:104FA40018D0012387F8333097F8333083F00103A6
:104FB400DBB2002B0ED1554B1968594B02930023D9
:104FC40001930023009300230122002014F05CFECF
:104FD4000023FB620223FB644E4B9B6A03F4002311
:104FE400002B1DD02123FB640323002B18D00123A5
:104FF40087F82B3097F82B3083F00103DBB2002BBA
:105004000ED1424B1968474B0293002301930023AE
:10501400009300230122002014F036FE00237B625B
:105024003C4B9B6A03F48023002B1DD02223FB649A
:105034000323002B18D0012387F8233097F823305B
:1050440083F00103DBB2002B0ED1304B1968364BD1
:1050540002930023019300230093002301220020E4
:1050640014F012FE0023FB612A4B9B6A03F4003305
:10507400002B1BD02323FB640323002B16D0012316
:10508400FB76FB7E83F00103DBB2002B0ED11F4BBA
:105094001968264B029300230193002300930023F5
:1050A4000122002014F0F0FD00237B61194B9B6A60
:1050B40003F48033002B1BD02423FB640323002B35
:1050C40016D00123FB74FB7C83F00103DBB2002BBD
:1050D4000ED10E4B1968164B029300230193002343
:1050E400009300230122002014F0CEFD0023FB6076
:1050F400084B9B6A074A6FEA03436FEA13439362C0
:10510400FB6C18465037BD4680BD00BF34000020FC
:10511400C845020000ED00E0E0450200F44502004D
:10512400104602003C4602005C460200844602002F
:10513400A046020080B588B004AF786039603B684F
:1051440000221A700323002B17D00123FB73FB7B6F
:1051540083F00103DBB2002B0FD10A4B19680A4B11
:1051640002930023019300230093002301220020D3
:1051740014F08AFD0023BB6000BF00BF1037BD469A
:1051840080BD00BF34000020CC46020080B485B04E
:1051940000AF78607B689B69FB601B4B5B691A4AB4
:1051A40043F480735361BFF34F8F00BF00BF00BF50
:1051B400BFF36F8F00BF00BF00BFFB6833F8023C32
:1051C4007B81114B5B69104A23F480735361BFF3F5
:1051D4004F8F00BF00BF00BFBFF36F8F00BF00BF82
:1051E40000BF7B8903F47F43B3F55F4F05D17B890F
:1051F400DBB2022B01D1012300E00023184614374F
:10520400BD4680BC704700BF00ED00E080B592B0A1
:1052140004AF786039600023FB620323002B18D0AD
:10522400012387F8333097F8333083F00103DBB27E
:10523400002B0ED1734B1968734B02930023019317
:105244000023009300230122002014F01DFD0023FD
:105254007B633B6800221A706C4BDB6A03F0020329
:10526400002B1CD00323002B00F0C7800123FB7408
:10527400FB7C83F00103DBB2002B40F0BE80614B6A
:105284001968634B029300230193002300930023C6
:105294000122002014F0F8FC0023FB60ADE05B4B1E
:1052A400DB6A002B1CDA0323002B00F0A680012309
:1052B400FB76FB7E83F00103DBB2002B40F09D8084
:1052C400504B1968534B029300230193002300931E
:1052D40000230122002014F0D7FC00237B618CE022
:1052E4004A4BDB6A03F08043002B77D00323002B67
:1052F40018D0012387F82B3097F82B3083F0010363
:10530400DBB2002B0ED13F4B1968434B02930023B1
:1053140001930023009300230122002014F0B4FC25
:1053240000237B627868FFF731FF0346002B22D00D
:105334000323002B1BD0012387F8233097F8233055
:1053440083F00103DBB2002B11D12E4B19687B686B
:105354001B680393314B02930023019300230093B2
:1053640000230122002014F08FFC0023FB617B68E2
:105374001B68FB6241E0254B9B6ADBB2002B06D025
:105384003A6801217868FFF7E1FAF86235E01F4BCB
:105394009B6A03F47F43002B07D03A6801217868A5
:1053A400FFF73AFC0346FB6227E0184B9B6AB3F510
:1053B400803F04D37868FFF77FFDF8621DE040F278
:1053C400EA23174A1749184812F06CFF174812F0DD
:1053D40069FF40F2EA21124812F04BFF40F2ED233C
:1053E4000F4A1049104812F05DFF114812F05AFF9D
:1053F40040F2ED210A4812F03CFFFB6A18463837A8
:10540400BD4680BD34000020F046020000ED00E0FF
:10541400084702002C4702003C4702005C47020098
:105424002844020078470200B04402007C4702008E
:10543400A047020080B58AB006AF786039600323C4
:10544400002B21D00123FB73FB7B83F00103DBB230
:10545400002B19D10E4B19683B680F2B01DC0D4B47
:1054640000E00D4B3A68103A049203930B4B0293FD
:10547400002301930023009300230122002014F051
:1054840003FC0023BB6000BF00BF1037BD4680BDD6
:1054940034000020D0470200E8470200044802001C
:1054A40080B586B000AFF860B9607A6000237B6194
:1054B4007B6800221A70BB68033B092B35D801A214
:1054C40052F823F0F1540000FD5400000B55000085
:1054D4001B5500002F5500002F5500002F550000CC
:1054E4002F5500002F550000255500007968F868F5
:1054F400FFF78CFE78611DE07A680021F868FFF7F9
:1055040025FA786116E07A680021F868FFF784FBD1
:1055140003467B610EE0F868FFF7CEFC786109E092
:105524007968F868FFF706FE04E0B968F868FFF7E1
:1055340081FF00BF7B681B7883F00103DBB2002B83
:1055440003D0B968F86814F0BDFB7B6918461837B6
:10555400BD4680BD80B58CB004AFF860B9607A6098
:105564003B600023FB760023FB613B6800221A703A
:105574007B6803F07F43B3F17F4F01D0002339E010
:105584007B6803F00803002B20D07B6803F004033E
:10559400002B1BD10323002B16D00123BB76BB7E2B
:1055A40083F00103DBB2002B0ED1144B1968144BAA
:1055B400029300230193002300930023012200207F
:1055C40014F062FB00237B61002313E0FB7E83F075
:1055D4000103DBB2002B0CD07B6803F00803002B23
:1055E40002D0BB68FB6104E0FB68FB613B680122FD
:1055F4001A70FB6918462037BD4680BD3400002070
:105604001848020080B594B000AFF860B9607A60C1
:105614003B600023FB64324B5B68C3F30803BB6449
:1056240000233B643B6CFB63FB6B83F3118800BF7B
:10563400BFF36F8F00BF00BF07F132037A68B96808
:10564400F868FFF787FF78647B6C002B0ED140F27B
:105654001143244A2449254812F024FE244812F018
:1056640021FE40F211411F4812F003FE7B6CBB6324
:105674007B687B6300BF07F133031A46B96C786C0F
:10568400FFF70EFFF86497F83330002B23D107F1AE
:1056940010032022796C18461CF086FF97F83230EC
:1056A400002B0BD0FB6AC3F30803002B0CD1FB6A5D
:1056B4006FEA53236FEA4323FB6205E0FB6A23F49A
:1056C400FF7323F00103FB6207F110031946F86C22
:1056D400FFF7BAF800E000BF5037BD4680BD00BFF9
:1056E40000ED00E02844020044480200B0440200F7
:1056F4005848020080B400AF0A4B5B69094A43F082
:1057040010035361074B5B69064A43F4806353619A
:10571400044B5B69034A23F00803536100BFBD4691
:1057240080BC704700ED00E0EFF30880EFF30981DF
:1057340001B57246FFF766FF01BD00BF0D4880F357
:10574400088800200C49087007F078FF202080F3B7
:1057540011880A484FF40061401880F30988EFF378
:1057640014800221084380F31488BFF36F8F14F070
:10577400E5FA00006841002062110020A8420020E0
:1057840080B584B000AF7860114B9B687A689A4208
:1057940016D1EFF30583FB60FB68002B14BF0123D4
:1057A4000023DBB2002B0BD00A4B5B68094A43F0A1
:1057B40080535360074B5B6A064A23F400435362E9
:1057C40078680EF0D7FF00BF1037BD4680BD00BF1C
:1057D4007808002000ED00E001B51BF060FDBDE895
:1057E400014019498A684FF040001044EFF3098CD6
:1057F40080E8F01F202080F31288BFF36F8F134FCF
:105804004FF00066CA698A603E60D2F8B800104C56
:105814002060D2F8BC000023C2F8BC3080F31188A9
:1058240002F1400090E8F01F8CF3098802F10000B7
:1058340004B514F091FABDE8044001B50CF046FA41
:10584400BDE80140704700007808002004ED00E046
:10585400AC0C00201EF0040F0CBFEFF30880EFF334
:105864000980816911F8021C0229FFD001B5724632
:1058740014F0CEF901BD00BF80B483B000AF03467D
:10588400FB7197F90730002B0BDBFB7903F01F0248
:10589400064997F907305B09012000FA02F241F842
:1058A400232000BF0C37BD4680BC704700E100E0F8
:1058B40080B483B000AF0346FB7197F90730002B27
:1058C40012DBFB7903F01F020A4997F907305B09E1
:1058D400012000FA02F2203341F82320BFF34F8F56
:1058E40000BFBFF36F8F00BF00BF0C37BD4680BC45
:1058F400704700BF00E100E080B483B000AF03460E
:105904003960FB7197F90730002B0ADB3B68DAB288
:105914000C4997F907305201D2B20B4483F80023A3
:105924000AE03B68DAB20849FB7903F00F03043B51
:105934005201D2B20B441A7600BF0C37BD4680BC6C
:10594400704700BF00E100E000ED00E080B483B0E8
:1059540000AF7860084A7B685B0952F823207B68B3
:1059640003F01F03012101FA03F3134018460C3717
:10597400BD4680BC704700BF00E100E080B584B044
:1059840000AFF860B9607A60BB680133BB60BB6884
:10599400072B10D96B230D4A0D490E4812F082FCD7
:1059A400BB68591E0723FA680B4812F07BFC6B2175
:1059B400064812F05EFCFB685BB2B9681846FFF754
:1059C4009BFF00BF1037BD4680BD00BF9848020052
:1059D400D8480200F44802001449020080B400AF21
:1059E400094B0A4A23F07F039360BFF34F8F00BF34
:1059F40000BF00BFBFF36F8F00BF00BF00BF00BF79
:105A0400BD4680BC704700BF0000000000ED00E010
:105A140080B483B000AF0D4BD3F888300B4A23F425
:105A24007003C2F88830EFF314833B603B6823F0C3
:105A340004037B607B6883F31488BFF36F8F00BF1C
:105A440000BF00BF0C37BD4680BC704700ED00E0CE
:105A540080B487B000AFF860B9607A603B607B685F
:105A6400203B7B61124A7B699A617B699B6923F0C5
:105A740001027B699A613A687B691A603A6A7B69B8
:105A84005A607A6A7B699A60BA6A7B69DA607B6970
:105A94004FF08072DA617A69FB681A66FB6800224B
:105AA400C3F8BC2000BF1C37BD4680BC704700BF94
:105AB400711A0000F0B587B000AFF860B9607A6081
:105AC40014F05DF9114AFB689360FB68D3F8B830B1
:105AD4000F4A13600CF0FAF8FB68D3F8A8307B6126
