:10000000A8300020F95700004F900100E55700008C
:10001000E5570000E5570000E5570000E5570000F0
:100020000000000000000000000000001159000066
:10003000E55700000000000095580000E55700005B
:100040003D5C00003D5C00003D5C00003D5C00004C
:100050003D5C00003D5C00003D5C00003D5C00003C
:100060003D5C00003D5C00003D5C00003D5C00002C
:100070003D5C00003D5C00003D5C00003D5C00001C
:100080003D5C00003D5C00003D5C00003D5C00000C
:100090003D5C00003D5C00003D5C00003D5C0000FC
:1000A0003D5C00003D5C00003D5C00003D5C0000EC
:1000B0003D5C00003D5C00003D5C00003D5C0000DC
:1000C0003D5C00003D5C00003D5C00003D5C0000CC
:1000D0003D5C00003D5C00003D5C00003D5C0000BC
:1000E0003D5C00003D5C00003D5C00003D5C0000AC
:1000F0003D5C00003D5C00003D5C00003D5C00009C
:100100003D5C00003D5C00003D5C00003D5C00008B
:100110003D5C00003D5C00003D5C00003D5C00007B
:100120003D5C00003D5C00003D5C00003D5C00006B
:100130003D5C00003D5C00003D5C00003D5C00005B
:100140003D5C00003D5C00003D5C00003D5C00004B
:040150003D5C000012
:1001540053B94AB9002908BF00281CBF4FF0FF312A
:100164004FF0FF3000F00CB8ADF1080C6DE904CE8F
:1001740000F010F8DDF804E0DDE9022304B0704774
:10018400704700BF034613F8012B002AFBD1181A4D
:10019400013870472DE9F04786468C460846089E8C
:1001A400154674461946002B40F0C1808542B2FAC8
:1001B40082F245D94AB1C2F1200300FA02FC95400B
:1001C40094402EFA03F343EA0C0C4FEA154EA8B2FE
:1001D400230CBCFBFEF80EFB18CC08FB00F943EA29
:1001E4000C43994528D9EB1808F1FF3704D29945F7
:1001F40002D9A8F102072B44A3EB0903A4B2B3FB71
:10020400FEFC0EFB1C330CFB00F044EA0344A0424A
:1002140014D92C190CF1FF3304D2A04202D9ACF149
:1002240002032C44241A43EA07401EB1D44000239D
:1002340034607360BDE8F0874746DDE76346F1E765
:1002440092BB431B01214FEA154EAFB2200CB3FB06
:10025400FEFC0EFB1C330CFB07F840EA03439845F5
:1002640061D9EB180CF1FF3004D2984502D9ACF1F6
:1002740002002B44A3EB0803A4B2B3FBFEFC0EFB69
:100284001C330CFB07F744EA0344A7424DD92C194D
:100294000CF1FF3304D2A74202D9ACF102032C447F
:1002A400E41B43EA0040C0E7C2F1200395409440B8
:1002B40020FA03F12EFA03F34FEA154E9040AFB241
:1002C4000343B1FBFEFC0EFB1C10190C0CFB07F8DE
:1002D40041EA0041884522D969180CF1FF3004D263
:1002E400884502D9ACF102002944A1EB08019BB274
:1002F400B1FBFEFC0EFB1C110CFB07F743EA0143A8
:100304009F420ED9EB180CF1FF3104D29F4202D95F
:10031400ACF102012B44DB1B41EA004193E7604648
:10032400E3E76146F7E76046A4E76346B8E783423C
:1003340006D916B9002108467CE7C6E900E0F9E7CA
:10034400B3FA83F78FB9834201D3724508D8BEEB61
:10035400020460EB030301209C461EB9002169E7F7
:100364003846FAE7C6E9004CF8E7C7F1200CBB4071
:100374000EFA07F522FA0CF42EFA0CF1BA401C43DB
:1003840020FA0CF3B8404FEA144901431FFA84FEE3
:10039400B3FBF9F809FB18300B0C08FB0EFA43EA1F
:1003A40000439A4540D9E31808F1FF3004D29A4536
:1003B40002D9A8F102002344A3EB0A0389B2B3FBD8
:1003C400F9F809FB183308FB0EFE41EA03418E4598
:1003D4002CD9611808F1FF3304D28E4502D9A8F153
:1003E4000203214443EA0040A1EB0E01A0FB029862
:1003F4004145CE46434602D306D14D4504D2013889
:10040400B9EB020E68EB0403002EA7D0B5EB0E0285
:1004140061EB030101FA0CFC22FA07F3F9404CEA00
:100424000303C6E9003199E74046C5E74346D9E7E7
:1004340090B58BB000AFF8600B467A60FB72FB6836
:100444009B687B62FB685B683B62FB681B69FB61C2
:100454007B6A9B69002B02D16FF057039BE07B689A
:1004640003F4C003B3F5C00F0ED140F27B334C4A02
:100474004C494D4817F01DF94C4817F01AF940F251
:100484007B31474817F0FCF87B6803F4C003002B6A
:100494000ED140F27F33424A4549434817F009F9E7
:1004A400444817F006F940F27F313D4817F0E8F868
:1004B4007B6803F48003002B19D07B6803F08073FE
:1004C400002B14D17B6803F0C063B3F1C06F0ED16D
:1004D40040F28233324A3849334817F0EAF8374851
:1004E40017F0E7F840F282312D4817F0C9F87B681D
:1004F40003F48003002B13D07B6803F0C063002B4C
:100504000ED140F28F33264A2D49274817F0D1F8EF
:100514002C4817F0CEF840F28F31214817F0B0F88C
:100524003B6A1A68FB7A012101FA03F31340002B9A
:100534000ED14FF465731A4A23491B4817F0B9F8D2
:10054400224817F0B6F84FF46571154817F098F87B
:100554007B6803F40003002B0CD0FB691A68FB7A58
:10056400012101FA03F31340002B03D07B6883F0CD
:10057400C0637B607A68164B1340BB617B6803F0F1
:10058400B0737B617B6A9C69F97ABB697A69F868A4
:10059400A04738613B6918462C37BD4690BD00BF63
:1005A400001F02003C1F02008C1F0200AC1F02004F
:1005B400D81F02000820020034200200C8200200D4
:1005C4001C21020084210200CC2102000C22020022
:1005D4004000000680B588B000AFF8600B467A6032
:1005E400FB72FB689B68FB61FB685B68BB61FB6833
:1005F4001B697B617B6803F0FC63002B0ED04FF416
:1006040078736B4A6B496C4817F053F86B4817F0D2
:1006140050F84FF47871664817F032F87B6803F0AD
:100624003003302B0ED140F2E333614A644962480F
:1006340017F03FF8634817F03CF840F2E3315C48A8
:1006440017F01EF87B6803F48033002B18D07B6806
:1006540003F40033002B13D17B6803F00203002B57
:100664000ED040F2E733524A5749534817F021F865
:10067400564817F01EF840F2E7314D4817F000F8DD
:100684007B6803F00203002B10D17B6803F00403A2
:10069400002B0BD040F2EA33454A4D49464817F047
:1006A40008F840F2EA31424816F0EAFF7B6803F4A6
:1006B4004023002B13D07B6803F40033002B0ED1AE
:1006C40040F2ED333A4A43493B4816F0F2FF4248C0
:1006D40016F0EFFF40F2ED31354816F0D1FF7B689C
:1006E40003F44023B3F5402F0ED140F2F133304AE6
:1006F4003A49314816F0DDFF394816F0DAFF40F286
:10070400F1312B4816F0BCFF7B6803F48013002BF7
:100714000DD07B6803F44023002B08D07B6803F0E2
:100724000103002B03D07B6883F440237B607B6848
:1007340023F480137B60BB691A68FB7A012101FAF8
:1007440003F31340002B0ED140F2FD33184A254920
:10075400194816F0AEFF244816F0ABFF40F2FD3105
:10076400134816F08DFF7B6803F00103002B09D0BA
:100774007B691A68FB7A012101FA03F31A437B6946
:100784001A6009E07B691A68FB7A012101FA03F314
:10079400DB431A407B691A60FB691B68F97A7A6843
:1007A400F868984738613B6918462037BD4680BDD4
:1007B400001F0200202202008C1F0200902202006F
:1007C400B4220200F022020030230200802302003F
:1007D400D0230200042402005424020090240200C6
:1007E400E0240200CC2102000C22020080B584B077
:1007F40000AF78600B46FB707B685B68FB60FB684E
:100804001A68FB78012101FA03F31340002B0ED17F
:1008140040F2B7630C4A0D490D4816F04AFF0D48E3
:1008240016F047FF40F2B761074816F029FFFB783E
:10083400012202FA03F31946786816F03DFC0346D8
:1008440018461037BD4680BD001F0200CC210200AF
:100854008C1F02000C22020080B584B000AFF86047
:10086400B9607A60FB68002B0ED14FF4DB63144A45
:100874001449154816F01DFF144816F01AFF4FF4DA
:10088400DB610F4816F0FCFEBB68002B0ED140F272
:10089400D9630B4A0E490C4816F00BFF0D4816F0AD
:1008A40008FF40F2D961064816F0EAFEFB68BA6810
:1008B4005A60FB687A689A6000BF1037BD4680BDF5
:1008C400001F02000C2502008C1F020018250200E4
:1008D400402502004825020080B586B000AFF860CC
:1008E400B96011461A460B46FB801346BB80FB8851
:1008F400002B1ED0FB881946104816F09DFE0023DD
:10090400FB820AE0FB8ABA6813441B7819460C4838
:1009140016F092FEFB8A0133FB82FA8AFB889A4224
:10092400F0D3B7F9043097F920201946054816F09A
:1009340083FE00BF1837BD4680BD00BF802502007E
:10094400902502009825020080B58EB004AF78602F
:100954000B46FB701F4BFB6000233B7408237B7426
:100964000823BB820123BB7400233B7600237B76E0
:100974000E23BB75FB78FB7507F10C0319467868E9
:1009840016F0C7FA78627B6A002B1DDA0323002B6A
:1009940018D0012387F8233097F8233083F001031C
:1009A400DBB2002B0ED10C4B19680C4B02930023C5
:1009B40001930023009300230122002016F08AFBF8
:1009C4000023FB61002300E0012318462837BD46BD
:1009D40080BD00BFE060903308000020B425020011
:1009E40080B584B000AFF860B9607A60044816F04E
:1009F40013FB044816F082FA00BF1037BD4680BDD1
:100A0400000000208802002080B5ACB006AF6B481F
:100A140016F0B9FA034683F00103DBB2002B1ED0B3
:100A24000323002B19D00123FB72FB7A83F001030B
:100A3400DBB2002B11D1624B1968624B1B68039324
:100A4400614B0293002301930023009300230122AE
:100A5400002016F03FFB00237B60002330E34FF4BB
:100A64008031564816F0AFFAC7F88800D7F88830B6
:100A7400002B23D00323002B1ED00123FB74FB7C0B
:100A840083F00103DBB2002B16D14D4B19684D4B9B
:100A94001B68172205920493D7F8883003934B4BB5
:100AA40002930023019300230093002301220020DA
:100AB40016F010FB0023FB60002301E34FF0B86144
:100AC4003E4816F06EFAC7F88800D7F88830002B35
:100AD40023D00323002B1ED00123FB76FB7E83F05F
:100AE4000103DBB2002B16D1354B1968354B1B685B
:100AF400172205920493D7F888300393344B02935A
:100B0400002301930023009300230122002016F008
:100B1400E1FA00237B610023D2E22E4B184616F043
:100B2400D1F9034683F00103DBB2002B20D0032369
:100B3400002B1BD0012387F8233097F8233083F050
:100B44000103DBB2002B11D11D4B1968214B1B682B
:100B54000393214B0293002301930023009300236A
:100B64000122002016F0B6FA0023FB610023A7E25D
:100B7400184B00211846FFF7E7FE0346002B2FD041
:100B84000323022B48D9012387F8333097F83330F5
:100B940083F00103DBB2002B3ED1094B19680F4BE4
:100BA40002930023019300230093002303220020D7
:100BB40016F090FA0023FB632EE000BFD8840200F5
:100BC40008000020081B0200D825020000260200AD
:100BD40028260200881B02006026020074260200F8
:100BE4000323002B18D0012387F83B3097F83B30C0
:100BF40083F00103DBB2002B0ED1554B1968554B22
:100C04000293002301930023009300230122002078
:100C140016F060FA00237B6317231A4601239340DE
:100C24001A464D494D48FFF717FE4D4B4B491846A0
:100C340016F003FA0323022B1DD9012387F842304F
:100C440097F8423083F00103DBB2002B13D1404B01
:100C54001968434B1B68172204920393414B029378
:100C6400002301930023009300230322002016F0A5
:100C740031FA00237B643C4B1B68002B2ED03A488E
:100C840016F081F9034683F00103DBB2002B25D073
:100C94000323002B1FD0012387F8433097F84330F8
:100CA40083F00103DBB2002B15D1294B19682E4BBD
:100CB4001B681B680493D7F8883003932B4B02936B
:100CC400002301930023009300230122002016F047
:100CD40001FA0023FB64244B00221A60224B1B6898
:100CE400002B6AD04FF400311F4816F06CF9C7F896
:100CF4008800D7F88830002B3CD00323002B22D067
:100D0400012387F8533097F8533083F00103DBB2A3
:100D1400002B18D10E4B1968134B1B681B68124A21
:100D2400127905920493D7F888300393104B0293F9
:100D3400002301930023009300230122002016F0D6
:100D4400C9F90023BB65084B00221A6035E000BFD7
:100D54000800002098260200E5090000680B002026
:100D6400081B0200B826020000000020D42602005E
:100D7400082702000323022B1FD9012387F84B30D5
:100D840097F84B3083F00103DBB2002B15D1994B5C
:100D94001968994B1B681B68974A1279049203934C
:100DA400964B029300230193002300930023032214
:100DB400002016F08FF900237B650323022B18D93A
:100DC400012387F85F3097F85F3083F00103DBB2CB
:100DD400002B0ED1874B1968894B02930023019392
:100DE4000023009300230322002016F073F900234C
:100DF4003B66844B00228449184616F0B0F8C7F8C5
:100E04008800D7F88830002B1EDA0323002B1BD070
:100E1400012387F86B3097F86B3083F00103DBB262
:100E2400002B11D1734B1968D7F888300393774B93
:100E34000293002301930023009300230122002046
:100E440016F048F900237B664FF0FF324FF0FF3372
:100E54006F4816F043F80346002B1BD00323002BE6
:100E640018D0012387F8733097F8733083F00103A7
:100E7400DBB2002B0ED15F4B1968664B0293002343
:100E840001930023009300230122002016F022F98D
:100E94000023FB665B4B00220021184616F05FF826
:100EA400C7F88800D7F88830002B1EDA0323002BFC
:100EB4001BD0012387F87B3097F87B3083F0010344
:100EC400DBB2002B11D14B4B1968D7F88830039350
:100ED400514B02930023019300230093002301222A
:100EE400002016F0F7F800237B67464B01211846D3
:100EF400FFF72AFD0346002B14BF01230023DAB2B7
:100F0400464B1A70454B1B78DBB283F00103DBB20E
:100F1400002B1BD00323002B18D0012387F8833028
:100F240097F8833083F00103DBB2002B0ED1314BF1
:100F340019683B4B02930023019300230093002381
:100F44000122002016F0C6F80023FB672D4B0C226B
:100F54003449184615F0EFFFC7F88800D7F88830F1
:100F6400002B1FDA0323002B78D0012387F83230BB
:100F740097F8323083F00103DBB2002B6ED11D4BA6
:100F84001968D7F888300393274B02930023019301
:100F94000023009300230122002016F09BF8002375
:100FA400FB625BE00C23C7F884300323022B1CD9BB
:100FB400012387F8973097F8973083F00103DBB269
:100FC400002B12D10B4B1968D7F884300393174BBD
:100FD40002930023019300230093002303220020A3
:100FE40016F078F80023C7F890300023A7F88E3065
:100FF4002BE000BF08000020000000203C27020076
:1010040054270200881B0200DD0800009427020018
:1010140088020020C0270200D82702009410002074
:10102400182802000C000020442802005C2802005A
:10103400B7F88E30244AD35C1946244816F0FCFADB
:10104400B7F88E300133A7F88E30B7F88E30D7F862
:1010540084209A42ECDC1E4816F0EEFA1D4B002167
:101064001846FFF771FC1B4B00221B49184615F06C
:1010740076FFC7F88800D7F88830002BBFF6E4AEB7
:101084000323002B1BD0012387F82B3097F82B3038
:1010940083F00103DBB2002B11D1104B1968D7F890
:1010A400883003930E4B0293002301930023009393
:1010B40000230122002016F00DF800237B62C3E612
:1010C40018469837BD4680BD0C00002090250200CC
:1010D40074280200881B0200DD08000008000020BC
:1010E4007828020080B58CB000AFF860B9607A60EF
:1010F400786816F064F902467B6893420ED840F291
:101104001A23584A5849594816F0D3FA584816F041
:10111400D0FA40F21A21534816F0B2FA786816F061
:101124004EF902467B689B1A7B60BB68073323F049
:101134000703BB62BA687B68134423F007037B622E
:101144007A6ABB6AD31ADB083B62102016F048F9AE
:1011540002463B6A93420ED840F22323414A454952
:10116400424816F0A6FA424816F0A3FA40F22321A8
:101174003C4816F085FABB6AFB61FB68FA691A60A1
:10118400FB693A6A9A60FB690022DA60396AF86995
:1011940016F043F903460133BB61BB6904339B007A
:1011A400184616F01DF97861F86916F025F902461B
:1011B4007B6913443A6A9A420ED24FF40E73294A59
:1011C4002D492A4816F075FA294816F072FA4FF498
:1011D4000E71244816F054FA0023FB6208E0FB6900
:1011E400FA6A0432002143F82210FB6A0133FB62DD
:1011F400FA6ABB699A42F2DB7A690021F86916F04F
:1012040061F800220021F86916F09CF801220021FF
:10121400F86916F012F83A6A7B69D31A1A467969A2
:10122400F86916F04FF87A697969F86916F08AF85E
:101234000022396AF86916F045F83A6A7B69D31ACC
:101244001A46396AF86916F07DF80122396AF86994
:1012540015F0F3FF7969F86916F03CF900BF3037EF
:10126400BD4680BD94280200CC290200D428020087
:10127400F02902000C2A0200382A020080B483B04C
:1012840000AF78607B68094A934205D37B68084ABB
:10129400934201D2012300E0002303F00103DBB2F7
:1012A40018460C37BD4680BC704700BF881A020040
:1012B400188D020080B5A4B000AFF860B9607A6000
:1012C4003B60FB68FB65FB6DC7F88C300023C7F8F7
:1012D40080300023FB670023BB674FF0FF337B673D
:1012E400002387F86B307B6803F00403002B14BFE2
:1012F4000123002387F85B307B68DB0803F00703D6
:1013040001337B66002387F86330FB687B65FB68E9
:1013140003F00303002B02D06FF00D03E3E3D7F8CF
:101324008C300433C7F88C30FB6D002B0DD1BB68B7
:1013340003F00703D7F88C201344C7F88C30BB683C
:1013440003F00703C3F10803BB60FB6D002B0AD055
:10135400FB6DD7F88C20D31A0433BA689A4202D2B0
:101364006FF01B03BFE33B68FB663B68013B3B60DC
:101374000423C7F884300423C7F8883097E197F82A
:101384006B3083F00103DBB2002B11D03B681B7878
:10139400252B40F09E82012387F86B307B6F01334D
:1013A4007B670423C7F884300423C7F8883090E2AD
:1013B4003B681B787A2B00F349814C2B11DA472BBD
:1013C40000F344812A2B71DA252B00F09280252B1F
:1013D40000F33C81202B00F07E82232B00F07B82E3
:1013E40034E14C3B2E2B00F2318101A252F823F060
:1013F400DB180000511600005116000051160000C1
:10140400511600005116000051160000511600003C
:10141400511600005116000051160000511600002C
:101424002F1500005116000051160000511600003F
:10143400511600005116000051160000511600000C
:10144400511600007F150000511600002F150000F2
:101454002F1500007F1500007F1500007F15000088
:10146400DB1800002F1500000515000051160000C0
:10147400DB180000511600006B1500002F1500004A
:101484006B15000051160000511600006515000090
:10149400211500002F150000511600005116000000
:1014A4002F15000051160000131500002A3B0122DD
:1014B40002FA03F34FF6DA721A40002A14BF01222B
:1014C4000022D2B2002A40F0068203F06252002ABF
:1014D40014BF01220022D2B2002A4ED103F001032C
:1014E400002B14BF01230023DBB2002B40F0B28099
:1014F400ACE0002387F86B307B6F013B7B67EBE14B
:101504000823C7F884300823C7F88830E4E10423AB
:10151400C7F884300423C7F88830DDE10423C7F812
:1015240084300423C7F88830D6E13B68013B1B783C
:101534006C2B11D13B68023B1B786C2B06D1082322
:10154400C7F884300823C7F8883005E00423C7F8B7
:1015540084300423C7F88830002387F86B307AE09E
:10156400012387F863300423C7F884300423C7F8C1
:101574008830002387F86B306DE03B68013B1B78B3
:101584004C2B13D1D7F89830073323F0070303F11A
:101594000802C7F89820D3E90023C7E906230823E3
:1015A400C7F884300823C7F8883012E0D7F8983099
:1015B400073323F0070303F10802C7F89820D3E99F
:1015C4000023C7E906230823C7F884300823C7F893
:1015D4008830D7F88420D7F88C3013445A1ED7F8B3
:1015E4008430B2FBF3F2D7F8843002FB03F3C7F87C
:1015F4008C30FB6D002B1ED0FB6DD7F88C20D21ADB
:10160400D7F888301344BA689A4202D26FF01B03A9
:1016140069E23B68013B1B784C2B06D1D7F88C1050
:10162400D7E90623C1E9002305E0D7F88C10D7E9F0
:101634000623C1E90023D7F88C20D7F88830134457
:10164400C7F88C30002387F86B3045E1002387F816
:101654006B3041E100BFD7F88420D7F88C301344B5
:101664005A1ED7F88430B2FBF3F2D7F8843002FB69
:1016740003F3C7F88C30FB6D002B0CD0FB6DD7F84F
:101684008C20D21AD7F888301344BA689A4202D20E
:101694006FF01B0327E297F86330002B00F0B8804B
:1016A400D7F898301A1DC7F898201B68FB66FB6DA5
:1016B400002B03D0D7F88C30FA6E1A607B6E5A1E5A
:1016C4007A66002B05DCF86E15F026FF0346002B26
:1016D40001D0012300E0002387F853307B6803F036
:1016E4000203002B14BF0123002387F8523097F81C
:1016F4005330002B06D097F8523083F00103DBB24D
:10170400002B7CD1FB6DD7F88C20D31A9B08FB648B
:1017140097F85230002B11D0FB6C7F2B0ED94FF46D
:101724001F73B04AB049B14815F0C3FFB04815F073
:10173400C0FF4FF41F71AB4815F0A2FFD7F88030FB
:101744000F2B0ED940F28123A64AA749A74815F0CA
:10175400B0FFA84815F0ADFF40F28121A14815F073
:101764008FFFFB6D002B2DD0FB6CD9B207F130023B
:10177400D7F8803013440A461A707B6FD9B207F148
:101784002002D7F8803013440A461A7097F8533071
:10179400002B13D007F13002D7F8803013441B78A4
:1017A40063F07F03D9B207F13002D7F880301344D5
:1017B4000A461A70BB6F0133BB671BE0FB6F013332
:1017C400FB6717E097F85330002B03D0BB68013355
:1017D400BB600FE097F85B30002B03D0BB6802338B
:1017E400BB6007E0F86EFEF7CDFC0246BB6813440D
:1017F4000233BB60D7F880300133C7F88030D7F8A4
:101804008C300433C7F88C30002387F8633063E0EE
:10181400D7F88830042B13D1D7F898301A1DC7F89D
:1018240098201B687B64FB6D002B03D0D7F88C30A9
:101834007A6C1A60D7F88C300433C7F88C304BE0DC
:10184400D7F88830042B13D1D7F898301A1DC7F86D
:1018540098201B68BB64FB6D002B03D0D7F88C3039
:10186400BA6C1A60D7F88C300433C7F88C3033E084
:10187400D7F88830082B1BD1D7F89830073323F0DA
:10188400070303F10802C7F89820D3E90023C7E946
:101894000423FB6D002B05D0D7F88C10D7E9042363
:1018A400C1E90023D7F88C300833C7F88C3013E033
:1018B40040F2C6234B4A4C494C4815F0FAFED7F87F
:1018C40088104D4815F0F5FE40F2C621454815F044
:1018D400D7FE00BF00E000BF3B6801333B603B68BC
:1018E4001B78002B7FF44BAD00BFFB6DD7F88C2029
:1018F400D31AB3F5806F0ED340F2D223394A3A4952
:101904003A4815F0D6FE3D4815F0D3FE40F2D221F8
:10191400344815F0B5FEFB6D002B07D1FB6DD7F8ED
:101924008C20D21ABB681344083BDCE0FB6D002218
:101934001A60FB6DD7F88C20D31A9B08DAB27B6D42
:101944001A7097F85B30002B07D07B6D00225A7019
:10195400FB6FDAB27B6DDA7006E0FB6FDAB27B6D97
:101964005A707B6D0022DA70BB6FDAB27B6D9A70AD
:10197400BB6F002B32D000233B672AE007F1300213
:101984003B6F13441B785BB2002B1EDA07F1300265
:101994003B6F13441B7803F07F0387F84330FB6DE0
:1019A400D7F88C20D31A0133BA689A4202D26FF066
:1019B4001B0398E0D7F88C3097F843201A70D7F8B7
:1019C4008C300133C7F88C3000E000BF3B6F01332B
:1019D4003B673A6FD7F880309A42CFD300233B67F6
:1019E40078E000BF782A0200E82A0200C82A020030
:1019F400EC2A0200102B02002C2B0200442B0200C4
:101A0400BB6F002B07D007F130023B6F13441B78E8
:101A14005BB2002B5ADB97F85B30002B10D000230D
:101A2400C7F88830D7F88C3007F120013A6F0A44A0
:101A340012781A70D7F88C300133C7F88C301AE05A
:101A440007F130023B6F13441B789B00FA6D13447B
:101A54001B68FB6607F130023B6F13441B789B0045
:101A6400FA6D134400221A60F86EFEF78BFB0346EE
:101A74000133C7F88830FB6DD7F88C20D21AD7F819
:101A8400883013440133BA689A4202D26FF01B03C0
:101A940029E0D7F88C3007F130013A6F0A44127804
:101AA4001A70D7F88C300133C7F88C30D7F88C30E3
:101AB400D7F88820F96E18461FF04BFFD7F88C2012
:101AC400D7F888301344C7F88C3000E000BF3B6F70
:101AD40001333B673A6FD7F880309A4290D3FB6D5D
:101AE400D7F88C20D31A18469037BD4680BD00BF66
:101AF40080B483B000AF7860034A7B68136000BF92
:101B04000C37BD4680BC70471800002080B500AF7C
:101B14001FF0AEFF0346024A9B58184680BD00BF23
:101B24000800000080B584B000AFF860B9607A6046
:101B34003B6015F093FD02461FF09AFF03460649E9
:101B44005A50FB683A687968B8689847FFF7DEFF2F
:101B54000346184615F089FD0800000080B584B0DE
:101B640000AF786039602022002178681FF0FEFE03
:101B74003B68DA687B68DA613B689A687B689A61DB
:101B84003B681A687B681A623B685A687B685A62C9
:101B94007B6800229A623B681A697B681A617B68D9
:101BA4005B6A184615F097FD0346002B05D07B6849
:101BB4001B6943F001027B681A617B682C330122A4
:101BC4000021184615F09FFDF860FB68002B09D032
:101BD4002F23064A0649074815F06BFD2F210348B9
:101BE40015F04EFD00BF1037BD4680BD5C2C0200D1
:101BF4008C2C0200982C020080B5A6B000AFF860CF
:101C0400B960C7E900230023C7F894300023FB62BE
:101C1400012387F8933000237B620023C7F88C30BC
:101C2400FB685B6ABA689A4201D9002374E1FB68D5
:101C34001433C7F88030EFF31183FB67FB6FBB6786
:101C440020237B677B6F83F3128800BFBFF36F8F02
:101C540000BFBB6FBB61D7F880303B67386F12F0B1
:101C6400F7FD034683F00103DBB2002B0DD088237C
:101C7400AB4AAC49AC4815F01CFD396FAB4815F0C4
:101C840018FD8821A64815F0FBFC00BFD7F880306A
:101C9400FB66F86E12F02AFE00BFBB693B627B6AEA
:101CA400002B08D07B6A1A46D7F88C10F86815F018
:101CB4006BFF00237B6207F128031946F86815F0CF
:101CC4004DFD034687F88B30BB6ABA689A4232D816
:101CD400FB681A6AFB681B689B001344C7F89430BE
:101CE400D7F8942013786FF300031370D7F8942077
:101CF40013786FF341031370BB68FA68BA667B66A6
:101D0400BB6E1B687A6E1946B86E15F0E6FD024686
:101D1400BB6E1A60BB6E1A68BB6EDB689A4205D153
:101D2400BB6E1B6943F00802BB6E1A6100BF00233F
:101D340087F89330AFE097F88B30002B08D0BB6A5C
:101D44001946F86815F025FE012387F89330A2E0C0
:101D5400D7E900234FF000004FF000018B4208BF89
:101D6400824200F085801EF065FC034683F0010387
:101D7400DBB2002B7CD03B6A3B663B6E002B0CBF76
:101D840001230023DBB2002B72D0FB6814337B6485
:101D94003B6A7B61786C12F077FD034683F00103A4
:101DA400DBB2002B0FD040F231135D4A60495E482C
:101DB40015F07FFC796C5F4815F07BFC40F2311123
:101DC400574815F05DFC7B693B643B6CFB63FB6B24
:101DD40083F3118800BFBFF36F8F00BF00BF00BF44
:101DE400FB6803F12C01D7E90023084615F09BFC9E
:101DF400C7F88400FB681433FB65EFF31183BB65FC
:101E0400BB6D7B6520233B653B6D83F3128800BF6C
:101E1400BFF36F8F00BF7B6D3B61FB6DFB64F86CA0
:101E240012F016FD034683F00103DBB2002B0DD044
:101E340088233B4A3B493C4815F03BFCF96C3B4842
:101E440015F037FC8821364815F01AFC00BFFB6DED
:101E5400BB64B86C12F04AFD00BF3B693B62D7F823
:101E64008430002B0CBF0123002387F8933012E049
:101E740097F89330002B0ED0FB681B68C7F88C30A2
:101E8400B96A07F1240307F12C02F86815F0C6FDBE
:101E9400034687F89330FB681433BB633B6AFB61EA
:101EA400B86B12F0F1FC034683F00103DBB2002BA4
:101EB4000FD040F231131A4A1D491B4815F0F9FBA3
:101EC400B96B1C4815F0F5FB40F23111144815F0BC
:101ED400D7FBFB697B637B6B3B633B6B83F31188B1
:101EE40000BFBFF36F8F00BF00BF00BFFB6A002BB2
:101EF4000BD0FB689B69002B05D0FB689B69FA6AD1
:101F04001146F86898470023FB6297F89330002B3A
:101F14007FF48DAED7F8943018469837BD4680BD0F
:101F2400B82C0200F02C0200982C0200082D0200AC
:101F3400202D0200382D020080B590B000AF7860EB
:101F440039607B68DB6938689847F8637B681433C9
:101F5400FB62EFF31183BB62BB6A7B6220233B62AB
:101F64003B6A83F3128800BFBFF36F8F00BF7B6AA5
:101F74003B61FB6AFB61F86912F06AFC034683F07B
:101F84000103DBB2002B0DD088232B4A2B492C48AC
:101F940015F08FFBF9692B4815F08BFB8821264837
:101FA40015F06EFB00BFFB6ABB61B86912F09EFCC2
:101FB40000BF3B697B613A68137843F001031370F7
:101FC4007B685B68FA6B1946786815F086FC0246F4
:101FD4007B685A60786815F030FC7B681433BB6307
:101FE4007B69FB60B86B12F04FFC034683F001037E
:101FF400DBB2002B0FD040F231130F4A12491048C4
:1020040015F057FBB96B114815F053FB40F2311131
:10201400094815F035FBFB687B637B6B3B633B6BCB
:1020240083F3118800BFBFF36F8F00BF00BF00BFF1
:1020340000BF4037BD4680BDB82C0200F02C020022
:10204400982C0200082D0200202D0200382D0200D9
:1020540090B595B000AF7860002387F84F307B6867
:102064001433FB63EFF31183BB63BB6B7B632023EC
:102074003B633B6B83F3128800BFBFF36F8F00BFDA
:102084007B6BFB60FB6BFB62F86A12F0E1FB0346BF
:1020940083F00103DBB2002B0DD08823524A53494D
:1020A400534815F006FBF96A524815F002FB8821E3
:1020B4004D4815F0E5FA00BFFB6BBB62B86A12F03D
:1020C40015FC00BFFB687B6107F1180319467868AB
:1020D40015F070FB7B681A6A7B689B689B0013444D
:1020E400BB64BB69002B05D0B86C15F0D9FB034663
:1020F400002B02D00023BB6441E0B86C15F013FC44
:1021040078647B6C002B08D1B86C15F0B6FB0346E1
:1021140083F00103DBB2002B1DD07B6C002B05D1B7
:102124007B68DB69B86C9847034600E07B6C3B64D2
:102134007B689B683A6C1946786815F0CEFB0246BA
:102144007B689A603B6C1946786815F009FC01239A
:1021540087F84F3013E0BA6C137843F0020313701E
:102164007B689C687B68DB69B86C984703461A46B1
:102174002146786815F0B1FB02467B689A607B685B
:1021840014337B627B693B61786A12F07DFB034602
:1021940083F00103DBB2002B0FD040F23113124A5B
:1021A4001549134815F085FA796A144815F081FA2F
:1021B40040F231110C4815F063FA3B693B623B6A0B
:1021C400FB61FB6983F3118800BFBFF36F8F00BF0E
:1021D40000BF00BF97F84F30002B7FF43DAFBB6CBE
:1021E40018465437BD4690BDB82C0200F02C0200AE
:1021F400982C0200082D0200202D0200382D020028
:1022040080B590B000AF786039607B68DB6938686E
:102214009847F8637B6814337B63EFF311833B6364
:102224003B6BFB622023BB62BB6A83F3128800BF53
:10223400BFF36F8F00BFFB6ABB607B6B7B62786A06
:1022440012F006FB034683F00103DBB2002B0DD032
:102254008823414A4149424815F02BFA796A41489A
:1022640015F027FA88213C4815F00AFA00BF7B6B69
:102274003B62386A12F03AFB00BFBB683B613B68C3
:10228400BB63BA6B13786FF3000313707B681B692D
:1022940003F00203002B08D07B681A6A7B68DB68B2
:1022A4009B0013443A689A421AD1BA6B13786FF3BD
:1022B400410313707B68DA687B689B689A4209D192
:1022C4007B689B68FA6B1946786815F006FB024632
:1022D4007B689A60FB6B1946786815F041FB07E050
:1022E400FB6B23F04041BA6B136861F39F031360E7
:1022F4007B681433FB613B69FB60F86912F0C4FA34
:10230400034683F00103DBB2002B0FD040F23113FC
:10231400114A1549124815F0CCF9F969134815F01A
:10232400C8F940F231110C4815F0AAF9FB68BB61F9
:10233400BB697B617B6983F3118800BFBFF36F8F37
:1023440000BF00BF00BF7B682C33184615F0FBF9B3
:1023540000BF4037BD4680BDB82C0200F02C0200FF
:10236400982C0200082D0200202D0200382D0200B6
:1023740080B590B000AF78607B6814333B63EFF3B3
:102384001183FB62FB6ABB6220237B627B6A83F35B
:10239400128800BFBFF36F8F00BFBB6A3B613B6B0A
:1023A4003B62386A12F054FA034683F00103DBB24D
:1023B400002B0DD08823284A2849294815F079F99B
:1023C400396A284815F075F98821234815F058F919
:1023D40000BF3B6BFB61F86912F088FA00BF3B69F0
:1023E4007B6107F118031946786815F0E3F97B68F7
:1023F4001433FB637B69FB60F86B12F045FA034608
:1024040083F00103DBB2002B0FD040F23113124AE8
:102414001549134815F04DF9F96B144815F049F9AD
:1024240040F231110C4815F02BF9FB68BB63BB6B10
:102434007B637B6B83F3118800BFBFF36F8F00BF97
:1024440000BF00BFBB69002B14BF01230023DBB214
:1024540018464037BD4680BDB82C0200F02C02005F
:10246400982C0200082D0200202D0200382D0200B5
:1024740080B58AB000AF786039607B6814337B62C2
:10248400EFF311833B623B6AFB612023BB61BB69B1
:1024940083F3128800BFBFF36F8F00BFFB69BB607B
:1024A4007B6A7B61786912F0D3F9034683F00103F8
:1024B400DBB2002B0DD08823104A1149114815F0C6
:1024C400F8F87969104815F0F4F888210B4815F0EC
:1024D400D7F800BF7B6A3B61386912F007FA00BF86
:1024E400BB68FB607B683A689A61FA680121786886
:1024F40000F0BAF800BF2837BD4680BD502D020059
:10250400882D0200A02D0200C02D020080B586B0E7
:1025140000AFF860B9607A60FB689B8B03F0070337
:102524003B617B68002B0EDABB68FA6892E8030013
:1025340083E80300FB68184615F065FB0121F86881
:1025440015F031FC84E03B69062B02D03B69052B76
:102554005DD1BB68FA6892E8030083E80300FB6876
:10256400184615F050FB3B69062B2FD1B86815F0BF
:102574008BFB0346002B04D0B86815F085FB03469B
:1025840000E000237B6119E0FB68DB8B01339AB226
:10259400FB68DA837B69002B0ED07B69184615F043
:1025A400A6FB0346002B05D07B69184615F09FFB5C
:1025B400034602E0002300E000237B617B69002BDB
:1025C400E2D10221F86815F0EEFB12E03B69052B1D
:1025D4000BD040F20913204A2049214815F069F82C
:1025E40040F209111C4815F04BF80021F86815F069
:1025F400DAFBF86815F0C4FC0346002B28D0FB680E
:102604009B8B43F020039AB2FB689A8320E03B69DA
:10261400042B11D10021F86815F0C5FBF86815F0FA
:10262400AFFC0346002B13D0FB689B8B43F02003C5
:102634009AB2FB689A830BE040F21B13064A0949DD
:10264400074815F036F840F21B11034815F018F846
:1026540000BF1837BD4680BDD82D0200082E0200E9
:10266400A02D0200302E020080B59AB000AFF860B1
:10267400B9607A60FB689B8B03F007037B660023D9
:102684003B66FB689B8B03F00803002B14BF0123FC
:10269400002387F85B30BB68002B0BD140F2331367
:1026A400924A9349934815F004F840F233118F4845
:1026B40014F0E6FF97F85B30002B21D0BB68012BA8
:1026C40007D1FB689B8B43F010039AB2FB689A8393
:1026D40001E2BB68022B0BD04FF49E73834A8649F8
:1026E400844814F0E6FF4FF49E71804814F0C8FF4C
:1026F400FB689B8B43F020039AB2FB689A83EAE160
:1027040007F11C03184615F07EFA0023FB65BB682D
:10271400022B03D1F86815F033FCB860BB68002BBA
:1027240000F0D88100233B66BB68012B0AD1FB680B
:102734009B693B6607F11C033A6E1946F868FFF77C
:10274400E5FEBFE0BB68032B39D17B6E002B0BD0B9
:102754004FF4AB73654A6949664814F0AAFF4FF415
:10276400AB71624814F08CFFFB68184615F0A2FAAE
:102774000346002B0BD040F257135C4A60495D4876
:1027840014F097FF40F25711584814F079FFFB6892
:102794001B691B68FB65FB6D002B0BD14FF4AD73FC
:1027A400524A5849534814F084FF4FF4AD714F48CE
:1027B40014F066FF0621F86815F0F5FA82E0BB68AC
:1027C400042B36D17B6E022B0BD040F25D13474AAB
:1027D4004D49484814F06DFF40F25D11434814F030
:1027E4004FFFFB68DB8B002B0BD04FF4AF733F4ADA
:1027F4004649404814F05DFF4FF4AF713B4814F074
:102804003FFFFB681B695B68FB65FB6D002B0BD10D
:1028140040F26113354A3B49364814F04AFF40F20E
:102824006111324814F02CFF0421F86815F0BBFA4A
:1028340048E0BB68052B39D17B6E012B0BD04FF4DC
:10284400B2732A4A32492B4814F033FF4FF4B27161
:10285400264814F015FFFB68184615F02BFA0346BA
:10286400002B0BD040F26513204A2549214814F06F
:1028740020FF40F265111D4814F002FFFB681B693C
:102884009B68FB65FB6D002B0BD14FF4B473174AA7
:102894001C49184814F00DFF4FF4B471134814F098
:1028A400EFFE0521F86815F07EFA0BE040F26B1399
:1028B4000E4A18490F4814F0FCFE40F26B110B4805
:1028C40014F0DEFEFB689B8B03F007037A6E9A42DA
:1028D40022D0FB680833184615F0ECF9034683F060
:1028E4000103DBB2002B17D0012316E0D82D020020
:1028F400342E0200A02D0200442E0200582E0200A5
:10290400642E0200882E0200A02E0200B82E0200BF
:10291400C82E0200302E0200002387F85A3097F8A0
:102924005A3003F0010387F85A300023BB6097F84C
:102934005A30002B0ED107F11C03184615F0BAF9D2
:10294400034683F00103DBB2002B03D1FB6D002BA4
:1029540000F09780FB689B8B43F008039BB27B6578
:102964007B6D9AB2FB689A837B6D03F007037B66E9
:10297400FB6814333B657B683B61386D11F084FF61
:10298400034683F00103DBB2002B0FD040F2311376
:10299400684A6949694814F08CFE396D684814F036
:1029A40088FE40F23111634814F06AFE3B69FB640F
:1029B400FB6CBB64BB6C83F3118800BFBFF36F8FE8
:1029C40000BF00BF00BF97F85A30002B04D03A6E06
:1029D400796EF86815F047FA07F11C03184615F0EC
:1029E40069F9034683F00103DBB2002B06D007F13B
:1029F4001C013B6E7A6EF86815F0A0FAFB6D002B93
:102A040003D0FB6D4F49F8689847FB6814337B6427
:102A1400EFF311833B643B6CFB632023BB63BB6B11
:102A240083F3128800BFBFF36F8F00BFFB6B7B6122
:102A34007B6C7B63786B11F00BFF034683F001031F
:102A4400DBB2002B0DD088233A4A3F493B4814F0AF
:102A540030FE796B3D4814F02CFE8821354814F083
:102A64000FFE00BF7B6C3B63386B11F03FFF00BF70
:102A74007B697B60FB689B8B23F008039AB2FB683D
:102A84009A83FB689B8B03F01003002B09D0FB682F
:102A94009B8B23F010039AB2FB689A830123BB60DB
:102AA4000EE0FB689B8B03F02003002B08D0FB682F
:102AB4009B8B23F020039AB2FB689A830223BB60AA
:102AC400FB689B8B03F007037B66BB68002B7FF4DA
:102AD4001CAE00E000BFFB681433FB627B68BB6183
:102AE400F86A11F0D1FE034683F00103DBB2002B38
:102AF4000FD040F231130F4A0F49104814F0D9FD9A
:102B0400F96A0F4814F0D5FD40F23111094814F068
:102B1400B7FDBB69BB62BB6A7B627B6A83F31188C6
:102B240000BFBFF36F8F00BF00BF00BF00BF683797
:102B3400BD4680BD502D0200E02E0200A02D0200F3
:102B4400F82E020075240000882D0200C02D02001A
:102B540080B592B000AF78603960002387F84730C1
:102B6400002387F84630002387F8453039687868B1
:102B740015F031F938643B6C002B01DA3B6CC9E089
:102B84007B681433BB63EFF311837B637B6B3B6321
:102B94002023FB62FB6A83F3128800BFBFF36F8FAD
:102BA40000BF3B6BFB60BB6BBB62B86A11F050FEAD
:102BB400034683F00103DBB2002B0DD08823574A70
:102BC4005749584814F075FDB96A574814F071FD17
:102BD4008821524814F054FD00BFBB6B7B62786AB5
:102BE40011F084FE00BFFB687B617B689B8B03F064
:102BF4000703FB637B68DB8B4FF6FF72934203D1C1
:102C04006FF00A033B643BE0FB6B3B64FB6B022B02
:102C140009D1012387F845307B68DB8B01339AB2F5
:102C24007B68DA832CE0FB6B002B05D0FB6B042B59
:102C340002D0FB6B062B0AD1FB6B002B0CBF0123CC
:102C4400002387F84630012387F8473018E0FB6BF0
:102C5400052B03D16FF085033B6411E0FB6B012B63
:102C64000BD04FF4E473314A31492E4814F021FD5E
:102C74004FF4E4712D4814F003FD6FF004033B643A
:102C840097F84730002B05D07B683A681146184600
:102C940015F03EF897F84630002B05D07A690221EA
:102CA4007868FFF7E1FC34E07B6814333B627B69AE
:102CB4003B61386A11F0E8FD034683F00103DBB29F
:102CC400002B0FD040F23113144A1A49154814F05E
:102CD400F0FC396A184814F0ECFC40F231110F484A
:102CE40014F0CEFC3B69FB61FB69BB61BB6983F3F8
:102CF400118800BFBFF36F8F00BF00BF00BF97F8FC
:102D04004530002B05D00023FA6B3968786815F03C
:102D1400FAF83B6C18464837BD4680BD502D02007A
:102D2400882D0200A02D0200C02D0200D82D020023
:102D3400C82E0200E02E0200F82E020080B586B0F4
:102D440000AF7860396000237B6100233B617868C1
:102D540015F05DF9F8607B683A689A60FB68032BAC
:102D640009D0FB68032B0ED8FB68012B15D0FB6838
:102D7400022B04D007E07B681B683B610EE07B6894
:102D84001B687B610AE045230C4A0D490D4814F089
:102D940090FC4521094814F073FC00BF7B680022B5
:102DA4005A607B69002B03D03968786915F021F9E2
:102DB4003B6918461837BD4680BD00BF9C2F0200F2
:102DC400CC2F0200D02F020080B500AF1EF050FEC1
:102DD4000346024A9B58184680BD00BF0800000005
:102DE40080B582B000AF78607B68002B09D18C235A
:102DF4000D4A0E490E4814F05CFC8C210A4814F06C
:102E04003FFC7B681B68DB68002B04D07B681B6875
:102E1400DB68786898477B685B6801229A7100BF19
:102E24000837BD4680BD00BFF02F020034300200D9
:102E34004C30020080B582B000AF78607B68002B14
:102E440009D1A0230C4A0D490D4814F032FCA021ED
:102E5400094814F015FC7B681B681B69002B06D01D
:102E64007B681B681B6978689847034600E0002369
:102E740018460837BD4680BDF02F020034300200EA
:102E84004C30020080B582B000AF786039607B6856
:102E9400002B09D1B423104A1049114814F009FC3D
:102EA400B4210D4814F0ECFB3B68002B09D1B52389
:102EB400094A0C490A4814F0FCFBB521064814F0F1
:102EC400DFFB7B681B681B6839687868984700BF1C
:102ED4000837BD4680BD00BFF02F02003430020029
:102EE4004C3002006C30020080B582B000AF7860D4
:102EF40039607B68002B09D1C4230C4A0C490D4866
:102F040014F0D7FBC421094814F0BAFB7B681B6892
:102F14005B68002B05D07B681B685B683968786840
:102F2400984700BF0837BD4680BD00BFF02F0200A0
:102F3400343002004C30020080B582B000AF7860BB
:102F44007B68002B09D1D223084A0949094814F0A7
:102F5400B0FBD221054814F093FB7B681B689B6887
:102F64007868984700BF0837BD4680BDF02F02003F
:102F7400343002004C30020080B582B000AF78607B
:102F84000B46FB707B68002B09D1E123084A0949F1
:102F9400094814F08EFBE121054814F071FB7B68AD
:102FA4005B68FA781A7100BF0837BD4680BD00BF60
:102FB400F02F0200343002004C30020080B485B09F
:102FC40000AF78607B681B01044A1344FB60FB6814
:102FD40018461437BD4680BC704700BFA41E0200CB
:102FE40080B483B000AF054A054BD31A1B097B603C
:102FF4007B6818460C37BD4680BC7047B41E02007F
:10300400A41E020080B582B000AF78607B68002BFC
:103014000BD140F23513084A0849094814F049FB1A
:1030240040F23511044814F02BFB7B685B685B7934
:1030340018460837BD4680BDF02F02003430020028
:103044004C30020080B584B000AFF8600B467A6063
:10305400FB72FB68002B0BD14FF4B2730C4A0D4981
:103064000D4814F026FB4FF4B271094814F008FB24
:10307400FB681B689B69002B06D0FB681B689B6977
:10308400F97A7A68F868984700BF1037BD4680BD62
:10309400F02F0200343002004C30020080B483B0C0
:1030A40000AF7860044A7B6852F8233018460C3726
:1030B400BD4680BC704700BFE084020080B590B07C
:1030C40002AF464815F01FF87863454B1B78002B78
:1030D40060D0444B7B62EFF311833B623B6AFB613C
:1030E4002023BB61BB6983F3128800BFBFF36F8FDA
:1030F40000BFFB69BB607B6A7B61786911F0A8FB48
:10310400034683F00103DBB2002B0DD08823364A3B
:103114003649374814F0CDFA7969364814F0C9FABB
:103124008821314814F0ACFA00BF7B6A3B613869EE
:1031340011F0DCFB00BFBB68FB6015F07BF9294B89
:103144003B63FB687B60386B11F09EFB034683F0A6
:103154000103DBB2002B0FD040F23113224A26497F
:10316400234814F0A6FA396B244814F0A2FA40F26A
:1031740031111D4814F084FA7B68FB62FB6ABB6260
:10318400BB6A83F3118800BFBFF36F8F00BF00BF1A
:1031940000BF1FE01A4B1B68002B1BD07B6B002B5E
:1031A4000FD14FF400404FF000014FF000024FF0F8
:1031B4000003CDE9002302460B46124815F0ECF853
:1031C40008E07B6B092B05D10E4815F0F8F80E4882
:1031D40015F019F900BF3837BD4680BD780B0020C3
:1031E400951000208C0B002084300200BC300200BB
:1031F4004C300200D4300200EC30020004310200F2
:10320400800B0020A00200207002002080B584B052
:1032140000AF254B00221A70244B00221A60244B65
:1032240000221A604FF40043BB60B968214800F0E3
:10323400F7F800F0DBFA204BFB6015E001237B601C
:103244000020FFF7BBFE0246FB689B1A1B111A46BF
:103254007B6813447B607B68DBB21946F868FFF730
:103264008BFEFB681033FB60FB68144A93420ED953
:1032740040F22713124A1349134814F01AFA134858
:1032840014F017FA40F227110D4814F0F9F9FB680D
:103294000A4A934234BF01230023DBB2002BCDD171
:1032A4001037BD4680BD00BF951000207C0B002068
:1032B400780B002081840100A41E0200B41E0200C9
:1032C4001C310200543102004C30020078310200FB
:1032D40080B586B000AF03460A46FB711346BB7146
:1032E40000237B61FFF77CFE0346082B0BD94FF4C8
:1032F400A673364A3649374814F0DBF94FF4A67101
:10330400324814F0BDF9344814F0FDFE0346002B96
:1033140001D0002355E000233B61304BFB6022E0E9
:10332400FB681B7B002B18D0F868FFF759FDF86881
:10333400FFF780FD0346002B08D1FB685B681B6820
:1033440004221946F86815F06CF906E001223B697D
:1033540002FA03F37A6913437B613B6901333B61EE
:10336400FB681033FB60FB681D4A93420ED94FF48F
:10337400AC73164A1B49174814F09BF91A4814F009
:1033840098F94FF4AC71114814F07AF9FB68144AB7
:10339400934234BF01230023DBB2002BC0D1FB795D
:1033A400002B0DD009E0786915F06FF87861BB79CE
:1033B400002B02D00A2014F03CFF7B69002BF2D1D1
:1033C4007B6918461837BD4680BD00BF1C3102001A
:1033D400983102004C300200740B0020A41E02003D
:1033E400B41E0200543102007831020080B582B06C
:1033F40000AF7860074A7B6813607B68002B06D0B7
:10340400054B1B68092B02DD044814F0FCFF083748
:10341400BD4680BD800B0020780B00207002002088
:1034240080B582B000AF786039607B68002B02D130
:103434006FF0150309E0074A7B681360064A3B688E
:103444001360386801F00EF9002318460837BD46AA
:1034540080BD00BF20000020840B002080B582B016
:1034640000AF214B1B78002B39D100210120FFF73D
:103474002FFF1E4B7B600BE07868FFF7C3FD03460C
:10348400002B02D07868FFF757FD7B6810337B6010
:103494007B68174A93420ED940F2C513154A164960
:1034A400164814F006F9164814F003F940F2C51151
:1034B400104814F0E5F87B680D4A934234BF0123A9
:1034C4000023DBB2002BD7D100BF14F0B3FF0346B7
:1034D400002BFAD100BF044B01221A7000E000BF98
:1034E4000837BD4680BD00BF95100020A41E020011
:1034F400B41E02001C310200543102004C300200A0
:103504007831020080B584B000AF78601B4BFB605B
:1035140013E0F868FFF776FD0346002B0AD07968BC
:10352400F86814F0EDFF0346002B03D07968F868BF
:10353400FFF7A8FCFB681033FB60FB68104A93425A
:103544000ED94FF400730F4A0F49104814F0B1F824
:103554000F4814F0AEF84FF400710A4814F090F8D4
:10356400FB68074A934234BF01230023DBB2002BDC
:10357400CFD100BF00BF1037BD4680BDA41E0200DE
:10358400B41E02001C310200543102004C3002000F
:103594007831020080B582B000AF00F00BF93860DA
:1035A400184B7B600CE07868FFF72CFD0346002B7A
:1035B40003D039687868FFF797FC7B6810337B6029
:1035C4007B68114A93420ED94FF403730F4A104992
:1035D400104814F06EF8104814F06BF84FF40371AF
:1035E4000A4814F04DF87B68074A934234BF01231C
:1035F4000023DBB2002BD6D100BF00BF0837BD4685
:1036040080BD00BFA41E0200B41E02001C310200D3
:10361400543102004C3002007831020080B588B089
:1036240004AF0021124814F088FD0346FB60032315
:10363400012B19D90123FB72FB7A83F00103DBB25E
:10364400002B11D10B4B1968FB6803930A4B0293AF
:10365400002301930023009300230222002014F08E
:1036640086FD00237B6000BF00BF1037BD4680BDD0
:10367400880B00201C000020CC31020080B500AF74
:10368400074B1B7883F00103DBB2002B02D0054803
:1036940014F0B9FE024B01221A7000BF80BD00BFB6
:1036A40096100020700200202DE9B04384B000AFD2
:1036B4004FF000024FF00003C7E900232A4B1B78A8
:1036C40083F00103DBB2002B01D0002347E03B462B
:1036D400184600F0CDF8F860FB68002B08D0F868B5
:1036E400FFF710FFF86800F0DDF8204814F018FD2B
:1036F40000F06CF80346FB7214F017FF0346BB722C
:10370400FB7A002B02D1BB7A002B1BD014F0BFFD37
:1037140002460B4610461946154BD3E90023841A7A
:1037240061EB030540F2E9339C4275F1000309D3D0
:10373400FB7A002B01D0FFF72DFFBB7A002B01D0C1
:10374400FFF76CFF0A4BD3E9002312F57A7843F1B3
:103754000009074BC3E9008900F0B4F80346184692
:103764001037BD46BDE8B08396100020780B0020CA
:10377400D802002080B582B000AF0346FB7109482F
:1037840014F0C1FCFB79002B02D0074814F0C8FCEC
:10379400064814F014FE064814F035FE00BF08373E
:1037A400BD4680BD7C0B0020780B0020A0020020C9
:1037B4007002002080B500AF0021034814F0BDFC66
:1037C4000346184680BD00BF7C0B002080B400AFC8
:1037D400054B1B68002BCCBF01230023DBB218462A
:1037E400BD4680BC704700BF7C0B002080B500AF95
:1037F40004490548FEF7B2F9044B034A1A6000BFB6
:1038040080BD00BFF0840200D8010020900B00208E
:1038140080B582B000AF78607968044814F08CFEFB
:10382400034618460837BD4680BD00BFD8010020B6
:1038340080B582B000AF7860064B1B68984702469B
:103844007B689A607968044814F08AFE00BF0837E0
:10385400BD4680BD20000020D801002080B500AF07
:103864000248FEF7F5FB0346184680BDD801002048
:1038740080B584B000AF7860074A084BD31A084A71
:10388400A2FB03239B09FB60FFF7E8FF03461846EE
:103894001037BD4680BD00BF1C020020D8010020A7
:1038A400F1F0F0F080B582B000AF7860044B1B6893
:1038B4007968184614F065FE00BF0837BD4680BD20
:1038C400900B002080B584B000AF0023FB60084A51
:1038D400084BD31A084AA2FB03239B09BB60074881
:1038E40014F05DFE034618461037BD4680BD00BF88
:1038F4001C020020D8010020F1F0F0F0D8010020D3
:1039040080B584B000AF03463960FB71164BFB6091
:1039140008E0FB793A681946F868FFF793FBFB68FF
:103924001033FB60FB68114A93420ED940F29D3379
:103934000F4A1049104813F0BCFE104813F0B9FEAA
:1039440040F29D310A4813F09BFEFB68074A9342FC
:1039540034BF01230023DBB2002BDAD100BF00BF48
:103964001037BD4680BD00BFA41E0200B41E020075
:103974001C310200543102004C3002007831020044
:1039840080B582B000AF7860034814F03CFD00BFFE
:103994000837BD4680BD00BF7002002080B58AB0E4
:1039A40000AFF860B9607A60FFF71AFB0346002B9A
:1039B4000BDC40F2A9332D4A2D492E4813F079FE31
:1039C40040F2A931294813F05BFE4FF0FF33FB614D
:1039D4000023FB7600210020FFF77AFC78627B6AE3
:1039E400002B06D040F267624FF00003C7E90423BE
:1039F40005E04FF0FF324FF0FF33C7E90423002303
:103A040087F82330FFF7E0F903461846FFF7EEFC8A
:103A14007B6A002B0CD0786A14F037FD78627B6ADD
:103A2400002B05D14FF0FF324FF0FF33C7E90423D9
:103A340014F000FD034683F00103DBB2002B10D029
:103A440097F82330002B06D0002387F82330002179
:103A54000020FFF755FFD7E90423074814F0C3FCFF
:103A6400D6E7012387F82330D2E700BF1C310200D8
:103A74005C3202004C3002007002002080B588B035
:103A840008AF0022114912481DF0FAFB4FF0000262
:103A94004FF00003CDE90623002304930E23039380
:103AA400002302930023019300230093094B4FF456
:103AB40080520949094814F033FC0949074814F0B5
:103AC4005DFC00231846BD4680BD00BF853900005B
:103AD400A0020020A1390000A8100020E006002068
:103AE4007832020080B483B000AF78607B68044A07
:103AF4009B1ADB0818460C37BD4680BC704700BFD4
:103B04003C1E020080B500AF0248FFF7EBFF0346FE
:103B1400184680BDA41E020080B582B000AF786054
:103B240039607B68002B0BD14FF48D730A4A0B4923
:103B34000B4813F0BEFD4FF48D71074813F0A0FD40
:103B44007B685B683A681A607B685B6801225A711B
:103B540000BF0837BD4680BD80320200C432020077
:103B6400DC32020080B582B000AF786039607B68D7
:103B7400002B09D1B823094A09490A4813F099FDD1
:103B8400B821064813F07CFD7B689A683B685B00AB
:103B940013449B8818460837BD4680BDFC3202009A
:103BA4003C330200DC32020090B587B002AFF8600B
:103BB400B9603B601346FB80FB68002B09D1E2230C
:103BC400124A1349134813F074FDE2210F4813F00D
:103BD40057FD3B68002B09D1E3230C4A0E490D48DD
:103BE40013F067FDE321094813F04AFDFB681B68E5
:103BF400DC68FA883B6A00933B68B968F868A047B8
:103C0400034618461437BD4690BD00BFFC3202007F
:103C14003C330200DC3202004433020080B584B03D
:103C240000AF03463960FB71204BFB601BE0FB686F
:103C34009B689B68DAB2FB689B681B68DBB2134421
:103C4400FB72FA79FB7A9A420AD2FB689B689B68FA
:103C5400DBB2FA79D31ADAB23B681A70FB6820E057
:103C6400FB681833FB60FB68114A93420CD9582354
:103C7400104A1149114813F01CFD114813F019FDA5
:103C840058210C4813F0FCFCFB68094A934234BFEA
:103C940001230023DBB2002BC9D13B6800221A7038
:103CA400002318461037BD4680BD00BFB41E020075
:103CB400B41E02005C33020094330200DC320200C2
:103CC400B033020080B584B000AF0346FB7107F146
:103CD4000B02FB7911461846FFF7A0FFF860FB685A
:103CE400002B09D1C123094A09490A4813F0E1FC10
:103CF400C121064813F0C4FCFB7A1946F868FFF7A3
:103D040031FF034618461037BD4680BD5C330200C0
:103D1400D0330200DC32020080B58AB002AF034621
:103D24003960FB71234BDB693B61FB793B733B6877
:103D34009BB2FB81FB6807F1140219461D4814F07D
:103D440094FD034683F00103DBB2002B2CD007F172
:103D54000B02FB7911461846FFF760FFF861FB6917
:103D6400002B09D1E523144A1449154813F0A1FC8A
:103D7400E521114813F084FCFB7A18463B689AB29B
:103D8400796907F1100300930B460146F869FFF7C0
:103D94000BFFB861BB69002B01DA002305E07B69E6
:103DA4001946044814F0E4FD7B6918462037BD46E3
:103DB40080BD00BF940B00205C330200D0330200AE
:103DC400DC32020080B582B000AF786039607B6875
:103DD400DBB2184614F0F6FB0346002B0DD07868CE
:103DE40014F0FBFB02463B68934204D2084A3B684A
:103DF40052F8333008E0002306E07B68DBB2396810
:103E04001846FFF789FF034618460837BD4680BDAC
:103E14003C1E020080B483B000AF78607B68044A23
:103E24009B1ADB0818460C37BD4680BC704700BFA0
:103E34003C1E020080B590B004AFB9607B600346BD
:103E4400FB731346BB733B6C002B19D07B6C3B613B
:103E54003B6900933B6CFA6B10210020FDF72AFAB2
:103E6400F862FB6A002B0DDA40F265134A4A4B49AB
:103E74004B4813F01EFC40F26511474813F000FC58
:103E84000023FB62FB6AB3F5006F1DD30323012BF0
:103E94007FD90123FB77FB7F83F00103DBB2002B87
:103EA40077D1404B196840F2FF7303933E4B029362
:103EB400002301930023009300230222002014F026
:103EC40069FD0023BB6164E0FA6ABB6B13441733DA
:103ED40023F0070303339B08BB623B7D6FF30003AE
:103EE4003B753B7D6FF341033B753B7D6FF3820371
:103EF4003B75FB7B03F00703DAB23B7D62F3C5033A
:103F04003B75BB7B03F00703DAB2BB8A62F3881309
:103F1400BB82FB6AC3F30A039AB27B6962F353233D
:103F24007B61BB6BC3F30B039AB2FB8A62F30F137F
:103F3400FB82B86AFFF76CFC78627B6A002B02D0C4
:103F44007B6A103300E000233B623B6A002B1AD0EB
:103F54003B6C002B17D0F96A7B6C00933B6CFA6BBB
:103F6400386AFDF7A7F9F862FB6A002B0BDA4FF405
:103F7400C473094A09490A4813F09BFB4FF4C471FE
:103F8400054813F07DFB7B687A69B968786A14F098
:103F94004FFD3037BD4680BDA43402000835020011
:103FA400E8340200240000201435020080B584B0F7
:103FB40000AFF860B9607A607B68BA680449F86851
:103FC40013F0CAFA034618461037BD4680BD00BF39
:103FD4000D69000080B586B000AF786039603B6839
:103FE4007B617B695B681B687A69D268934202D102
:103FF400786914F014FE7B695B68184614F085FD3B
:1040040038617B699A683B6913447A68D2B21A7042
:104014007B695B681B681A467B69DB689A4209D92D
:104024007223074A0749084813F043FB72210448E6
:1040340013F026FB002318461837BD4680BD00BF89
:104044006C350200A4350200D43502000EB480B5EC
:1040540085B000AF78600023FB6007F12003BB60EC
:10406400BB68FA697968064802F04EFCF860FB68A0
:1040740018461437BD46BDE8804003B0704700BF02
:10408400D93F000080B592B004AFF860B9607A609F
:10409400BB6803F04403002B14BF0123002387F8FB
:1040A400333097F8333083F00103DBB2002B06D0B2
:1040B4007A683849F868FFF7C9FF786365E0364BDA
:1040C4001B68002B5FD0354B1B687A68B2FBF3F397
:1040D4007B60314B1B687A68B2FBF3F3FB622E4BB7
:1040E4001A687B68B3FBF2F101FB02F29B1ABB6214
:1040F400BB6A4FF47A7203FB02F2274B1B68B2FBD4
:10410400F3F37B62BB6A4FF47A7203FB02F2224B35
:104114001B68796A01FB03F3D31A4FF47A7203FB29
:1041240002F21D4B1B68B2FBF3F33B62FB6AFB61BB
:10413400FB691B4AA2FB0323DB0ABB61BB694FF487
:10414400616202FB03F3FA69D31AFB61FB69154A46
:10415400A2FB03235B097B617A6913461B019B1A4B
:104164009B001A46FB699B1AFB613B6A02937B6ABC
:104174000193FB6900937B69BA690B49F868FFF7FF
:1041840065FF786301E000237B637B6B1846383757
:10419400BD4680BDF4350200B40B0020B80B0020EE
:1041A400C5B3A291898888880036020080B586B09C
:1041B40000AFF8607B600B46FB721346BB72FB7A60
:1041C400002B14D0BB7A002B0AD00B4A7B6852F820
:1041D4002330002B04D0084A7B6852F8233000E0D7
:1041E400064B7B617A690649F868FFF72FFF00BF29
:1041F4001837BD4680BD00BF188502001C3602007A
:104204002436020080B584B000AF786008461146B9
:104214001A460346FB700B46BB7013467B700023A3
:10422400FB60FB78002B0CD0194A7B6A52F82330D0
:104234001A4618497868FFF709FF0246FB681344D9
:10424400FB60BB69002B08D0BA6913497868FFF793
:10425400FDFE0246FB681344FB60FB69002B11D092
:10426400BB78002B04D07B6A042B01D10B4B00E0FC
:104274000B4BFA6919467868FFF7E8FE0246FB68BB
:104284001344FB60FB6818461037BD4680BD00BF71
:10429400048502002836020030360200343602005B
:1042A4003836020080B582B000AF786039603B6870
:1042B40003F01003002B0ED13B6803F02003002B06
:1042C40004D007497868FFF7C1FE05E0054978681E
:1042D400FFF7BCFE00E000BF0837BD4680BD00BF4D
:1042E400403602004436020080B588B000AFF86062
:1042F400B9607A603B60B96AF868FFF7D3FF0023BE
:10430400FB6106E03749F868FFF7A0FEFB6901335B
:10431400FB61FA693B689A42F4DB0023BB6120E04D
:10432400BB69002B08DDBB6903F00703002B03D135
:104334002C49F868FFF78AFEBB697A689A4209D962
:10434400BB69BA6813441B781A462749F868FFF713
:104354007DFE03E02549F868FFF778FEBB69013369
:10436400BB61BB690F2BDBDD2149F868FFF76EFEEB
:1043740000237B612DE07B69002B08DD7B6903F062
:104384000703002B03D11749F868FFF75FFE7B6929
:104394007A689A4216D97B69BA6813441B78FB740D
:1043A400FB7C8033134A13441B7803F09703002BE0
:1043B40001D0FB7C00E02E231A460F49F868FFF772
:1043C40045FE03E00749F868FFF740FE7B690133C7
:1043D4007B617B690F2BCEDD00BF00BF2037BD465C
:1043E40080BD00BF483602004C360200543602003D
:1043F40058360200878B02005C36020090B58DB0FF
:1044040004AFF860B9603B601346FB7197F83C3029
:10441400042B0BD940F24623384A3949394813F062
:1044240048F940F24621354813F02AF90023FB618C
:10443400BB6803F00203002B14BF01230023FB76A7
:10444400BB6803F00103002B14BF01230023BB76D8
:10445400BB6803F00803002B14BF012300237B7601
:104464000023FB74BB6803F48073002B14BF012387
:1044740000233B7614F09FF878617B69002B09D008
:104484007A692149F868FFF7E1FD03461A46FB699A
:104494001344FB61FB7E002B09D03A68B968F868C5
:1044A400FFF7F0FD03461A46FB691344FB6197F8D6
:1044B4003C20BB7E1946F86814F0DFFBFC7C3B7E95
:1044C400002B01D0002300E07B6B97F83C20F879A7
:1044D400797E0392BA6B029201933B6B009323465D
:1044E4000246F868FFF78EFE03461A46FB6913443A
:1044F400FB61FB6918462437BD4690BD6C3502004C
:1045040080360200D43502006836020080B58CB0D3
:1045140004AFF860B9607A603B6097F82C30002BE8
:104524000CBF01230023FB75FB7D83F00103DBB289
:10453400002B12D097F82C300393BB6A02933B688C
:1045440001937B680093BB680022F96BF868FFF75E
:1045540055FFF861214BBB6108E00023FB613B6818
:10456400012B01D11D4B00E01D4BBB613B6B002BAC
:1045740014D03A6BF968B869FFF718FD38613B69E4
:10458400002B0BDA4FF42873164A1749174813F017
:1045940090F84FF42871134813F072F8BB6B002B9A
:1045A40008D0FA69FB6B00931346BA6B796BF86811
:1045B40014F085FBFB7D83F00103DBB2002B06D0F6
:1045C40097F82C301A46F96BF86814F09CFBF868DD
:1045D40014F025FB00BF2037BD4680BDD93F000045
:1045E400558C01006C3502008C360200D435020073
:1045F40080B586B000AF786039607B681B687B61EA
:104604003B6842F20F72934228BF13463B6007F1A6
:1046140008003B68104A052112F0CAF938617B682A
:104624005B685B680B220D49786914F0DAFA3A6921
:104634007B685B685B6807F10801786914F0D1FA5C
:104644007B685B685B681B220549786914F0C9FACA
:1046540000BF1837BD4680BD983602002C85020085
:104664003885020080B483B000AF78600B4B012220
:104674001A6007E07B685B087B60084B1B685B0083
:10468400064A13607B68064A9342F3D8054A7B685E
:10469400136000BF0C37BD4680BC7047B80B0020C8
:1046A40040420F00B40B002080B588B000AFF86022
:1046B400B9607A607B68BB61BB695B687B61154BE1
:1046C4003B61386914F030FC0346002B01DAB96809
:1046D4001AE00023FB610AE0FA68FB6913441B78C3
:1046E4001946386914F011FCFB690133FB61FA695E
:1046F400BB689A42F0D300BF4FF021024FF0000391
:10470400386914F01BFCB9680B4618462037BD46BF
:1047140080BD00BF481B020080B586B000AF786042
:104724007B685B681B683B61104BFB603B695B68A3
:104734007B61F86814F05AFB034683F00103DBB293
:10474400002B09D099230A4A0A490B4812F0B1FFF9
:104754009921074812F094FF3B691B683969184690
:1047640014F087FB1837BD4680BD00BF481B02000C
:10477400A8360200F03602000C37020080B586B07D
:1047840000AF78607B685B681B687B617B695B68F2
:104794003B61074BFB603B6901221A777B691B680D
:1047A400184614F087FB00BF1837BD4680BD00BF14
:1047B400481B020080B483B000AF78607B68044A71
:1047C4001A60002318460C37BD4680BC704700BFF2
:1047D4008885020080B590B006AF78600323002B73
:1047E40020D00123BB73BB7B83F00103DBB2002B1E
:1047F40018D13E4B18687B681B687A6852687968E0
:104804008968059104920393394B02930023019321
:1048140000230093002301220146002014F0E1FB51
:1048240000233B610323002B20D00123FB73FB7B7C
:1048340083F00103DBB2002B18D12C4B18687B6882
:10484400DB687A681269796849690591049203936F
:10485400284B029300230193002300930023012299
:104864000146002014F0BDFB00233B620323002B10
:1048740019D00123FB77FB7F83F00103DBB2002B0C
:1048840011D11A4B19687B68DB6903931A4B0293A5
:10489400002301930023009300230122002014F03D
:1048A400A0FB0023BB610323002B1AD00123FB755B
:1048B400FB7D83F00103DBB2002B12D10B4B196893
:1048C4007B689B6903930D4B0293002301930023A0
:1048D400009300230122002014F083FB00237B6259
:1048E40000BF00BF2837BD4680BD00BF3000002098
:1048F4004037020070370200A0370200B0370200D0
:1049040080B58AB004AF786039603B68002B02D070
:104914003868FFF75FFF7B68012B21D1EFF3058334
:10492400BB60BB68103B7B610323002B18D00123C1
:10493400FB74FB7C83F00103DBB2002B10D10C4B26
:1049440019687B6903930B4B0293002301930023A3
:10495400009300230122002014F043FB0023FB609A
:10496400396878680BF054FC00BF1837BD4680BD29
:1049740030000020E037020030BFFFF7FDBF00BF6A
:1049840080B400AF034A044B13441846BD4680BCB0
:10499400704700BF000000000400000080B582B032
:1049A40000AF7860094B1A46094978681CF0D1FFBA
:1049B400064A7B6813447B60064B1A4600217868DC
:1049C4001CF0D4FF00BF0837BD4680BD00000000C6
:1049D400F51E02000400000080B400AF074BDA6942
:1049E400064B9B689A4205D0054B5B68044A43F02A
:1049F4008053536000BFBD4680BC7047C807002089
:104A040000ED00E080B59AB004AFF860B9607A6058
:104A140010237B656FF015033B650323002B18D02F
:104A2400012387F84F3097F84F3083F00103DBB24E
:104A3400002B0ED1994B1968994B029300230193D3
:104A44000023009300230122002014F024FB002300
:104A5400BB64944B9B6A03F01003002B1DD01123FD
:104A64007B650323002B18D0012387F8473097F880
:104A7400473083F00103DBB2002B0ED1874B19685A
:104A8400894B029300230193002300930023012206
:104A9400002014F000FB00233B64824B9B6A03F06C
:104AA4000803002B1DD012237B650323002B18D091
:104AB400012387F83F3097F83F3083F00103DBB2DE
:104AC400002B0ED1754B1968784B02930023019388
:104AD4000023009300230122002014F0DCFA0023B9
:104AE400BB63704B9B6A03F00203002B4FD013236C
:104AF4007B650323002B18D0012387F8373097F800
:104B0400373083F00103DBB2002B0ED1634B1968FD
:104B1400674B029300230193002300930023012297
:104B2400002014F0B8FA00233B635E4B5B6BFB621E
:104B34005C4B9B6A03F08003002B28D0FB6A3B6527
:104B44000323002B1AD0012387F82B3097F82B303E
:104B540083F00103DBB2002B10D1504B19683B6D7D
:104B64000393544B029300230193002300930023E7
:104B74000122002014F08FFA00237B62BB68002B13
:104B840005D0484B9B6A474A23F080039362454B08
:104B94009B6A03F00103002B1DD014237B650323C0
:104BA400002B18D0012387F8233097F8233083F0A3
:104BB4000103DBB2002B0ED1384B19683E4B029334
:104BC400002301930023009300230122002014F00A
:104BD40062FA0023FB61334B9B6A03F02003002B32
:104BE4001BD015237B650323002B16D00123FB76F2
:104BF400FB7E83F00103DBB2002B0ED1274B196837
:104C04002E4B0293002301930023009300230122DF
:104C1400002014F040FA00237B61224B9B6A03F0CE
:104C24001003002B05D11F4B9B6A03F00203002BDA
:104C340014D01C4B9B6A03F01003002B0ED04FF4CE
:104C440095731F4A1F49204812F033FD1F4812F084
:104C540030FD4FF495711A4812F012FD114B9B6A06
:104C640003F02003002B05D00E4B5B6A0D4A23F49E
:104C7400005353620B4B9B6A0A4A43F0FF0393624F
:104C84000121F86814F02FFA03461A467B681A705B
:104C94007B6D18465837BD4680BD00BF34000020E8
:104CA400F437020000ED00E00C3802004038020046
:104CB400543802006C38020084380200A438020020
:104CC400D4380200103902005C3902007C39020039
:104CD40080B59AB004AFF860B9607A6016237B653A
:104CE4000323002B18D0012387F8533097F853304F
:104CF40083F00103DBB2002B0ED1934B1968934B65
:104D04000293002301930023009300230122002037
:104D140014F0C1F90023FB648D4B9B6A03F48053A8
:104D2400002B1DD017237B650323002B18D00123F0
:104D340087F84B3097F84B3083F00103DBB2002B3C
:104D44000ED1814B1968834B0293002301930023F6
:104D5400009300230122002014F09DF900237B64BA
:104D64007B4B9B6A03F40063002B1DD018237B65E7
:104D74000323002B18D0012387F8433097F84330DE
:104D840083F00103DBB2002B0ED16F4B1968724B19
:104D940002930023019300230093002301220020A7
:104DA40014F079F90023FB63694B9B6A03F40073E5
:104DB400002B4DD019237B650323002B18D001232E
:104DC40087F83B3097F83B3083F00103DBB2002BCC
:104DD4000ED15D4B1968614B0293002301930023AC
:104DE400009300230122002014F055F900237B6373
:104DF400574B9B6B3B63564B9B6A03F40043002B5E
:104E040026D00323002B1AD0012387F82F3097F8DC
:104E14002F3083F00103DBB2002B10D14A4B196809
:104E24003B6B03934E4B02930023019300230093A7
:104E340000230122002014F02EF90023BB62BB687A
:104E4400002B05D0424B9B6A414A23F400439362F2
:104E54003F4B9B6A03F48063002B1DD01A237B65B0
:104E64000323002B18D0012387F8273097F8273025
:104E740083F00103DBB2002B0ED1334B1968394B9D
:104E840002930023019300230093002301220020B6
:104E940014F001F900233B622D4B9B6A03F48073E9
:104EA400002B1CD01B237B650323002B39D001234B
:104EB400FB75FB7D83F00103DBB2002B31D1224B68
:104EC4001968294B029300230193002300930023C4
:104ED4000122002014F0DFF800233B6121E01C4B89
:104EE4009B6A03F40053002B1BD01C237B65032314
:104EF400002B16D00123FB77FB7F83F00103DBB289
:104F0400002B0ED1104B1968184B02930023019308
:104F14000023009300230122002014F0BCF8002396
:104F2400BB610B4B9B6A0A4A43F47F4393620121A2
:104F3400F86814F0D8F803461A467B681A707B6D3B
:104F440018465837BD4680BD34000020E0390200C1
:104F540000ED00E0F8390200403802000C3A02008B
:104F6400283A0200403A02005C3A0200A4380200E7
:104F740080B598B004AF78601D23FB640323002B35
:104F840018D0012387F84B3097F84B3083F0010396
:104F9400DBB2002B0ED18B4B19688B4B0293002391
:104FA40001930023009300230122002014F073F8DE
:104FB40000237B64854B9B6A03F00073002B1DD098
:104FC4001E23FB640323002B18D0012387F84330EE
:104FD40097F8433083F00103DBB2002B0ED1794BF9
:104FE40019687B4B02930023019300230093002351
:104FF4000122002014F04FF80023FB63734B9B6ADB
:1050040003F08073002B1DD01F23FB640323002BAC
:1050140018D0012387F83B3097F83B3083F0010325
:10502400DBB2002B0ED1674B19686A4B0293002345
:1050340001930023009300230122002014F02BF895
:1050440000237B63614B9B6A03F48013002B1FD006
:105054002023FB640323002B18D0012387F833306B
:1050640097F8333083F00103DBB2002B0ED1554B9C
:105074001968594B029300230193002300930023E2
:105084000122002014F007F80023FB620223FB64D2
:105094004E4B9B6A03F40023002B1DD02123FB6499
:1050A4000323002B18D0012387F82B3097F82B30DB
:1050B40083F00103DBB2002B0ED1424B1968474B3E
:1050C4000293002301930023009300230122002074
:1050D40013F0E1FF00237B623C4B9B6A03F48023C3
:1050E400002B1DD02223FB640323002B18D00123A3
:1050F40087F8233097F8233083F00103DBB2002BC9
:105104000ED1304B1968364B0293002301930023D0
:10511400009300230122002013F0BDFF0023FB6154
:105124002A4B9B6A03F40033002B1BD02323FB641C
:105134000323002B16D00123FB76FB7E83F00103AF
:10514400DBB2002B0ED11F4B1968264B02930023B0
:1051540001930023009300230122002013F09BFFFE
:1051640000237B61194B9B6A03F48033002B1BD013
:105174002423FB640323002B16D00123FB74FB7C44
:1051840083F00103DBB2002B0ED10E4B1968164BD2
:1051940002930023019300230093002301220020A3
:1051A40013F079FF0023FB60084B9B6A074A6FEA00
:1051B40003436FEA13439362FB6C18465037BD46B2
:1051C40080BD00BF34000020743A020000ED00E00E
:1051D4008C3A0200A03A0200BC3A0200E83A02000B
:1051E400083B0200303B02004C3B020080B588B013
:1051F40004AF786039603B6800221A700323002BE7
:1052040017D00123FB73FB7B83F00103DBB2002B7C
:105214000FD10A4B19680A4B029300230193002310
:10522400009300230122002013F035FF0023BB600C
:1052340000BF00BF1037BD4680BD00BF3400002052
:10524400783B020080B485B000AF78607B689B69CE
:10525400FB601B4B5B691A4A43F480735361BFF3D1
:105264004F8F00BF00BF00BFBFF36F8F00BF00BFF1
:1052740000BFFB6833F8023C7B81114B5B69104A29
:1052840023F480735361BFF34F8F00BF00BF00BF8F
:10529400BFF36F8F00BF00BF00BF7B8903F47F4360
:1052A400B3F55F4F05D17B89DBB2022B01D101231A
:1052B40000E0002318461437BD4680BC704700BF89
:1052C40000ED00E080B592B004AF7860396000234F
:1052D400FB620323002B18D0012387F8333097F89F
:1052E400333083F00103DBB2002B0ED1734B19680A
:1052F400734B0293002301930023009300230122A4
:10530400002013F0C8FE00237B633B6800221A7060
:105314006C4BDB6A03F00203002B1CD00323002B2D
:1053240000F0C7800123FB74FB7C83F00103DBB234
:10533400002B40F0BE80614B1968634B029300233D
:1053440001930023009300230122002013F0A3FE05
:105354000023FB60ADE05B4BDB6A002B1CDA03230C
:10536400002B00F0A6800123FB76FB7E83F0010373
:10537400DBB2002B40F09D80504B1968534B0293D5
:10538400002301930023009300230122002013F043
:1053940082FE00237B618CE04A4BDB6A03F080438E
:1053A400002B77D00323002B18D0012387F82B3050
:1053B40097F82B3083F00103DBB2002B0ED13F4B67
:1053C4001968434B029300230193002300930023A5
:1053D4000122002013F05FFE00237B627868FFF750
:1053E40031FF0346002B22D00323002B1BD00123C3
:1053F40087F8233097F8233083F00103DBB2002BC6
:1054040011D12E4B19687B681B680393314B0293AF
:10541400002301930023009300230122002013F0B2
:105424003AFE0023FB617B681B68FB6241E0254B6D
:105434009B6ADBB2002B06D03A6801217868FFF73B
:10544400E1FAF86235E01F4B9B6A03F47F43002BBB
:1054540007D03A6801217868FFF73AFC0346FB62FB
:1054640027E0184B9B6AB3F5803F04D37868FFF7B5
:105474007FFDF8621DE040F2EA23174A17491848F5
:1054840012F017F9174812F014F940F2EA21124801
:1054940012F0F6F840F2ED230F4A1049104812F0CA
:1054A40008F9114812F005F940F2ED210A4812F00A
:1054B400E7F8FB6A18463837BD4680BD3400002043
:1054C4009C3B020000ED00E0B43B0200D83B02002C
:1054D400E83B0200083C0200D4380200243C0200ED
:1054E4005C390200283C02004C3C020080B58AB0C2
:1054F40006AF786039600323002B21D00123FB73AE
:10550400FB7B83F00103DBB2002B19D10E4B19682E
:105514003B680F2B01DC0D4B00E00D4B3A68103A51
:10552400049203930B4B02930023019300230093F3
:1055340000230122002013F0AEFD0023BB6000BF56
:1055440000BF1037BD4680BD340000207C3C020003
:10555400943C0200B03C020080B586B000AFF86015
:10556400B9607A6000237B617B6800221A70BB6893
:10557400033B092B35D801A252F823F0A9550000AA
:10558400B5550000C3550000D3550000E755000091
:10559400E7550000E7550000E7550000E755000017
:1055A400DD5500007968F868FFF78CFE78611DE02E
:1055B4007A680021F868FFF725FA786116E07A68BE
:1055C4000021F868FFF784FB03467B610EE0F8686E
:1055D400FFF7CEFC786109E07968F868FFF706FE0A
:1055E40004E0B968F868FFF781FF00BF7B681B78A7
:1055F40083F00103DBB2002B03D0B968F86813F021
:1056040068FD7B6918461837BD4680BD80B58CB0EF
:1056140004AFF860B9607A603B600023FB76002336
:10562400FB613B6800221A707B6803F07F43B3F18F
:105634007F4F01D0002339E07B6803F00803002B7F
:1056440020D07B6803F00403002B1BD10323002B21
:1056540016D00123BB76BB7E83F00103DBB2002BA3
:105664000ED1144B1968144B0293002301930023A9
:10567400009300230122002013F00DFD00237B6121
:10568400002313E0FB7E83F00103DBB2002B0CD07C
:105694007B6803F00803002B02D0BB68FB6104E0C5
:1056A400FB68FB613B6801221A70FB6918462037CE
:1056B400BD4680BD34000020C43C020080B594B0D7
:1056C40000AFF860B9607A603B600023FB64324B42
:1056D4005B68C3F30803BB6400233B643B6CFB635C
:1056E400FB6B83F3118800BFBFF36F8F00BF00BF54
:1056F40007F132037A68B968F868FFF787FF7864BE
:105704007B6C002B0ED140F21143244A24492548D6
:1057140011F0CFFF244811F0CCFF40F211411F4893
:1057240011F0AEFF7B6CBB637B687B6300BF07F14A
:1057340033031A46B96C786CFFF70EFFF86497F8D8
:105744003330002B23D107F110032022796C184643
:105754001CF0FFF897F83230002B0BD0FB6AC3F330
:105764000803002B0CD1FB6A6FEA53236FEA43232F
:10577400FB6205E0FB6A23F4FF7323F00103FB6281
:1057840007F110031946F86CFFF7BAF800E000BF00
:105794005037BD4680BD00BF00ED00E0D4380200A4
:1057A400F03C02005C390200043D020080B400AF0A
:1057B4000A4B5B69094A43F010035361074B5B6969
:1057C400064A43F480635361044B5B69034A23F044
:1057D4000803536100BFBD4680BC704700ED00E084
:1057E400EFF30880EFF3098101B57246FFF766FF16
:1057F40001BD00BF0D4880F3088800200C490870E3
:1058040007F078FF202080F311880A484FF40061E4
:10581400401880F30988EFF314800221084380F3D1
:105824001488BFF36F8F13F090FC0000A8300020A1
:10583400A3100020E831002080B584B000AF786068
:10584400114B9B687A689A4216D1EFF30583FB608B
:10585400FB68002B14BF01230023DBB2002B0BD009
:105864000A4B5B68094A43F080535360074B5B6AF9
:10587400064A23F40043536278680EF0CFF900BF60
:105884001037BD4680BD00BFC807002000ED00E012
:1058940001B51AF00BFFBDE8014019498A684FF0C1
:1058A40040001044EFF3098C80E8F01F202080F3BF
:1058B4001288BFF36F8F134F4FF00066CA698A6076
:1058C4003E60D2F8B800104C2060D2F8BC0000232F
:1058D400C2F8BC3080F3118802F1400090E8F01F58
:1058E4008CF3098802F1000004B513F03CFCBDE818
:1058F400044001B50CF046FABDE8014070470000D1
:10590400C807002004ED00E0EC0B00201EF0040F9B
:105914000CBFEFF30880EFF30980816911F8021CD2
:105924000229FFD001B5724613F079FB01BD00BF17
:1059340080B483B000AF0346FB7197F90730002BA6
:105944000BDBFB7903F01F02064997F907305B096B
:10595400012000FA02F241F8232000BF0C37BD46B3
:1059640080BC704700E100E080B483B000AF034620
:10597400FB7197F90730002B12DBFB7903F01F0250
:105984000A4997F907305B09012000FA02F2203333
:1059940041F82320BFF34F8F00BFBFF36F8F00BFC9
:1059A40000BF0C37BD4680BC704700BF00E100E07B
:1059B40080B483B000AF03463960FB7197F90730B8
:1059C400002B0ADB3B68DAB20C4997F90730520125
:1059D400D2B20B4483F800230AE03B68DAB20849E8
:1059E400FB7903F00F03043B5201D2B20B441A7645
:1059F40000BF0C37BD4680BC704700BF00E100E02B
:105A040000ED00E080B483B000AF7860084A7B68A2
:105A14005B0952F823207B6803F01F03012101FA7C
:105A240003F3134018460C37BD4680BC704700BFD3
:105A340000E100E080B584B000AFF860B9607A603E
:105A4400BB680133BB60BB68072B10D96B230D4ABD
:105A54000D490E4811F02DFEBB68591E0723FA6844
:105A64000B4811F026FE6B21064811F009FEFB6875
:105A74005BB2B9681846FFF79BFF00BF1037BD46FD
:105A840080BD00BF443D0200843D0200A03D0200F1
:105A9400C03D020080B400AF094B0A4A23F07F03E3
:105AA4009360BFF34F8F00BF00BF00BFBFF36F8F82
:105AB40000BF00BF00BF00BFBD4680BC704700BF31
:105AC4000000000000ED00E080B483B000AF0D4B97
:105AD400D3F888300B4A23F47003C2F88830EFF30C
