:1000000088360020FD5800002FC30100E958000089
:10001000E9580000E9580000E9580000E9580000DC
:10002000000000000000000000000000155A000061
:10003000E95800000000000099590000E95800004C
:10004000415D0000415D0000415D0000415D000038
:10005000415D0000415D0000415D0000415D000028
:10006000415D0000415D0000415D0000415D000018
:10007000415D0000415D0000415D0000415D000008
:10008000415D0000415D0000415D0000415D0000F8
:10009000415D0000415D0000415D0000415D0000E8
:1000A000415D0000415D0000415D0000415D0000D8
:1000B000415D0000415D0000415D0000415D0000C8
:1000C000415D0000415D0000415D0000415D0000B8
:1000D000415D0000415D0000415D0000415D0000A8
:1000E000415D0000415D0000415D0000415D000098
:1000F000415D0000415D0000415D0000415D000088
:10010000415D0000415D0000415D0000415D000077
:10011000415D0000415D0000415D0000415D000067
:10012000415D0000415D0000415D0000415D000057
:10013000415D0000415D0000415D0000415D000047
:10014000415D0000415D0000415D0000415D000037
:04015000415D00000D
:1001540053B94AB9002908BF00281CBF4FF0FF312A
:100164004FF0FF3000F00CB8ADF1080C6DE904CE8F
:1001740000F010F8DDF804E0DDE9022304B0704774
:10018400704700BF034613F8012B002AFBD1181A4D
:10019400013870472DE9F04786468C460846089E8C
:1001A400154674461946002B40F0C1808542B2FAC8
:1001B40082F245D94AB1C2F1200300FA02FC95400B
:1001C40094402EFA03F343EA0C0C4FEA154EA8B2FE
:1001D400230CBCFBFEF80EFB18CC08FB00F943EA29
:1001E4000C43994528D9EB1808F1FF3704D29945F7
:1001F40002D9A8F102072B44A3EB0903A4B2B3FB71
:10020400FEFC0EFB1C330CFB00F044EA0344A0424A
:1002140014D92C190CF1FF3304D2A04202D9ACF149
:1002240002032C44241A43EA07401EB1D44000239D
:1002340034607360BDE8F0874746DDE76346F1E765
:1002440092BB431B01214FEA154EAFB2200CB3FB06
:10025400FEFC0EFB1C330CFB07F840EA03439845F5
:1002640061D9EB180CF1FF3004D2984502D9ACF1F6
:1002740002002B44A3EB0803A4B2B3FBFEFC0EFB69
:100284001C330CFB07F744EA0344A7424DD92C194D
:100294000CF1FF3304D2A74202D9ACF102032C447F
:1002A400E41B43EA0040C0E7C2F1200395409440B8
:1002B40020FA03F12EFA03F34FEA154E9040AFB241
:1002C4000343B1FBFEFC0EFB1C10190C0CFB07F8DE
:1002D40041EA0041884522D969180CF1FF3004D263
:1002E400884502D9ACF102002944A1EB08019BB274
:1002F400B1FBFEFC0EFB1C110CFB07F743EA0143A8
:100304009F420ED9EB180CF1FF3104D29F4202D95F
:10031400ACF102012B44DB1B41EA004193E7604648
:10032400E3E76146F7E76046A4E76346B8E783423C
:1003340006D916B9002108467CE7C6E900E0F9E7CA
:10034400B3FA83F78FB9834201D3724508D8BEEB61
:10035400020460EB030301209C461EB9002169E7F7
:100364003846FAE7C6E9004CF8E7C7F1200CBB4071
:100374000EFA07F522FA0CF42EFA0CF1BA401C43DB
:1003840020FA0CF3B8404FEA144901431FFA84FEE3
:10039400B3FBF9F809FB18300B0C08FB0EFA43EA1F
:1003A40000439A4540D9E31808F1FF3004D29A4536
:1003B40002D9A8F102002344A3EB0A0389B2B3FBD8
:1003C400F9F809FB183308FB0EFE41EA03418E4598
:1003D4002CD9611808F1FF3304D28E4502D9A8F153
:1003E4000203214443EA0040A1EB0E01A0FB029862
:1003F4004145CE46434602D306D14D4504D2013889
:10040400B9EB020E68EB0403002EA7D0B5EB0E0285
:1004140061EB030101FA0CFC22FA07F3F9404CEA00
:100424000303C6E9003199E74046C5E74346D9E7E7
:1004340090B58BB000AFF8600B467A60FB72FB6836
:100444009B687B62FB685B683B62FB681B69FB61C2
:100454007B6A9B69002B02D16FF057039BE07B689A
:1004640003F4C003B3F5C00F0ED140F27B334C4A02
:100474004C494D481AF08DFA4C481AF08AFA40F269
:100484007B3147481AF06CFA7B6803F4C003002BF5
:100494000ED140F27F33424A454943481AF079FA73
:1004A40044481AF076FA40F27F313D481AF058FA7F
:1004B4007B6803F48003002B19D07B6803F08073FE
:1004C400002B14D17B6803F0C063B3F1C06F0ED16D
:1004D40040F28233324A384933481AF05AFA3748DC
:1004E4001AF057FA40F282312D481AF039FA7B6833
:1004F40003F48003002B13D07B6803F0C063002B4C
:100504000ED140F28F33264A2D4927481AF041FA7A
:100514002C481AF03EFA40F28F3121481AF020FAA2
:100524003B6A1A68FB7A012101FA03F31340002B9A
:100534000ED14FF465731A4A23491B481AF029FA5D
:1005440022481AF026FA4FF4657115481AF008FA91
:100554007B6803F40003002B0CD0FB691A68FB7A58
:10056400012101FA03F31340002B03D07B6883F0CD
:10057400C0637B607A68164B1340BB617B6803F0F1
:10058400B0737B617B6A9C69F97ABB697A69F868A4
:10059400A04738613B6918462C37BD4690BD00BF63
:1005A400F06202002C6302007C6302009C63020080
:1005B400C8630200F863020024640200B864020005
:1005C4000C65020074650200BC650200FC65020053
:1005D4004000000680B588B000AFF8600B467A6032
:1005E400FB72FB689B68FB61FB685B68BB61FB6833
:1005F4001B697B617B6803F0FC63002B0ED04FF416
:1006040078736B4A6B496C481AF0C3F96B481AF05B
:10061400C0F94FF4787166481AF0A2F97B6803F0C8
:100624003003302B0ED140F2E333614A644962480F
:100634001AF0AFF963481AF0ACF940F2E3315C48C0
:100644001AF08EF97B6803F48033002B18D07B6892
:1006540003F40033002B13D17B6803F00203002B57
:100664000ED040F2E733524A574953481AF091F9F1
:1006740056481AF08EF940F2E7314D481AF070F9F5
:100684007B6803F00203002B10D17B6803F00403A2
:10069400002B0BD040F2EA33454A4D4946481AF044
:1006A40078F940F2EA3142481AF05AF97B6803F4C7
:1006B4004023002B13D07B6803F40033002B0ED1AE
:1006C40040F2ED333A4A43493B481AF062F9424852
:1006D4001AF05FF940F2ED3135481AF041F97B68C0
:1006E40003F44023B3F5402F0ED140F2F133304AE6
:1006F4003A4931481AF04DF939481AF04AF940F2AA
:10070400F1312B481AF02CF97B6803F48013002B89
:100714000DD07B6803F44023002B08D07B6803F0E2
:100724000103002B03D07B6883F440237B607B6848
:1007340023F480137B60BB691A68FB7A012101FAF8
:1007440003F31340002B0ED140F2FD33184A254920
:1007540019481AF01EF924481AF01BF940F2FD3129
:1007640013481AF0FDF87B6803F00103002B09D04D
:100774007B691A68FB7A012101FA03F31A437B6946
:100784001A6009E07B691A68FB7A012101FA03F314
:10079400DB431A407B691A60FB691B68F97A7A6843
:1007A400F868984738613B6918462037BD4680BDD4
:1007B400F0620200106602007C63020080660200A0
:1007C400A4660200E066020020670200706702006F
:1007D400C0670200F46702004468020080680200F7
:1007E400D0680200BC650200FC65020080B584B0DC
:1007F40000AF78600B46FB707B685B68FB60FB684E
:100804001A68FB78012101FA03F31340002B0ED17F
:1008140040F2B7630C4A0D490D481AF0BAF80D4876
:100824001AF0B7F840F2B76107481AF099F8FB7864
:10083400012202FA03F31946786819F0CBFD034646
:1008440018461037BD4680BDF0620200BC65020048
:100854007C630200FC65020080B584B000AFF860E0
:10086400B9607A60FB68002B0ED14FF4DB63144A45
:10087400144915481AF08DF814481AF08AF84FF400
:10088400DB610F481AF06CF8BB68002B0ED140F204
:10089400D9630B4A0E490C481AF07BF80D481AF03C
:1008A40078F840F2D96106481AF05AF8FB68BA6839
:1008B4005A60FB687A689A6000BF1037BD4680BDF5
:1008C400F0620200FC6802007C6302000869020016
:1008D4003069020038690200B0B590B00AAFF86020
:1008E400B96011461A460B46FB801346BB800323AE
:1008F400022B29D90123FB74FB7C83F00103DBB2B7
:10090400002B21D1124B1D68FB681C68B868FFF7E7
:1009140039FCFB88B7F9042097F92810089107924D
:1009240006930590BB68049303940A4B0293002337
:10093400019300230093002303222946002019F089
:1009440058FC00237B6100BF00BF1837BD46B0BD13
:10095400080000207069020080B58EB004AF786092
:100964000B46FB701F4BFB6000233B7408237B7416
:100974000823BB820123BB7400233B7600237B76D0
:100984000E23BB75FB78FB7507F10C0319467868D9
:1009940019F04DFC78627B6A002B1DDA0323002BCF
:1009A40018D0012387F8233097F8233083F001030C
:1009B400DBB2002B0ED10C4B19680C4B02930023B5
:1009C40001930023009300230122002019F011FC5D
:1009D4000023FB61002300E0012318462837BD46AD
:1009E40080BD00BFE060903308000020BC690200B5
:1009F40080B584B000AFF860B9607A60044819F03B
:100A040099FC044819F0EAFB00BF1037BD4680BDCD
:100A1400000000200804002080B5A8B006AF654897
:100A240019F03FFC034683F00103DBB2002B1BD01B
:100A34000323002B16D00123FB71FB7983F0010300
:100A4400DBB2002B0ED15C4B19685C4B0293002384
:100A540001930023009300230122002019F0C9FB15
:100A640000233B600023E0E24FF48031514819F049
:100A740038FCF867FB6F002B22D00323002B1DD01A
:100A84000123FB73FB7B83F00103DBB2002B15D145
:100A9400494B19684A4B1B68172205920493FB6F54
:100AA4000393484B029300230193002300930023F4
:100AB4000122002019F09DFB0023BB600023B4E257
:100AC4004FF0B8613B4819F0FAFBF867FB6F002B55
:100AD40022D00323002B1DD00123FB75FB7D83F063
:100AE4000103DBB2002B15D1334B1968344B1B685F
:100AF400172205920493FB6F0393334B0293002355
:100B040001930023009300230122002019F071FBBC
:100B140000233B61002388E22C4B184619F042FB6A
:100B2400034683F00103DBB2002B1ED00323002B0A
:100B340019D00123FB77FB7F83F00103DBB2002B89
:100B440011D11D4B1968214B1B680393204B029351
:100B5400002301930023009300230122002019F0B5
:100B640048FB0023BB6100235FE2184B00211846B9
:100B7400FFF7F2FE0346002B2ED00323022B47D9A6
:100B8400012387F8373097F8373083F00103DBB25D
:100B9400002B3DD1084B19680E4B0293002301939F
:100BA4000023009300230322002019F022FB0023DA
:100BB4003B632DE0E8D6020008000020F86902003B
:100BC400AC5E0200206A0200486A02004C5F020028
:100BD400806A0200946A02000323002B18D00123C8
:100BE40087F82F3097F82F3083F00103DBB2002B06
:100BF4000ED1534B1968534B0293002301930023E6
:100C0400009300230122002019F0F3FA0023BB63B0
:100C140017231A46012393401A464B494B48FFF7C2
:100C24001BFE4B4B4949184619F095FB0323022B35
:100C34001DD9012387F83E3097F83E3083F0010335
:100C4400DBB2002B13D13E4B1968414B1B681722B2
:100C5400049203933F4B02930023019300230093D8
:100C640000230322002019F0C4FA00233B643A4B0A
:100C74001B68002B2DD0384819F013FB034683F072
:100C84000103DBB2002B24D00323002B1ED001234D
:100C940087F83F3097F83F3083F00103DBB2002B35
:100CA40014D1274B19682C4B1B681B680493FB6FEA
:100CB40003932A4B02930023019300230093002300
:100CC4000122002019F095FA00237B64224B0022B4
:100CD4001A60214B1B68002B67D04FF400311E486B
:100CE40019F0FFFAF867FB6F002B3BD00323002BAE
:100CF40021D0012387F84B3097F84B3083F0010360
:100D0400DBB2002B17D10E4B1968134B1B681B6801
:100D1400114A127905920493FB6F0393104B0293CB
:100D2400002301930023009300230122002019F0E3
:100D340060FA00237B65084B00221A6035E000BF8F
:100D440008000020B86A0200F5090000E81000203D
:100D5400AC5E0200D86A020000000020F46A0200BF
:100D6400286B02000323022B1FD9012387F8533079
:100D740097F8533083F00103DBB2002B15D1AD4B50
:100D84001968AD4B1B681B68AB4A12790492039334
:100D9400AA4B029300230193002300930023032210
:100DA400002019F026FA0023FB640323022B18D930
:100DB400012387F85B3097F85B3083F00103DBB2E3
:100DC400002B0ED19B4B19689D4B0293002301937A
:100DD4000023009300230322002019F00AFA0023C1
:100DE400FB65984B00229849184619F046FAF867B3
:100DF400FB6F002B1DDA0323002B1AD0012387F885
:100E0400653097F8653083F00103DBB2002B10D115
:100E1400884B1968FB6F03938C4B02930023019357
:100E24000023009300230122002019F0E2F900239B
:100E34003B664FF0FF324FF0FF33854819F0BEF99F
:100E44000346002B1BD00323002B18D0012387F863
:100E5400663097F8663083F00103DBB2002B0ED1C5
:100E6400744B19687B4B0293002301930023009376
:100E740000230122002019F0BCF90023BB66714B4A
:100E840000220021184619F0F8F9F867FB6F002BCF
:100E94001DDA0323002B1AD0012387F8673097F853
:100EA400673083F00103DBB2002B10D1614B19686A
:100EB400FB6F0393684B0293002301930023009379
:100EC40000230122002019F094F900233B675D4BB5
:100ED40001211846FFF740FD0346002B14BF0123F0
:100EE4000023DAB25D4B1A705C4B1B78DBB283F0E3
:100EF4000103DBB2002B1CD00323002B19D00123E8
:100F040087F86F3097F86F3083F00103DBB2002B62
:100F14000FD1484B1968524B0293002301930023CD
:100F2400009300230122002019F063F90023C7F87D
:100F34008030444B80224B49184619F08AF9F867EF
:100F4400FB6F002B1EDA0323002B3FD0012387F80D
:100F54002E3097F82E3083F00103DBB2002B35D10D
:100F6400344B1968FB6F03933F4B029300230193A7
:100F74000023009300230122002019F03AF90023F2
:100F8400BB6223E03748FFF7FDF80346BB67032342
:100F9400022B1BD9012387F8773097F8773083F039
:100FA4000103DBB2002B11D1224B1968BB6F0393F1
:100FB4002E4B02930023019300230093002303226A
:100FC400002019F016F90023C7F884301D4B0021C6
:100FD4001846FFF7C1FC1B4B00221B49184619F0A9
:100FE4004CF9F867FB6F002BBFF623AF0323002BEC
:100FF4001AD0012387F8273097F8273083F00103AC
:10100400DBB2002B10D10B4B1968FB6F0393184B09
:101014000293002301930023009300230122002064
:1010240019F0E7F800233B6203E718468837BD460A
:1010340080BD00BF08000020000000205C6B02009F
:10104400746B02004C5F0200DD080000B46B020008
:1010540008040020E06B0200F86B02007816002000
:10106400386C02000C000020646C02007C6C0200EE
:10107400946C020080B58CB000AFF860B9607A60FF
:10108400786819F00CFB02467B6893420ED840F254
:101094001A23584A5849594819F07BFC584819F002
:1010A40078FC40F21A21534819F05AFC786819F078
:1010B400F6FA02467B689B1A7B60BB68073323F011
:1010C4000703BB62BA687B68134423F007037B629F
:1010D4007A6ABB6AD31ADB083B62102019F0F0FA73
:1010E40002463B6A93420ED840F22323414A4549C3
:1010F400424819F04EFC424819F04BFC40F22321BF
:101104003C4819F02DFCBB6AFB61FB68FA691A6064
:10111400FB693A6A9A60FB690022DA60396AF86905
:1011240019F0EBFA03460133BB61BB6904339B003E
:10113400184619F0C5FA7861F86919F0CDFA024633
:101144007B6913443A6A9A420ED24FF40E73294AC9
:101154002D492A4819F01DFC294819F01AFC4FF4AE
:101164000E71244819F0FCFB0023FB6208E0FB69C4
:10117400FA6A0432002143F82210FB6A0133FB624D
:10118400FA6ABB699A42F2DB7A690021F86919F0BC
:1011940009FA00220021F86919F044FA0122002119
:1011A400F86919F0BAF93A6A7B69D31A1A46796967
:1011B400F86919F0F7F97A697969F86919F032FA76
:1011C4000022396AF86919F0EDF93A6A7B69D31A91
:1011D4001A46396AF86919F025FA0122396AF86958
:1011E40019F09BF97969F86919F0E4FA00BF30370E
:1011F400BD4680BDB06C0200E86D0200F06C0200D8
:101204000C6E0200286E0200546E020080B483B09B
:1012140000AF78607B68094A934205D37B68084A2B
:10122400934201D2012300E0002303F00103DBB267
:1012340018460C37BD4680BC704700BF1C5E0200D8
:1012440050E0020080B5A4B000AFF860B9607A60E5
:101254003B60FB68FB65FB6DC7F88C300023C7F867
:1012640080300023FB670023BB674FF0FF337B67AD
:10127400002387F86B307B6803F00403002B14BF52
:101284000123002387F85B307B68DB0803F0070346
:1012940001337B66002387F86330FB687B65FB685A
:1012A40003F00303002B02D06FF00D03E3E3D7F840
:1012B4008C300433C7F88C30FB6D002B0DD1BB6828
:1012C40003F00703D7F88C201344C7F88C30BB68AD
:1012D40003F00703C3F10803BB60FB6D002B0AD0C6
:1012E400FB6DD7F88C20D31A0433BA689A4202D221
:1012F4006FF01B03BFE33B68FB663B68013B3B604D
:101304000423C7F884300423C7F8883097E197F89A
:101314006B3083F00103DBB2002B11D03B681B78E8
:10132400252B40F09E82012387F86B307B6F0133BD
:101334007B670423C7F884300423C7F8883090E21D
:101344003B681B787A2B00F349814C2B11DA472B2D
:1013540000F344812A2B71DA252B00F09280252B8F
:1013640000F33C81202B00F07E82232B00F07B8253
:1013740034E14C3B2E2B00F2318101A252F823F0D0
:101384006B180000E1150000E1150000E1150000F4
:10139400E1150000E1150000E1150000E115000071
:1013A400E1150000E1150000E1150000E115000061
:1013B400BF140000E1150000E1150000E115000074
:1013C400E1150000E1150000E1150000E115000041
:1013D400E11500000F150000E1150000BF14000026
:1013E400BF1400000F1500000F1500000F150000BA
:1013F4006B180000BF14000095140000E1150000F4
:101404006B180000E1150000FB140000BF1400007D
:10141400FB140000E1150000E1150000F5140000C4
:10142400B1140000BF140000E1150000E115000034
:10143400BF140000E1150000A31400002A3B0122A0
:1014440002FA03F34FF6DA721A40002A14BF01229B
:101454000022D2B2002A40F0068203F06252002A2F
:1014640014BF01220022D2B2002A4ED103F001039C
:10147400002B14BF01230023DBB2002B40F0B28009
:10148400ACE0002387F86B307B6F013B7B67EBE1BB
:101494000823C7F884300823C7F88830E4E104231C
:1014A400C7F884300423C7F88830DDE10423C7F883
:1014B40084300423C7F88830D6E13B68013B1B78AD
:1014C4006C2B11D13B68023B1B786C2B06D1082393
:1014D400C7F884300823C7F8883005E00423C7F828
:1014E40084300423C7F88830002387F86B307AE00F
:1014F400012387F863300423C7F884300423C7F832
:101504008830002387F86B306DE03B68013B1B7823
:101514004C2B13D1D7F89830073323F0070303F18A
:101524000802C7F89820D3E90023C7E90623082353
:10153400C7F884300823C7F8883012E0D7F8983009
:10154400073323F0070303F10802C7F89820D3E90F
:101554000023C7E906230823C7F884300823C7F803
:101564008830D7F88420D7F88C3013445A1ED7F823
:101574008430B2FBF3F2D7F8843002FB03F3C7F8EC
:101584008C30FB6D002B1ED0FB6DD7F88C20D21A4B
:10159400D7F888301344BA689A4202D26FF01B031A
:1015A40069E23B68013B1B784C2B06D1D7F88C10C1
:1015B400D7E90623C1E9002305E0D7F88C10D7E961
:1015C4000623C1E90023D7F88C20D7F888301344C8
:1015D400C7F88C30002387F86B3045E1002387F887
:1015E4006B3041E100BFD7F88420D7F88C30134426
:1015F4005A1ED7F88430B2FBF3F2D7F8843002FBDA
:1016040003F3C7F88C30FB6D002B0CD0FB6DD7F8BF
:101614008C20D21AD7F888301344BA689A4202D27E
:101624006FF01B0327E297F86330002B00F0B880BB
:10163400D7F898301A1DC7F898201B68FB66FB6D15
:10164400002B03D0D7F88C30FA6E1A607B6E5A1ECA
:101654007A66002B05DCF86E19F0CEF80346002BF1
:1016640001D0012300E0002387F853307B6803F0A6
:101674000203002B14BF0123002387F8523097F88C
:101684005330002B06D097F8523083F00103DBB2BD
:10169400002B7CD1FB6DD7F88C20D31A9B08FB64FC
:1016A40097F85230002B11D0FB6C7F2B0ED94FF4DE
:1016B4001F73B04AB049B14819F06BF9B04819F03A
:1016C40068F94FF41F71AB4819F04AF9D7F8803024
:1016D4000F2B0ED940F28123A64AA749A74819F037
:1016E40058F9A84819F055F940F28121A14819F098
:1016F40037F9FB6D002B2DD0FB6CD9B207F130020A
:10170400D7F8803013440A461A707B6FD9B207F1B8
:101714002002D7F8803013440A461A7097F85330E1
:10172400002B13D007F13002D7F8803013441B7814
:1017340063F07F03D9B207F13002D7F88030134445
:101744000A461A70BB6F0133BB671BE0FB6F0133A2
:10175400FB6717E097F85330002B03D0BB680133C5
:10176400BB600FE097F85B30002B03D0BB680233FB
:10177400BB6007E0F86EFEF705FD0246BB68134444
:101784000233BB60D7F880300133C7F88030D7F814
:101794008C300433C7F88C30002387F8633063E05F
:1017A400D7F88830042B13D1D7F898301A1DC7F80E
:1017B40098201B687B64FB6D002B03D0D7F88C301A
:1017C4007A6C1A60D7F88C300433C7F88C304BE04D
:1017D400D7F88830042B13D1D7F898301A1DC7F8DE
:1017E40098201B68BB64FB6D002B03D0D7F88C30AA
:1017F400BA6C1A60D7F88C300433C7F88C3033E0F5
:10180400D7F88830082B1BD1D7F89830073323F04A
:10181400070303F10802C7F89820D3E90023C7E9B6
:101824000423FB6D002B05D0D7F88C10D7E90423D3
:10183400C1E90023D7F88C300833C7F88C3013E0A3
:1018440040F2C6234B4A4C494C4819F0A2F8D7F849
:1018540088104D4819F09DF840F2C621454819F00A
:101864007FF800BF00E000BF3B6801333B603B688A
:101874001B78002B7FF44BAD00BFFB6DD7F88C2099
:10188400D31AB3F5806F0ED340F2D223394A3A49C2
:101894003A4819F07EF83D4819F07BF840F2D2211D
:1018A400344819F05DF8FB6D002B07D1FB6DD7F8B8
:1018B4008C20D21ABB681344083BDCE0FB6D002289
:1018C4001A60FB6DD7F88C20D31A9B08DAB27B6DB3
:1018D4001A7097F85B30002B07D07B6D00225A708A
:1018E400FB6FDAB27B6DDA7006E0FB6FDAB27B6D08
:1018F4005A707B6D0022DA70BB6FDAB27B6D9A701E
:10190400BB6F002B32D000233B672AE007F1300283
:101914003B6F13441B785BB2002B1EDA07F13002D5
:101924003B6F13441B7803F07F0387F84330FB6D50
:10193400D7F88C20D31A0133BA689A4202D26FF0D6
:101944001B0398E0D7F88C3097F843201A70D7F827
:101954008C300133C7F88C3000E000BF3B6F01339B
:101964003B673A6FD7F880309A42CFD300233B6766
:1019740078E000BF946E0200046F0200E46E02007F
:10198400086F02002C6F0200486F0200606F0200B3
:10199400BB6F002B07D007F130023B6F13441B7859
:1019A4005BB2002B5ADB97F85B30002B10D000237E
:1019B400C7F88830D7F88C3007F120013A6F0A4411
:1019C40012781A70D7F88C300133C7F88C301AE0CB
:1019D40007F130023B6F13441B789B00FA6D1344EC
:1019E4001B68FB6607F130023B6F13441B789B00B6
:1019F400FA6D134400221A60F86EFEF7C3FB034627
:101A04000133C7F88830FB6DD7F88C20D21AD7F889
:101A1400883013440133BA689A4202D26FF01B0330
:101A240029E0D7F88C3007F130013A6F0A44127874
:101A34001A70D7F88C300133C7F88C30D7F88C3053
:101A4400D7F88820F96E184624F03CF9D7F88C2092
:101A5400D7F888301344C7F88C3000E000BF3B6FE0
:101A640001333B673A6FD7F880309A4290D3FB6DCD
:101A7400D7F88C20D31A18469037BD4680BD00BFD6
:101A840080B483B000AF7860034A7B68136000BF02
:101A94000C37BD4680BC70478C00002080B500AF79
:101AA40024F0B0F90346024A9B58184680BD00BF93
:101AB4000800000080B584B000AFF860B9607A60B7
:101AC4003B6018F03BFF024624F09CF903460649AC
:101AD4005A50FB683A687968B8689847FFF7DEFFA0
:101AE4000346184618F031FF0800000080B584B0A2
:101AF40000AF7860396020220021786824F0EFF884
:101B04003B68DA687B68DA613B689A687B689A614B
:101B14003B681A687B681A623B685A687B685A6239
:101B24007B6800229A623B681A697B681A617B6849
:101B34005B6A184618F03FFF0346002B05D07B680C
:101B44001B6943F001027B681A617B682C33012214
:101B54000021184618F047FFF860FB68002B09D0F5
:101B64002F23064A0649074818F013FF2F2103487C
:101B740018F0F6FE00BF1037BD4680BD7870020035
:101B8400A8700200B470020080B5A6B000AFF8607F
:101B9400B960C7E900230023C7F894300023FB622F
:101BA400012387F8933000237B620023C7F88C302D
:101BB400FB685B6ABA689A4201D9002374E1FB6846
:101BC4001433C7F88030EFF31183FB67FB6FBB67F7
:101BD40020237B677B6F83F3128800BFBFF36F8F73
:101BE40000BFBB6FBB61D7F880303B67386F15F01F
:101BF4009FFF034683F00103DBB2002B0DD0882343
:101C0400AB4AAC49AC4818F0C4FE396FAB4818F085
:101C1400C0FE8821A64818F0A3FE00BFD7F8803084
:101C2400FB66F86E15F0D2FF00BFBB693B627B6AAE
:101C3400002B08D07B6A1A46D7F88C10F86819F084
:101C440013F900237B6207F128031946F86818F09A
:101C5400F5FE034687F88B30BB6ABA689A4232D8DD
:101C6400FB681A6AFB681B689B001344C7F894302E
:101C7400D7F8942013786FF300031370D7F89420E7
:101C840013786FF341031370BB68FA68BA667B6616
:101C9400BB6E1B687A6E1946B86E18F08EFF02464A
:101CA400BB6E1A60BB6E1A68BB6EDB689A4205D1C4
:101CB400BB6E1B6943F00802BB6E1A6100BF0023B0
:101CC40087F89330AFE097F88B30002B08D0BB6ACD
:101CD4001946F86818F0CDFF012387F89330A2E085
:101CE400D7E900234FF000004FF000018B4208BFFA
:101CF400824200F0858022F056FE034683F0010301
:101D0400DBB2002B7CD03B6A3B663B6E002B0CBFE6
:101D140001230023DBB2002B72D0FB6814337B64F5
:101D24003B6A7B61786C15F01FFF034683F0010367
:101D3400DBB2002B0FD040F231135D4A60495E489C
:101D440018F027FE796C5F4818F023FE40F2311139
:101D5400574818F005FE7B693B643B6CFB63FB6BE7
:101D640083F3118800BFBFF36F8F00BF00BF00BFB4
:101D7400FB6803F12C01D7E90023084618F043FE61
:101D8400C7F88400FB681433FB65EFF31183BB656C
:101D9400BB6D7B6520233B653B6D83F3128800BFDD
:101DA400BFF36F8F00BF7B6D3B61FB6DFB64F86C11
:101DB40015F0BEFE034683F00103DBB2002B0DD009
:101DC40088233B4A3B493C4818F0E3FDF96C3B4807
:101DD40018F0DFFD8821364818F0C2FD00BFFB6D06
:101DE400BB64B86C15F0F2FE00BF3B693B62D7F8E8
:101DF4008430002B0CBF0123002387F8933012E0BA
:101E040097F89330002B0ED0FB681B68C7F88C3012
:101E1400B96A07F1240307F12C02F86818F06EFF81
:101E2400034687F89330FB681433BB633B6AFB615A
:101E3400B86B15F099FE034683F00103DBB2002B67
:101E44000FD040F231131A4A1D491B4818F0A1FD66
:101E5400B96B1C4818F09DFD40F23111144818F07C
:101E64007FFDFB697B637B6B3B633B6B83F3118877
:101E740000BFBFF36F8F00BF00BF00BFFB6A002B22
:101E84000BD0FB689B69002B05D0FB689B69FA6A41
:101E94001146F86898470023FB6297F89330002BAB
:101EA4007FF48DAED7F8943018469837BD4680BD80
:101EB400D47002000C710200B4700200247102009C
:101EC4003C7102005471020080B590B000AF78609C
:101ED40039607B68DB6938689847F8637B6814333A
:101EE400FB62EFF31183BB62BB6A7B6220233B621C
:101EF4003B6A83F3128800BFBFF36F8F00BF7B6A16
:101F04003B61FB6AFB61F86915F012FE034683F03E
:101F14000103DBB2002B0DD088232B4A2B492C481C
:101F240018F037FDF9692B4818F033FD882126484D
:101F340018F016FD00BFFB6ABB61B86915F046FED8
:101F440000BF3B697B613A68137843F00103137067
:101F54007B685B68FA6B1946786818F02EFE0246B7
:101F64007B685A60786818F0D8FD7B681433BB63CB
:101F74007B69FB60B86B15F0F7FD034683F0010342
:101F8400DBB2002B0FD040F231130F4A1249104834
:101F940018F0FFFCB96B114818F0FBFC40F231114A
:101FA400094818F0DDFCFB687B637B6B3B633B6B90
:101FB40083F3118800BFBFF36F8F00BF00BF00BF62
:101FC40000BF4037BD4680BDD47002000C710200D2
:101FD400B4700200247102003C71020054710200CA
:101FE40090B595B000AF7860002387F84F307B68D8
:101FF4001433FB63EFF31183BB63BB6B7B6320235D
:102004003B633B6B83F3128800BFBFF36F8F00BF4A
:102014007B6BFB60FB6BFB62F86A15F089FD034682
:1020240083F00103DBB2002B0DD08823524A5349BD
:10203400534818F0AEFCF96A524818F0AAFC8821FB
:102044004D4818F08DFC00BFFB6BBB62B86A15F0FD
:10205400BDFD00BFFB687B6107F118031946786872
:1020640018F018FD7B681A6A7B689B689B00134410
:10207400BB64BB69002B05D0B86C18F081FD034626
:10208400002B02D00023BB6441E0B86C18F0BBFD08
:1020940078647B6C002B08D1B86C18F05EFD0346A5
:1020A40083F00103DBB2002B1DD07B6C002B05D128
:1020B4007B68DB69B86C9847034600E07B6C3B6443
:1020C4007B689B683A6C1946786818F076FD02467E
:1020D4007B689A603B6C1946786818F0B1FD01235F
:1020E40087F84F3013E0BA6C137843F0020313708F
:1020F4007B689C687B68DB69B86C984703461A4622
:102104002146786818F059FD02467B689A607B681E
:1021140014337B627B693B61786A15F025FD0346C5
:1021240083F00103DBB2002B0FD040F23113124ACB
:102134001549134818F02DFC796A144818F029FC45
:1021440040F231110C4818F00BFC3B693B623B6ACE
:10215400FB61FB6983F3118800BFBFF36F8F00BF7E
:1021640000BF00BF97F84F30002B7FF43DAFBB6C2E
:1021740018465437BD4690BDD47002000C7102005D
:10218400B4700200247102003C7102005471020018
:1021940080B590B000AF786039607B68DB693868DF
:1021A4009847F8637B6814337B63EFF311833B63D5
:1021B4003B6BFB622023BB62BB6A83F3128800BFC4
:1021C400BFF36F8F00BFFB6ABB607B6B7B62786A77
:1021D40015F0AEFC034683F00103DBB2002B0DD0F7
:1021E4008823414A4149424818F0D3FB796A41485F
:1021F40018F0CFFB88213C4818F0B2FB00BF7B6B82
:102204003B62386A15F0E2FC00BFBB683B613B6887
:10221400BB63BA6B13786FF3000313707B681B699D
:1022240003F00203002B08D07B681A6A7B68DB6822
:102234009B0013443A689A421AD1BA6B13786FF32D
:10224400410313707B68DA687B689B689A4209D102
:102254007B689B68FA6B1946786818F0AEFC0246F6
:102264007B689A60FB6B1946786818F0E9FC07E014
:10227400FB6B23F04041BA6B136861F39F03136057
:102284007B681433FB613B69FB60F86915F06CFCF7
:10229400034683F00103DBB2002B0FD040F231136D
:1022A400114A1549124818F074FBF969134818F0DB
:1022B40070FB40F231110C4818F052FBFB68BB6113
:1022C400BB697B617B6983F3118800BFBFF36F8FA8
:1022D40000BF00BF00BF7B682C33184618F0A3FB77
:1022E40000BF4037BD4680BDD47002000C710200AF
:1022F400B4700200247102003C71020054710200A7
:1023040080B590B000AF78607B6814333B63EFF323
:102314001183FB62FB6ABB6220237B627B6A83F3CB
:10232400128800BFBFF36F8F00BFBB6A3B613B6B7A
:102334003B62386A15F0FCFB034683F00103DBB211
:10234400002B0DD08823284A2849294818F021FB5E
:10235400396A284818F01DFB8821234818F000FB2F
:1023640000BF3B6BFB61F86915F030FC00BF3B69B3
:102374007B6107F118031946786818F08BFB7B68BA
:102384001433FB637B69FB60F86B15F0EDFB0346CC
:1023940083F00103DBB2002B0FD040F23113124A59
:1023A4001549134818F0F5FAF96B144818F0F1FAC6
:1023B40040F231110C4818F0D3FAFB68BB63BB6BD5
:1023C4007B637B6B83F3118800BFBFF36F8F00BF08
:1023D40000BF00BFBB69002B14BF01230023DBB285
:1023E40018464037BD4680BDD47002000C7102000F
:1023F400B4700200247102003C71020054710200A6
:1024040080B58AB000AF786039607B6814337B6232
:10241400EFF311833B623B6AFB612023BB61BB6921
:1024240083F3128800BFBFF36F8F00BFFB69BB60EB
:102434007B6A7B61786915F07BFB034683F00103BB
:10244400DBB2002B0DD08823104A1149114818F033
:10245400A0FA7969104818F09CFA88210B4818F002
:102464007FFA00BF7B6A3B61386915F0AFFB00BFA0
:10247400BB68FB607B683A689A61FA6801217868F6
:1024840000F0BAF800BF2837BD4680BD6C71020069
:10249400A4710200BC710200DC71020080B586B038
:1024A40000AFF860B9607A60FB689B8B03F00703A8
:1024B4003B617B68002B0EDABB68FA6892E8030084
:1024C40083E80300FB68184618F00DFD0121F86845
:1024D40018F0D9FD84E03B69062B02D03B69052B3B
:1024E4005DD1BB68FA6892E8030083E80300FB68E7
:1024F400184618F0F8FC3B69062B2FD1B86818F081
:1025040033FD0346002B04D0B86818F02DFD0346B4
:1025140000E000237B6119E0FB68DB8B01339AB296
:10252400FB68DA837B69002B0ED07B69184618F0B0
:102534004EFD0346002B05D07B69184618F047FD75
:10254400034602E0002300E000237B617B69002B4B
:10255400E2D10221F86818F096FD12E03B69052BE0
:102564000BD040F20913204A2049214818F011FAEF
:1025740040F209111C4818F0F3F90021F86818F02A
:1025840082FDF86818F06CFE0346002B28D0FB6827
:102594009B8B43F020039AB2FB689A8320E03B694B
:1025A400042B11D10021F86818F06DFDF86818F0BB
:1025B40057FE0346002B13D0FB689B8B43F020038C
:1025C4009AB2FB689A830BE040F21B13064A09494E
:1025D400074818F0DEF940F21B11034818F0C0F95F
:1025E40000BF1837BD4680BDF4710200247202009A
:1025F400BC7102004C72020080B59AB000AFF86062
:10260400B9607A60FB689B8B03F007037B66002349
:102614003B66FB689B8B03F00803002B14BF01236C
:10262400002387F85B30BB68002B0BD140F23313D7
:10263400924A9349934818F0ACF940F233118F4809
:1026440018F08EF997F85B30002B21D0BB68012B72
:1026540007D1FB689B8B43F010039AB2FB689A8303
:1026640001E2BB68022B0BD04FF49E73834A864968
:10267400844818F08EF94FF49E71804818F070F970
:10268400FB689B8B43F020039AB2FB689A83EAE1D0
:1026940007F11C03184618F026FC0023FB65BB68F1
:1026A400022B03D1F86818F0DBFDB860BB68002B7F
:1026B40000F0D88100233B66BB68012B0AD1FB687C
:1026C4009B693B6607F11C033A6E1946F868FFF7ED
:1026D400E5FEBFE0BB68032B39D17B6E002B0BD02A
:1026E4004FF4AB73654A6949664818F052F94FF4E0
:1026F400AB71624818F034F9FB68184618F04AFCCC
:102704000346002B0BD040F257135C4A60495D48E6
:1027140018F03FF940F25711584818F021F9FB68B6
:102724001B691B68FB65FB6D002B0BD14FF4AD736C
:10273400524A5849534818F02CF94FF4AD714F4898
:1027440018F00EF90621F86818F09DFC82E0BB68C9
:10275400042B36D17B6E022B0BD040F25D13474A1B
:102764004D49484818F015F940F25D11434818F0F6
:10277400F7F8FB68DB8B002B0BD04FF4AF733F4AA9
:102784004649404818F005F94FF4AF713B4818F03A
:10279400E7F8FB681B695B68FB65FB6D002B0BD1DD
:1027A40040F26113354A3B49364818F0F2F840F2DA
:1027B4006111324818F0D4F80421F86818F063FC69
:1027C40048E0BB68052B39D17B6E012B0BD04FF44D
:1027D400B2732A4A32492B4818F0DBF84FF4B2712D
:1027E400264818F0BDF8FB68184618F0D3FB0346DA
:1027F400002B0BD040F26513204A2549214818F0DC
:10280400C8F840F265111D4818F0AAF8FB681B6966
:102814009B68FB65FB6D002B0BD14FF4B473174A17
:102824001C49184818F0B5F84FF4B471134818F05F
:1028340097F80521F86818F026FC0BE040F26B13BA
:102844000E4A18490F4818F0A4F840F26B110B48CF
:1028540018F086F8FB689B8B03F007037A6E9A42A4
:1028640022D0FB680833184618F094FB034683F023
:102874000103DBB2002B17D0012316E0F471020030
:1028840050720200BC710200607202007472020095
:1028940080720200A4720200BC720200D4720200B0
:1028A400E47202004C720200002387F85A3097F851
:1028B4005A3003F0010387F85A300023BB6097F8BD
:1028C4005A30002B0ED107F11C03184618F062FB96
:1028D400034683F00103DBB2002B03D1FB6D002B15
:1028E40000F09780FB689B8B43F008039BB27B65E9
:1028F4007B6D9AB2FB689A837B6D03F007037B665A
:10290400FB6814333B657B683B61386D15F02CF92B
:10291400034683F00103DBB2002B0FD040F23113E6
:10292400684A6949694818F034F8396D684818F0FC
:1029340030F840F23111634818F012F83B69FB6437
:10294400FB6CBB64BB6C83F3118800BFBFF36F8F58
:1029540000BF00BF00BF97F85A30002B04D03A6E76
:10296400796EF86818F0EFFB07F11C03184618F0AD
:1029740011FB034683F00103DBB2002B06D007F101
:102984001C013B6E7A6EF86818F048FCFB6D002B56
:1029940003D0FB6D4F49F8689847FB6814337B6498
:1029A400EFF311833B643B6CFB632023BB63BB6B82
:1029B40083F3128800BFBFF36F8F00BFFB6B7B6193
:1029C4007B6C7B63786B15F0B3F8034683F00103EB
:1029D400DBB2002B0DD088233A4A3F493B4817F01D
:1029E400D8FF796B3D4817F0D4FF8821354817F09C
:1029F400B7FF00BF7B6C3B63386B15F0E7F800BF93
:102A04007B697B60FB689B8B23F008039AB2FB68AD
:102A14009A83FB689B8B03F01003002B09D0FB689F
:102A24009B8B23F010039AB2FB689A830123BB604B
:102A34000EE0FB689B8B03F02003002B08D0FB689F
:102A44009B8B23F020039AB2FB689A830223BB601A
:102A5400FB689B8B03F007037B66BB68002B7FF44A
:102A64001CAE00E000BFFB681433FB627B68BB61F3
:102A7400F86A15F079F8034683F00103DBB2002B02
:102A84000FD040F231130F4A0F49104817F081FF5D
:102A9400F96A0F4817F07DFF40F23111094817F029
:102AA4005FFFBB69BB62BB6A7B627B6A83F311888D
:102AB40000BFBFF36F8F00BF00BF00BF00BF683708
:102AC400BD4680BD6C710200FC720200BC71020044
:102AD4001473020005240000A4710200DC710200DA
:102AE40080B592B000AF78603960002387F8473032
:102AF400002387F84630002387F845303968786822
:102B040018F0D9FA38643B6C002B01DA3B6CC9E04D
:102B14007B681433BB63EFF311837B637B6B3B6391
:102B24002023FB62FB6A83F3128800BFBFF36F8F1D
:102B340000BF3B6BFB60BB6BBB62B86A14F0F8FF71
:102B4400034683F00103DBB2002B0DD08823574AE0
:102B54005749584817F01DFFB96A574817F019FF2D
:102B64008821524817F0FCFE00BFBB6B7B62786A79
:102B740015F02CF800BFFB687B617B689B8B03F02E
:102B84000703FB637B68DB8B4FF6FF72934203D131
:102B94006FF00A033B643BE0FB6B3B64FB6B022B73
:102BA40009D1012387F845307B68DB8B01339AB266
:102BB4007B68DA832CE0FB6B002B05D0FB6B042BCA
:102BC40002D0FB6B062B0AD1FB6B002B0CBF01233D
:102BD400002387F84630012387F8473018E0FB6B61
:102BE400052B03D16FF085033B6411E0FB6B012BD4
:102BF4000BD04FF4E473314A31492E4817F0C9FE23
:102C04004FF4E4712D4817F0ABFE6FF004033B64FE
:102C140097F84730002B05D07B683A681146184670
:102C240018F0E6F997F84630002B05D07A690221AE
:102C34007868FFF7E1FC34E07B6814333B627B691E
:102C44003B61386A14F090FF034683F00103DBB262
:102C5400002B0FD040F23113144A1A49154817F0CB
:102C640098FE396A184817F094FE40F231110F4863
:102C740017F076FE3B69FB61FB69BB61BB6983F3BB
:102C8400118800BFBFF36F8F00BF00BF00BF97F86C
:102C94004530002B05D00023FA6B3968786818F0AA
:102CA400A2FA3B6C18464837BD4680BD6C710200E1
:102CB400A4710200BC710200DC710200F471020014
:102CC400E4720200FC7202001473020080B592B038
:102CD40000AF7860002387F847307B681433BB6308
:102CE400EFF311837B637B6B3B632023FB62FB6A03
:102CF40083F3128800BFBFF36F8F00BF3B6BFB6091
:102D0400BB6BBB62B86A14F013FF034683F0010384
:102D1400DBB2002B0DD08823414A4249424817F0C8
:102D240038FEB96A414817F034FE88213C4817F050
:102D340017FE00BFBB6B7B62786A14F047FF00BFCD
:102D4400FB687B617B689B8B03F00703FB63FB6B76
:102D54003B64FB6B022B0AD0FB6B012B03D16FF09E
:102D640004033B6421E06FF085033B641DE07B6852
:102D7400DB8B002B0BD140F2EF132D4A2D492A484F
:102D840017F007FE40F2EF11294817F0E9FD7B68C0
:102D9400DB8B013B9AB27B68DA837B68DB8B002B8D
:102DA4000CBF0123002387F8473097F84730002BE6
:102DB40005D07A6902217868FFF71EFC2AE07B6857
:102DC40014333B627B693B61386A14F0CDFE0346E1
:102DD40083F00103DBB2002B0FD040F23113104A11
:102DE4001549114817F0D5FD396A144817F0D1FD7B
:102DF40040F231110A4817F0B3FD3B69FB61FB69EE
:102E0400BB61BB6983F3118800BFBFF36F8F00BF41
:102E140000BF00BF3B6C18464837BD4680BD00BFAD
:102E24006C710200A4710200BC710200DC7102002A
:102E3400F47102002C730200FC720200147302008D
:102E440080B586B000AF7860396000237B610023D1
:102E54003B61786818F04BFAF8607B683A689A60CE
:102E6400FB68032B09D0FB68032B0ED8FB68012BEE
:102E740015D0FB68022B04D007E07B681B683B611C
:102E84000EE07B681B687B610AE045230C4A0D4910
:102E94000D4817F07EFD4521094817F061FD00BF7C
:102EA4007B6800225A607B69002B03D039687869FB
:102EB40018F00FFA3B6918461837BD4680BD00BFAD
:102EC400B8730200E8730200EC73020080B500AF2F
:102ED40022F098FF0346024A9B58184680BD00BF63
:102EE4000800000080B582B000AF78607B68002BDA
:102EF40009D18C230D4A0E490E4817F04AFD8C2146
:102F04000A4817F02DFD7B681B68DB68002B04D092
:102F14007B681B68DB68786898477B685B6801227C
:102F24009A7100BF0837BD4680BD00BF0C74020013
:102F3400507402006874020080B582B000AF7860FB
:102F44007B68002B09D1A0230C4A0D490D4817F0CA
:102F540020FDA021094817F003FD7B681B681B694D
:102F6400002B06D07B681B681B697868984703466A
:102F740000E0002318460837BD4680BD0C740200EB
:102F8400507402006874020080B582B000AF7860AB
:102F940039607B68002B09D1B423104A10491148C9
:102FA40017F0F7FCB4210D4817F0DAFC3B68002B4E
:102FB40009D1B523094A0C490A4817F0EAFCB5219E
:102FC400064817F0CDFC7B681B681B683968786875
:102FD400984700BF0837BD4680BD00BF0C7402008F
:102FE40050740200687402008874020080B582B0D4
:102FF40000AF786039607B68002B09D1C4230C4A88
:103004000C490D4817F0C5FCC421094817F0A8FC69
:103014007B681B685B68002B05D07B681B685B685A
:1030240039687868984700BF0837BD4680BD00BF3F
:103034000C740200507402006874020080B582B0FF
:1030440000AF78607B68002B09D1D223084A094974
:10305400094817F09EFCD221054817F081FC7B68D3
:103064001B689B687868984700BF0837BD4680BDD9
:103074000C740200507402006874020080B582B0BF
:1030840000AF78600B46FB707B68002B09D1E1230D
:10309400084A0949094817F07CFCE121054817F062
:1030A4005FFC7B685B68FA781A7100BF0837BD461D
:1030B40080BD00BF0C7402005074020068740200EA
:1030C40080B485B000AF78607B681B01044A134468
:1030D400FB60FB6818461437BD4680BC704700BFD0
:1030E4008C62020080B483B000AF054A054BD31A4A
:1030F4001B097B607B6818460C37BD4680BC704753
:103104009C6202008C62020080B582B000AF7860DD
:103114007B68002B0BD140F23513084A0849094853
:1031240017F037FC40F23511044817F019FC7B689E
:103134005B685B7918460837BD4680BD0C74020095
:10314400507402006874020080B584B000AFF86067
:103154000B467A60FB72FB68002B0BD14FF4B27301
:103164000C4A0D490D4817F014FC4FF4B27109488C
:1031740017F0F6FBFB681B689B69002B06D0FB6805
:103184001B689B69F97A7A68F868984700BF10371A
:10319400BD4680BD0C7402005074020068740200C5
:1031A40080B483B000AF7860044A7B6852F823305F
:1031B40018460C37BD4680BC704700BFF0D60200ED
:1031C40080B590B002AF464818F00DF97863454BCE
:1031D4001B78002B60D0444B7B62EFF311833B627E
:1031E4003B6AFB612023BB61BB6983F3128800BF88
:1031F400BFF36F8F00BFFB69BB607B6A7B6178693B
:1032040014F096FC034683F00103DBB2002B0DD0CF
:103214008823364A3649374817F0BBFB7969364864
:1032240017F0B7FB8821314817F09AFB00BF7B6A7F
:103234003B61386914F0CAFC00BFBB68FB6018F03E
:1032440069FA294B3B63FB687B60386B14F08CFC98
:10325400034683F00103DBB2002B0FD040F231139D
:10326400224A2649234817F094FB396B244817F067
:1032740090FB40F231111D4817F072FB7B68FB6232
:10328400FB6ABB62BB6A83F3118800BFBFF36F8F15
:1032940000BF00BF00BF1FE01A4B1B68002B1BD0F0
:1032A4007B6B002B0FD14FF400404FF000014FF027
:1032B40000024FF00003CDE9002302460B461248FA
:1032C40018F0DAF908E07B6B092B05D10E4818F0E9
:1032D400E6F90E4818F007FA00BF3837BD4680BD3E
:1032E400F8100020791600200C110020A0740200B0
:1032F400D874020068740200F074020008750200B9
:10330400207502000011002020040020F00300209A
:1033140080B584B000AF254B00221A70244B0022E4
:103324001A60244B00221A604FF40043BB60B96852
:10333400214800F0F7F800F0DBFA204BFB6015E0C1
:1033440001237B600020FFF7BBFE0246FB689B1A4B
:103354001B111A467B6813447B607B68DBB21946F9
:10336400F868FFF78BFEFB681033FB60FB68144AB8
:1033740093420ED940F22713124A1349134817F007
:1033840008FB134817F005FB40F227110D4817F00E
:10339400E7FAFB680A4A934234BF01230023DBB2F5
:1033A400002BCDD11037BD4680BD00BF791600205B
:1033B400FC100020F810002061B701008C620200AC
:1033C4009C62020038750200707502006874020085
:1033D4009475020080B586B000AF03460A46FB71BF
:1033E4001346BB7100237B61FFF77CFE0346082B69
:1033F4000BD94FF4A673364A3649374817F0C9FA41
:103404004FF4A671324817F0ABFA344817F0EBFFCB
:103414000346002B01D0002355E000233B61304BD1
:10342400FB6022E0FB681B7B002B18D0F868FFF7D9
:1034340059FDF868FFF780FD0346002B08D1FB68AF
:103444005B681B6804221946F86818F05AFA06E00B
:1034540001223B6902FA03F37A6913437B613B69F6
:1034640001333B61FB681033FB60FB681D4A9342E8
:103474000ED94FF4AC73164A1B49174817F089FA52
:103484001A4817F086FA4FF4AC71114817F068FA2D
:10349400FB68144A934234BF01230023DBB2002BA0
:1034A400C0D1FB79002B0DD009E0786918F05DF9E3
:1034B4007861BB79002B02D00A2018F02AF87B69C6
:1034C400002BF2D17B6918461837BD4680BD00BF7A
:1034D40038750200B475020068740200F41000200C
:1034E4008C6202009C6202007075020094750200F6
:1034F40080B582B000AF7860074A7B6813607B6850
:10350400002B06D0054B1B68092B02DD044818F07C
:10351400EAF80837BD4680BD00110020F8100020ED
:10352400F003002080B582B000AF786039607B681A
:10353400002B02D16FF0150309E0074A7B68136082
:10354400064A3B681360386801F00EF900231846F8
:103554000837BD4680BD00BF940000200411002040
:1035640080B582B000AF214B1B78002B39D10021EC
:103574000120FFF72FFF1E4B7B600BE07868FFF7FD
:10358400C3FD0346002B02D07868FFF757FD7B6824
:1035940010337B607B68174A93420ED940F2C513FF
:1035A400154A1649164817F0F4F9164817F0F1F9B8
:1035B40040F2C511104817F0D3F97B680D4A9342C5
:1035C40034BF01230023DBB2002BD7D100BF18F096
:1035D400A1F80346002BFAD100BF044B01221A7054
:1035E40000E000BF0837BD4680BD00BF791600204B
:1035F4008C6202009C620200387502007075020041
:10360400687402009475020080B584B000AF7860DD
:103614001B4BFB6013E0F868FFF776FD0346002BB5
:103624000AD07968F86818F0DBF80346002B03D059
:103634007968F868FFF7A8FCFB681033FB60FB6847
:10364400104A93420ED94FF400730F4A0F491048A1
:1036540017F09FF90F4817F09CF94FF400710A48CE
:1036640017F07EF9FB68074A934234BF0123002315
:10367400DBB2002BCFD100BF00BF1037BD4680BDE9
:103684008C6202009C6202003875020070750200B0
:10369400687402009475020080B582B000AF00F037
:1036A4000BF93860184B7B600CE07868FFF72CFD51
:1036B4000346002B03D039687868FFF797FC7B68D2
:1036C40010337B607B68114A93420ED94FF4037325
:1036D4000F4A1049104817F05CF9104817F059F9CF
:1036E4004FF403710A4817F03BF97B68074A934289
:1036F40034BF01230023DBB2002BD6D100BF00BFAF
:103704000837BD4680BD00BF8C6202009C62020087
:103714003875020070750200687402009475020026
:1037240080B588B004AF0021124817F076FE034636
:10373400FB600323012B19D90123FB72FB7A83F06D
:103744000103DBB2002B11D10B4B1968FB68039307
:103754000A4B0293002301930023009300230222C7
:10376400002017F074FE00237B6000BF00BF1037F9
:10377400BD4680BD0811002090000020E8750200BD
:1037840080B500AF074B1B7883F00103DBB2002B3D
:1037940002D0054817F0A7FF024B01221A7000BFA0
:1037A40080BD00BF7A160020F00300202DE9B0434D
:1037B40084B000AF4FF000024FF00003C7E90023CC
:1037C4002A4B1B7883F00103DBB2002B01D00023CA
:1037D40047E03B46184600F0CDF8F860FB68002B44
:1037E40008D0F868FFF710FFF86800F0DDF820480B
:1037F40017F006FE00F06CF80346FB7218F005F8AB
:103804000346BB72FB7A002B02D1BB7A002B1BD080
:1038140017F0ADFE02460B4610461946154BD3E988
:103824000023841A61EB030540F2E9339C4275F1ED
:10383400000309D3FB7A002B01D0FFF72DFFBB7ADD
:10384400002B01D0FFF76CFF0A4BD3E9002312F5DC
:103854007A7843F10009074BC3E9008900F0B4F812
:10386400034618461037BD46BDE8B0837A160020DB
:10387400F81000205804002080B582B000AF034641
:10388400FB71094817F0AFFDFB79002B02D0074804
:1038940017F0B6FD064817F002FF064817F023FF9D
:1038A40000BF0837BD4680BDFC100020F810002082
:1038B40020040020F003002080B500AF002103485D
:1038C40017F0ABFD0346184680BD00BFFC10002076
:1038D40080B400AF054B1B68002BCCBF0123002331
:1038E400DBB21846BD4680BC704700BFFC10002008
:1038F40080B500AF04490548FEF7F8F8044B034AC5
:103904001A6000BF80BD00BF00D70200580300202A
:103914001011002080B582B000AF78607968044847
:1039240017F07AFF034618460837BD4680BD00BF2E
:103934005803002080B582B000AF7860064B1B6846
:10394400984702467B689A607968044817F078FFC4
:1039540000BF0837BD4680BD9400002058030020F6
:1039640080B500AF0248FEF73BFB0346184680BD16
:103974005803002080B584B000AF7860074A084B34
:10398400D31A084AA2FB03239B09FB60FFF7E8FF55
:10399400034618461037BD4680BD00BF9C03002077
:1039A40058030020F1F0F0F080B582B000AF7860E9
:1039B400044B1B687968184617F053FF00BF08379B
:1039C400BD4680BD1011002080B584B000AF002337
:1039D400FB60084A084BD31A084AA2FB03239B093D
:1039E400BB60074817F04BFF034618461037BD4627
:1039F40080BD00BF9C03002058030020F1F0F0F0CC
:103A04005803002080B584B000AF03463960FB71D1
:103A1400164BFB6008E0FB793A681946F868FFF733
:103A240093FBFB681033FB60FB68114A93420ED989
:103A340040F29D330F4A1049104816F0AAFF10486F
:103A440016F0A7FF40F29D310A4816F089FFFB6883
:103A5400074A934234BF01230023DBB2002BDAD19F
:103A640000BF00BF1037BD4680BD00BF8C6202009E
:103A74009C620200387502007075020068740200CE
:103A84009475020080B582B000AF7860034817F0E7
:103A94002AFE00BF0837BD4680BD00BFF0030020EA
:103AA40080B58AB000AFF860B9607A60FFF71AFB9E
:103AB4000346002B0BDC40F2A9332D4A2D492E4836
:103AC40016F067FF40F2A931294816F049FF4FF07C
:103AD400FF33FB610023FB7600210020FFF77AFC13
:103AE40078627B6A002B06D040F267624FF00003D5
:103AF400C7E9042305E04FF0FF324FF0FF33C7E975
:103B04000423002387F82330FFF7E0F9034618461F
:103B1400FFF7EEFC7B6A002B0CD0786A17F025FEC9
:103B240078627B6A002B05D14FF0FF324FF0FF33F0
:103B3400C7E9042317F0EEFD034683F00103DBB26B
:103B4400002B10D097F82330002B06D0002387F8E1
:103B5400233000210020FFF755FFD7E9042307484D
:103B640017F0B1FDD6E7012387F82330D2E700BF71
:103B7400387502007876020068740200F0030020B1
:103B840080B588B008AF00221149124821F031FDF8
:103B94004FF000024FF00003CDE906230023049305
:103BA4000E23039300230293002301930023009325
:103BB400094B4FF480520949094817F021FD09497E
:103BC400074817F04BFD00231846BD4680BD00BFD3
:103BD400893A000020040020A53A0000881600203D
:103BE400600C00209476020080B483B000AF78604B
:103BF4007B68044A9B1ADB0818460C37BD4680BC18
:103C0400704700BF1462020080B500AF0248FFF79E
:103C1400EBFF0346184680BD8C62020080B582B07B
:103C240000AF786039607B68002B0BD14FF48D7343
:103C34000A4A0B490B4816F0ACFE4FF48D71074845
:103C440016F08EFE7B685B683A681A607B685B6876
:103C540001225A7100BF0837BD4680BD9C76020020
:103C6400E0760200F876020080B582B000AF78609A
:103C740039607B68002B09D1B823094A09490A48ED
:103C840016F087FEB821064816F06AFE7B689A682B
:103C94003B685B0013449B8818460837BD4680BDCB
:103CA4001877020058770200F876020090B587B0C2
:103CB40002AFF860B9603B601346FB80FB68002BE1
:103CC40009D1E223124A1349134816F062FEE22195
:103CD4000F4816F045FE3B68002B09D1E3230C4A3C
:103CE4000E490D4816F055FEE321094816F038FE3A
:103CF400FB681B68DC68FA883B6A00933B68B96818
:103D0400F868A047034618461437BD4690BD00BF67
:103D14001877020058770200F876020060770200F4
:103D240080B584B000AF03463960FB71204BFB6063
:103D34001BE0FB689B689B68DAB2FB689B681B68A6
:103D4400DBB21344FB72FA79FB7A9A420AD2FB681B
:103D54009B689B68DBB2FA79D31ADAB23B681A70B3
:103D6400FB6820E0FB681833FB60FB68114A934250
:103D74000CD95823104A1149114816F00AFE11486B
:103D840016F007FE58210C4816F0EAFDFB68094AB4
:103D9400934234BF01230023DBB2002BC9D13B681B
:103DA40000221A70002318461037BD4680BD00BF9C
:103DB4009C6202009C62020078770200B0770200E5
:103DC400F8760200CC77020080B584B000AF0346D9
:103DD400FB7107F10B02FB7911461846FFF7A0FFB0
:103DE400F860FB68002B09D1C123094A09490A4834
:103DF40016F0CFFDC121064816F0B2FDFB7A194634
:103E0400F868FFF731FF034618461037BD4680BDFA
:103E140078770200EC770200F876020080B58AB069
:103E240002AF03463960FB71234BDB693B61FB79CD
:103E34003B733B689BB2FB81FB6807F11402194694
:103E44001D4817F082FE034683F00103DBB2002B0A
:103E54002CD007F10B02FB7911461846FFF760FFDF
:103E6400F861FB69002B09D1E523144A144915486C
:103E740016F08FFDE521114816F072FDFB7A184605
:103E84003B689AB2796907F1100300930B46014627
:103E9400F869FFF70BFFB861BB69002B01DA002357
:103EA40005E07B691946044817F0D2FE7B69184681
:103EB4002037BD4680BD00BF141100207877020072
:103EC400EC770200F876020080B582B000AF78602B
:103ED40039607B68DBB2184617F0E4FC0346002B1C
:103EE4000DD0786817F0E9FC02463B68934204D28F
:103EF400084A3B6852F8333008E0002306E07B6848
:103F0400DBB239681846FFF789FF034618460837BD
:103F1400BD4680BD1462020080B483B000AF7860F7
:103F24007B68044A9B1ADB0818460C37BD4680BCE4
:103F3400704700BF1462020080B590B004AFB9604E
:103F44007B600346FB731346BB733B6C002B19D099
:103F54007B6C3B613B6900933B6CFA6B1021002046
:103F6400FDF770F9F862FB6A002B0DDA40F2651375
:103F74004A4A4B494B4816F00CFD40F2651147483C
:103F840016F0EEFC0023FB62FB6AB3F5006F1DD351
:103F94000323012B7FD90123FB77FB7F83F00103EC
:103FA400DBB2002B77D1404B196840F2FF730393C7
:103FB4003E4B02930023019300230093002302222B
:103FC400002017F057FE0023BB6164E0FA6ABB6B64
:103FD4001344173323F0070303339B08BB623B7D71
:103FE4006FF300033B753B7D6FF341033B753B7DF2
:103FF4006FF382033B75FB7B03F00703DAB23B7D6F
:1040040062F3C5033B75BB7B03F00703DAB2BB8ADB
:1040140062F38813BB82FB6AC3F30A039AB27B6917
:1040240062F353237B61BB6BC3F30B039AB2FB8A2A
:1040340062F30F13FB82B86AFFF76CFC78627B6A49
:10404400002B02D07B6A103300E000233B623B6A02
:10405400002B1AD03B6C002B17D0F96A7B6C0093B1
:104064003B6CFA6B386AFDF7EDF8F862FB6A002BDB
:104074000BDA4FF4C473094A09490A4816F089FC5B
:104084004FF4C471054816F06BFC7B687A69B96813
:10409400786A17F03DFE3037BD4680BDC078020017
:1040A400247902000479020098000020307902008B
:1040B40080B584B000AFF860B9607A607B68BA6894
:1040C4000449F86816F0B8FB034618461037BD4695
:1040D40080BD00BF116A000080B586B000AF786073
:1040E40039603B687B617B695B681B687A69D2686D
:1040F400934202D1786917F002FF7B695B68184626
:1041040017F073FE38617B699A683B6913447A68D7
:10411400D2B21A707B695B681B681A467B69DB68DC
:104124009A4209D97223074A0749084816F031FC14
:104134007221044816F014FC002318461837BD46B3
:1041440080BD00BF88790200C0790200F0790200C6
:104154000EB480B585B000AF78600023FB6007F132
:104164002003BB60BB68FA697968064802F04EFC1C
:10417400F860FB6818461437BD46BDE8804003B0BC
:10418400704700BFDD40000080B592B004AFF86016
:10419400B9607A60BB6803F04403002B14BF0123A9
:1041A400002387F8333097F8333083F00103DBB210
:1041B400002B06D07A683849F868FFF7C9FF78639E
:1041C40065E0364B1B68002B5FD0354B1B687A6863
:1041D400B2FBF3F37B60314B1B687A68B2FBF3F3F9
:1041E400FB622E4B1A687B68B3FBF2F101FB02F20F
:1041F4009B1ABB62BB6A4FF47A7203FB02F2274B31
:104204001B68B2FBF3F37B62BB6A4FF47A7203FB65
:1042140002F2224B1B68796A01FB03F3D31A4FF4B1
:104224007A7203FB02F21D4B1B68B2FBF3F33B6291
:10423400FB6AFB61FB691B4AA2FB0323DB0ABB612C
:10424400BB694FF4616202FB03F3FA69D31AFB61A1
:10425400FB69154AA2FB03235B097B617A69134658
:104264001B019B1A9B001A46FB699B1AFB613B6A64
:1042740002937B6A0193FB6900937B69BA690B49DA
:10428400F868FFF765FF786301E000237B637B6BCD
:1042940018463837BD4680BD107A0200341100201C
:1042A40038110020C5B3A291898888881C7A02003D
:1042B40080B586B000AFF8607B600B46FB72134696
:1042C400BB72FB7A002B14D0BB7A002B0AD00B4AAA
:1042D4007B6852F82330002B04D0084A7B6852F8DC
:1042E400233000E0064B7B617A690649F868FFF7E2
:1042F4002FFF00BF1837BD4680BD00BF28D702007E
:10430400387A0200407A020080B584B000AF786049
:10431400084611461A460346FB700B46BB7013460B
:104324007B700023FB60FB78002B0CD0194A7B6A5E
:1043340052F823301A4618497868FFF709FF0246F5
:10434400FB681344FB60BB69002B08D0BA691349AE
:104354007868FFF7FDFE0246FB681344FB60FB69C7
:10436400002B11D0BB78002B04D07B6A042B01D125
:104374000B4B00E00B4BFA6919467868FFF7E8FE2F
:104384000246FB681344FB60FB6818461037BD46C1
:1043940080BD00BF14D70200447A02004C7A0200A8
:1043A400507A0200547A020080B582B000AF78607F
:1043B40039603B6803F01003002B0ED13B6803F017
:1043C4002003002B04D007497868FFF7C1FE05E0FD
:1043D40005497868FFF7BCFE00E000BF0837BD461A
:1043E40080BD00BF5C7A0200607A020080B588B0AC
:1043F40000AFF860B9607A603B60B96AF868FFF7AB
:10440400D3FF0023FB6106E03749F868FFF7A0FEFD
:10441400FB690133FB61FA693B689A42F4DB0023D0
:10442400BB6120E0BB69002B08DDBB6903F0070317
:10443400002B03D12C49F868FFF78AFEBB697A6820
:104444009A4209D9BB69BA6813441B781A462749AA
:10445400F868FFF77DFE03E02549F868FFF778FE6A
:10446400BB690133BB61BB690F2BDBDD2149F868F4
:10447400FFF76EFE00237B612DE07B69002B08DDD6
:104484007B6903F00703002B03D11749F868FFF792
:104494005FFE7B697A689A4216D97B69BA681344CD
:1044A4001B78FB74FB7C8033134A13441B7803F0A2
:1044B4009703002B01D0FB7C00E02E231A460F4902
:1044C400F868FFF745FE03E00749F868FFF740FE88
:1044D4007B6901337B617B690F2BCEDD00BF00BF9D
:1044E4002037BD4680BD00BF647A0200687A0200AE
:1044F400707A0200747A0200BFDE0200787A020049
:1045040090B58DB004AFF860B9603B601346FB71A1
:1045140097F83C30042B0BD940F24623384A3949EA
:10452400394816F036FA40F24621354816F018FAA2
:104534000023FB61BB6803F00203002B14BF0123BB
:104544000023FB76BB6803F00103002B14BF012397
:104554000023BB76BB6803F00803002B14BF0123C0
:1045640000237B760023FB74BB6803F48073002B69
:1045740014BF012300233B7617F08DF978617B6922
:10458400002B09D07A692149F868FFF7E1FD034659
:104594001A46FB691344FB61FB7E002B09D03A6881
:1045A400B968F868FFF7F0FD03461A46FB6913443F
:1045B400FB6197F83C20BB7E1946F86817F0CDFCE8
:1045C400FC7C3B7E002B01D0002300E07B6B97F842
:1045D4003C20F879797E0392BA6B029201933B6B8B
:1045E400009323460246F868FFF78EFE03461A46F8
:1045F400FB691344FB61FB6918462437BD4690BD33
:10460400887902009C7A0200F0790200847A020020
:1046140080B58CB004AFF860B9607A603B6097F8FD
:104624002C30002B0CBF01230023FB75FB7D83F092
:104634000103DBB2002B12D097F82C300393BB6A32
:1046440002933B6801937B680093BB680022F96B7B
:10465400F868FFF755FFF861214BBB6108E00023C0
:10466400FB613B68012B01D11D4B00E01D4BBB617D
:104674003B6B002B14D03A6BF968B869FFF718FD4F
:1046840038613B69002B0BDA4FF42873164A17493B
:10469400174816F07EF94FF42871134816F060F9A4
:1046A400BB6B002B08D0FA69FB6B00931346BA6B03
:1046B400796BF86817F073FCFB7D83F00103DBB2C0
:1046C400002B06D097F82C301A46F96BF86817F0CF
:1046D4008AFCF86817F013FC00BF2037BD4680BD84
:1046E400DD40000035BF010088790200A87A02008D
:1046F400F079020080B586B000AF786039607B68DD
:104704001B687B613B6842F20F72934228BF1346D9
:104714003B6007F108003B68104A052115F0B8FA20
:1047240038617B685B685B680B220D49786917F018
:10473400C8FB3A697B685B685B6807F108017869C4
:1047440017F0BFFB7B685B685B681B2205497869CF
:1047540017F0B7FB00BF1837BD4680BDB47A02001E
:104764003CD7020048D7020080B483B000AF786021
:104774000B4B01221A6007E07B685B087B60084BE7
:104784001B685B00064A13607B68064A9342F3D8B1
:10479400054A7B68136000BF0C37BD4680BC704778
:1047A4003811002040420F003411002080B588B039
:1047B40000AFF860B9607A607B68BB61BB695B6815
:1047C4007B61154B3B61386917F01EFD0346002BD6
:1047D40001DAB9681AE00023FB610AE0FA68FB69B0
:1047E40013441B781946386917F0FFFCFB69013341
:1047F400FB61FA69BB689A42F0D300BF4FF0210213
:104804004FF00003386917F009FDB9680B461846E4
:104814002037BD4680BD00BFEC5E020080B586B087
:1048240000AF78607B685B681B683B61104BFB6082
:104834003B695B687B61F86817F048FC034683F0CA
:104844000103DBB2002B09D099230A4A0A490B4819
:1048540016F09FF89921074816F082F83B691B6807
:104864003969184617F075FC1837BD4680BD00BF7E
:10487400EC5E0200C47A02000C7B0200287B02007A
:1048840080B586B000AF78607B685B681B687B612D
:104894007B695B683B61074BFB603B6901221A77CC
:1048A4007B691B68184617F075FC00BF1837BD46B6
:1048B40080BD00BFEC5E020080B483B000AF7860BE
:1048C4007B68044A1A60002318460C37BD4680BC36
:1048D400704700BF98D7020080B590B006AF7860EB
:1048E4000323002B20D00123BB73BB7B83F0010384
:1048F400DBB2002B18D13E4B18687B681B687A68C2
:10490400526879688968059104920393394B02933C
:104914000023019300230093002301220146002079
:1049240017F0CFFC00233B610323002B20D001238D
:10493400FB73FB7B83F00103DBB2002B18D12C4B00
:1049440018687B68DB687A68126979684969059137
:1049540004920393284B02930023019300230093B2
:10496400002301220146002017F0ABFC00233B6228
:104974000323002B19D00123FB77FB7F83F0010372
:10498400DBB2002B11D11A4B19687B68DB690393E6
:104994001A4B029300230193002300930023012266
:1049A400002017F08EFC0023BB610323002B1AD0D8
:1049B4000123FB75FB7D83F00103DBB2002B12D1D5
:1049C4000B4B19687B689B6903930D4B029300237F
:1049D40001930023009300230122002017F071FCAF
:1049E40000237B6200BF00BF2837BD4680BD00BFE7
:1049F400A40000205C7B02008C7B0200BC7B0200D4
:104A0400CC7B020080B58AB004AF786039603B6823
:104A1400002B02D03868FFF75FFF7B68012B21D1A0
:104A2400EFF30583BB60BB68103B7B610323002B62
:104A340018D00123FB74FB7C83F00103DBB2002B51
:104A440010D10C4B19687B6903930B4B0293002321
:104A540001930023009300230122002017F031FC6E
:104A64000023FB60396878680DF054FF00BF1837E5
:104A7400BD4680BDA4000020FC7B020030BFFFF7D0
:104A8400FDBF00BF80B400AF034A044B1344184673
:104A9400BD4680BC704700BF000000000400000059
:104AA40080B582B000AF7860094B1A46094978682E
:104AB40021F008F9064A7B6813447B60064B1A46CA
:104AC4000021786821F00BF900BF0837BD4680BD8E
:104AD40000000000DD6202000400000080B400AFAA
:104AE400074BDA69064B9B689A4205D0054B5B6815
:104AF400044A43F08053536000BFBD4680BC7047F6
:104B0400480D002000ED00E080B59AB004AFF860D5
:104B1400B9607A6010237B656FF015033B6503234E
:104B2400002B18D0012387F84F3097F84F3083F0CB
:104B34000103DBB2002B0ED1994B1968994B0293F8
:104B4400002301930023009300230122002017F087
:104B540012FC0023BB64944B9B6A03F01003002BEC
:104B64001DD011237B650323002B18D0012387F864
:104B7400473097F8473083F00103DBB2002B0ED1A6
:104B8400874B1968894B02930023019300230093F8
:104B940000230122002017F0EEFB00233B64824B2C
:104BA4009B6A03F00803002B1DD012237B650323AB
:104BB400002B18D0012387F83F3097F83F3083F05B
:104BC4000103DBB2002B0ED1754B1968784B0293AD
:104BD400002301930023009300230122002017F0F7
:104BE400CAFB0023BB63704B9B6A03F00203002BD8
:104BF4004FD013237B650323002B18D0012387F8A0
:104C0400373097F8373083F00103DBB2002B0ED135
:104C1400634B1968674B02930023019300230093AD
:104C240000230122002017F0A6FB00233B635E4B08
:104C34005B6BFB625C4B9B6A03F08003002B28D008
:104C4400FB6A3B650323002B1AD0012387F82B3022
:104C540097F82B3083F00103DBB2002B10D1504BBB
:104C640019683B6D0393544B029300230193002373
:104C7400009300230122002017F07DFB00237B62B8
:104C8400BB68002B05D0484B9B6A474A23F080033E
:104C94009362454B9B6A03F00103002B1DD0142340
:104CA4007B650323002B18D0012387F8233097F862
:104CB400233083F00103DBB2002B0ED1384B19688B
:104CC4003E4B02930023019300230093002301220F
:104CD400002017F050FB0023FB61334B9B6A03F069
:104CE4002003002B1BD015237B650323002B16D038
:104CF4000123FB76FB7E83F00103DBB2002B0ED194
:104D0400274B19682E4B0293002301930023009331
:104D140000230122002017F02EFB00237B61224B8D
:104D24009B6A03F01003002B05D11F4B9B6A03F011
:104D34000203002B14D01C4B9B6A03F01003002BBE
:104D44000ED04FF495731F4A1F49204815F021FED9
:104D54001F4815F01EFE4FF495711A4815F000FE19
:104D6400114B9B6A03F02003002B05D00E4B5B6AAA
:104D74000D4A23F4005353620B4B9B6A0A4A43F0D7
:104D8400FF0393620121F86817F01DFB03461A46DE
:104D94007B681A707B6D18465837BD4680BD00BFCE
:104DA400A8000020107C020000ED00E0287C020036
:104DB4005C7C0200707C0200887C0200A07C020003
:104DC400C07C0200F07C02002C7D0200787D020091
:104DD400987D020080B59AB004AFF860B9607A603B
:104DE40016237B650323002B18D0012387F8533047
:104DF40097F8533083F00103DBB2002B0ED1934BB1
:104E04001968934B0293002301930023009300231A
:104E14000122002017F0AFFA0023FB648D4B9B6A3C
:104E240003F48053002B1DD017237B650323002B31
:104E340018D0012387F84B3097F84B3083F00103E7
:104E4400DBB2002B0ED1814B1968834B02930023F4
:104E540001930023009300230122002017F08BFA12
:104E640000237B647B4B9B6A03F40063002B1DD0FF
:104E740018237B650323002B18D0012387F84330C4
:104E840097F8433083F00103DBB2002B0ED16F4B54
:104E94001968724B029300230193002300930023AB
:104EA4000122002017F067FA0023FB63694B9B6A19
:104EB40003F40073002B4DD019237B650323002BCF
:104EC40018D0012387F83B3097F83B3083F0010377
:104ED400DBB2002B0ED15D4B1968614B02930023AA
:104EE40001930023009300230122002017F043FACA
:104EF40000237B63574B9B6B3B63564B9B6A03F4CA
:104F04000043002B26D00323002B1AD0012387F85B
:104F14002F3097F82F3083F00103DBB2002B10D130
:104F24004A4B19683B6B03934E4B02930023019346
:104F34000023009300230122002017F01CFA002311
:104F4400BB62BB68002B05D0424B9B6A414A23F4E9
:104F5400004393623F4B9B6A03F48063002B1DD094
:104F64001A237B650323002B18D0012387F82730ED
:104F740097F8273083F00103DBB2002B0ED1334BBB
:104F84001968394B029300230193002300930023F3
:104F94000122002017F0EFF900233B622D4B9B6A9E
:104FA40003F48073002B1CD01B237B650323002B8D
:104FB40039D00123FB75FB7D83F00103DBB2002BA9
:104FC40031D1224B1968294B02930023019300230A
:104FD400009300230122002017F0CDF900233B6148
:104FE40021E01C4B9B6A03F40053002B1BD01C23B1
:104FF4007B650323002B16D00123FB77FB7F83F013
:105004000103DBB2002B0ED1104B1968184B02932D
:10501400002301930023009300230122002017F0B2
:10502400AAF90023BB610B4B9B6A0A4A43F47F43F2
:1050340093620121F86817F0C6F903461A467B68A3
:105044001A707B6D18465837BD4680BDA8000020F5
:10505400FC7D020000ED00E0147E02005C7C020096
:10506400287E0200447E02005C7E0200787E0200FC
:10507400C07C020080B598B004AF78601D23FB6447
:105084000323002B18D0012387F84B3097F84B30BB
:1050940083F00103DBB2002B0ED18B4B19688B4BD1
:1050A4000293002301930023009300230122002094
:1050B40017F061F900237B64854B9B6A03F000734E
:1050C400002B1DD01E23FB640323002B18D00123C7
:1050D40087F8433097F8433083F00103DBB2002BA9
:1050E4000ED1794B19687B4B029300230193002363
:1050F400009300230122002017F03DF90023FB63F5
:10510400734B9B6A03F08073002B1DD01F23FB6439
:105114000323002B18D0012387F83B3097F83B304A
:1051240083F00103DBB2002B0ED1674B19686A4B85
:105134000293002301930023009300230122002003
:1051440017F019F900237B63614B9B6A03F4801306
:10515400002B1FD02023FB640323002B18D0012332
:1051640087F8333097F8333083F00103DBB2002B38
:105174000ED1554B1968594B029300230193002318
:10518400009300230122002017F0F5F80023FB62AE
:105194000223FB644E4B9B6A03F40023002B1DD0B7
:1051A4002123FB640323002B18D0012387F82B3021
:1051B40097F82B3083F00103DBB2002B0ED1424B66
:1051C4001968474B029300230193002300930023A3
:1051D4000122002017F0CFF800237B623C4B9B6A2E
:1051E40003F48023002B1DD02223FB640323002B14
:1051F40018D0012387F8233097F8233083F0010374
:10520400DBB2002B0ED1304B1968364B02930023CE
:1052140001930023009300230122002017F0ABF830
:105224000023FB612A4B9B6A03F40033002B1BD041
:105234002323FB640323002B16D00123FB76FB7E80
:1052440083F00103DBB2002B0ED11F4B1968264BF0
:1052540002930023019300230093002301220020E2
:1052640017F089F800237B61194B9B6A03F48033A0
:10527400002B1BD02423FB640323002B16D0012313
:10528400FB74FB7C83F00103DBB2002B0ED10E4BCD
:105294001968164B02930023019300230093002303
:1052A4000122002017F067F80023FB60084B9B6A7B
:1052B400074A6FEA03436FEA13439362FB6C184691
:1052C4005037BD4680BD00BFA8000020907E02007C
:1052D40000ED00E0A87E0200BC7E0200D87E020041
:1052E400047F0200247F02004C7F0200687F0200DA
:1052F40080B588B004AF786039603B6800221A70CA
:105304000323002B17D00123FB73FB7B83F00103E2
:10531400DBB2002B0FD10A4B19680A4B029300230E
:1053240001930023009300230122002017F023F8A7
:105334000023BB6000BF00BF1037BD4680BD00BF67
:10534400A8000020947F020080B485B000AF78608C
:105354007B689B69FB601B4B5B691A4A43F480734F
:105364005361BFF34F8F00BF00BF00BFBFF36F8F08
:1053740000BF00BF00BFFB6833F8023C7B81114BC8
:105384005B69104A23F480735361BFF34F8F00BFEE
:1053940000BF00BFBFF36F8F00BF00BF00BF7B899A
:1053A40003F47F43B3F55F4F05D17B89DBB2022B56
:1053B40001D1012300E0002318461437BD4680BC08
:1053C400704700BF00ED00E080B592B004AF786094
:1053D40039600023FB620323002B18D0012387F8D4
:1053E400333097F8333083F00103DBB2002B0ED156
:1053F400734B1968734B02930023019300230093AA
:1054040000230122002016F0B6FF00237B633B68D3
:1054140000221A706C4BDB6A03F00203002B1CD0D1
:105424000323002B00F0C7800123FB74FB7C83F073
:105434000103DBB2002B40F0BE80614B1968634B63
:1054440002930023019300230093002301220020F0
:1054540016F091FF0023FB60ADE05B4BDB6A002B91
:105464001CDA0323002B00F0A6800123FB76FB7ECD
:1054740083F00103DBB2002B40F09D80504B196890
:10548400534B029300230193002300930023012232
:10549400002016F070FF00237B618CE04A4BDB6A2E
:1054A40003F08043002B77D00323002B18D0012373
:1054B40087F82B3097F82B3083F00103DBB2002BF5
:1054C4000ED13F4B1968434B0293002301930023F1
:1054D400009300230122002016F04DFF00237B627D
:1054E4007868FFF731FF0346002B22D00323002BFB
:1054F4001BD0012387F8233097F8233083F001036E
:10550400DBB2002B11D12E4B19687B681B68039307
:10551400314B0293002301930023009300230122C3
:10552400002016F028FF0023FB617B681B68FB62E8
:1055340041E0254B9B6ADBB2002B06D03A6801217F
:105544007868FFF7E1FAF86235E01F4B9B6A03F4D1
:105554007F43002B07D03A6801217868FFF73AFCB3
:105564000346FB6227E0184B9B6AB3F5803F04D3E4
:105574007868FFF77FFDF8621DE040F2EA23174ADE
:105584001749184815F005FA174815F002FA40F2C1
:10559400EA21124815F0E4F940F2ED230F4A1049CC
:1055A400104815F0F6F9114815F0F3F940F2ED2121
:1055B4000A4815F0D5F9FB6A18463837BD4680BD50
:1055C400A8000020B87F020000ED00E0D07F0200B8
:1055D400F47F02000480020024800200F07C0200B8
:1055E40040800200787D020044800200688002004E
:1055F40080B58AB006AF786039600323002B21D0D0
:105604000123FB73FB7B83F00103DBB2002B19D175
:105614000E4B19683B680F2B01DC0D4B00E00D4B62
:105624003A68103A049203930B4B029300230193BC
:105634000023009300230122002016F09CFE002387
:10564400BB6000BF00BF1037BD4680BDA80000206E
:1056540098800200B0800200CC80020080B586B041
:1056640000AFF860B9607A6000237B617B68002238
:105674001A70BB68033B092B35D801A252F823F0FA
:10568400AD560000B9560000C7560000D7560000BA
:10569400EB560000EB560000EB560000EB56000002
:1056A400EB560000E15600007968F868FFF78CFEBD
:1056B40078611DE07A680021F868FFF725FA7861BF
:1056C40016E07A680021F868FFF784FB03467B61E3
:1056D4000EE0F868FFF7CEFC786109E07968F868B5
:1056E400FFF706FE04E0B968F868FFF781FF00BF22
:1056F4007B681B7883F00103DBB2002B03D0B9680D
:10570400F86816F056FE7B6918461837BD4680BD0A
:1057140080B58CB004AFF860B9607A603B60002358
:10572400FB760023FB613B6800221A707B6803F060
:105734007F43B3F17F4F01D0002339E07B6803F04E
:105744000803002B20D07B6803F00403002B1BD13B
:105754000323002B16D00123BB76BB7E83F0010309
:10576400DBB2002B0ED1144B1968144B02930023A7
:1057740001930023009300230122002016F0FBFD77
:1057840000237B61002313E0FB7E83F00103DBB283
:10579400002B0CD07B6803F00803002B02D0BB68FD
:1057A400FB6104E0FB68FB613B6801221A70FB6942
:1057B40018462037BD4680BDA8000020E0800200C6
:1057C40080B594B000AFF860B9607A603B600023A4
:1057D400FB64324B5B68C3F30803BB6400233B6484
:1057E4003B6CFB63FB6B83F3118800BFBFF36F8FCC
:1057F40000BF00BF07F132037A68B968F868FFF7A1
:1058040087FF78647B6C002B0ED140F21143244A4D
:105814002449254815F0BDF8244815F0BAF840F29B
:1058240011411F4815F09CF87B6CBB637B687B635C
:1058340000BF07F133031A46B96C786CFFF70EFF0B
:10584400F86497F83330002B23D107F1100320229A
:10585400796C184620F036FA97F83230002B0BD0CA
:10586400FB6AC3F30803002B0CD1FB6A6FEA5323D2
:105874006FEA4323FB6205E0FB6A23F4FF7323F022
:105884000103FB6207F110031946F86CFFF7BAF83D
:1058940000E000BF5037BD4680BD00BF00ED00E012
:1058A400F07C02000C810200787D0200208102005D
:1058B40080B400AF0A4B5B69094A43F0100353619B
:1058C400074B5B69064A43F480635361044B5B698D
:1058D400034A23F00803536100BFBD4680BC7047F0
:1058E40000ED00E0EFF30880EFF3098101B57246A3
:1058F400FFF766FF01BD00BF0D4880F30888002054
:105904000C49087009F020FC202080F311880A4813
:105914004FF40061401880F30988EFF314800221EA
:10592400084380F31488BFF36F8F16F07EFD0000E8
:105934008836002087160020C837002080B584B040
:1059440000AF7860114B9B687A689A4216D1EFF3E6
:105954000583FB60FB68002B14BF01230023DBB22B
:10596400002B0BD00A4B5B68094A43F08053536009
:10597400074B5B6A064A23F400435362786811F0CC
:10598400BDFA00BF1037BD4680BD00BF480D0020E2
:1059940000ED00E001B51FF042F8BDE801401949EF
:1059A4008A684FF040001044EFF3098C80E8F01F40
:1059B400202080F31288BFF36F8F134F4FF00066DF
:1059C400CA698A603E60D2F8B800104C2060D2F8F0
:1059D400BC000023C2F8BC3080F3118802F14000FF
:1059E40090E8F01F8CF3098802F1000004B516F06A
:1059F4002AFDBDE8044001B50FF034FBBDE80140C9
:105A040070470000480D002004ED00E06C110020F8
:105A14001EF0040F0CBFEFF30880EFF309808169D7
:105A240011F8021C0229FFD001B5724616F067FC7A
:105A340001BD00BF80B483B000AF0346FB7197F98A
:105A44000730002B0BDBFB7903F01F02064997F9A3
:105A540007305B09012000FA02F241F8232000BF5D
:105A64000C37BD4680BC704700E100E080B483B0D1
:105A740000AF0346FB7197F90730002B12DBFB796B
:105A840003F01F020A4997F907305B09012000FA65
:105A940002F2203341F82320BFF34F8F00BFBFF33E
:105AA4006F8F00BF00BF0C37BD4680BC704700BF7E
:105AB40000E100E080B483B000AF03463960FB71BD
:105AC40097F90730002B0ADB3B68DAB20C4997F9E7
:105AD40007305201D2B20B4483F800230AE03B683A
