:100000008041002045570000139001003157000047
:1000100031570000315700003157000031570000C0
:100020000000000000000000000000005D5800001B
:100030003157000000000000E15700003157000078
:10004000895B0000895B0000895B0000895B000020
:10005000895B0000895B0000895B0000895B000010
:10006000895B0000895B0000895B0000895B000000
:10007000895B0000895B0000895B0000895B0000F0
:10008000895B0000895B0000895B0000895B0000E0
:10009000895B0000895B0000895B0000895B0000D0
:1000A000895B0000895B0000895B0000895B0000C0
:1000B000895B0000895B0000895B0000895B0000B0
:1000C000895B0000895B0000895B0000895B0000A0
:1000D000895B0000895B0000895B0000895B000090
:1000E000895B0000895B0000895B0000895B000080
:1000F000895B0000895B0000895B0000895B000070
:10010000895B0000895B0000895B0000895B00005F
:10011000895B0000895B0000895B0000895B00004F
:10012000895B0000895B0000895B0000895B00003F
:10013000895B0000895B0000895B0000895B00002F
:10014000895B0000895B0000895B0000895B00001F
:04015000895B0000C7
:1001540053B94AB9002908BF00281CBF4FF0FF312A
:100164004FF0FF3000F00CB8ADF1080C6DE904CE8F
:1001740000F010F8DDF804E0DDE9022304B0704774
:10018400704700BF034613F8012B002AFBD1181A4D
:10019400013870472DE9F04786468C460846089E8C
:1001A400154674461946002B40F0C1808542B2FAC8
:1001B40082F245D94AB1C2F1200300FA02FC95400B
:1001C40094402EFA03F343EA0C0C4FEA154EA8B2FE
:1001D400230CBCFBFEF80EFB18CC08FB00F943EA29
:1001E4000C43994528D9EB1808F1FF3704D29945F7
:1001F40002D9A8F102072B44A3EB0903A4B2B3FB71
:10020400FEFC0EFB1C330CFB00F044EA0344A0424A
:1002140014D92C190CF1FF3304D2A04202D9ACF149
:1002240002032C44241A43EA07401EB1D44000239D
:1002340034607360BDE8F0874746DDE76346F1E765
:1002440092BB431B01214FEA154EAFB2200CB3FB06
:10025400FEFC0EFB1C330CFB07F840EA03439845F5
:1002640061D9EB180CF1FF3004D2984502D9ACF1F6
:1002740002002B44A3EB0803A4B2B3FBFEFC0EFB69
:100284001C330CFB07F744EA0344A7424DD92C194D
:100294000CF1FF3304D2A74202D9ACF102032C447F
:1002A400E41B43EA0040C0E7C2F1200395409440B8
:1002B40020FA03F12EFA03F34FEA154E9040AFB241
:1002C4000343B1FBFEFC0EFB1C10190C0CFB07F8DE
:1002D40041EA0041884522D969180CF1FF3004D263
:1002E400884502D9ACF102002944A1EB08019BB274
:1002F400B1FBFEFC0EFB1C110CFB07F743EA0143A8
:100304009F420ED9EB180CF1FF3104D29F4202D95F
:10031400ACF102012B44DB1B41EA004193E7604648
:10032400E3E76146F7E76046A4E76346B8E783423C
:1003340006D916B9002108467CE7C6E900E0F9E7CA
:10034400B3FA83F78FB9834201D3724508D8BEEB61
:10035400020460EB030301209C461EB9002169E7F7
:100364003846FAE7C6E9004CF8E7C7F1200CBB4071
:100374000EFA07F522FA0CF42EFA0CF1BA401C43DB
:1003840020FA0CF3B8404FEA144901431FFA84FEE3
:10039400B3FBF9F809FB18300B0C08FB0EFA43EA1F
:1003A40000439A4540D9E31808F1FF3004D29A4536
:1003B40002D9A8F102002344A3EB0A0389B2B3FBD8
:1003C400F9F809FB183308FB0EFE41EA03418E4598
:1003D4002CD9611808F1FF3304D28E4502D9A8F153
:1003E4000203214443EA0040A1EB0E01A0FB029862
:1003F4004145CE46434602D306D14D4504D2013889
:10040400B9EB020E68EB0403002EA7D0B5EB0E0285
:1004140061EB030101FA0CFC22FA07F3F9404CEA00
:100424000303C6E9003199E74046C5E74346D9E7E7
:1004340090B58BB000AFF8600B467A60FB72FB6836
:100444009B687B62FB685B683B62FB681B69FB61C2
:100454007B6A9B69002B02D16FF057039BE07B689A
:1004640003F4C003B3F5C00F0ED140F27B334C4A02
:100474004C494D4817F0FFF84C4817F0FCF840F28F
:100484007B31474817F0DEF87B6803F4C003002B88
:100494000ED140F27F33424A4549434817F0EBF806
:1004A400444817F0E8F840F27F313D4817F0CAF8A5
:1004B4007B6803F48003002B19D07B6803F08073FE
:1004C400002B14D17B6803F0C063B3F1C06F0ED16D
:1004D40040F28233324A3849334817F0CCF837486F
:1004E40017F0C9F840F282312D4817F0ABF87B6859
:1004F40003F48003002B13D07B6803F0C063002B4C
:100504000ED140F28F33264A2D49274817F0B3F80D
:100514002C4817F0B0F840F28F31214817F092F8C8
:100524003B6A1A68FB7A012101FA03F31340002B9A
:100534000ED14FF465731A4A23491B4817F09BF8F0
:10054400224817F098F84FF46571154817F07AF8B7
:100554007B6803F40003002B0CD0FB691A68FB7A58
:10056400012101FA03F31340002B03D07B6883F0CD
:10057400C0637B607A68164B1340BB617B6803F0F1
:10058400B0737B617B6A9C69F97ABB697A69F868A4
:10059400A04738613B6918462C37BD4690BD00BF63
:1005A400C01E0200FC1E02004C1F02006C1F020051
:1005B400981F0200C81F0200F41F020088200200D6
:1005C400DC200200442102008C210200CC21020024
:1005D4004000000680B588B000AFF8600B467A6032
:1005E400FB72FB689B68FB61FB685B68BB61FB6833
:1005F4001B697B617B6803F0FC63002B0ED04FF416
:1006040078736B4A6B496C4817F035F86B4817F0F0
:1006140032F84FF47871664817F014F87B6803F0E9
:100624003003302B0ED140F2E333614A644962480F
:1006340017F021F8634817F01EF840F2E3315C48E4
:1006440017F000F87B6803F48033002B18D07B6824
:1006540003F40033002B13D17B6803F00203002B57
:100664000ED040F2E733524A5749534817F003F883
:10067400564817F000F840F2E7314D4816F0E2FF13
:100684007B6803F00203002B10D17B6803F00403A2
:10069400002B0BD040F2EA33454A4D49464816F048
:1006A400EAFF40F2EA31424816F0CCFF7B6803F4DB
:1006B4004023002B13D07B6803F40033002B0ED1AE
:1006C40040F2ED333A4A43493B4816F0D4FF4248DE
:1006D40016F0D1FF40F2ED31354816F0B3FF7B68D8
:1006E40003F44023B3F5402F0ED140F2F133304AE6
:1006F4003A49314816F0BFFF394816F0BCFF40F2C2
:10070400F1312B4816F09EFF7B6803F48013002B15
:100714000DD07B6803F44023002B08D07B6803F0E2
:100724000103002B03D07B6883F440237B607B6848
:1007340023F480137B60BB691A68FB7A012101FAF8
:1007440003F31340002B0ED140F2FD33184A254920
:10075400194816F090FF244816F08DFF40F2FD3141
:10076400134816F06FFF7B6803F00103002B09D0D8
:100774007B691A68FB7A012101FA03F31A437B6946
:100784001A6009E07B691A68FB7A012101FA03F314
:10079400DB431A407B691A60FB691B68F97A7A6843
:1007A400F868984738613B6918462037BD4680BDD4
:1007B400C01E0200E02102004C1F02005022020071
:1007C40074220200B0220200F02202004023020040
:1007D40090230200C42302001424020050240200C7
:1007E400A02402008C210200CC21020080B584B038
:1007F40000AF78600B46FB707B685B68FB60FB684E
:100804001A68FB78012101FA03F31340002B0ED17F
:1008140040F2B7630C4A0D490D4816F02CFF0D4801
:1008240016F029FF40F2B761074816F00BFFFB787A
:10083400012202FA03F31946786816F01FFC0346F6
:1008440018461037BD4680BDC01E02008C21020030
:100854004C1F0200CC21020080B584B000AFF860C8
:10086400B9607A60FB68002B0ED14FF4DB63144A45
:100874001449154816F0FFFE144816F0FCFE4FF418
:10088400DB610F4816F0DEFEBB68002B0ED140F290
:10089400D9630B4A0E490C4816F0EDFE0D4816F0CC
:1008A400EAFE40F2D961064816F0CCFEFB68BA684D
:1008B4005A60FB687A689A6000BF1037BD4680BDF5
:1008C400C01E0200CC2402004C1F0200D8240200E7
:1008D400002502000825020080B590B008AFF8603A
:1008E400B96011461A460B46FB801346BB800323AE
:1008F400022B19D90123BB76BB7E83F00103DBB243
:10090400002B11D11D4B1968FB681B6803931C4B0A
:100914000293002301930023009300230322002069
:1009240016F0BAFB0023FB610323022B22D9012317
:10093400FB76FB7E83F00103DBB2002B1AD10F4B55
:100944001868FB88B7F9042097F9281006910592D6
:100954000493BB6803930B4B02930023019300237E
:100964000093002303220146002016F095FB002388
:100974007B6100BF00BF2037BD4680BD080000205A
:10098400402502004C25020080B596B004AFF86003
:10099400B9607A604FF0FF324FF0FF337A4816F0B7
:1009A4007FFA7A4B00220021184616F0BAFA7864CE
:1009B4007B6C002B1DDA0323002B19D00123FB765B
:1009C400FB7E83F00103DBB2002B11D1704B19685D
:1009D4007B6C03936F4B02930023019300230093DA
:1009E40000230122002016F057FB00237B61C9E09D
:1009F400C8E0694B0122DA72644B6749184616F065
:100A04006AFA78647B6C002B24DA0323002B1AD057
:100A1400012387F8233097F8233083F00103DBB2F6
:100A2400002B10D15A4B19687B6C03935B4B0293D8
:100A3400002301930023009300230122002016F0D9
:100A44002BFB0023FB61514B00225549184616F03D
:100A540068FA97E00323022B18D9012387F843305F
:100A640097F8433083F00103DBB2002B0ED1484BDF
:100A740019684C4B02930023019300230093002335
:100A84000322002016F008FB0023FB633F4B0C22DB
:100A94004549184616F031FA78647B6C002B1DDA50
:100AA4000323002B1AD0012387F83B3097F83B30FF
:100AB40083F00103DBB2002B10D1354B19687B6C3A
:100AC40003933A4B029300230193002300930023E2
:100AD4000122002016F0E0FA00237B632E4B002253
:100AE400DA722A4B2C49184616F0F5F978647B6CB7
:100AF400002B1DDA0323002B1AD0012387F833308F
:100B040097F8333083F00103DBB2002B10D1204B74
:100B140019687B6C0393264B0293002301930023F3
:100B2400009300230122002016F0B6FA0023FB6292
:100B3400164B00221A49184616F0F3F978647B6CB8
:100B4400002BBFF627AF0323002B1BD0012387F80C
:100B54002B3097F82B3083F00103DBB2002B11D13B
:100B64000B4B19687B6C0393124B02930023019384
:100B74000023009300230122002016F08DFA0023A5
:100B84007B6207E706E700BF880200204C1B0200D7
:100B9400080000207C2502003C0C0020A025020057
:100BA400DD080000BC2502000C000020CC2502005A
:100BB400E42502000026020080B584B000AFF8608E
:100BC400B9607A60044816F009FA044816F078F916
:100BD40000BF1037BD4680BD000000208802002001
:100BE40080B59CB008AF774816F0AFF9034683F0A0
:100BF4000103DBB2002B1ED00323002B19D00123E9
:100C0400FB71FB7983F00103DBB2002B11D16E4B36
:100C140019686E4B1B6803936D4B02930023019379
:100C24000023009300230122002016F035FA00234C
:100C34003B600023D7E14FF48031624816F0A5F9F8
:100C440078627B6A002B22D00323002B1DD0012362
:100C5400BB73BB7B83F00103DBB2002B15D15A4B72
:100C640019685A4B1B681722059204937B6A0393F5
:100C7400584B029300230193002300930023012285
:100C8400002016F009FA0023BB600023ABE14FF00B
:100C9400B8614C4816F067F978627B6A002B24D05F
:100CA4000323002B1FD0012387F84F3097F84F30D0
:100CB40083F00103DBB2002B15D1434B1968434B7E
:100CC4001B681722059204937B6A0393424B029399
:100CD400002301930023009300230122002016F037
:100CE400DBF90023BB6400237DE13C4B184616F07E
:100CF4008FF8034683F00103DBB2002B20D00323DB
:100D0400002B1BD0012387F83B3097F83B3083F04E
:100D14000103DBB2002B11D12B4B19682F4B1B683D
:100D240003932F4B0293002301930023009300238A
:100D34000122002016F0B0F900237B64002352E165
:100D4400284B294A1A60274B00221A71254B082286
:100D54005A71244B08221A81224B01229A71214B89
:100D640000221A731F4B00225A731E4B0E229A72D2
:100D74001C4B0022DA72194B1A49184616F0ABF8CC
:100D840078627B6A002B33DA0323002B18D001230B
:100D940087F8433097F8433083F00103DBB2002B2C
:100DA4000ED1094B1968114B0293002301930023C0
:100DB400009300230122002016F06EF90023FB6348
:100DC400002310E10884020008000020CC1A02006D
:100DD400242602004C260200742602004C1B02004A
:100DE400AC2602003C0C0020E0609033C0260200D8
:100DF40017231A46012393401A467D497D48FFF77D
:100E04002BFD7D4B7B49184616F0F9F80323022B82
:100E14001BD90123FB75FB7D83F00103DBB2002B9F
:100E240013D1764B1968744B1B68172204920393F1
:100E3400734B0293002301930023009300230322A6
:100E4400002016F029F900233B616E4B1B68002B30
:100E54002BD06C4816F079F8034683F00103DBB21B
:100E6400002B22D00323002B1CD00123FB73FB7B1C
:100E740083F00103DBB2002B14D1604B1968614B82
:100E84001B681B6804937B6A03935F4B02930023E4
:100E940001930023009300230122002016F0FCF8A4
:100EA4000023BB61574B00221A60564B1B68002B72
:100EB40054D04FF40031534816F067F878627B6AD7
:100EC400002B28D00323002B21D0012387F82F30B7
:100ED40097F82F3083F00103DBB2002B17D1474B77
:100EE4001968484B1B681B68464A1279059204939B
:100EF4007B6A0393454B02930023019300230093E1
:100F040000230122002016F0C7F80023BB623D4BEA
:100F140000221A6022E00323022B1FD9012387F841
:100F2400233097F8233083F00103DBB2002B15D173
:100F3400324B1968334B1B681B68324A127904928E
:100F44000393334B02930023019300230093002364
:100F54000322002016F0A0F80023FB610323022BD8
:100F640018D9012387F83A3097F83A3083F001030F
:100F7400DBB2002B0ED1214B1968264B02930023C0
:100F840001930023009300230322002016F084F829
:100F940000237B634FF000004FF00001CDE9060110
:100FA4000023049307230393002302930023019354
:100FB40000230093184B4FF480521849184815F039
:100FC40033FF38631749386B15F05CFF164B00226A
:100FD4001649184615F0A5FF4FF0FF304FF0FF31CA
:100FE40015F042FF002318465037BD4680BD00BFB0
:100FF400BD0B0000300C0020CC1A020008000020B9
:10100400D426020000000020F0260200242702005B
:1010140058270200702702008D090000801100206B
:10102400A0020020B02702004C1B0200DD080000D3
:1010340080B58CB000AFF860B9607A60786816F05B
:10104400A0F902467B6893420ED840F21A23584A0C
:101054005849594816F00FFB584816F00CFB40F25B
:101064001A21534816F0EEFA786816F08AF9024607
:101074007B689B1A7B60BB68073323F00703BB6262
:10108400BA687B68134423F007037B627A6ABB6AFD
:10109400D31ADB083B62102016F084F902463B6A3F
:1010A40093420ED840F22323414A4549424816F060
:1010B400E2FA424816F0DFFA40F223213C4816F0E7
:1010C400C1FABB6AFB61FB68FA691A60FB693A6A98
:1010D4009A60FB690022DA60396AF86916F07FF9D0
:1010E40003460133BB61BB6904339B00184616F009
:1010F40059F97861F86916F061F902467B6913447D
:101104003A6A9A420ED24FF40E73294A2D492A485C
:1011140016F0B1FA294816F0AEFA4FF40E712448CD
:1011240016F090FA0023FB6208E0FB69FA6A0432C5
:10113400002143F82210FB6A0133FB62FA6ABB699F
:101144009A42F2DB7A690021F86916F09DF80022D0
:101154000021F86916F0D8F801220021F86916F088
:101164004EF83A6A7B69D31A1A467969F86916F017
:101174008BF87A697969F86916F0C6F80022396A39
:10118400F86916F081F83A6A7B69D31A1A46396A03
:10119400F86916F0B9F80122396AF86916F02FF8DF
:1011A4007969F86916F078F900BF3037BD4680BD1B
:1011B400C0270200F8280200002802001C290200AF
:1011C400382902006429020080B483B000AF78603B
:1011D4007B68094A934205D37B68084A934201D24B
:1011E400012300E0002303F00103DBB218460C37AF
:1011F400BD4680BC704700BF4C1A0200488C0200F8
:1012040080B5A4B000AFF860B9607A603B60FB6859
:10121400FB65FB6DC7F88C300023C7F880300023D2
:10122400FB670023BB674FF0FF337B67002387F81E
:101234006B307B6803F00403002B14BF01230023ED
:1012440087F85B307B68DB0803F0070301337B66B8
:10125400002387F86330FB687B65FB6803F00303B6
:10126400002B02D06FF00D03E3E3D7F88C30043386
:10127400C7F88C30FB6D002B0DD1BB6803F007035E
:10128400D7F88C201344C7F88C30BB6803F00703ED
:10129400C3F10803BB60FB6D002B0AD0FB6DD7F8CC
:1012A4008C20D31A0433BA689A4202D26FF01B031B
:1012B400BFE33B68FB663B68013B3B600423C7F824
:1012C40084300423C7F8883097E197F86B3083F0B3
:1012D4000103DBB2002B11D03B681B78252B40F0B7
:1012E4009E82012387F86B307B6F01337B67042375
:1012F400C7F884300423C7F8883090E23B681B7831
:101304007A2B00F349814C2B11DA472B00F34481EB
:101314002A2B71DA252B00F09280252B00F33C81D7
:10132400202B00F07E82232B00F07B8234E14C3BA7
:101334002E2B00F2318101A252F823F0271800006D
:101344009D1500009D1500009D1500009D150000D1
:101354009D1500009D1500009D1500009D150000C1
:101364009D1500009D1500009D1500007B140000D4
:101374009D1500009D1500009D1500009D150000A1
:101384009D1500009D1500009D1500009D15000091
:10139400CB1400009D1500007B1400007B1400009A
:1013A400CB140000CB140000CB140000271800005D
:1013B4007B140000511400009D1500002718000044
:1013C4009D150000B71400007B140000B714000042
:1013D4009D1500009D150000B11400006D1400005F
:1013E4007B1400009D1500009D1500007B14000077
:1013F4009D1500005F1400002A3B012202FA03F34A
:101404004FF6DA721A40002A14BF01220022D2B227
:10141400002A40F0068203F06252002A14BF01221F
:101424000022D2B2002A4ED103F00103002B14BFD4
:1014340001230023DBB2002B40F0B280ACE0002398
:1014440087F86B307B6F013B7B67EBE10823C7F8C0
:1014540084300823C7F88830E4E10423C7F88430D3
:101464000423C7F88830DDE10423C7F8843004235B
:10147400C7F88830D6E13B68013B1B786C2B11D14F
:101484003B68023B1B786C2B06D10823C7F88430D9
:101494000823C7F8883005E00423C7F88430042300
:1014A400C7F88830002387F86B307AE0012387F887
:1014B40063300423C7F884300423C7F8883000233A
:1014C40087F86B306DE03B68013B1B784C2B13D1E4
:1014D400D7F89830073323F0070303F10802C7F85D
:1014E4009820D3E90023C7E906230823C7F88430EA
:1014F4000823C7F8883012E0D7F89830073323F070
:10150400070303F10802C7F89820D3E90023C7E9C9
:1015140006230823C7F884300823C7F88830D7F88F
:101524008420D7F88C3013445A1ED7F88430B2FB89
:10153400F3F2D7F8843002FB03F3C7F88C30FB6D69
:10154400002B1ED0FB6DD7F88C20D21AD7F8883028
:101554001344BA689A4202D26FF01B0369E23B68F3
:10156400013B1B784C2B06D1D7F88C10D7E9062306
:10157400C1E9002305E0D7F88C10D7E90623C1E9B7
:101584000023D7F88C20D7F888301344C7F88C3060
:10159400002387F86B3045E1002387F86B3041E185
:1015A40000BFD7F88420D7F88C3013445A1ED7F8DC
:1015B4008430B2FBF3F2D7F8843002FB03F3C7F8AC
:1015C4008C30FB6D002B0CD0FB6DD7F88C20D21A1D
:1015D400D7F888301344BA689A4202D26FF01B03DA
:1015E40027E297F86330002B00F0B880D7F89830E2
:1015F4001A1DC7F898201B68FB66FB6D002B03D0EF
:10160400D7F88C30FA6E1A607B6E5A1E7A66002BFD
:1016140005DCF86E15F062FF0346002B01D00123B0
:1016240000E0002387F853307B6803F00203002BAB
:1016340014BF0123002387F8523097F85330002B4E
:1016440006D097F8523083F00103DBB2002B7CD133
:10165400FB6DD7F88C20D31A9B08FB6497F85230A3
:10166400002B11D0FB6C7F2B0ED94FF41F73B04AA3
:10167400B049B14815F0FFFFB04815F0FCFF4FF436
:101684001F71AB4815F0DEFFD7F880300F2B0ED951
:1016940040F28123A64AA749A74815F0ECFFA848C1
:1016A40015F0E9FF40F28121A14815F0CBFFFB6D55
:1016B400002B2DD0FB6CD9B207F13002D7F8803063
:1016C40013440A461A707B6FD9B207F12002D7F887
:1016D400803013440A461A7097F85330002B13D005
:1016E40007F13002D7F8803013441B7863F07F038E
:1016F400D9B207F13002D7F8803013440A461A7081
:10170400BB6F0133BB671BE0FB6F0133FB6717E063
:1017140097F85330002B03D0BB680133BB600FE054
:1017240097F85B30002B03D0BB680233BB6007E043
:10173400F86EFEF727FD0246BB6813440233BB6014
:10174400D7F880300133C7F88030D7F88C300433B1
:10175400C7F88C30002387F8633063E0D7F888300B
:10176400042B13D1D7F898301A1DC7F898201B689A
:101774007B64FB6D002B03D0D7F88C307A6C1A6035
:10178400D7F88C300433C7F88C304BE0D7F8883066
:10179400042B13D1D7F898301A1DC7F898201B686A
:1017A400BB64FB6D002B03D0D7F88C30BA6C1A6085
:1017B400D7F88C300433C7F88C3033E0D7F888304E
:1017C400082B1BD1D7F89830073323F0070303F114
:1017D4000802C7F89820D3E90023C7E90423FB6D66
:1017E400002B05D0D7F88C10D7E90423C1E90023D6
:1017F400D7F88C300833C7F88C3013E040F2C62396
:101804004B4A4C494C4815F036FFD7F888104D48E0
:1018140015F031FF40F2C621454815F013FF00BF13
:1018240000E000BF3B6801333B603B681B78002B42
:101834007FF44BAD00BFFB6DD7F88C20D31AB3F502
:10184400806F0ED340F2D223394A3A493A4815F010
:1018540012FF3D4815F00FFF40F2D221344815F035
:10186400F1FEFB6D002B07D1FB6DD7F88C20D21A4B
:10187400BB681344083BDCE0FB6D00221A60FB6D7F
:10188400D7F88C20D31A9B08DAB27B6D1A7097F8BC
:101894005B30002B07D07B6D00225A70FB6FDAB2ED
:1018A4007B6DDA7006E0FB6FDAB27B6D5A707B6D8C
:1018B4000022DA70BB6FDAB27B6D9A70BB6F002BBB
:1018C40032D000233B672AE007F130023B6F134418
:1018D4001B785BB2002B1EDA07F130023B6F134416
:1018E4001B7803F07F0387F84330FB6DD7F88C2017
:1018F400D31A0133BA689A4202D26FF01B0398E0FC
:10190400D7F88C3097F843201A70D7F88C3001330D
:10191400C7F88C3000E000BF3B6F01333B673A6F80
:10192400D7F880309A42CFD300233B6778E000BFDA
:10193400A4290200142A0200F4290200182A020031
:101944003C2A0200582A0200702A0200BB6F002BB6
:1019540007D007F130023B6F13441B785BB2002BB6
:101964005ADB97F85B30002B10D00023C7F888307F
:10197400D7F88C3007F120013A6F0A4412781A70B4
:10198400D7F88C300133C7F88C301AE007F13002F5
:101994003B6F13441B789B00FA6D13441B68FB6672
:1019A40007F130023B6F13441B789B00FA6D13441C
:1019B40000221A60F86EFEF7E5FB03460133C7F810
:1019C4008830FB6DD7F88C20D21AD7F888301344AE
:1019D4000133BA689A4202D26FF01B0329E0D7F8A8
:1019E4008C3007F130013A6F0A4412781A70D7F834
:1019F4008C300133C7F88C30D7F88C30D7F8882076
:101A0400F96E18461FF087FFD7F88C20D7F8883076
:101A14001344C7F88C3000E000BF3B6F01333B67D1
:101A24003A6FD7F880309A4290D3FB6DD7F88C2068
:101A3400D31A18469037BD4680BD00BF80B483B02A
:101A440000AF7860034A7B68136000BF0C37BD4663
:101A540080BC70471800002080B500AF1FF0EAFF7B
:101A64000346024A9B58184680BD00BF0800000088
:101A740080B584B000AFF860B9607A603B6015F05F
:101A8400CFFD02461FF0D6FF034606495A50FB68B5
:101A94003A687968B8689847FFF7DEFF0346184646
:101AA40015F0C5FD0800000080B584B000AF786073
:101AB40039602022002178681FF03AFF3B68DA6819
:101AC4007B68DA613B689A687B689A613B681A684C
:101AD4007B681A623B685A687B685A627B6800229A
:101AE4009A623B681A697B681A617B685B6A18466C
:101AF40015F0D3FD0346002B05D07B681B6943F02A
:101B040001027B681A617B682C330122002118468C
:101B140015F0DBFDF860FB68002B09D02F23064A83
:101B24000649074815F0A7FD2F21034815F08AFD43
:101B340000BF1037BD4680BD882B0200B82B0200C1
:101B4400C42B020080B5A6B000AFF860B960C7E945
:101B540000230023C7F894300023FB62012387F895
:101B6400933000237B620023C7F88C30FB685B6AE8
:101B7400BA689A4201D9002374E1FB681433C7F8A8
:101B84008030EFF31183FB67FB6FBB6720237B6718
:101B94007B6F83F3128800BFBFF36F8F00BFBB6FEF
:101BA400BB61D7F880303B67386F12F0F7FD03460E
:101BB40083F00103DBB2002B0DD08823AB4AAC4980
:101BC400AC4815F058FD396FAB4815F054FD882129
:101BD400A64815F037FD00BFD7F88030FB66F86ED5
:101BE40012F02AFE00BFBB693B627B6A002B08D05F
:101BF4007B6A1A46D7F88C10F86815F0A7FF002303
:101C04007B6207F128031946F86815F089FD03463D
:101C140087F88B30BB6ABA689A4232D8FB681A6A72
:101C2400FB681B689B001344C7F89430D7F89420D2
:101C340013786FF300031370D7F8942013786FF3BD
:101C440041031370BB68FA68BA667B66BB6E1B6897
:101C54007A6E1946B86E15F022FE0246BB6E1A6003
:101C6400BB6E1A68BB6EDB689A4205D1BB6E1B69FA
:101C740043F00802BB6E1A6100BF002387F893305B
:101C8400AFE097F88B30002B08D0BB6A1946F86890
:101C940015F061FE012387F89330A2E0D7E9002311
:101CA4004FF000004FF000018B4208BF824200F069
:101CB40085801EF0A1FC034683F00103DBB2002BF8
:101CC4007CD03B6A3B663B6E002B0CBF0123002398
:101CD400DBB2002B72D0FB6814337B643B6A7B61FC
:101CE400786C12F077FD034683F00103DBB2002B1E
:101CF4000FD040F231135D4A60495E4815F0BBFCD9
:101D0400796C5F4815F0B7FC40F23111574815F073
:101D140099FC7B693B643B6CFB63FB6B83F311882D
:101D240000BFBFF36F8F00BF00BF00BFFB6803F1AC
:101D34002C01D7E90023084615F0D7FCC7F8840026
:101D4400FB681433FB65EFF31183BB65BB6D7B65E7
:101D540020233B653B6D83F3128800BFBFF36F8F75
:101D640000BF7B6D3B61FB6DFB64F86C12F016FDEC
:101D7400034683F00103DBB2002B0DD088233B4ADA
:101D84003B493C4815F077FCF96C3B4815F073FC73
:101D94008821364815F056FC00BFFB6DBB64B86C57
:101DA40012F04AFD00BF3B693B62D7F88430002B38
:101DB4000CBF0123002387F8933012E097F8933087
:101DC400002B0ED0FB681B68C7F88C30B96A07F18A
:101DD400240307F12C02F86815F002FE034687F885
:101DE4009330FB681433BB633B6AFB61B86B12F03E
:101DF400F1FC034683F00103DBB2002B0FD040F269
:101E040031131A4A1D491B4815F035FCB96B1C489F
:101E140015F031FC40F23111144815F013FCFB6944
:101E24007B637B6B3B633B6B83F3118800BFBFF326
:101E34006F8F00BF00BF00BFFB6A002B0BD0FB6895
:101E44009B69002B05D0FB689B69FA6A1146F86808
:101E540098470023FB6297F89330002B7FF48DAEF4
:101E6400D7F8943018469837BD4680BDE42B02005D
:101E74001C2C0200C42B0200342C02004C2C020047
:101E8400642C020080B590B000AF786039607B6844
:101E9400DB6938689847F8637B681433FB62EFF3B7
:101EA4001183BB62BB6A7B6220233B623B6A83F380
:101EB400128800BFBFF36F8F00BF7B6A3B61FB6A70
:101EC400FB61F86912F06AFC034683F00103DBB29C
:101ED400002B0DD088232B4A2B492C4815F0CBFB23
:101EE400F9692B4815F0C7FB8821264815F0AAFB91
:101EF40000BFFB6ABB61B86912F09EFC00BF3B697E
:101F04007B613A68137843F0010313707B685B6864
:101F1400FA6B1946786815F0C2FC02467B685A6071
:101F2400786815F06CFC7B681433BB637B69FB60D9
:101F3400B86B12F04FFC034683F00103DBB2002BB5
:101F44000FD040F231130F4A1249104815F093FB99
:101F5400B96B114815F08FFB40F23111094815F0A7
:101F640071FBFB687B637B6B3B633B6B83F3118887
:101F740000BFBFF36F8F00BF00BF00BF00BF40377B
:101F8400BD4680BDE42B02001C2C0200C42B0200C1
:101F9400342C02004C2C0200642C020090B595B045
:101FA40000AF7860002387F84F307B681433FB63FD
:101FB400EFF31183BB63BB6B7B6320233B633B6BFE
:101FC40083F3128800BFBFF36F8F00BF7B6BFB608E
:101FD400FB6BFB62F86A12F0E1FB034683F001033A
:101FE400DBB2002B0DD08823524A5349534815F0D5
:101FF40042FBF96A524815F03EFB88214D4815F022
:1020040021FB00BFFB6BBB62B86A12F015FC00BF7A
:10201400FB687B6107F118031946786815F0ACFB7F
:102024007B681A6A7B689B689B001344BB64BB692A
:10203400002B05D0B86C15F015FC0346002B02D01C
:102044000023BB6441E0B86C15F04FFC78647B6CF2
:10205400002B08D1B86C15F0F2FB034683F00103A2
:10206400DBB2002B1DD07B6C002B05D17B68DB69B8
:10207400B86C9847034600E07B6C3B647B689B68C4
:102084003A6C1946786815F00AFC02467B689A6037
:102094003B6C1946786815F045FC012387F84F30EE
:1020A40013E0BA6C137843F0020313707B689C68E6
:1020B4007B68DB69B86C984703461A462146786802
:1020C40015F0EDFB02467B689A607B6814337B62F3
:1020D4007B693B61786A12F07DFB034683F0010360
:1020E400DBB2002B0FD040F23113124A15491348CA
:1020F40015F0C1FA796A144815F0BDFA40F23111AD
:102104000C4815F09FFA3B693B623B6AFB61FB6933
:1021140083F3118800BFBFF36F8F00BF00BF00BF00
:1021240097F84F30002B7FF43DAFBB6C1846543703
:10213400BD4690BDE42B02001C2C0200C42B0200FF
:10214400342C02004C2C0200642C020080B590B0A8
:1021540000AF786039607B68DB6938689847F8635A
:102164007B6814337B63EFF311833B633B6BFB624C
:102174002023BB62BB6A83F3128800BFBFF36F8F57
:1021840000BFFB6ABB607B6B7B62786A12F006FB64
:10219400034683F00103DBB2002B0DD08823414AB0
:1021A4004149424815F067FA796A414815F063FAE3
:1021B40088213C4815F046FA00BF7B6B3B62386AC5
:1021C40012F03AFB00BFBB683B613B68BB63BA6B70
:1021D40013786FF3000313707B681B6903F0020329
:1021E400002B08D07B681A6A7B68DB689B00134469
:1021F4003A689A421AD1BA6B13786FF34103137099
:102204007B68DA687B689B689A4209D17B689B6823
:10221400FA6B1946786815F042FB02467B689A60AF
:10222400FB6B1946786815F07DFB07E0FB6B23F028
:102234004041BA6B136861F39F0313607B681433E6
:10224400FB613B69FB60F86912F0C4FA034683F052
:102254000103DBB2002B0FD040F23113114A1549B0
:10226400124815F008FAF969134815F004FA40F217
:1022740031110C4815F0E6F9FB68BB61BB697B6161
:102284007B6983F3118800BFBFF36F8F00BF00BF6A
:1022940000BF7B682C33184615F037FA00BF40376F
:1022A400BD4680BDE42B02001C2C0200C42B02009E
:1022B400342C02004C2C0200642C020080B590B037
:1022C40000AF78607B6814333B63EFF31183FB62E8
:1022D400FB6ABB6220237B627B6A83F3128800BFA4
:1022E400BFF36F8F00BFBB6A3B613B6B3B62386AD5
:1022F40012F054FA034683F00103DBB2002B0DD035
:102304008823284A2849294815F0B5F9396A284804
:1023140015F0B1F98821234815F094F900BF3B6BFF
:10232400FB61F86912F088FA00BF3B697B6107F131
:1023340018031946786815F01FFA7B681433FB6399
:102344007B69FB60F86B12F045FA034683F00103E6
:10235400DBB2002B0FD040F23113124A1549134857
:1023640015F089F9F96B144815F085F940F231112B
:102374000C4815F067F9FB68BB63BB6B7B637B6B35
:1023840083F3118800BFBFF36F8F00BF00BF00BF8E
:10239400BB69002B14BF01230023DBB2184640376E
:1023A400BD4680BDE42B02001C2C0200C42B02009D
:1023B400342C02004C2C0200642C020080B58AB03C
:1023C40000AF786039607B6814337B62EFF311836C
:1023D4003B623B6AFB612023BB61BB6983F31288C8
:1023E40000BFBFF36F8F00BFFB69BB607B6A7B617B
:1023F400786912F0D3F9034683F00103DBB2002BB2
:102404000DD08823104A1149114815F034F979691F
:10241400104815F030F988210B4815F013F900BF66
:102424007B6A3B61386912F007FA00BFBB68FB6046
:102434007B683A689A61FA680121786800F0BAF812
:1024440000BF2837BD4680BD7C2C0200B42C02009E
:10245400CC2C0200EC2C020080B586B000AFF860F2
:10246400B9607A60FB689B8B03F007033B617B6870
:10247400002B0EDABB68FA6892E8030083E80300D5
:10248400FB68184615F0A1FB0121F86815F06DFCF6
:1024940084E03B69062B02D03B69052B5DD1BB6808
:1024A400FA6892E8030083E80300FB68184615F015
:1024B4008CFB3B69062B2FD1B86815F0C7FB03468C
:1024C400002B04D0B86815F0C1FB034600E00023DC
:1024D4007B6119E0FB68DB8B01339AB2FB68DA831A
:1024E4007B69002B0ED07B69184615F0E2FB03468E
:1024F400002B05D07B69184615F0DBFB034602E090
:10250400002300E000237B617B69002BE2D10221E0
:10251400F86815F02AFC12E03B69052B0BD040F259
:102524000913204A2049214815F0A5F840F2091161
:102534001C4815F087F80021F86815F016FCF868B7
:1025440015F000FD0346002B28D0FB689B8B43F05D
:1025540020039AB2FB689A8320E03B69042B11D1D3
:102564000021F86815F001FCF86815F0EBFC03464F
:10257400002B13D0FB689B8B43F020039AB2FB68BB
:102584009A830BE040F21B13064A0949074815F0E9
:1025940072F840F21B11034815F054F800BF1837C5
:1025A400BD4680BD042D0200342D0200CC2C020057
:1025B4005C2D020080B59AB000AFF860B9607A6013
:1025C400FB689B8B03F007037B6600233B66FB6879
:1025D4009B8B03F00803002B14BF0123002387F80F
:1025E4005B30BB68002B0BD140F23313924A934902
:1025F400934815F040F840F233118F4815F022F853
:1026040097F85B30002B21D0BB68012B07D1FB6806
:102614009B8B43F010039AB2FB689A8301E2BB6878
:10262400022B0BD04FF49E73834A8649844815F0DD
:1026340022F84FF49E71804815F004F8FB689B8BD8
:1026440043F020039AB2FB689A83EAE107F11C0382
:10265400184615F0BAFA0023FB65BB68022B03D1B8
:10266400F86815F06FFCB860BB68002B00F0D881E7
:1026740000233B66BB68012B0AD1FB689B693B6660
:1026840007F11C033A6E1946F868FFF7E5FEBFE050
:10269400BB68032B39D17B6E002B0BD04FF4AB738B
:1026A400654A6949664814F0E6FF4FF4AB71624825
:1026B40014F0C8FFFB68184615F0DEFA0346002B39
:1026C4000BD040F257135C4A60495D4814F0D3FFC5
:1026D40040F25711584814F0B5FFFB681B691B689A
:1026E400FB65FB6D002B0BD14FF4AD73524A584977
:1026F400534814F0C0FF4FF4AD714F4814F0A2FFDB
:102704000621F86815F031FB82E0BB68042B36D152
:102714007B6E022B0BD040F25D13474A4D4948486B
:1027240014F0A9FF40F25D11434814F08BFFFB68DD
:10273400DB8B002B0BD04FF4AF733F4A4649404824
:1027440014F099FF4FF4AF713B4814F07BFFFB6822
:102754001B695B68FB65FB6D002B0BD140F26113B9
:10276400354A3B49364814F086FF40F2611132483D
:1027740014F068FF0421F86815F0F7FA48E0BB6824
:10278400052B39D17B6E012B0BD04FF4B2732A4A3F
:1027940032492B4814F06FFF4FF4B271264814F0FD
:1027A40051FFFB68184615F067FA0346002B0BD05F
:1027B40040F26513204A2549214814F05CFF40F299
:1027C40065111D4814F03EFFFB681B699B68FB659F
:1027D400FB6D002B0BD14FF4B473174A1C491848F6
:1027E40014F049FF4FF4B471134814F02BFF052182
:1027F400F86815F0BAFA0BE040F26B130E4A184968
:102804000F4814F038FF40F26B110B4814F01AFF14
:10281400FB689B8B03F007037A6E9A4222D0FB6815
:102824000833184615F028FA034683F00103DBB297
:10283400002B17D0012316E0042D0200602D0200A6
:10284400CC2C0200702D0200842D0200902D020079
:10285400B42D0200CC2D0200E42D0200F42D020060
:102864005C2D0200002387F85A3097F85A3003F0A1
:10287400010387F85A300023BB6097F85A30002BC5
:102884000ED107F11C03184615F0F6F9034683F040
:102894000103DBB2002B03D1FB6D002B00F097800A
:1028A400FB689B8B43F008039BB27B657B6D9AB2FC
:1028B400FB689A837B6D03F007037B66FB68143324
:1028C4003B657B683B61386D11F084FF034683F000
:1028D4000103DBB2002B0FD040F23113684A69497F
:1028E400694814F0C8FE396D684814F0C4FE40F21B
:1028F4003111634814F0A6FE3B69FB64FB6CBB64B6
:10290400BB6C83F3118800BFBFF36F8F00BF00BFA0
:1029140000BF97F85A30002B04D03A6E796EF868ED
:1029240015F083FA07F11C03184615F0A5F90346C0
:1029340083F00103DBB2002B06D007F11C013B6ED0
:102944007A6EF86815F0DCFAFB6D002B03D0FB6D92
:102954004F49F8689847FB6814337B64EFF311839D
:102964003B643B6CFB632023BB63BB6B83F3128828
:1029740000BFBFF36F8F00BFFB6B7B617B6C7B631E
:10298400786B11F00BFF034683F00103DBB2002BDD
:102994000DD088233A4A3F493B4814F06CFE796BCA
:1029A4003D4814F068FE8821354814F04BFE00BF02
:1029B4007B6C3B63386B11F03FFF00BF7B697B602E
:1029C400FB689B8B23F008039AB2FB689A83FB682D
:1029D4009B8B03F01003002B09D0FB689B8B23F027
:1029E40010039AB2FB689A830123BB600EE0FB6874
:1029F4009B8B03F02003002B08D0FB689B8B23F0F8
:102A040020039AB2FB689A830223BB60FB689B8B0A
:102A140003F007037B66BB68002B7FF41CAE00E069
:102A240000BFFB681433FB627B68BB61F86A11F07A
:102A3400D1FE034683F00103DBB2002B0FD040F23A
:102A440031130F4A0F49104814F015FEF96A0F4864
:102A540014F011FE40F23111094814F0F3FDBB6982
:102A6400BB62BB6A7B627B6A83F3118800BFBFF3DE
:102A74006F8F00BF00BF00BF00BF6837BD4680BD79
:102A84007C2C02000C2E0200CC2C0200242E02000E
:102A9400C1230000B42C0200EC2C020080B592B0DB
:102AA40000AF78603960002387F84730002387F847
:102AB4004630002387F845303968786815F06DF999
:102AC40038643B6C002B01DA3B6CC9E07B6814333F
:102AD400BB63EFF311837B637B6B3B632023FB625C
:102AE400FB6A83F3128800BFBFF36F8F00BF3B6B99
:102AF400FB60BB6BBB62B86A11F050FE034683F007
:102B04000103DBB2002B0DD08823574A574958489C
:102B140014F0B1FDB96A574814F0ADFD882152484C
:102B240014F090FD00BFBB6B7B62786A11F084FEE9
:102B340000BFFB687B617B689B8B03F00703FB632F
:102B44007B68DB8B4FF6FF72934203D16FF00A036D
:102B54003B643BE0FB6B3B64FB6B022B09D1012321
:102B640087F845307B68DB8B01339AB27B68DA8364
:102B74002CE0FB6B002B05D0FB6B042B02D0FB6B12
:102B8400062B0AD1FB6B002B0CBF0123002387F813
:102B94004630012387F8473018E0FB6B052B03D13F
:102BA4006FF085033B6411E0FB6B012B0BD04FF4FA
:102BB400E473314A31492E4814F05DFD4FF4E47159
:102BC4002D4814F03FFD6FF004033B6497F8473041
:102BD400002B05D07B683A681146184615F07AF840
:102BE40097F84630002B05D07A6902217868FFF700
:102BF400E1FC34E07B6814333B627B693B61386AF7
:102C040011F0E8FD034683F00103DBB2002B0FD083
:102C140040F23113144A1A49154814F02CFD396A4C
:102C2400184814F028FD40F231110F4814F00AFD41
:102C34003B69FB61FB69BB61BB6983F3118800BF1E
:102C4400BFF36F8F00BF00BF00BF97F84530002B64
:102C540005D00023FA6B3968786815F036F93B6CB7
:102C640018464837BD4680BD7C2C0200B42C0200B7
:102C7400CC2C0200EC2C0200042D0200F42D0200E6
:102C84000C2E0200242E020080B586B000AF7860BE
:102C9400396000237B6100233B61786815F099F962
:102CA400F8607B683A689A60FB68032B09D0FB687C
:102CB400032B0ED8FB68012B15D0FB68022B04D024
:102CC40007E07B681B683B610EE07B681B687B61E7
:102CD4000AE045230C4A0D490D4814F0CCFC45216B
:102CE400094814F0AFFC00BF7B6800225A607B697E
:102CF400002B03D03968786915F05DF93B691846F3
:102D04001837BD4680BD00BFC82E0200F82E020051
:102D1400FC2E020080B500AF1EF08CFE0346024A72
:102D24009B58184680BD00BF0800000080B582B0E3
:102D340000AF78607B68002B09D18C230D4A0E49C3
:102D44000E4814F098FC8C210A4814F07BFC7B6834
:102D54001B68DB68002B04D07B681B68DB68786821
:102D640098477B685B6801229A7100BF0837BD46AB
:102D740080BD00BF1C2F0200602F0200782F0200CC
:102D840080B582B000AF78607B68002B09D1A023A6
:102D94000C4A0D490D4814F06EFCA021094814F0AA
:102DA40051FC7B681B681B69002B06D07B681B6881
:102DB4001B6978689847034600E0002318460837E3
:102DC400BD4680BD1C2F0200602F0200782F020038
:102DD40080B582B000AF786039607B68002B09D180
:102DE400B423104A1049114814F045FCB4210D488D
:102DF40014F028FC3B68002B09D1B523094A0C497F
:102E04000A4814F038FCB521064814F01BFC7B6812
:102E14001B681B6839687868984700BF0837BD4647
:102E240080BD00BF1C2F0200602F0200782F02001B
:102E3400982F020080B582B000AF786039607B685B
:102E4400002B09D1C4230C4A0C490D4814F013FC7F
:102E5400C421094814F0F6FB7B681B685B68002BEF
:102E640005D07B681B685B6839687868984700BF41
:102E74000837BD4680BD00BF1C2F0200602F020032
:102E8400782F020080B582B000AF78607B68002B99
:102E940009D1D223084A0949094814F0ECFBD2218C
:102EA400054814F0CFFB7B681B689B6878689847DB
:102EB40000BF0837BD4680BD1C2F0200602F0200F2
:102EC400782F020080B582B000AF78600B46FB70AB
:102ED4007B68002B09D1E123084A0949094814F009
:102EE400CAFBE121054814F0ADFB7B685B68FA7806
:102EF4001A7100BF0837BD4680BD00BF1C2F0200F9
:102F0400602F0200782F020080B485B000AF786093
:102F14007B681B01044A1344FB60FB6818461437A2
:102F2400BD4680BC704700BF681E020080B483B0F9
:102F340000AF054A054BD31A1B097B607B68184612
:102F44000C37BD4680BC7047781E0200681E020024
:102F540080B582B000AF78607B68002B0BD140F263
:102F64003513084A0849094814F085FB40F2351125
:102F7400044814F067FB7B685B685B791846083784
:102F8400BD4680BD1C2F0200602F0200782F020076
:102F940080B584B000AFF8600B467A60FB72FB68C2
:102FA400002B0BD14FF4B2730C4A0D490D4814F0A9
:102FB40062FB4FF4B271094814F044FBFB681B68D0
:102FC4009B69002B06D0FB681B689B69F97A7A68B9
:102FD400F868984700BF1037BD4680BD1C2F02001B
:102FE400602F0200782F020080B483B000AF7860B5
:102FF400044A7B6852F8233018460C37BD4680BC1F
:10300400704700BF1084020080B590B002AF4648FC
:1030140015F05BF87863454B1B78002B60D0444B6C
:103024007B62EFF311833B623B6AFB612023BB614C
:10303400BB6983F3128800BFBFF36F8F00BFFB69C6
:10304400BB607B6A7B61786911F0A8FB034683F05F
:103054000103DBB2002B0DD08823364A36493748AA
:1030640014F009FB7969364814F005FB88213148CE
:1030740014F0E8FA00BF7B6A3B61386911F0DCFBAD
:1030840000BFBB68FB6015F0B7F9294B3B63FB68D5
:103094007B60386B11F09EFB034683F00103DBB2C7
:1030A400002B0FD040F23113224A2649234814F052
:1030B400E2FA396B244814F0DEFA40F231111D486B
:1030C40014F0C0FA7B68FB62FB6ABB62BB6A83F3E1
:1030D400118800BFBFF36F8F00BF00BF00BF1FE0A8
:1030E4001A4B1B68002B1BD07B6B002B0FD14FF4AA
:1030F40000404FF000014FF000024FF00003CDE913
:10310400002302460B46124815F028F908E07B6BB1
:10311400092B05D10E4815F034F90E4815F055F970
:1031240000BF3837BD4680BD500C00206C11002014
:10313400640C0020B02F0200E82F0200782F020058
:10314400003002001830020030300200580C002019
:10315400680300207002002080B584B000AF254BC6
:1031640000221A70244B00221A60244B00221A6099
:103174004FF40043BB60B968214800F0F7F800F051
:10318400DBFA204BFB6015E001237B600020FFF796
:10319400BBFE0246FB689B1A1B111A467B6813444C
:1031A4007B607B68DBB21946F868FFF78BFEFB682F
:1031B4001033FB60FB68144A93420ED940F2271384
:1031C400124A1349134814F056FA134814F053FAE8
:1031D40040F227110D4814F035FAFB680A4A93426D
:1031E40034BF01230023DBB2002BCDD11037BD4601
:1031F40080BD00BF6C110020540C0020500C002036
:1032040045840100681E0200781E02004830020056
:1032140080300200782F0200A430020080B586B00E
:1032240000AF03460A46FB711346BB7100237B6162
:10323400FFF77CFE0346082B0BD94FF4A673364ADE
:103244003649374814F017FA4FF4A671324814F08F
:10325400F9F9344814F039FF0346002B01D0002358
:1032640055E000233B61304BFB6022E0FB681B7B95
:10327400002B18D0F868FFF759FDF868FFF780FDB8
:103284000346002B08D1FB685B681B6804221946BF
:10329400F86815F0A8F906E001223B6902FA03F385
:1032A4007A6913437B613B6901333B61FB681033EB
:1032B400FB60FB681D4A93420ED94FF4AC73164A67
:1032C4001B49174814F0D7F91A4814F0D4F94FF4ED
:1032D400AC71114814F0B6F9FB68144A934234BF38
:1032E40001230023DBB2002BC0D1FB79002B0DD0CE
:1032F40009E0786915F0ABF87861BB79002B02D04E
:103304000A2014F078FF7B69002BF2D17B69184600
:103314001837BD4680BD00BF48300200C4300200EB
:10332400782F02004C0C0020681E0200781E020058
:1033340080300200A430020080B582B000AF786013
:10334400074A7B6813607B68002B06D0054B1B681B
:10335400092B02DD044815F038F80837BD4680BD56
:10336400580C0020500C00207002002080B582B060
:1033740000AF786039607B68002B02D16FF01503D1
:1033840009E0074A7B681360064A3B6813603868A3
:1033940001F00EF9002318460837BD4680BD00BF72
:1033A400200000205C0C002080B582B000AF214BCF
:1033B4001B78002B39D100210120FFF72FFF1E4B72
:1033C4007B600BE07868FFF7C3FD0346002B02D057
:1033D4007868FFF757FD7B6810337B607B68174A7A
:1033E40093420ED940F2C513154A1649164814F0F3
:1033F40042F9164814F03FF940F2C511104814F090
:1034040021F97B680D4A934234BF01230023DBB2C8
:10341400002BD7D100BF14F0EFFF0346002BFAD1E5
:1034240000BF044B01221A7000E000BF0837BD46FC
:1034340080BD00BF6C110020681E0200781E0200CF
:103444004830020080300200782F0200A4300200CD
:1034540080B584B000AF78601B4BFB6013E0F86864
:10346400FFF776FD0346002B0AD07968F86815F05B
:1034740029F80346002B03D07968F868FFF7A8FC05
:10348400FB681033FB60FB68104A93420ED94FF47B
:1034940000730F4A0F49104814F0EDF80F4814F068
:1034A400EAF84FF400710A4814F0CCF8FB68074AB4
:1034B400934234BF01230023DBB2002BCFD100BFE2
:1034C40000BF1037BD4680BD681E0200781E020092
:1034D4004830020080300200782F0200A43002003D
:1034E40080B582B000AF00F00BF93860184B7B60F8
:1034F4000CE07868FFF72CFD0346002B03D03968F5
:103504007868FFF797FC7B6810337B607B68114A0F
:1035140093420ED94FF403730F4A1049104814F024
:10352400AAF8104814F0A7F84FF403710A4814F0ED
:1035340089F87B68074A934234BF01230023DBB236
:10354400002BD6D100BF00BF0837BD4680BD00BFE9
:10355400681E0200781E020048300200803002001B
:10356400782F0200A430020080B588B004AF002197
:10357400124814F0C4FD0346FB600323012B19D940
:103584000123FB72FB7A83F00103DBB2002B11D120
:103594000B4B1968FB6803930A4B029300230193B6
:1035A4000023009300230222002014F0C2FD002314
:1035B4007B6000BF00BF1037BD4680BD600C00209B
:1035C4001C000020F830020080B500AF074B1B78C8
:1035D40083F00103DBB2002B02D0054814F0F5FEA2
:1035E400024B01221A7000BF80BD00BF6D11002084
:1035F400700200202DE9B04384B000AF4FF0000208
:103604004FF00003C7E900232A4B1B7883F0010322
:10361400DBB2002B01D0002347E03B46184600F004
:10362400CDF8F860FB68002B08D0F868FFF710FFAE
:10363400F86800F0DDF8204814F054FD00F06CF850
:103644000346FB7214F053FF0346BB72FB7A002B54
:1036540002D1BB7A002B1BD014F0FBFD02460B46B3
:1036640010461946154BD3E90023841A61EB030570
:1036740040F2E9339C4275F1000309D3FB7A002B35
:1036840001D0FFF72DFFBB7A002B01D0FFF76CFFB1
:103694000A4BD3E9002312F57A7843F10009074B6A
:1036A400C3E9008900F0B4F8034618461037BD4654
:1036B400BDE8B0836D110020500C0020A003002051
:1036C40080B582B000AF0346FB71094814F0FDFCDD
:1036D400FB79002B02D0074814F004FD064814F0CF
:1036E40050FE064814F071FE00BF0837BD4680BD89
:1036F400540C0020500C00206803002070020020AD
:1037040080B500AF0021034814F0F9FC03461846C5
:1037140080BD00BF540C002080B400AF054B1B6873
:10372400002BCCBF01230023DBB21846BD4680BC6E
:10373400704700BF540C002080B500AF0449054811
:10374400FEF7B2F9044B034A1A6000BF80BD00BF04
:1037540020840200D8010020680C002080B582B0CB
:1037640000AF78607968044814F0C8FE0346184630
:103774000837BD4680BD00BFD801002080B582B0A7
:1037840000AF7860064B1B68984702467B689A60D6
:103794007968044814F0C6FE00BF0837BD4680BDF2
:1037A40020000020D801002080B500AF0248FEF7B9
:1037B400F5FB0346184680BDD801002080B584B0CF
:1037C40000AF7860074A084BD31A084AA2FB0323C8
:1037D4009B09FB60FFF7E8FF034618461037BD4618
:1037E40080BD00BF1C020020D8010020F1F0F0F0E1
:1037F40080B582B000AF7860044B1B6879681846C6
:1038040014F0A1FE00BF0837BD4680BD680C00203F
:1038140080B584B000AF0023FB60084A084BD31A7C
:10382400084AA2FB03239B09BB60074814F099FED6
:10383400034618461037BD4680BD00BF1C02002059
:10384400D8010020F1F0F0F0D801002080B584B058
:1038540000AF03463960FB71164BFB6008E0FB794F
:103864003A681946F868FFF793FBFB681033FB606E
:10387400FB68114A93420ED940F29D330F4A104916
:10388400104813F0F8FE104813F0F5FE40F29D3195
:103894000A4813F0D7FEFB68074A934234BF01235A
:1038A4000023DBB2002BDAD100BF00BF1037BD46C6
:1038B40080BD00BF681E0200781E0200483002006E
:1038C40080300200782F0200A430020080B582B05C
:1038D40000AF7860034814F078FD00BF0837BD4698
:1038E40080BD00BF7002002080B58AB000AFF860D0
:1038F400B9607A60FFF71AFB0346002B0BDC40F239
:10390400A9332D4A2D492E4813F0B5FE40F2A931B2
:10391400294813F097FE4FF0FF33FB610023FB7639
:1039240000210020FFF77AFC78627B6A002B06D026
:1039340040F267624FF00003C7E9042305E04FF04B
:10394400FF324FF0FF33C7E90423002387F8233005
:10395400FFF7E0F903461846FFF7EEFC7B6A002BFD
:103964000CD0786A14F073FD78627B6A002B05D161
:103974004FF0FF324FF0FF33C7E9042314F03CFD4E
:10398400034683F00103DBB2002B10D097F82330F9
:10399400002B06D0002387F8233000210020FFF7F6
:1039A40055FFD7E90423074814F0FFFCD6E70123A9
:1039B40087F82330D2E700BF483002008831020084
:1039C400782F02007002002080B588B008AF002272
:1039D400114912481DF036FC4FF000024FF000036D
:1039E400CDE90623002304930E23039300230293BB
:1039F4000023019300230093094B4FF4805209499B
:103A0400094814F06FFC0949074814F099FC002395
:103A14001846BD4680BD00BFD138000068030020B1
:103A2400ED38000080210020A8070020A431020006
:103A340080B483B000AF78607B68044A9B1ADB08CB
:103A440018460C37BD4680BC704700BF001E0200FC
:103A540080B500AF0248FFF7EBFF0346184680BD70
:103A6400681E020080B582B000AF786039607B6860
:103A7400002B0BD14FF48D730A4A0B490B4813F0FA
:103A8400FAFD4FF48D71074813F0DCFD7B685B6829
:103A94003A681A607B685B6801225A7100BF083774
:103AA400BD4680BDAC310200F03102000832020094
:103AB40080B582B000AF786039607B68002B09D193
:103AC400B823094A09490A4813F0D5FDB821064824
:103AD40013F0B8FD7B689A683B685B0013449B88CD
:103AE40018460837BD4680BD2832020068320200FD
:103AF4000832020090B587B002AFF860B9603B604D
:103B04001346FB80FB68002B09D1E223124A1349B8
:103B1400134813F0B0FDE2210F4813F093FD3B6806
:103B2400002B09D1E3230C4A0E490D4813F0A3FDE1
:103B3400E321094813F086FDFB681B68DC68FA88FA
:103B44003B6A00933B68B968F868A0470346184687
:103B54001437BD4690BD00BF28320200683202000F
:103B6400083202007032020080B584B000AF034610
:103B74003960FB71204BFB601BE0FB689B689B6812
:103B8400DAB2FB689B681B68DBB21344FB72FA79F8
:103B9400FB7A9A420AD2FB689B689B68DBB2FA798B
:103BA400D31ADAB23B681A70FB6820E0FB6818335A
:103BB400FB60FB68114A93420CD95823104A1149FF
:103BC400114813F058FD114813F055FD58210C48C5
:103BD40013F038FDFB68094A934234BF01230023E4
:103BE400DBB2002BC9D13B6800221A7000231846AF
:103BF4001037BD4680BD00BF781E0200781E02004B
:103C040088320200C032020008320200DC320200B4
:103C140080B584B000AF0346FB7107F10B02FB795A
:103C240011461846FFF7A0FFF860FB68002B09D186
:103C3400C123094A09490A4813F01DFDC121064858
:103C440013F000FDFB7A1946F868FFF731FF0346CD
:103C540018461037BD4680BD88320200FC3202008F
:103C64000832020080B58AB002AF03463960FB71A6
:103C7400234BDB693B61FB793B733B689BB2FB8164
:103C8400FB6807F1140219461D4814F0D0FD0346E1
:103C940083F00103DBB2002B2CD007F10B02FB797C
:103CA40011461846FFF760FFF861FB69002B09D144
:103CB400E523144A1449154813F0DDFCE5211148A5
:103CC40013F0C0FCFB7A18463B689AB2796907F195
:103CD400100300930B460146F869FFF70BFFB86128
:103CE400BB69002B01DA002305E07B69194604480F
:103CF40014F020FE7B6918462037BD4680BD00BF06
:103D04006C0C002088320200FC32020008320200EF
:103D140080B582B000AF786039607B68DBB218464A
:103D240014F032FC0346002B0DD0786814F037FCF5
:103D340002463B68934204D2084A3B6852F8333047
:103D440008E0002306E07B68DBB239681846FFF719
:103D540089FF034618460837BD4680BD001E020091
:103D640080B483B000AF78607B68044A9B1ADB0898
:103D740018460C37BD4680BC704700BF001E0200C9
:103D840080B590B004AFB9607B600346FB73134603
:103D9400BB733B6C002B19D07B6C3B613B6900937C
:103DA4003B6CFA6B10210020FDF72AFAF862FB6ADB
:103DB400002B0DDA40F265134A4A4B494B4813F085
:103DC4005AFC40F26511474813F03CFC0023FB62A7
:103DD400FB6AB3F5006F1DD30323012B7FD90123A5
:103DE400FB77FB7F83F00103DBB2002B77D1404BE1
:103DF400196840F2FF7303933E4B0293002301932F
:103E04000023009300230222002014F0A5FD0023C8
:103E1400BB6164E0FA6ABB6B1344173323F00703F6
:103E240003339B08BB623B7D6FF300033B753B7D13
:103E34006FF341033B753B7D6FF382033B75FB7B63
:103E440003F00703DAB23B7D62F3C5033B75BB7B2A
:103E540003F00703DAB2BB8A62F38813BB82FB6AFE
:103E6400C3F30A039AB27B6962F353237B61BB6B8E
:103E7400C3F30B039AB2FB8A62F30F13FB82B86A93
:103E8400FFF76CFC78627B6A002B02D07B6A1033EC
:103E940000E000233B623B6A002B1AD03B6C002BF2
:103EA40017D0F96A7B6C00933B6CFA6B386AFDF7A8
:103EB400A7F9F862FB6A002B0BDA4FF4C473094AC2
:103EC40009490A4813F0D7FB4FF4C471054813F0AD
:103ED400B9FB7B687A69B968786A14F08BFD30376E
:103EE400BD4680BDD03302003434020014340200D5
:103EF400240000204034020080B584B000AFF86094
:103F0400B9607A607B68BA680449F86813F006FB04
:103F1400034618461037BD4680BD00BF59680000EF
:103F240080B586B000AF786039603B687B617B699F
:103F34005B681B687A69D268934202D1786914F08D
:103F440050FE7B695B68184614F0C1FD38617B69DB
:103F54009A683B6913447A68D2B21A707B695B68C9
:103F64001B681A467B69DB689A4209D97223074A9F
:103F74000749084813F07FFB7221044813F062FBE1
:103F8400002318461837BD4680BD00BF9834020090
:103F9400D0340200003502000EB480B585B000AF05
:103FA40078600023FB6007F12003BB60BB68FA69FB
:103FB4007968064802F04EFCF860FB68184614372E
:103FC400BD46BDE8804003B0704700BF253F0000F8
:103FD40080B592B004AFF860B9607A60BB6803F052
:103FE4004403002B14BF0123002387F8333097F8D0
:103FF400333083F00103DBB2002B06D07A683849F2
:10400400F868FFF7C9FF786365E0364B1B68002B3F
:104014005FD0354B1B687A68B2FBF3F37B60314B9E
:104024001B687A68B2FBF3F3FB622E4B1A687B6859
:10403400B3FBF2F101FB02F29B1ABB62BB6A4FF4C1
:104044007A7203FB02F2274B1B68B2FBF3F37B6229
:10405400BB6A4FF47A7203FB02F2224B1B68796A43
:1040640001FB03F3D31A4FF47A7203FB02F21D4BE4
:104074001B68B2FBF3F33B62FB6AFB61FB691B4AFF
:10408400A2FB0323DB0ABB61BB694FF4616202FB41
:1040940003F3FA69D31AFB61FB69154AA2FB0323F4
:1040A4005B097B617A6913461B019B1A9B001A46C4
:1040B400FB699B1AFB613B6A02937B6A0193FB6970
:1040C40000937B69BA690B49F868FFF765FF786369
:1040D40001E000237B637B6B18463837BD4680BD07
:1040E400203502008C0C0020900C0020C5B3A29156
:1040F400898888882C35020080B586B000AFF860C6
:104104007B600B46FB721346BB72FB7A002B14D008
:10411400BB7A002B0AD00B4A7B6852F82330002B61
:1041240004D0084A7B6852F8233000E0064B7B61D8
:104134007A690649F868FFF72FFF00BF1837BD46B4
:1041440080BD00BF4884020048350200503502009B
:1041540080B584B000AF7860084611461A4603461D
:10416400FB700B46BB7013467B700023FB60FB782F
:10417400002B0CD0194A7B6A52F823301A4618498E
:104184007868FFF709FF0246FB681344FB60BB69CC
:10419400002B08D0BA6913497868FFF7FDFE024680
:1041A400FB681344FB60FB69002B11D0BB78002B28
:1041B40004D07B6A042B01D10B4B00E00B4BFA6952
:1041C40019467868FFF7E8FE0246FB681344FB6073
:1041D400FB6818461037BD4680BD00BF348402001A
:1041E400543502005C35020060350200643502007B
:1041F40080B582B000AF786039603B6803F010038B
:10420400002B0ED13B6803F02003002B04D0074998
:104214007868FFF7C1FE05E005497868FFF7BCFE42
:1042240000E000BF0837BD4680BD00BF6C3502000A
:104234007035020080B588B000AFF860B9607A606C
:104244003B60B96AF868FFF7D3FF0023FB6106E01F
:104254003749F868FFF7A0FEFB690133FB61FA698F
:104264003B689A42F4DB0023BB6120E0BB69002B6E
:1042740008DDBB6903F00703002B03D12C49F86860
:10428400FFF78AFEBB697A689A4209D9BB69BA68A2
:1042940013441B781A462749F868FFF77DFE03E0AC
:1042A4002549F868FFF778FEBB690133BB61BB6938
:1042B4000F2BDBDD2149F868FFF76EFE00237B61DD
:1042C4002DE07B69002B08DD7B6903F00703002BDD
:1042D40003D11749F868FFF75FFE7B697A689A4251
:1042E40016D97B69BA6813441B78FB74FB7C803352
:1042F400134A13441B7803F09703002B01D0FB7C73
:1043040000E02E231A460F49F868FFF745FE03E044
:104314000749F868FFF740FE7B6901337B617B69DD
:104324000F2BCEDD00BF00BF2037BD4680BD00BFD0
:1043340074350200783502008035020084350200AD
:10434400B78A02008835020090B58DB004AFF860DA
:10435400B9603B601346FB7197F83C30042B0BD9D2
:1043640040F24623384A3949394813F084F940F277
:104374004621354813F066F90023FB61BB6803F05E
:104384000203002B14BF01230023FB76BB6803F058
:104394000103002B14BF01230023BB76BB6803F089
:1043A4000803002B14BF012300237B760023FB7436
:1043B400BB6803F48073002B14BF012300233B76F6
:1043C40014F0DBF878617B69002B09D07A69214904
:1043D400F868FFF7E1FD03461A46FB691344FB61E5
:1043E400FB7E002B09D03A68B968F868FFF7F0FD46
:1043F40003461A46FB691344FB6197F83C20BB7ED5
:104404001946F86814F01BFCFC7C3B7E002B01D0A1
:10441400002300E07B6B97F83C20F879797E0392C7
:10442400BA6B029201933B6B009323460246F868F1
:10443400FFF78EFE03461A46FB691344FB61FB69D2
:1044440018462437BD4690BD98340200AC350200AE
:10445400003502009435020080B58CB004AFF860DA
:10446400B9607A603B6097F82C30002B0CBF0123B5
:104474000023FB75FB7D83F00103DBB2002B12D01C
:1044840097F82C300393BB6A02933B6801937B68D3
:104494000093BB680022F96BF868FFF755FFF861D9
:1044A400214BBB6108E00023FB613B68012B01D178
:1044B4001D4B00E01D4BBB613B6B002B14D03A6BD2
:1044C400F968B869FFF718FD38613B69002B0BDA0E
:1044D4004FF42873164A1749174813F0CCF84FF4D1
:1044E4002871134813F0AEF8BB6B002B08D0FA699F
:1044F400FB6B00931346BA6B796BF86814F0C1FB3D
:10450400FB7D83F00103DBB2002B06D097F82C303F
:104514001A46F96BF86814F0D8FBF86814F061FBDC
:1045240000BF2037BD4680BD253F0000198C010027
:1045340098340200B83502000035020080B586B018
:1045440000AF786039607B681B687B613B6842F22E
:104554000F72934228BF13463B6007F108003B6883
:10456400104A052112F0CAF938617B685B685B6800
:104574000B220D49786914F016FB3A697B685B6875
:104584005B6807F10801786914F00DFB7B685B68D0
:104594005B681B220549786914F005FB00BF1837D6
:1045A400BD4680BDC43502005C84020068840200FC
:1045B40080B483B000AF78600B4B01221A6007E02F
:1045C4007B685B087B60084B1B685B00064A1360D2
:1045D4007B68064A9342F3D8054A7B68136000BFA0
:1045E4000C37BD4680BC7047900C002040420F0041
:1045F4008C0C002080B588B000AFF860B9607A6098
:104604007B68BB61BB695B687B61154B3B61386947
:1046140014F06CFC0346002B01DAB9681AE000239D
:10462400FB610AE0FA68FB6913441B781946386990
:1046340014F04DFCFB690133FB61FA69BB689A42D3
:10464400F0D300BF4FF021024FF00003386914F09B
:1046540057FCB9680B4618462037BD4680BD00BFDD
:104664000C1B020080B586B000AF78607B685B6885
:104674001B683B61104BFB603B695B687B61F868BE
:1046840014F096FB034683F00103DBB2002B09D040
:1046940099230A4A0A490B4812F0EDFF9921074869
:1046A40012F0D0FF3B691B683969184614F0C3FB4C
:1046B4001837BD4680BD00BF0C1B0200D435020074
:1046C4001C3602003836020080B586B000AF786030
:1046D4007B685B681B687B617B695B683B61074B3C
:1046E400FB603B6901221A777B691B68184614F04A
:1046F400C3FB00BF1837BD4680BD00BF0C1B0200C2
:1047040080B483B000AF78607B68044A1A600023E9
:1047140018460C37BD4680BC704700BFB884020001
:1047240080B590B006AF78600323002B20D001231E
:10473400BB73BB7B83F00103DBB2002B18D13E4B70
:1047440018687B681B687A6852687968896805917B
:1047540004920393394B02930023019300230093A3
:10476400002301220146002014F01DFC00233B61BC
:104774000323002B20D00123FB73FB7B83F0010375
:10478400DBB2002B18D12C4B18687B68DB687A6885
:10479400126979684969059104920393284B02933D
:1047A40000230193002300930023012201460020EB
:1047B40014F0F9FB00233B620323002B19D00123DF
:1047C400FB77FB7F83F00103DBB2002B11D11A4B83
:1047D40019687B68DB6903931A4B029300230193E6
:1047E4000023009300230122002014F0DCFB0023AB
:1047F400BB610323002B1AD00123FB75FB7D83F0DF
:104804000103DBB2002B12D10B4B19687B689B6947
:1048140003930D4B02930023019300230093002381
:104824000122002014F0BFFB00237B6200BF00BF05
:104834002837BD4680BD00BF300000206C36020022
:104844009C360200CC360200DC36020080B58AB009
:1048540004AF786039603B68002B02D03868FFF7FA
:104864005FFF7B68012B21D1EFF30583BB60BB683D
:10487400103B7B610323002B18D00123FB74FB7CCA
:1048840083F00103DBB2002B10D10C4B19687B6958
:1048940003930B4B02930023019300230093002303
:1048A4000122002014F07FFB0023FB603968786844
:1048B4000BF054FC00BF1837BD4680BD300000200B
:1048C4000C37020030BFFFF7FDBF00BF80B400AF5C
:1048D400034A044B13441846BD4680BC704700BFCE
:1048E400000000000400000080B582B000AF7860D2
:1048F400094B1A46094978681DF00DF8064A7B6889
:1049040013447B60064B1A46002178681DF010F8AA
:1049140000BF0837BD4680BD00000000B91E02007C
:104924000400000080B400AF074BDA69064B9B68B3
:104934009A4205D0054B5B68044A43F080535360A8
:1049440000BFBD4680BC70479008002000ED00E029
:1049540080B59AB004AFF860B9607A6010237B65C3
:104964006FF015033B650323002B18D0012387F850
:104974004F3097F84F3083F00103DBB2002B0ED198
:10498400994B1968994B02930023019300230093D8
:1049940000230122002014F060FB0023BB64944B2D
:1049A4009B6A03F01003002B1DD011237B650323A6
:1049B400002B18D0012387F8473097F8473083F04D
:1049C4000103DBB2002B0ED1874B1968894B02938C
:1049D400002301930023009300230122002014F0FC
:1049E4003CFB00233B64824B9B6A03F00803002BCF
:1049F4001DD012237B650323002B18D0012387F8D5
:104A04003F3097F83F3083F00103DBB2002B0ED127
:104A1400754B1968784B029300230193002300938C
:104A240000230122002014F018FB0023BB63704B09
:104A34009B6A03F00203002B4FD013237B650323EF
:104A4400002B18D0012387F8373097F8373083F0DC
:104A54000103DBB2002B0ED1634B1968674B029341
:104A6400002301930023009300230122002014F06B
:104A7400F4FA00233B635E4B5B6BFB625C4B9B6A0B
:104A840003F08003002B28D0FB6A3B650323002B33
:104A94001AD0012387F82B3097F82B3083F00103C9
:104AA400DBB2002B10D1504B19683B6D0393544B70
:104AB400029300230193002300930023012200208A
:104AC40014F0CBFA00237B62BB68002B05D0484B63
:104AD4009B6A474A23F080039362454B9B6A03F029
:104AE4000103002B1DD014237B650323002B18D056
:104AF400012387F8233097F8233083F00103DBB2D6
:104B0400002B0ED1384B19683E4B029300230193BE
:104B14000023009300230122002014F09EFA0023B6
:104B2400FB61334B9B6A03F02003002B1BD015233E
:104B34007B650323002B16D00123FB76FB7E83F0D9
:104B44000103DBB2002B0ED1274B19682E4B0293C5
:104B5400002301930023009300230122002014F07A
:104B64007CFA00237B61224B9B6A03F01003002B29
:104B740005D11F4B9B6A03F00203002B14D01C4B7E
:104B84009B6A03F01003002B0ED04FF495731F4A59
:104B94001F49204812F06FFD1F4812F06CFD4FF4BE
:104BA40095711A4812F04EFD114B9B6A03F02003D5
:104BB400002B05D00E4B5B6A0D4A23F4005353625D
:104BC4000B4B9B6A0A4A43F0FF0393620121F86886
:104BD40014F06BFA03461A467B681A707B6D18460C
:104BE4005837BD4680BD00BF340000202037020086
:104BF40000ED00E0383702006C3702008037020015
:104C040098370200B0370200D037020000380200A3
:104C14003C38020088380200A838020080B59AB0F7
:104C240004AFF860B9607A6016237B650323002B18
:104C340018D0012387F8533097F8533083F00103D9
:104C4400DBB2002B0ED1934B1968934B02930023D4
:104C540001930023009300230122002014F0FDF9A6
:104C64000023FB648D4B9B6A03F48053002B1DD0FF
:104C740017237B650323002B18D0012387F84B30BF
:104C840097F84B3083F00103DBB2002B0ED1814B3C
:104C94001968834B0293002301930023009300239C
:104CA4000122002014F0D9F900237B647B4B9B6A1A
:104CB40003F40063002B1DD018237B650323002B12
:104CC40018D0012387F8433097F8433083F0010369
:104CD400DBB2002B0ED16F4B1968724B0293002389
:104CE40001930023009300230122002014F0B5F95E
:104CF4000023FB63694B9B6A03F40073002B4DD0C4
:104D040019237B650323002B18D0012387F83B303C
:104D140097F83B3083F00103DBB2002B0ED15D4BDF
:104D24001968614B0293002301930023009300232D
:104D34000122002014F091F900237B63574B9B6BF5
:104D44003B63564B9B6A03F40043002B26D003239A
:104D5400002B1AD0012387F82F3097F82F3083F0D7
:104D64000103DBB2002B10D14A4B19683B6B039350
:104D74004E4B02930023019300230093002301224E
:104D8400002014F06AF90023BB62BB68002B05D035
:104D9400424B9B6A414A23F4004393623F4B9B6A14
:104DA40003F48063002B1DD01A237B650323002B9F
:104DB40018D0012387F8273097F8273083F00103B0
:104DC400DBB2002B0ED1334B1968394B029300230D
:104DD40001930023009300230122002014F03DF9E5
:104DE40000233B622D4B9B6A03F48073002B1CD081
:104DF4001B237B650323002B39D00123FB75FB7D2B
:104E040083F00103DBB2002B31D1224B1968294B0B
:104E14000293002301930023009300230122002026
:104E240014F01BF900233B6121E01C4B9B6A03F443
:104E34000053002B1BD01C237B650323002B16D0AF
:104E44000123FB77FB7F83F00103DBB2002B0ED140
:104E5400104B1968184B029300230193002300930D
:104E640000230122002014F0F8F80023BB610B4B4F
:104E74009B6A0A4A43F47F4393620121F86814F061
:104E840014F903461A467B681A707B6D1846583726
:104E9400BD4680BD340000200C39020000ED00E066
:104EA400243902006C3702003839020054390200F8
:104EB4006C39020088390200D037020080B598B0FE
:104EC40004AF78601D23FB640323002B18D0012357
:104ED40087F84B3097F84B3083F00103DBB2002B9B
:104EE4000ED18B4B19688B4B029300230193002343
:104EF400009300230122002014F0AFF800237B6408
:104F0400854B9B6A03F00073002B1DD01E23FB64AA
:104F14000323002B18D0012387F8433097F843303C
:104F240083F00103DBB2002B0ED1794B19687B4B64
:104F34000293002301930023009300230122002005
:104F440014F08BF80023FB63734B9B6A03F08073AC
:104F5400002B1DD01F23FB640323002B18D0012337
:104F640087F83B3097F83B3083F00103DBB2002B2A
:104F74000ED1674B19686A4B0293002301930023F7
:104F8400009300230122002014F067F800237B63C0
:104F9400614B9B6A03F48013002B1FD02023FB6416
:104FA4000323002B18D0012387F8333097F83330CC
:104FB40083F00103DBB2002B0ED1554B1968594B1A
:104FC4000293002301930023009300230122002075
:104FD40014F043F80023FB620223FB644E4B9B6AEC
:104FE40003F40023002B1DD02123FB640323002B97
:104FF40018D0012387F82B3097F82B3083F0010366
:10500400DBB2002B0ED1424B1968474B02930023AD
:1050140001930023009300230122002014F01DF8C3
:1050240000237B623C4B9B6A03F48023002B1DD03E
:105034002223FB640323002B18D0012387F8233099
:1050440097F8233083F00103DBB2002B0ED1304BF1
:105054001968364B02930023019300230093002325
:105064000122002013F0F9FF0023FB612A4B9B6A05
:1050740003F40033002B1BD02323FB640323002BF6
:1050840016D00123FB76FB7E83F00103DBB2002BF9
:105094000ED11F4B1968264B029300230193002362
:1050A400009300230122002013F0D7FF00237B612B
:1050B400194B9B6A03F48033002B1BD02423FB641D
:1050C4000323002B16D00123FB74FB7C83F0010324
:1050D400DBB2002B0ED10E4B1968164B0293002342
:1050E40001930023009300230122002013F0B5FF55
:1050F4000023FB60084B9B6A074A6FEA03436FEA8D
:1051040013439362FB6C18465037BD4680BD00BF05
:1051140034000020A039020000ED00E0B83902009C
:10512400CC390200E8390200143A0200343A020091
:105134005C3A0200783A020080B588B004AF786027
:1051440039603B6800221A700323002B17D0012317
:10515400FB73FB7B83F00103DBB2002B0FD10A4B03
:1051640019680A4B02930023019300230093002340
:105174000122002013F071FF0023BB6000BF00BFB9
:105184001037BD4680BD00BF34000020A43A0200A1
:1051940080B485B000AF78607B689B69FB601B4B73
:1051A4005B691A4A43F480735361BFF34F8F00BFA6
:1051B40000BF00BFBFF36F8F00BF00BF00BFFB681D
:1051C40033F8023C7B81114B5B69104A23F48073F2
:1051D4005361BFF34F8F00BF00BF00BFBFF36F8F9A
:1051E40000BF00BF00BF7B8903F47F43B3F55F4F6B
:1051F40005D17B89DBB2022B01D1012300E000231E
:1052040018461437BD4680BC704700BF00ED00E06F
:1052140080B592B004AF786039600023FB62032349
:10522400002B18D0012387F8333097F8333083F0FC
:105234000103DBB2002B0ED1734B1968734B02933D
:10524400002301930023009300230122002013F084
:1052540004FF00237B633B6800221A706C4BDB6AFB
:1052640003F00203002B1CD00323002B00F0C780A3
:105274000123FB74FB7C83F00103DBB2002B40F0C1
:10528400BE80614B1968634B029300230193002392
:10529400009300230122002013F0DFFE0023FB60B3
:1052A400ADE05B4BDB6A002B1CDA0323002B00F020
:1052B400A6800123FB76FB7E83F00103DBB2002B87
:1052C40040F09D80504B1968534B02930023019387
:1052D4000023009300230122002013F0BEFE0023CC
:1052E4007B618CE04A4BDB6A03F08043002B77D070
:1052F4000323002B18D0012387F82B3097F82B3089
:1053040083F00103DBB2002B0ED13F4B1968434BF2
:105314000293002301930023009300230122002021
:1053240013F09BFE00237B627868FFF731FF03468E
:10533400002B22D00323002B1BD0012387F823301A
:1053440097F8233083F00103DBB2002B11D12E4BED
:1053540019687B681B680393314B02930023019304
:105364000023009300230122002013F076FE002383
:10537400FB617B681B68FB6241E0254B9B6ADBB2E7
:10538400002B06D03A6801217868FFF7E1FAF86249
:1053940035E01F4B9B6A03F47F43002B07D03A6828
:1053A40001217868FFF73AFC0346FB6227E0184BBB
:1053B4009B6AB3F5803F04D37868FFF77FFDF862FA
:1053C4001DE040F2EA23174A1749184812F053F92E
:1053D400174812F050F940F2EA21124812F032F95B
:1053E40040F2ED230F4A1049104812F044F91148D5
:1053F40012F041F940F2ED210A4812F023F9FB6A58
:1054040018463837BD4680BD34000020C83A020033
:1054140000ED00E0E03A0200043B0200143B02000D
:10542400343B020000380200503B0200883802007E
:10543400543B0200783B020080B58AB006AF786026
:1054440039600323002B21D00123FB73FB7B83F002
:105454000103DBB2002B19D10E4B19683B680F2BEB
:1054640001DC0D4B00E00D4B3A68103A04920393B3
:105474000B4B02930023019300230093002301228A
:10548400002013F0EAFD0023BB6000BF00BF10370B
:10549400BD4680BD34000020A83B0200C03B020092
:1054A400DC3B020080B586B000AFF860B9607A607A
:1054B40000237B617B6800221A70BB68033B092BC5
:1054C40035D801A252F823F0F5540000015500002C
:1054D4000F5500001F5500003355000033550000E0
:1054E40033550000335500003355000029550000A2
:1054F4007968F868FFF78CFE78611DE07A6800210E
:10550400F868FFF725FA786116E07A680021F868F0
:10551400FFF784FB03467B610EE0F868FFF7CEFCDF
:10552400786109E07968F868FFF706FE04E0B96875
:10553400F868FFF781FF00BF7B681B7883F00103E5
:10554400DBB2002B03D0B968F86813F0A4FD7B69C3
:1055540018461837BD4680BD80B58CB004AFF860DE
:10556400B9607A603B600023FB760023FB613B68F3
:1055740000221A707B6803F07F43B3F17F4F01D0A0
:10558400002339E07B6803F00803002B20D07B68FC
:1055940003F00403002B1BD10323002B16D001239B
:1055A400BB76BB7E83F00103DBB2002B0ED1144B20
:1055B4001968144B029300230193002300930023E2
:1055C4000122002013F049FD00237B61002313E036
:1055D400FB7E83F00103DBB2002B0CD07B6803F06D
:1055E4000803002B02D0BB68FB6104E0FB68FB618D
:1055F4003B6801221A70FB6918462037BD4680BDFE
:1056040034000020F03B020080B594B000AFF86095
:10561400B9607A603B600023FB64324B5B68C3F380
:105624000803BB6400233B643B6CFB63FB6B83F3A9
:10563400118800BFBFF36F8F00BF00BF07F13203B3
:105644007A68B968F868FFF787FF78647B6C002B89
:105654000ED140F21143244A2449254812F00BF894
:10566400244812F008F840F211411F4811F0EAFFF3
:105674007B6CBB637B687B6300BF07F133031A4613
:10568400B96C786CFFF70EFFF86497F83330002B91
:1056940023D107F110032022796C18461CF03BF942
:1056A40097F83230002B0BD0FB6AC3F30803002BAE
:1056B4000CD1FB6A6FEA53236FEA4323FB6205E0D4
:1056C400FB6A23F4FF7323F00103FB6207F1100369
:1056D4001946F86CFFF7BAF800E000BF5037BD4632
:1056E40080BD00BF00ED00E0003802001C3C020059
:1056F40088380200303C020080B400AF0A4B5B697A
:10570400094A43F010035361074B5B69064A43F4AB
:1057140080635361044B5B69034A23F008035361BC
:1057240000BFBD4680BC704700ED00E0EFF3088089
:10573400EFF3098101B57246FFF766FF01BD00BFB3
:105744000D4880F3088800200C49087007F078FFA2
:10575400202080F311880A484FF40061401880F338
:105764000988EFF314800221084380F31488BFF3FF
:105774006F8F13F0CCFC0000804100207A110020D0
:10578400C042002080B584B000AF7860114B9B68A4
:105794007A689A4216D1EFF30583FB60FB68002B0D
:1057A40014BF01230023DBB2002B0BD00A4B5B6830
:1057B400094A43F080535360074B5B6A064A23F45B
:1057C4000043536278680EF0CFF900BF1037BD462E
:1057D40080BD00BF9008002000ED00E001B51AF084
:1057E40047FFBDE8014019498A684FF04000104462
:1057F400EFF3098C80E8F01F202080F31288BFF3B8
:105804006F8F134F4FF00066CA698A603E60D2F80A
:10581400B800104C2060D2F8BC000023C2F8BC30A1
:1058240080F3118802F1400090E8F01F8CF309889E
:1058340002F1000004B513F078FCBDE8044001B5A2
:105844000CF046FABDE801407047000090080020C3
:1058540004ED00E0C40C00201EF0040F0CBFEFF3B5
:105864000880EFF30980816911F8021C0229FFD036
:1058740001B5724613F0B5FB01BD00BF80B483B01F
:1058840000AF0346FB7197F90730002B0BDBFB7964
:1058940003F01F02064997F907305B09012000FA5B
:1058A40002F241F8232000BF0C37BD4680BC70478C
:1058B40000E100E080B483B000AF0346FB7197F9C8
:1058C4000730002B12DBFB7903F01F020A4997F91A
:1058D40007305B09012000FA02F2203341F823204B
:1058E400BFF34F8F00BFBFF36F8F00BF00BF0C37F4
:1058F400BD4680BC704700BF00E100E080B483B0C7
:1059040000AF03463960FB7197F90730002B0ADBBF
:105914003B68DAB20C4997F907305201D2B20B4412
:1059240083F800230AE03B68DAB20849FB7903F004
:105934000F03043B5201D2B20B441A7600BF0C375A
:10594400BD4680BC704700BF00E100E000ED00E010
:1059540080B483B000AF7860084A7B685B0952F872
:1059640023207B6803F01F03012101FA03F3134092
:1059740018460C37BD4680BC704700BF00E100E00C
:1059840080B584B000AFF860B9607A60BB68013359
:10599400BB60BB68072B10D96B230D4A0D490E4819
:1059A40011F069FEBB68591E0723FA680B4811F011
:1059B40062FE6B21064811F045FEFB685BB2B968D4
:1059C4001846FFF79BFF00BF1037BD4680BD00BFE0
:1059D400703C0200B03C0200CC3C0200EC3C0200F3
:1059E40080B400AF094B0A4A23F07F039360BFF3EE
:1059F4004F8F00BF00BF00BFBFF36F8F00BF00BF5A
:105A040000BF00BFBD4680BC704700BF000000005F
:105A140000ED00E080B483B000AF0D4BD3F88830C4
:105A24000B4A23F47003C2F88830EFF314833B600D
:105A34003B6823F004037B607B6883F31488BFF323
:105A44006F8F00BF00BF00BF0C37BD4680BC7047DE
:105A540000ED00E080B487B000AFF860B9607A6010
:105A64003B607B68203B7B61124A7B699A617B695E
:105A74009B6923F001027B699A613A687B691A6029
:105A84003A6A7B695A607A6A7B699A60BA6A7B6906
:105A9400DA607B694FF08072DA617A69FB681A66B2
:105AA400FB680022C3F8BC2000BF1C37BD4680BC85
:105AB400704700BF751A0000F0B587B000AFF860FA
:105AC400B9607A6013F044FB114AFB689360FB6889
:105AD400D3F8B8300F4A13600CF0FAF8FB68D3F827
