:10000000C02E0020C53500008D330100B135000041
:10001000B1350000B1350000B1350000B135000048
:10002000000000000000000000000000B5360000E5
:10003000B13500000000000055360000B135000069
:1000400075390000753900007539000075390000F8
:1000500075390000753900007539000075390000E8
:1000600075390000753900007539000075390000D8
:1000700075390000753900007539000075390000C8
:1000800075390000753900007539000075390000B8
:1000900075390000753900007539000075390000A8
:1000A0007539000075390000753900007539000098
:1000B0007539000075390000753900007539000088
:1000C0007539000075390000753900007539000078
:1000D0007539000075390000753900007539000068
:1000E0007539000075390000753900007539000058
:1000F0007539000075390000753900007539000048
:100100007539000075390000753900007539000037
:100110007539000075390000753900007539000027
:100120007539000075390000753900007539000017
:100130007539000075390000753900007539000007
:1001400075390000753900007539000075390000F7
:0401500075390000FD
:1001540053B94AB9002908BF00281CBF4FF0FF312A
:100164004FF0FF3000F00CB8ADF1080C6DE904CE8F
:1001740000F010F8DDF804E0DDE9022304B0704774
:10018400704700BF034613F8012B002AFBD1181A4D
:10019400013870472DE9F04786468C460846089E8C
:1001A400154674461946002B40F0C1808542B2FAC8
:1001B40082F245D94AB1C2F1200300FA02FC95400B
:1001C40094402EFA03F343EA0C0C4FEA154EA8B2FE
:1001D400230CBCFBFEF80EFB18CC08FB00F943EA29
:1001E4000C43994528D9EB1808F1FF3704D29945F7
:1001F40002D9A8F102072B44A3EB0903A4B2B3FB71
:10020400FEFC0EFB1C330CFB00F044EA0344A0424A
:1002140014D92C190CF1FF3304D2A04202D9ACF149
:1002240002032C44241A43EA07401EB1D44000239D
:1002340034607360BDE8F0874746DDE76346F1E765
:1002440092BB431B01214FEA154EAFB2200CB3FB06
:10025400FEFC0EFB1C330CFB07F840EA03439845F5
:1002640061D9EB180CF1FF3004D2984502D9ACF1F6
:1002740002002B44A3EB0803A4B2B3FBFEFC0EFB69
:100284001C330CFB07F744EA0344A7424DD92C194D
:100294000CF1FF3304D2A74202D9ACF102032C447F
:1002A400E41B43EA0040C0E7C2F1200395409440B8
:1002B40020FA03F12EFA03F34FEA154E9040AFB241
:1002C4000343B1FBFEFC0EFB1C10190C0CFB07F8DE
:1002D40041EA0041884522D969180CF1FF3004D263
:1002E400884502D9ACF102002944A1EB08019BB274
:1002F400B1FBFEFC0EFB1C110CFB07F743EA0143A8
:100304009F420ED9EB180CF1FF3104D29F4202D95F
:10031400ACF102012B44DB1B41EA004193E7604648
:10032400E3E76146F7E76046A4E76346B8E783423C
:1003340006D916B9002108467CE7C6E900E0F9E7CA
:10034400B3FA83F78FB9834201D3724508D8BEEB61
:10035400020460EB030301209C461EB9002169E7F7
:100364003846FAE7C6E9004CF8E7C7F1200CBB4071
:100374000EFA07F522FA0CF42EFA0CF1BA401C43DB
:1003840020FA0CF3B8404FEA144901431FFA84FEE3
:10039400B3FBF9F809FB18300B0C08FB0EFA43EA1F
:1003A40000439A4540D9E31808F1FF3004D29A4536
:1003B40002D9A8F102002344A3EB0A0389B2B3FBD8
:1003C400F9F809FB183308FB0EFE41EA03418E4598
:1003D4002CD9611808F1FF3304D28E4502D9A8F153
:1003E4000203214443EA0040A1EB0E01A0FB029862
:1003F4004145CE46434602D306D14D4504D2013889
:10040400B9EB020E68EB0403002EA7D0B5EB0E0285
:1004140061EB030101FA0CFC22FA07F3F9404CEA00
:100424000303C6E9003199E74046C5E74346D9E7E7
:1004340090B58BB000AFF8600B467A60FB72FB6836
:100444009B687B62FB685B683B62FB681B69FB61C2
:100454007B6A9B69002B02D16FF0570322E07B6813
:1004640003F40003002B0CD0FB691A68FB7A01210A
:1004740001FA03F31340002B03D07B6883F0C063BD
:100484007B607A68094B1340BB617B6803F0B073EF
:100494007B617B6A9C69F97ABB697A69F868A047D1
:1004A40038613B6918462C37BD4690BD40000006B4
:1004B40080B58CB004AFF860B9607A601548002349
:1004C4000C2215490FF082FFF861FB69002B1BDA3F
:1004D4000323002B17D00123FB76FB7E83F001035B
:1004E400DBB2002B0FD10D4B19680D4B0293002387
:1004F40001930023009300230122002010F0A8F9A7
:1005040000237B6103E002E0064810F008F920377D
:10051400BD4680BD48C801000C0000200800002032
:1005240088CB01000000002080B59AB006AF78485F
:100534000FF062FF034683F00103DBB2002B1ED0F1
:100544000323002B19D00123FB72FB7A83F00103F0
:10055400DBB2002B11D16F4B19686F4B1B680393EF
:100564006E4B029300230193002300930023012286
:10057400002010F06DF900237B600023BDE14FF4EF
:10058400803163480FF0A4FF38623B6A002B24D00B
:100594000323002B1FD0012387F84B3097F84B30EF
:1005A40083F00103DBB2002B15D15A4B19685A4B67
:1005B4001B681822059204933B6A0393584B0293D9
:1005C400002301930023009300230122002010F054
:1005D4003FF90023FB6000238FE14FF0B8614C48E2
:1005E4000FF018FF38623B6A002B24D00323002B42
:1005F4001FD0012387F84A3097F84A3083F001036B
:10060400DBB2002B15D1434B1968434B1B681822EE
:10061400059204933B6A0393424B02930023019394
:100624000023009300230122002010F011F900237D
:10063400FB64002361E13C4B18460FF06DFE03465A
:1006440083F00103DBB2002B20D00323002B1BD04B
:10065400012387F8433097F8433083F00103DBB27A
:10066400002B11D12B4B19682F4B1B6803932F4B75
:10067400029300230193002300930023012200200E
:1006840010F0E6F80023FB63002336E1284B294AE7
:100694001A60274B00221A71254B08225A71244BE9
:1006A40008221A81224B01229A71214B00221A73CB
:1006B4001F4B00225A731E4B0E229A721C4B0122AE
:1006C400DA72194B1A4918460FF06EFE38623B6A0B
:1006D400002B33DA0323002B18D0012387F83B3097
:1006E40097F83B3083F00103DBB2002B0ED1094BAA
:1006F4001968114B029300230193002300930023F4
:100704000122002010F0A4F800237B640023F4E00D
:1007140048E2010008000020C8C701009CCB01008A
:10072400C4CB0100ECCB010048C8010024CC01007B
:100734009C090020E060903338CC010018231A464D
:10074400012393401A466F496F480FF0F9FF6F4B2E
:100754006D49184610F005F80323022B1BD9012319
:10076400BB75BB7D83F00103DBB2002B13D1684B57
:100774001968664B1B68182204920393654B029315
:10078400002301930023009300230322002010F090
:100794005FF800233B61604B1B68002B2BD05E4845
:1007A4000FF02AFE034683F00103DBB2002B22D0B4
:1007B4000323002B1CD00123FB75FB7D83F0010375
:1007C400DBB2002B14D1524B1968534B1B681B68C6
:1007D40004933B6A0393514B029300230193002338
:1007E400009300230122002010F032F80023BB61A3
:1007F400494B00221A60484B1B68002B52D04FF41F
:10080400003145480FF064FE38623B6A002B28D063
:100814000323002B21D0012387F82B3097F82B30AA
:1008240083F00103DBB2002B17D1394B19683A4B23
:100834001B681B68384A1279059204933B6A039338
:10084400374B0293002301930023009300230122DA
:1008540000200FF0FDFF00237B622F4B00221A6063
:1008640020E00323022B1DD90123FB77FB7F83F0B8
:100874000103DBB2002B15D1254B1968264B1B68ED
:100884001B68254A127904920393264B0293002392
:100894000193002300930023032200200FF0D8FFCC
:1008A4000023FB620323022B18D9012387F83A3073
:1008B40097F83A3083F00103DBB2002B0ED1144BCE
:1008C4001968194B0293002301930023009300231A
:1008D400032200200FF0BCFF00237B6313480FF0BA
:1008E40098FE38633B6B002B03DB396B0A480FF02F
:1008F400EEFE01200FF01CFDF0E718465037BD4610
:1009040080BD00BFB504000090090020C8C70100E5
:10091400080000204CCC01000000002068CC01003D
:100924009CCC0100D0CC0100E8CC010048E20100DD
:1009340080B483B000AF78607B68094A934205D3E2
:100944007B68084A934201D2012300E0002303F0AC
:100954000103DBB218460C37BD4680BC704700BFAC
:1009640050C7010088EA010080B5A4B000AFF86068
:10097400B9607A603B60FB68FB65FB6DC7F88C303F
:100984000023C7F880300023FB670023BB674FF0C8
:10099400FF337B67002387F86B307B6803F0040325
:1009A400002B14BF0123002387F85B307B68DB082E
:1009B40003F0070301337B66002387F86330FB6889
:1009C4007B65FB6803F00303002B02D06FF00D037B
:1009D400A2E3D7F88C300433C7F88C30FB6D002BBE
:1009E4000DD1BB6803F00703D7F88C201344C7F874
:1009F4008C30BB6803F00703C3F10803BB60FB6DD5
:100A0400002B0AD0FB6DD7F88C20D31A0433BA68B4
:100A14009A4202D26FF01B037EE33B68FB663B689D
:100A2400013B3B600423C7F884300423C7F88830B3
:100A340097E197F86B3083F00103DBB2002B11D000
:100A44003B681B78252B40F07882012387F86B30B4
:100A54007B6F01337B670423C7F884300423C7F812
:100A640088306AE23B681B787A2B00F349814C2B6F
:100A740011DA472B00F344812A2B71DA252B00F07D
:100A84009280252B00F33C81202B00F05882232BED
:100A940000F0558234E14C3B2E2B00F2318101A24F
:100AA40052F823F0430F0000050D0000050D00006F
:100AB400050D0000050D0000050D0000050D0000EA
:100AC400050D0000050D0000050D0000050D0000DA
:100AD400050D0000E30B0000050D0000050D0000EE
:100AE400050D0000050D0000050D0000050D0000BA
:100AF400050D0000050D0000330C0000050D00007D
:100B0400E30B0000E30B0000330C0000330C000087
:100B1400330C0000430F0000E30B0000B90B00008E
:100B2400050D0000430F0000050D00001F0C000020
:100B3400E30B00001F0C0000050D0000050D000074
:100B4400190C0000D50B0000E30B0000050D00009C
:100B5400050D0000E30B0000050D0000C70B0000AD
:100B64002A3B012202FA03F34FF6DA721A40002AF2
:100B740014BF01220022D2B2002A40F0E08103F027
:100B84006252002A14BF01220022D2B2002A4ED19E
:100B940003F00103002B14BF01230023DBB2002B5D
:100BA40040F0B280ACE0002387F86B307B6F013BF0
:100BB4007B67C5E10823C7F884300823C7F8883069
:100BC400BEE10423C7F884300423C7F88830B7E1B2
:100BD4000423C7F884300423C7F88830B0E13B68A5
:100BE400013B1B786C2B11D13B68023B1B786C2BAF
:100BF40006D10823C7F884300823C7F8883005E0F5
:100C04000423C7F884300423C7F88830002387F806
:100C14006B307AE0012387F863300423C7F884300B
:100C24000423C7F88830002387F86B306DE03B68F5
:100C3400013B1B784C2B13D1D7F89830073323F0A2
:100C4400070303F10802C7F89820D3E90023C7E992
:100C540006230823C7F884300823C7F8883012E035
:100C6400D7F89830073323F0070303F10802C7F8D5
:100C74009820D3E90023C7E906230823C7F8843062
:100C84000823C7F88830D7F88420D7F88C30134469
:100C94005A1ED7F88430B2FBF3F2D7F8843002FB43
:100CA40003F3C7F88C30FB6D002B1ED0FB6DD7F817
:100CB4008C20D21AD7F888301344BA689A4202D2E8
:100CC4006FF01B0328E23B68013B1B784C2B06D1D9
:100CD400D7F88C10D7E90623C1E9002305E0D7F83B
:100CE4008C10D7E90623C1E90023D7F88C20D7F864
:100CF40088301344C7F88C30002387F86B301FE129
:100D0400002387F86B301BE100BFD7F88420D7F8A5
:100D14008C3013445A1ED7F88430B2FBF3F2D7F860
:100D2400843002FB03F3C7F88C30FB6D002B0CD02E
:100D3400FB6DD7F88C20D21AD7F888301344BA68E0
:100D44009A4202D26FF01B03E6E197F86330002B5E
:100D540000F0A080D7F898301A1DC7F898201B68B7
:100D6400FB66FB6D002B03D0D7F88C30FA6E1A604B
:100D74007B6E5A1E7A66002B05DCF86E10F006F8BE
:100D84000346002B01D0012300E0002387F85330F1
:100D94007B6803F00203002B14BF0123002387F8B0
:100DA400523097F85330002B06D097F8523083F026
:100DB4000103DBB2002B64D1FB6DD7F88C20D31A6E
:100DC4009B08FB6497F85230002B05D0FB6C7F2BFB
:100DD40002D96FF015039FE1D7F880300F2B02D9A9
:100DE4006FF0150398E1FB6D002B2DD0FB6CD9B28D
:100DF40007F13002D7F8803013440A461A707B6F2B
:100E0400D9B207F12002D7F8803013440A461A7089
:100E140097F85330002B13D007F13002D7F8803005
:100E240013441B7863F07F03D9B207F13002D7F87B
:100E3400803013440A461A70BB6F0133BB671BE052
:100E4400FB6F0133FB6717E097F85330002B03D097
:100E5400BB680133BB600FE097F85B30002B03D015
:100E6400BB680233BB6007E0F86EFFF78BF90246FC
:100E7400BB6813440233BB60D7F880300133C7F832
:100E84008030D7F88C300433C7F88C30002387F8CF
:100E9400633055E0D7F88830042B13D1D7F8983055
:100EA4001A1DC7F898201B687B64FB6D002B03D0C8
:100EB400D7F88C307A6C1A60D7F88C300433C7F8C2
:100EC4008C303DE0D7F88830042B13D1D7F8983014
:100ED4001A1DC7F898201B68BB64FB6D002B03D058
:100EE400D7F88C30BA6C1A60D7F88C300433C7F852
:100EF4008C3025E0D7F88830082B1BD1D7F89830F0
:100F0400073323F0070303F10802C7F89820D3E955
:100F14000023C7E90423FB6D002B05D0D7F88C1000
:100F2400D7E90423C1E90023D7F88C300833C7F884
:100F34008C3005E06FF01503EEE000BF00E000BF69
:100F44003B6801333B603B681B78002B7FF471AD39
:100F540000BFFB6DD7F88C20D31AB3F5806F02D392
:100F64006FF01503D8E0FB6D002B07D1FB6DD7F8AC
:100F74008C20D21ABB681344083BCDE0FB6D0022E1
:100F84001A60FB6DD7F88C20D31A9B08DAB27B6DFC
:100F94001A7097F85B30002B07D07B6D00225A70D3
:100FA400FB6FDAB27B6DDA7006E0FB6FDAB27B6D51
:100FB4005A707B6D0022DA70BB6FDAB27B6D9A7067
:100FC400BB6F002B32D000233B672AE007F13002CD
:100FD4003B6F13441B785BB2002B1EDA07F130021F
:100FE4003B6F13441B7803F07F0387F84330FB6D9A
:100FF400D7F88C20D31A0133BA689A4202D26FF020
:101004001B0389E0D7F88C3097F843201A70D7F87F
:101014008C300133C7F88C3000E000BF3B6F0133E4
:101024003B673A6FD7F880309A42CFD300233B67AF
:1010340069E0BB6F002B07D007F130023B6F13440C
:101044001B785BB2002B5ADB97F85B30002B10D077
:101054000023C7F88830D7F88C3007F120013A6FA5
:101064000A4412781A70D7F88C300133C7F88C30E0
:101074001AE007F130023B6F13441B789B00FA6DB2
:1010840013441B68FB6607F130023B6F13441B7863
:101094009B00FA6D134400221A60F86EFFF772F891
:1010A40003460133C7F88830FB6DD7F88C20D21A79
:1010B400D7F8883013440133BA689A4202D26FF0E9
:1010C4001B0329E0D7F88C3007F130013A6F0A444A
:1010D40012781A70D7F88C300133C7F88C30D7F8EF
:1010E4008C30D7F88820F96E18461BF0A5FAD7F88B
:1010F4008C20D7F888301344C7F88C3000E000BF48
:101104003B6F01333B673A6FD7F880309A4290D3F4
:10111400FB6DD7F88C20D31A18469037BD4680BD96
:1011240080B483B000AF7860034A7B68136000BF6B
:101134000C37BD4680BC70471800002080B500AF56
:101144001BF0FAFA0346024A9B58184680BD00BFBA
:101154000800000080B584B000AFF860B9607A6020
:101164003B600FF0B5FE02461BF0E6FA0346064963
:101174005A50FB683A687968B8689847FFF7DEFF09
:10118400034618460FF0ABFE0800000080B59AB085
:1011940000AFF860B9607A60FB681B8B03F007034B
:1011A4007B6600233B66FB681B8B03F00803002B64
:1011B40014BF0123002387F85B3097F85B30002BC2
:1011C40012D0BB68012B07D1FB681B8B43F01003C3
:1011D4009AB2FB681A830BE1FB681B8B43F0200374
:1011E4009AB2FB681A8303E107F11C03184610F056
:1011F40021FC0023FB65BB68022B03D1F86810F0C7
:1012040006FEB860BB68002B00F0F18000233B664B
:10121400BB68012B0AD1FB685B693B6607F11C03C1
:101224003A6E1946F86810F02BFE22E0BB68032BD7
:1012340008D1FB681B691B68FB650621F86810F080
:10124400C9FC16E0BB68042B08D1FB681B695B680A
:10125400FB650421F86810F0BDFC0AE0BB68052BAF
:1012640007D1FB681B699B68FB650521F86810F0D2
:10127400B1FCFB681B8B03F007037A6E9A420CD017
:10128400FB680833184610F02CFC034683F0010376
:10129400DBB2002B01D0012300E0002387F85A3091
:1012A40097F85A3003F0010387F85A300023BB60E3
:1012B40097F85A30002B0DD107F11C03184610F093
:1012C40010FC034683F00103DBB2002B02D1FB6D5B
:1012D400002B63D0FB681B8B43F008039BB27B6538
:1012E4007B6D9AB2FB681A837B6D03F007037B6600
:1012F400FB6814333B657B683B613B69FB64FB6CB7
:10130400BB64BB6C83F3118800BFBFF36F8F00BF56
:1013140000BF00BF97F85A30002B04D03A6E796EA4
:10132400F86810F0BBFC07F11C03184610F0D9FB59
:10133400034683F00103DBB2002B06D007F11C0146
:101344003B6E7A6EF86810F014FDFB6D002B03D031
:10135400FB6D3249F8689847FB6814337B64EFF3FC
:1013640011833B643B6CFB632023BB63BB6B83F344
:10137400128800BFBFF36F8F00BFFB6B7B617B6C78
:101384007B6300BF7B6C3B6300BF7B697B60FB6856
:101394001B8B23F008039AB2FB681A83FB681B8B30
:1013A40003F01003002B09D0FB681B8B23F0100300
:1013B4009AB2FB681A830123BB600EE0FB681B8BA7
:1013C40003F02003002B08D0FB681B8B23F02003C1
:1013D4009AB2FB681A830223BB60FB681B8B03F081
:1013E40007037B66BB68002B7FF403AF00E000BFFC
:1013F400FB681433FB627B68BB61BB69BB62BB6A7D
:101404007B627B6A83F3118800BFBFF36F8F00BFD9
:1014140000BF00BF00BF6837BD4680BDBB1D0100D3
:1014240080B500AF1BF088F90346024A9B58184662
:1014340080BD00BF0800000080B485B000AF7860B4
:101444007B681B01044A1344FB60FB68184614378D
:10145400BD4680BC704700BF64CB010080B483B03C
:1014640000AF7860044A7B6852F8233018460C3782
:10147400BD4680BC704700BF50E2010080B590B00B
:1014840002AF2D4810F0EAFE78632C4B1B78002B3A
:101494002DD02B4B7B62EFF311833B623B6AFB61E4
:1014A4002023BB61BB6983F3128800BFBFF36F8F36
:1014B40000BFFB69BB607B6A7B6100BF7B6A3B61E9
:1014C40000BFBB68FB6011F0EDF81D4B3B63FB688C
:1014D4007B607B68FB62FB6ABB62BB6A83F3118837
:1014E40000BFBFF36F8F00BF00BF00BF1FE0154BED
:1014F4001B68002B1BD07B6B002B0FD14FF40040DB
:101504004FF000014FF000024FF00003CDE900233B
:1015140002460B460C4810F0EAFF08E07B6B092BEF
:1015240005D1094810F0F6FF084811F017F800BF7C
:101534003837BD4680BD00BFB0090020B00E002082
:10154400C4090020B80900207002002058020020BD
:1015540080B584B000AF1B4B00221A701A4B0022D6
:101564001A601A4B00221A604FF40043BB60B9683A
:10157400174800F0ADF800F03FFA164BFB6015E099
:1015840001237B600020FFF757FF0246FB689B1A8C
:101594001B111A467B6813447B607B68DBB21946D7
:1015A400F86811F041F8FB681033FB60FB680A4AE5
:1015B400934234BF01230023DBB2002BE0D1103768
:1015C400BD4680BDB00E0020B4090020B009002043
:1015D400F126010064CB010074CB010080B586B014
:1015E40000AF03460A46FB711346BB7100237B61BF
:1015F400274810F033FE0346002B01D0002342E0BD
:1016040000233B61234BFB6022E0FB681B7B002B28
:1016140018D0F86810F0ADFFF86810F0C0FF03466A
:10162400002B08D1FB685B681B6804221946F86824
:1016340011F07FF906E001223B6902FA03F37A69AB
:1016440013437B613B6901333B61FB681033FB60EF
:10165400FB68114A934234BF01230023DBB2002B01
:10166400D3D1FB79002B0DD009E0786911F045F84E
:101674007861BB79002B02D00A2010F085FE7B69CB
:10168400002BF2D17B6918461837BD4680BD00BFD8
:10169400AC09002064CB010074CB010080B582B09A
:1016A40000AF7860074A7B6813607B68002B06D024
:1016B400054B1B68092B02DD044810F04FFF083767
:1016C400BD4680BDB8090020B009002058020020A2
:1016D40080B582B000AF786039607B68002B02D19E
:1016E4006FF0150309E0074A7B681360064A3B68FC
:1016F4001360386800F01CFF002318460837BD4605
:1017040080BD00BF20000020BC09002080B582B04D
:1017140000AF174B1B78002B26D100210120FFF7C7
:101724005DFF144B7B600BE0786810F08CFF034680
:10173400002B02D0786810F06AFF7B6810337B605E
:101744007B680D4A934234BF01230023DBB2002B94
:10175400EAD100BF10F0A6FF0346002BFAD100BF68
:10176400034B01221A7000E000BF0837BD4680BD5C
:10177400B00E002064CB010074CB010080B584B0AE
:1017840000AF7860124BFB6013E0F86810F05BFF69
:101794000346002B0AD07968F86810F0E9FF034685
:1017A400002B03D07968F86810F00EFFFB68103343
:1017B400FB60FB68074A934234BF01230023DBB27A
:1017C400002BE2D100BF00BF1037BD4680BD00BF73
:1017D40064CB010074CB010080B582B000AF00F08F
:1017E400EFF838600E4B7B600CE0786810F02BFF4C
:1017F4000346002B03D03968786810F0F4FE7B6848
:1018040010337B607B68074A934234BF0123002373
:10181400DBB2002BE9D100BF00BF0837BD4680BD55
:1018240064CB010074CB010080B588B004AF002103
:10183400124810F02DFD0346FB600323012B19D938
:101844000123FB72FB7A83F00103DBB2002B11D17D
:101854000B4B1968FB6803930A4B02930023019313
:101864000023009300230222002010F02BFD00230C
:101874007B6000BF00BF1037BD4680BDC00900209B
:101884001C000020CCCD010080B500AF074B1B78B5
:1018940083F00103DBB2002B02D0054810F05EFE9A
:1018A400024B01221A7000BF80BD00BFB10E0020A0
:1018B400580200202DE9B04384B000AF4FF000027D
:1018C4004FF00003C7E900232A4B1B7883F0010380
:1018D400DBB2002B01D0002347E03B46184600F062
:1018E400CDF8F860FB68002B08D0F868FFF746FFD6
:1018F400F86800F0D7F8204810F0BDFC00F06CF850
:101904000346FB7210F049FF0346BB72FB7A002BBF
:1019140002D1BB7A002B1BD010F064FD02460B46AB
:1019240010461946154BD3E90023841A61EB0305CD
:1019340040F2E9339C4275F1000309D3FB7A002B92
:1019440001D0FFF749FFBB7A002B01D0FFF76CFFF2
:101954000A4BD3E9002312F57A7843F10009074BC7
:10196400C3E9008900F0AEF8034618461037BD46B7
:10197400BDE8B083B10E0020B0090020A802002009
:1019840080B582B000AF0346FB71094810F066FCD5
:10199400FB79002B02D0074810F06DFC064810F0CC
:1019A400B9FD064810F0DAFD00BF0837BD4680BD1A
:1019B400B4090020B0090020700200205802002061
:1019C40080B500AF0021034810F062FC03461846BE
:1019D40080BD00BFB409002080B400AF054B1B6874
:1019E400002BCCBF01230023DBB21846BD4680BCCC
:1019F400704700BFB409002080B500AF0449054812
:101A04000FF0BBFA044B034A1A6000BF80BD00BF4D
:101A140060E20100D8010020C409002080B582B032
:101A240000AF78607968044810F0BEFE034618469B
:101A34000837BD4680BD00BFD801002080B582B004
:101A440000AF7860064B1B68984702467B689A6033
:101A54007968044810F0BCFE00BF0837BD4680BD5D
:101A640020000020D801002080B500AF02480FF00C
:101A74008EFE0346184680BDD801002080B584B090
:101A840000AF7860054A064BD31A9B09FB60FFF749
:101A9400EBFF034618461037BD4680BD18020020F0
:101AA400D801002080B582B000AF7860044B1B6879
:101AB4007968184610F09DFE00BF0837BD4680BD0A
:101AC400C409002080B584B000AF0023FB60064A3F
:101AD400064BD31A9B09BB60054810F098FE0346D9
:101AE40018461037BD4680BD18020020D8010020DA
:101AF400D801002080B584B000AF03463960FB7183
:101B04000C4BFB6008E0FB793A681946F86810F062
:101B1400A6FDFB681033FB60FB68074A934234BFA1
:101B240001230023DBB2002BEDD100BF00BF10372F
:101B3400BD4680BD64CB010074CB010080B582B08A
:101B440000AF7860034810F009FD00BF0837BD46B8
:101B540080BD00BF5802002080B58AB000AFF86095
:101B6400B9607A604FF0FF33FB610023FB760021FC
:101B74000020FFF733FD78627B6A002B06D040F229
:101B840067624FF00003C7E9042305E04FF0FF321A
:101B94004FF0FF33C7E90423002387F82330FFF70E
:101BA4003FFC03461846FFF779FD7B6A002B0CD0F7
:101BB400786A10F0A2FD78627B6A002B05D14FF0A1
:101BC400FF324FF0FF33C7E9042310F06BFD0346E7
:101BD40083F00103DBB2002B10D097F82330002BE5
:101BE40006D0002387F8233000210020FFF782FF6E
:101BF400D7E90423034810F0A1FCD6E7012387F8B2
:101C04002330D2E75802002080B588B008AF002204
:101C1400114912481AF001FA4FF000024FF0000384
:101C2400CDE90623002304930E2303930023029398
:101C34000023019300230093094B4FF48052094978
:101C4400094810F018FC0949074810F042FC002329
:101C54001846BD4680BD00BF411B00007002002035
:101C64005D1B0000C00E0020B0060020F4CD010072
:101C740080B483B000AF78607B68044A9B1ADB08A9
:101C840018460C37BD4680BC704700BFFCCA010033
:101C940080B500AF0248FFF7EBFF0346184680BD4E
:101CA40064CB010080B485B000AF03463960FB719A
:101CB400184BFB601BE0FB689B689B68DAB2FB680F
:101CC4009B681B68DBB21344FB72FA79FB7A9A4275
:101CD4000AD2FB689B689B68DBB2FA79D31ADAB242
:101CE4003B681A70FB680FE0FB681833FB60FB6805
:101CF400094A934234BF01230023DBB2002BDAD11B
:101D04003B6800221A70002318461437BD4680BC75
:101D1400704700BF74CB010074CB010080B58AB05A
:101D240002AF03463960FB711C4BDB693B61FB79F5
:101D34003B733B689BB2FB81FB6807F114021946B5
:101D4400164810F01AFF034683F00103DBB2002BA0
:101D54001FD007F10B02FB7911461846FFF7A2FFCB
:101D6400F861FB7A18463B689AB2796907F1100367
:101D740000930B460146F86910F089FDB861BB6910
:101D8400002B01DA002305E07B691946034810F0B3
:101D940077FF7B6918462037BD4680BDC8090020FF
:101DA40080B582B000AF786039607B68DBB21846DA
:101DB40010F040FD0346002B0DD0786810F095FD1F
:101DC40002463B68934204D2084A3B6852F83330D7
:101DD40008E0002306E07B68DBB239681846FFF7A9
:101DE4009DFF034618460837BD4680BDFCCA010066
:101DF40080B483B000AF78607B68044A9B1ADB0828
:101E040018460C37BD4680BC704700BFFCCA0100B1
:101E140080B590B004AFB9607B600346FB73134692
:101E2400BB733B6C002B0BD07B6C3B613B69009319
:101E34003B6CFA6B10210020FEF796FDF86201E07E
:101E44000023FB62FB6AB3F5006F1DD30323012B50
:101E540070D90123FB77FB7F83F00103DBB2002BF6
:101E640068D1364B196840F2FF730393344B0293E5
:101E7400002301930023009300230222002010F08A
:101E840011FF0023BB6155E0FA6ABB6B134417339F
:101E940023F0070303339B08BB623B7D6FF300030E
:101EA4003B753B7D6FF341033B753B7D6FF38203D1
:101EB4003B75FB7B03F00703DAB23B7D62F3C5039A
:101EC4003B75BB7B03F00703DAB2BB8A62F388136A
:101ED400BB82FB6AC3F30A039AB27B6962F353239E
:101EE4007B61BB6BC3F30B039AB2FB8A62F30F13E0
:101EF400FB82B86AFFF792FD78627B6A002B02D0FE
:101F04007B6A103300E000233B623B6A002B0BD05A
:101F14003B6C002B08D0F96A7B6C00933B6CFA6B2A
:101F2400386AFEF721FDF8627B687A69B968786AD5
:101F340010F006FF3037BD4680BD00BF24000020EE
:101F440054CE010080B584B000AFF860B9607A6007
:101F54007B68BA680449F8680EF038FF03461846EF
:101F64001037BD4680BD00BFC14200000EB480B52D
:101F740085B000AF78600023FB6007F12003BB60ED
:101F8400BB68FA697968064802F098F9F860FB685A
:101F940018461437BD46BDE8804003B0704700BF03
:101FA400652F010080B592B004AFF860B9607A6023
:101FB400BB6803F04403002B14BF0123002387F8FC
:101FC400333097F8333083F00103DBB2002B06D0B3
:101FD4007A683849F868FFF7C9FF786365E0364BDB
:101FE4001B68002B5FD0354B1B687A68B2FBF3F398
:101FF4007B60314B1B687A68B2FBF3F3FB622E4BB8
:102004001A687B68B3FBF2F101FB02F29B1ABB6214
:10201400BB6A4FF47A7203FB02F2274B1B68B2FBD4
:10202400F3F37B62BB6A4FF47A7203FB02F2224B36
:102034001B68796A01FB03F3D31A4FF47A7203FB2A
:1020440002F21D4B1B68B2FBF3F33B62FB6AFB61BC
:10205400FB691B4AA2FB0323DB0ABB61BB694FF488
:10206400616202FB03F3FA69D31AFB61FB69154A47
:10207400A2FB03235B097B617A6913461B019B1A4C
:102084009B001A46FB699B1AFB613B6A02937B6ABD
:102094000193FB6900937B69BA690B49F868FFF700
:1020A40065FF786301E000237B637B6B1846383758
:1020B400BD4680BDACCE0100E8090020EC0900203B
:1020C400C5B3A29189888888B8CE010080B586B04E
:1020D40000AFF8607B600B46FB721346BB72FB7A61
:1020E400002B14D0BB7A002B0AD00B4A7B6852F821
:1020F4002330002B04D0084A7B6852F8233000E0D8
:10210400064B7B617A690649F868FFF72FFF00BF29
:102114001837BD4680BD00BF88E20100D4CE01005F
:10212400DCCE010080B584B000AF7860084611466B
:102134001A460346FB700B46BB7013467B700023A4
:10214400FB60FB78002B0CD0194A7B6A52F82330D1
:102154001A4618497868FFF709FF0246FB681344DA
:10216400FB60BB69002B08D0BA6913497868FFF794
:10217400FDFE0246FB681344FB60FB69002B11D093
:10218400BB78002B04D07B6A042B01D10B4B00E0FD
:102194000B4BFA6919467868FFF7E8FE0246FB68BC
:1021A4001344FB60FB6818461037BD4680BD00BF72
:1021B40074E20100E0CE0100E8CE0100ECCE0100A3
:1021C400F0CE010080B582B000AF786039603B6822
:1021D40003F01003002B0ED13B6803F02003002B07
:1021E40004D007497868FFF7C1FE05E0054978681F
:1021F400FFF7BCFE00E000BF0837BD4680BD00BF4E
:10220400F8CE0100FCCE010080B588B000AFF860C4
:10221400B9607A603B60B96AF868FFF7D3FF0023BE
:10222400FB6106E03749F868FFF7A0FEFB6901335C
:10223400FB61FA693B689A42F4DB0023BB6120E04E
:10224400BB69002B08DDBB6903F00703002B03D136
:102254002C49F868FFF78AFEBB697A689A4209D963
:10226400BB69BA6813441B781A462749F868FFF714
:102274007DFE03E02549F868FFF778FEBB6901336A
:10228400BB61BB690F2BDBDD2149F868FFF76EFEEC
:1022940000237B612DE07B69002B08DD7B6903F063
:1022A4000703002B03D11749F868FFF75FFE7B692A
:1022B4007A689A4216D97B69BA6813441B78FB740E
:1022C400FB7C8033134A13441B7803F09703002BE1
:1022D40001D0FB7C00E02E231A460F49F868FFF773
:1022E40045FE03E00749F868FFF740FE7B690133C8
:1022F4007B617B690F2BCEDD00BF00BF2037BD465D
:1023040080BD00BF00CF010004CF01000CCF01004D
:1023140010CF0100F7E8010014CF010090B58DB093
:1023240004AFF860B9603B601346FB710023FB61A6
:10233400BB6803F00203002B14BF01230023FB76C8
:10234400BB6803F00103002B14BF01230023BB76F9
:10235400BB6803F00803002B14BF012300237B7622
:102364000023FB74BB6803F48073002B14BF0123A8
:1023740000233B7610F057FA78617B69002B09D073
:102384007A691E49F868FFF7F1FD03461A46FB69AE
:102394001344FB61FB7E002B09D03A68B968F868E6
:1023A400FFF700FE03461A46FB691344FB6197F8E6
:1023B4003C20BB7E1946F86810F00AFEFC7C3B7E8C
:1023C400002B01D0002300E07B6B97F83C20F879C8
:1023D400797E0392BA6B029201933B6B009323467E
:1023E4000246F868FFF79EFE03461A46FB6913444B
:1023F400FB61FB6918462437BD4690BD20CF010020
:1024040080B58CB004AFF860B9607A603B6097F82F
:102414002C30002B0CBF01230023FB75FB7D83F0C4
:102424000103DBB2002B12D097F82C300393BB6A64
:1024340002933B6801937B680093BB680022F96BAD
:10244400F868FFF76BFFF8611A4BBB6108E00023E3
:10245400FB613B68012B01D1164B00E0164BBB61BD
:102464003B6B002B05D03A6BF968B869FFF76AFD3E
:102474003861BB6B002B08D0FA69FB6B00931346E1
:10248400BA6B796BF86810F0C5FDFB7D83F001032E
:10249400DBB2002B06D097F82C301A46F96BF8689B
:1024A40010F0DCFDF86810F042FD00BF2037BD4697
:1024B40080BD00BF652F0100AB2F010080B586B041
:1024C40000AF786039607B681B687B613B6842F2CF
:1024D4000F72934228BF13463B6007F108003B6824
:1024E400104A05210DF08EFC38617B685B685B68DF
:1024F4000B220D49786910F0FCFC3A697B685B6833
:102504005B6807F10801786910F0F3FC7B685B688D
:102514005B681B220549786910F0EBFC00BF183793
:10252400BD4680BD34CF01009CE20100A8E2010059
:1025340080B483B000AF78600B4B01221A6007E0CF
:102544007B685B087B60084B1B685B00064A136072
:102554007B68064A9342F3D8054A7B68136000BF40
:102564000C37BD4680BC7047EC09002040420F0088
:10257400E809002080B588B000AFF860B9607A60DF
:102584007B68BB61BB695B687B61154B3B613869E8
:1025940010F069FE0346002B01DAB9681AE0002343
:1025A400FB610AE0FA68FB6913441B781946386931
:1025B40010F04AFEFB690133FB61FA69BB689A4279
:1025C400F0D300BF4FF021024FF00003386910F040
:1025D40054FEB9680B4618462037BD4680BD00BF7F
:1025E40008C8010080B586B000AF78607B685B687E
:1025F4001B683B61064BFB603B695B687B613B6925
:102604001B683969184610F0D3FD1837BD4680BDE4
:1026140008C8010080B586B000AF78607B685B684D
:102624001B687B617B695B683B61074BFB603B69B3
:1026340001221A777B691B68184610F0DAFD00BF87
:102644001837BD4680BD00BF08C8010080B483B000
:1026540000AF78607B68044A1A60002318460C3780
:10266400BD4680BC704700BFF8E2010080B590B061
:1026740006AF78600323002B20D00123BB73BB7B00
:1026840083F00103DBB2002B18D13E4B18687B6842
:102694001B687A6852687968896805910492039383
:1026A400394B02930023019300230093002301225A
:1026B4000146002010F034FE00233B610323002B6D
:1026C40020D00123FB73FB7B83F00103DBB2002BDF
:1026D40018D12C4B18687B68DB687A6812697968B2
:1026E4004969059104920393284B029300230193B3
:1026F40000230093002301220146002010F010FE65
:1027040000233B620323002B19D00123FB77FB7FBB
:1027140083F00103DBB2002B11D11A4B19687B68DB
:10272400DB6903931A4B0293002301930023009364
:1027340000230122002010F0F3FD0023BB610323DA
:10274400002B1AD00123FB75FB7D83F00103DBB260
:10275400002B12D10B4B19687B689B6903930D4BBB
:1027640002930023019300230093002301220020FD
:1027740010F0D6FD00237B6200BF00BF2837BD46A2
:1027840080BD00BF3000002058CF010088CF010079
:10279400B8CF0100C8CF010080B58AB004AF78601B
:1027A40039603B68002B02D03868FFF75FFF7B6815
:1027B400012B21D1EFF30583BB60BB68103B7B6128
:1027C4000323002B18D00123FB74FB7C83F001034B
:1027D400DBB2002B10D10C4B19687B6903930B4BB4
:1027E400029300230193002300930023012200207D
:1027F40010F096FD0023FB603968786809F0D0FD7D
:1028040000BF1837BD4680BD30000020F8CF01005E
:1028140030BFFFF7FDBF00BF80B400AF034A044BD5
:1028240013441846BD4680BC704700BF000000003A
:102834000400000080B582B000AF7860094B1A46EE
:102844000949786819F0F8FE064A7B6813447B60EE
:10285400064B1A460021786819F0FBFE00BF0837C2
:10286400BD4680BD0000000074CB010004000000E0
:1028740080B400AF074B5A69064B9B689A4205D057
:10288400054B5B68044A43F08053536000BFBD4668
:1028940080BC7047780E002000ED00E080B59AB04F
:1028A40004AFF860B9607A6010237B656FF015039C
:1028B4003B650323002B18D0012387F84F3097F88A
:1028C4004F3083F00103DBB2002B0ED18C4B19681F
:1028D4008C4B0293002301930023009300230122D5
:1028E400002010F076FD0023BB64874B9B6A03F045
:1028F4001003002B1DD011237B650323002B18D05C
:10290400012387F8473097F8473083F00103DBB29F
:10291400002B0ED17A4B19687C4B02930023019350
:102924000023009300230122002010F052FD002315
:102934003B64754B9B6A03F00803002B1DD01223E4
:102944007B650323002B18D0012387F83F3097F8C9
:102954003F3083F00103DBB2002B0ED1684B1968C2
:102964006B4B029300230193002300930023012265
:10297400002010F02EFD0023BB63634B9B6A03F021
:102984000203002B4FD013237B650323002B18D0A5
:10299400012387F8373097F8373083F00103DBB22F
:1029A400002B0ED1564B19685A4B02930023019306
:1029B4000023009300230122002010F00AFD0023CD
:1029C4003B63514B5B6BFB624F4B9B6A03F0800391
:1029D400002B28D0FB6A3B650323002B1AD001236C
:1029E40087F82B3097F82B3083F00103DBB2002BF0
:1029F40010D1434B19683B6D0393474B029300235B
:102A040001930023009300230122002010F0E1FC35
:102A140000237B62BB68002B05D03B4B9B6A3A4A80
:102A240023F080039362384B9B6A03F00103002B6D
:102A34001DD014237B650323002B18D0012387F8B2
:102A4400233097F8233083F00103DBB2002B0ED13F
:102A54002B4B1968314B02930023019300230093FD
:102A640000230122002010F0B4FC0023FB61264B5C
:102A74009B6A03F02003002B1BD015237B650323E3
:102A8400002B16D00123FB76FB7E83F00103DBB21F
:102A9400002B0ED11A4B1968214B0293002301938A
:102AA4000023009300230122002010F092FC002355
:102AB4007B61154B9B6A03F01003002B01D1124B71
:102AC4009B6A114B9B6A03F02003002B05D00E4B2D
:102AD4005B6A0D4A23F4005353620B4B9B6A0A4A08
:102AE40043F0FF0393620121F86810F09AFC034657
:102AF4001A467B681A707B6D18465837BD4680BDF0
:102B0400340000200CD0010000ED00E024D00100CE
:102B140058D001006CD0010084D001009CD0010089
:102B2400BCD0010080B59AB004AFF860B9607A6097
:102B340016237B650323002B18D0012387F8533019
:102B440097F8533083F00103DBB2002B0ED1934B83
:102B54001968934B029300230193002300930023ED
:102B64000122002010F035FC0023FB648D4B9B6A8E
:102B740003F48053002B1DD017237B650323002B04
:102B840018D0012387F84B3097F84B3083F00103BA
:102B9400DBB2002B0ED1814B1968834B02930023C7
:102BA40001930023009300230122002010F011FC64
:102BB40000237B647B4B9B6A03F40063002B1DD0D2
:102BC40018237B650323002B18D0012387F8433097
:102BD40097F8433083F00103DBB2002B0ED16F4B27
:102BE4001968724B0293002301930023009300237E
:102BF4000122002010F0EDFB0023FB63694B9B6A6C
:102C040003F40073002B4DD019237B650323002BA1
:102C140018D0012387F83B3097F83B3083F0010349
:102C2400DBB2002B0ED15D4B1968614B029300237C
:102C340001930023009300230122002010F0C9FB1C
:102C440000237B63574B9B6B3B63564B9B6A03F49C
:102C54000043002B26D00323002B1AD0012387F82E
:102C64002F3097F82F3083F00103DBB2002B10D103
:102C74004A4B19683B6B03934E4B02930023019319
:102C84000023009300230122002010F0A2FB002364
:102C9400BB62BB68002B05D0424B9B6A414A23F4BC
:102CA400004393623F4B9B6A03F48063002B1DD067
:102CB4001A237B650323002B18D0012387F82730C0
:102CC40097F8273083F00103DBB2002B0ED1334B8E
:102CD4001968394B029300230193002300930023C6
:102CE4000122002010F075FB00233B622D4B9B6AF0
:102CF40003F48073002B1CD01B237B650323002B60
:102D040039D00123FB75FB7D83F00103DBB2002B7B
:102D140031D1224B1968294B0293002301930023DC
:102D2400009300230122002010F053FB00233B6199
:102D340021E01C4B9B6A03F40053002B1BD01C2383
:102D44007B650323002B16D00123FB77FB7F83F0E5
:102D54000103DBB2002B0ED1104B1968184B029300
:102D6400002301930023009300230122002010F08C
:102D740030FB0023BB610B4B9B6A0A4A43F47F433D
:102D840093620121F86810F04CFB03461A467B68F5
:102D94001A707B6D18465837BD4680BD340000203C
:102DA400ECD0010000ED00E004D1010058D0010096
:102DB40018D1010034D101004CD1010068D10100C7
:102DC400BCD0010080B598B004AF78601D23FB64CB
:102DD4000323002B18D0012387F84B3097F84B308E
:102DE40083F00103DBB2002B0ED18B4B19688B4BA4
:102DF4000293002301930023009300230122002067
:102E040010F0E7FA00237B64854B9B6A03F00073A0
:102E1400002B1DD01E23FB640323002B18D0012399
:102E240087F8433097F8433083F00103DBB2002B7B
:102E34000ED1794B19687B4B029300230193002335
:102E4400009300230122002010F0C3FA0023FB6347
:102E5400734B9B6A03F08073002B1DD01F23FB640C
:102E64000323002B18D0012387F83B3097F83B301D
:102E740083F00103DBB2002B0ED1674B19686A4B58
:102E840002930023019300230093002301220020D6
:102E940010F09FFA00237B63614B9B6A03F4801359
:102EA400002B1FD02023FB640323002B18D0012305
:102EB40087F8333097F8333083F00103DBB2002B0B
:102EC4000ED1554B1968594B0293002301930023EB
:102ED400009300230122002010F07BFA0023FB6200
:102EE4000223FB644E4B9B6A03F40023002B1DD08A
:102EF4002123FB640323002B18D0012387F82B30F4
:102F040097F82B3083F00103DBB2002B0ED1424B38
:102F14001968474B02930023019300230093002375
:102F24000122002010F055FA00237B623C4B9B6A7F
:102F340003F48023002B1DD02223FB640323002BE6
:102F440018D0012387F8233097F8233083F0010346
:102F5400DBB2002B0ED1304B1968364B02930023A1
:102F640001930023009300230122002010F031FA82
:102F74000023FB612A4B9B6A03F40033002B1BD014
:102F84002323FB640323002B16D00123FB76FB7E53
:102F940083F00103DBB2002B0ED11F4B1968264BC3
:102FA40002930023019300230093002301220020B5
:102FB40010F00FFA00237B61194B9B6A03F48033F2
:102FC400002B1BD02423FB640323002B16D00123E6
:102FD400FB74FB7C83F00103DBB2002B0ED10E4BA0
:102FE4001968164B029300230193002300930023D6
:102FF4000122002010F0EDF90023FB60084B9B6ACE
:10300400074A6FEA03436FEA13439362FB6C184663
:103014005037BD4680BD00BF3400002080D1010080
:1030240000ED00E098D10100ACD10100C8D101004D
:10303400F4D1010014D201003CD2010058D20100A5
:1030440080B588B004AF786039603B6800221A709C
:103054000323002B17D00123FB73FB7B83F00103B5
:10306400DBB2002B0FD10A4B19680A4B02930023E1
:1030740001930023009300230122002010F0A9F9FA
:103084000023BB6000BF00BF1037BD4680BD00BF3A
:103094003400002084D2010080B485B000AF786091
:1030A4007B689B69FB601B4B5B691A4A43F4807322
:1030B4005361BFF34F8F00BF00BF00BFBFF36F8FDB
:1030C40000BF00BF00BFFB6833F8023C7B81114B9B
:1030D4005B69104A23F480735361BFF34F8F00BFC1
:1030E40000BF00BFBFF36F8F00BF00BF00BF7B896D
:1030F40003F47F43B3F55F4F05D17B89DBB2022B29
:1031040001D1012300E0002318461437BD4680BCDA
:10311400704700BF00ED00E080B592B004AF786066
:1031240039600023FB620323002B18D0012387F8A6
:10313400333097F8333083F00103DBB2002B0ED128
:10314400634B1968634B029300230193002300939C
:1031540000230122002010F03CF900237B633B682C
:1031640000221A705C4BDB6A03F00203002B1CD0B4
:103174000323002B00F0A7800123FB74FB7C83F066
:103184000103DBB2002B40F09E80514B1968534B76
:1031940002930023019300230093002301220020C3
:1031A40010F017F90023FB608DE04B4BDB6A002B1A
:1031B4001BDA0323002B00F086800123FB76FB7EC1
:1031C40083F00103DBB2002B7DD1414B1968444BE2
:1031D4000293002301930023009300230122002083
:1031E40010F0F7F800237B616DE03B4BDB6A03F0E2
:1031F4008043002B67D00323002B18D0012387F8CA
:103204002B3097F82B3083F00103DBB2002B0ED167
:103214002F4B1968334B029300230193002300932F
:1032240000230122002010F0D4F800237B62786888
:10323400FFF732FF0346002B22D00323002B1BD0C1
:10324400012387F8233097F8233083F00103DBB29E
:10325400002B11D11E4B19687B681B680393224B0A
:1032640002930023019300230093002301220020F2
:1032740010F0AFF80023FB617B681B68FB6222E05F
:10328400154B9B6ADBB2002B06D03A6801217868A3
:10329400FFF704FBF86216E00F4B9B6A03F47F43CD
:1032A400002B07D03A6801217868FFF73BFC0346FE
:1032B400FB6208E0084B9B6AB3F5803F03D3786850
:1032C400FFF780FDF862FB6A18463837BD4680BDBB
:1032D40034000020A8D2010000ED00E0C0D20100BB
:1032E400E4D20100F4D2010014D3010080B58AB005
:1032F40006AF786039600323002B21D00123FB73D0
:10330400FB7B83F00103DBB2002B19D10E4B196850
:103314003B680F2B01DC0D4B00E00D4B3A68103A73
:10332400049203930B4B0293002301930023009315
:1033340000230122002010F04CF80023BB6000BFE2
:1033440000BF1037BD4680BD3400002030D30100DB
:1033540048D3010064D3010080B586B000AFF860A3
:10336400B9607A6000237B617B6800221A70BB68B5
:10337400033B092B35D801A252F823F0A9330000EE
:10338400B5330000C3330000D3330000E73300003B
:10339400E7330000E7330000E7330000E7330000C1
:1033A400DD3300007968F868FFF7B6FE78611DE048
:1033B4007A680021F868FFF771FA786116E07A6894
:1033C4000021F868FFF7AEFB03467B610EE0F86866
:1033D400FFF7F8FC786109E07968F868FFF730FED8
:1033E40004E0B968F868FFF781FF00BF7B681B78C9
:1033F40083F00103DBB2002B03D0B968F86810F046
:1034040006F87B6918461837BD4680BD80B58CB078
:1034140004AFF860B9607A603B600023FB76002358
:10342400FB613B6800221A707B6803F07F43B3F1B1
:103434007F4F01D0002339E07B6803F00803002BA1
:1034440020D07B6803F00403002B1BD10323002B43
:1034540016D00123BB76BB7E83F00103DBB2002BC5
:103464000ED1144B1968144B0293002301930023CB
:1034740000930023012200200FF0ABFF00237B61A7
:10348400002313E0FB7E83F00103DBB2002B0CD09E
:103494007B6803F00803002B02D0BB68FB6104E0E7
:1034A400FB68FB613B6801221A70FB6918462037F0
:1034B400BD4680BD3400002078D3010080B594B0AF
:1034C40000AFF860B9607A603B600023FB64294B6D
:1034D4005B68C3F30803BB640023BB63BB6B7B6300
:1034E4007B6B83F3118800BFBFF36F8F00BF00BFF6
:1034F40007F132037A68B968F868FFF787FF7864E0
:103504007B6C3B647B68FB6300BF07F133031A46A3
:10351400B96C786CFFF720FFF86497F83330002B10
:1035240023D107F110032022796C184619F084F88E
:1035340097F83230002B0BD0FB6AC3F30803002B3F
:103544000CD1FB6A6FEA53236FEA4323FB6205E065
:10355400FB6A23F4FF7323F00103FB6207F11003FA
:103564001946F86CFFF718F900E000BF5037BD4664
:1035740080BD00BF00ED00E080B400AF0A4B5B6982
:10358400094A43F010035361074B5B69064A43F44D
:1035940080635361044B5B69034A23F0080353615E
:1035A40000BFBD4680BC704700ED00E0EFF308802B
:1035B400EFF3098101B57246FFF780FF01BD00BF3B
:1035C4000B4880F3088806F041FD202080F3118821
:1035D40008484FF40061401880F30988EFF3148021
:1035E4000221084380F31488BFF36F8F0FF05EFF4E
:1035F400C02E00200030002080B584B000AF786079
:10360400114B9B687A689A4216D1EFF30583FB60ED
:10361400FB68002B14BF01230023DBB2002B0BD06B
:103624000A4B5B68094A43F080535360074B5B6A5B
:10363400064A23F40043536278680AF027FF00BF68
:103644001037BD4680BD00BF780E002000ED00E0BD
:1036540014498A684FF030001044EFF3098C80E875
:10366400F01F202080F31288BFF36F8F0E4F4FF0AE
:1036740000664A698A603E60506F0C4C2060906F0F
:103684000023936780F3118802F1300090E8F01F63
:103694008CF3098802F1000004B50FF015FFBDE8B2
:1036A40004407047780E002004ED00E0200A00205A
:1036B4001EF0040F0CBFEFF30880EFF3098081695B
:1036C40011F8021C0229FFD001B572460FF046FE24
:1036D40001BD00BF80B483B000AF0346FB7197F90E
:1036E4000730002B0BDBFB7903F01F02064997F927
:1036F40007305B09012000FA02F241F8232000BFE1
:103704000C37BD4680BC704700E100E080B483B054
:1037140000AF0346FB7197F90730002B12DBFB79EE
:1037240003F01F020A4997F907305B09012000FAE8
:1037340002F2203341F82320BFF34F8F00BFBFF3C1
:103744006F8F00BF00BF0C37BD4680BC704700BF01
:1037540000E100E080B483B000AF03463960FB7140
:1037640097F90730002B0ADB3B68DAB20C4997F96A
:1037740007305201D2B20B4483F800230AE03B68BD
:10378400DAB20849FB7903F00F03043B5201D2B2C9
:103794000B441A7600BF0C37BD4680BC704700BF8F
:1037A40000E100E000ED00E080B483B000AF786099
:1037B400084A7B685B0952F823207B6803F01F03E7
:1037C400012101FA03F3134018460C37BD4680BCAF
:1037D400704700BF00E100E080B400AF094B0A4A23
:1037E40023F07F039360BFF34F8F00BF00BF00BF80
:1037F400BFF36F8F00BF00BF00BF00BFBD4680BCDA
:10380400704700BF0000000000ED00E080B483B00A
:1038140000AF0D4BD3F888300B4A23F47003C2F881
:103824008830EFF314833B603B6823F004037B6030
:103834007B6883F31488BFF36F8F00BF00BF00BFA2
:103844000C37BD4680BC704700ED00E080B487B003
:1038540000AFF860B9607A603B607B68203B7B61B5
:10386400114A7B699A617B699B6923F001027B6938
:103874009A613A687B691A603A6A7B695A607A6A23
:103884007B699A60BA6A7B69DA607B694FF08072FF
:10389400DA617A69FB681A65FB6800229A6700BFDF
:1038A4001C37BD4680BC704759110000F0B587B085
:1038B40000AFF860B9607A600FF018FE0F4AFB6839
:1038C4009360FB685B6F0E4A1360FB685B6E7B6101
:1038D4007B6983F30B8800BF7D68BE682C4686F342
:1038E40009880020034B984720460021002200232A
:1038F400014C2047FD34010059110000780E0020CE
:10390400200A002080B400AF034B10221A6100BFCC
:10391400BD4680BC704700BF00ED00E080B483B0BA
:1039240000AF03463960FB7197F90730002B0ADBBF
:103934003B68DAB20C4997F907305201D2B20B4412
:1039440083F800230AE03B68DAB20849FB7903F004
:103954000F03043B5201D2B20B441A7600BF0C375A
:10396400BD4680BC704700BF00E100E000ED00E010
:1039740080B584B000AFEFF305837B607B68FB60A8
:10398400FB68103BFB60FB68DB00074A1344BB6029
:10399400BB685B68BA68126810469847FEF768FF10
:1039A40000BF1037BD4680BD68C8010080B584B033
:1039B40000AF0D4A0D4B01210D4810F057F83B1D87
:1039C40000221A605A609A600A4B7B60074A094BCE
:1039D400D31ABB603B1D0121184610F059F800BFF3
:1039E4001037BD4680BD00BF000000200000072046
:1039F400F8E201007002002080B582B000AF786068
:103A0400796803480FF01DFE00BF0837BD4680BD2E
:103A140090ED00E080B483B000AF7860034A7B6827
:103A2400136300BF0C37BD4680BC704790ED00E0C7
:103A340080B483B000AF7860034A7B68936000BFB2
:103A44000C37BD4680BC704790ED00E080B483B075
:103A540000AF7860034A7B68D36000BF0C37BD4673
:103A640080BC704790ED00E080B400AF024BDB688F
:103A74001846BD4680BC704790ED00E080B483B02A
:103A840000AF7860034A7B68136100BF0C37BD4602
:103A940080BC704790ED00E080B400AF024B1B691E
:103AA4001846BD4680BC704790ED00E080B483B0FA
:103AB40000AF074B1B687B607B681B0ADBB27B6033
:103AC4007B68DBB218460C37BD4680BC704700BF2C
:103AD40090ED00E080B500AF0248FFF79BFF00BF08
:103AE40080BD00BFAAFF440090B58FB00AAF7860D4
:103AF40039603B681B6823F01F033A68127AC2F3EB
:103B04000402D2B243EA02013B68DB6823F01F02DD
:103B14003B681B7AC3F34213DBB25B0003F00E0372
:103B2400134343F001031A4678680FF0C3FD0323DF
:103B3400032B2FD90123FB72FB7A83F00103DBB241
:103B4400002B27D1154B19683B681B683A68127A19
:103B5400C2F30402D2B210463A68127AC2F3421295
:103B6400D2B214463A68D268089207940690059334
:103B74007B6804930A4B03930A4B02930823019333
:103B8400002300930023042200200FF06AFD002389
:103B9400FB6000BF00BF1437BD4690BD3800002055
:103BA40004E30100A8D3010080B594B004AF7860A9
:103BB400084611461A460346FB700B46BB70134673
:103BC4007B70BB78FB630023BB6397E1BA6B13463E
:103BD4005B0013449B001A467B6813445B68002B0C
:103BE40000F088817B78002B2ED0BA6B13465B00E3
:103BF40013449B001A467B68134418460FF06DFD6E
:103C04000346002B20D10323002B1AD0012387F86D
:103C1400373097F8373083F00103DBB2002B10D133
:103C2400AF4B1968BB6B0393AE4B02930023019314
:103C3400002300930023012200200FF012FD002333
:103C44003B636FF015035FE1BA6B13465B001344EB
:103C54009B001A467B6813441868BA6B13465B00D2
:103C640013449B001A467B6813445B6819460FF0A3
:103C740054FDF862FB6A13F1160F03D0FA6BFB6A6A
:103C84009A421EDC0323002B18D00123FB77FB7F11
:103C940083F00103DBB2002B10D1914B1968FB6A4E
:103CA4000393914B02930023019300230093002379
:103CB400012200200FF0D5FC0023BB616FF0150337
:103CC40022E1FB6A18460FF047FDB862FB6A18460A
:103CD4000FF06AFD7862BA6B13465B0013449B00D5
:103CE4001A467B6813441968BA6B13465B00134485
:103CF4009B001A467B6813445B680B44013B3B62A0
:103D0400BA6B13465B0013449B001A467B6813444A
:103D14001B68BA6A9A4211D13A6A7B6A9A420DD1F7
:103D2400FB6AD8B2BA6B13465B0013449B001A4675
:103D34007B681344194600F0DBF9DCE0BA6B1346E8
:103D44005B0013449B001A467B6813441B68BA6AE1
:103D54009A422ED1F86ABA6B13465B0013449B0057
:103D64001A467B6813441968BA6B13465B00134404
:103D74009B001A467B6813445B680B4419460FF09A
:103D8400FBFCFB6BD8B2BA6B13465B0013449B007D
:103D94001A467B681344194600F0AAF9F863FB6BD2
:103DA40013F1160F01D1FB6BAEE0FB6B0133FB6328
:103DB400A1E03A6A7B6A9A4225D1F86ABA6B134643
:103DC4005B0013449B001A467B6813441B68013B49
:103DD40019460FF0F9FCFB6BD8B2BA6B13465B00C3
:103DE40013449B001A467B681344194600F080F97B
:103DF400F863FB6B13F1160F01D1FB6B84E0FB6BD3
:103E04000133FB6377E0F86ABA6B13465B00134433
:103E14009B001A467B6813441B68013B19460FF04C
:103E2400D3FCFB6BD8B2BA6B13465B0013449B0004
:103E34001A467B681344194600F05AF9F863FB6B81
:103E440013F1160F01D1FB6B5EE0FB6B0133FB63D7
:103E5400FA6A07F108030833194610460FF0CCFC40
:103E6400BA6B13465B0013449B001A467B681344E9
:103E74001968BA6B13465B0013449B001A467B68AF
:103E840013445B680B44BB60BA6B13465B0013447A
:103E94009B001A467B6813441968BA6B13465B008F
:103EA40013449B001A467B6813445B680B4423F05D
:103EB4001F02796A3B6ACB1A1344013B23F01F03A8
:103EC4007B61FB6BDBB207F108021146184600F078
:103ED400B3F8F863FB6B13F1160F07D1FB6B13E018
:103EE40038000020D0D30100F4D30100FB6B013370
:103EF400FB6300E000BFBB6B0133BB63FB78BA6BB1
:103F04009A42FFF663AEFB6B18464037BD4680BD50
:103F140080B586B000AFF8607A603B600B46FB72F8
:103F2400094B1B787B617B69DAB2F97A0123F86863
:103F3400FFF73AFE78617B69DAB2034B1A707B694A
:103F440018461837BD4680BDB20E002080B584B037
:103F540000AF78600B46FB700023FB605EE0FA68FC
:103F640013465B0013449B001A467B6813445B684A
:103F7400002B4FD0FA6813465B0013449B001A468B
:103F84007B6813441868FA6813465B0013449B006B
:103F94001A467B6813445B6819460FF0BEFB014662
:103FA4002348FA6813469B0013449B00034419609A
:103FB4001F49FA6813469B0013449B000B441B687B
:103FC40013F1160F02D16FF015032CE01849FA68AB
:103FD40013469B0013449B000B441B68154A12783C
:103FE400934202DB6FF015031DE01149FA68134692
:103FF4009B0013449B000B441B681846FA68134645
:104004009B0013449B000A4A1344043319460FF0DF
:1040140016FC00E000BFFB680133FB60FB78FA6824
:104024009A429CDB002318461037BD4680BD00BF72
:10403400240A0020B20E002090B58DB006AF0346CE
:104044003960FB71FC790FF044FC0346013B9C4250
:104054001ED90323002B18D00123FB73FB7B83F0B1
:104064000103DBB2002B10D11D4B1968FB790393BC
:104074001C4B02930023019300230093002301228D
:1040840000200FF0EEFA0023BB606FF0150323E06D
:104094000323032B1AD90123FB75FB7D83F0010352
:1040A400DBB2002B12D10E4B1968FB7904930E4B33
:1040B40003930E4B029308230193002300930023E0
:1040C400042200200FF0CDFA00233B61FB7939680C
:1040D4001846FFF709FDFB7918461C37BD4690BD0D
:1040E4003800002018D4010010E3010040D401007E
:1040F40090B58FB006AF03463960FB710323032BE1
:104104001AD90123FB77FB7F83F00103DBB2002B79
:1041140012D1184B1968FB790493174B0393174B6F
:104124000293082301930023009300230422002018
:104134000FF097FA0023BB613B681B68BB603B68C8
:1041440003F108013B681A683B685C6807F10803DF
:1041540003F1080023460FF092FB07F10802FB79F4
:1041640011461846FFF768FF034618462437BD4634
:1041740090BD00BF380000202CE3010068D401008A
:1041840080B400AF084B05225A60BFF34F8F00BFC5
:1041940000BF00BFBFF36F8F00BF00BF00BF00BFF1
:1041A400BD4680BC704700BF90ED00E080B400AF16
:1041B400BFF35F8F00BF00BF00BF034B00225A60F4
:1041C40000BFBD4680BC704790ED00E090B58BB059
:1041D40006AF354B1C680FF07CFB03469C4202D9AA
:1041E4004FF0FF335CE00323032B1DD90123FB7144
:1041F400FB7983F00103DBB2002B15D12B4B1C6838
:104204000FF067FB03460493294B0393294B029356
:104214000823019300230093002304222146002055
:104224000FF01FFA00233B60FFF7C0FFFFF752FCBB
:104234000023FB600BE01C4B5A68FB681B01134412
:104244001946F868FFF750FCFB680133FB60164B16
:104254001B68FA689A42EED3134B1B68DAB2164B0A
:104264001A7015480FF03CFB034613F1160F02D1E8
:104274006FF0150314E0104B1B78BB6006E0BB68BD
:1042840018460FF00CFABB680133BB600FF021FB3A
:1042940003461A46BB689342F1DBFFF771FF002324
:1042A40018461437BD4690BD74E301003800002061
:1042B40044E3010090D40100B20E002080B58AB01E
:1042C40000AFF860B9607A603B6007F11003002228
:1042D4001A605A609A60DA601A615A610223BB74E8
:1042E400084B7B61FB683B62BB687B6207F1100390
:1042F4003A68796818460BF0AFFD0346184628372C
:10430400BD4680BDB33A010080B582B000AF78608D
:104314003960044B1B6878689847002318460837AF
:10432400BD4680BD380A002080B483B000AF7860F9
:10433400074A7B681360074B9B7843F00203DAB2A9
:10434400044B9A7000BF0C37BD4680BC704700BF59
:10435400380A00203C00002080B582B000AF002362
:104364007B600C4B073323F007037B60094B073357
:1043740023F00703C3F1005303F5E0233B603A68DD
:10438400796805480CF086FC002318460837BD46BA
:1043940080BD00BF004800203C0A002080B584B0E6
:1043A40000AF78607B68002B11D00B4B43F0010306
:1043B400FB600A4B1B680A4AA2FB03239A0C7B6826
:1043C40002FB03F3BB60FB68B868984700E000BFDA
:1043D4001037BD4680BD00BF40E20100F000002060
:1043E40083DE1B4380B584B000AF78600023FB609C
:1043F40078680FF06AFC0346002B02D0012B03D02F
:1044040004E0054BFB6001E0044BFB60FB681846CD
:104414001037BD4680BD00BF00258450002884505D
:1044240090B585B000AF0723FB60244B1B780133A4
:104434001946234BA3FB01239A0813469B001344FC
:10444400CA1A1346FB720FF089FB78601D4B1B7868
:10445400002B0BD0FB7A1C4A52F823307A68D21A0C
:10446400FB6801339A4201D2002322E04FF48A719F
:104474004FF050200FF08EFB0346002B0FD04FF46B
:104484008A714FF050200FF070FB0C4AFB7A1370C6
:104494000A4B1B78002B02D10A4B01221A70074BDE
:1044A4001B781C460FF05AFB0346074A42F8243097
:1044B400012318461437BD4690BD00BFB30E00203B
:1044C400CDCCCCCCB40E0020480A002080B586B0F8
:1044D40000AF0A200FF0BDFB0346FB820B200FF058
:1044E400ABFB03467B757B7D19461C480FF062FBD2
:1044F4003861FB8A194619480FF06AFBF860FB1D06
:10450400184605F0B1FFB860BB68154A934202D063
:104514006FF00B031DE04FF480620A210F480FF087
:1045240078FB4FF400620B210C480FF05FFBFB7922
:104534003969184613F017FFFB79F968184613F028
:1045440001FFFB791A4601239340184605F07EFFCC
:10455400002318461837BD4680BD00BF00A0025096
:104564000000AD0B80B582B000AF12480FF080FBA5
:10457400022111480FF0BCFB032100200FF085FB42
:10458400032101200FF081FB012200210A480FF0D2
:10459400BEFB0122022108480FF0B9FB01220121D0
:1045A40005480FF0B4FB00F077F8786000BF0837D7
:1045B400BD4680BD001000500040005080B584B05E
:1045C40000AF78600023FB6078680FF023FC03469B
:1045D400002B02D0012B03D004E0054BFB6001E06B
:1045E400044BFB60FB6818461037BD4680BD00BF16
:1045F400002584500028845080B483B000AF144B4D
:104604001B687B60134B1B683B607B68072B19D1CD
:104614003B68023B032B13D801A252F823F000BFDE
:1046240035460000394600003D4600004146000082
:10463400002308E0002306E0002304E0012302E055
:10464400012300E0002318460C37BD4680BC7047A8
:104654003001FF003401FF0080B584B000AF034691
:10466400FB710023FB600CE00A4AFB6813441B78CF
:104674001A46FB79194610460FF0DFFBFB6801333D
:10468400FB60FB68032BEFD900BF00BF1037BD46AA
:1046940080BD00BF7CE3010080B500AF034904483E
:1046A4000DF0D3FA0346184680BD00BF80E3010035
:1046B4005C0A002080B483B000AF0346FB7197F915
:1046C4000730002B0CDBFB7903F01F02074997F935
:1046D40007305B09012000FA02F2603341F823201D
:1046E40000BF0C37BD4680BC704700BF00E100E04E
:1046F40080B400AF084B1B78002B14BF01230023A8
:10470400DBB283F00103DBB203F00103DBB2184632
:10471400BD4680BC704700BFBD0E002080B487B08A
:1047240000AFF8600B467A60FB720023FB75FB7ADE
:10473400032B5BD801A252F823F000BF51470000BD
:104744007F470000AD470000DB470000FB68D3F85B
:10475400183403F48033002B14BF01230023FB75AA
:104764007B68002B44D0FB68D3F81834DBB203F029
:104774000303DAB27B681A703AE0FB68D3F80C34AE
:1047840003F48033002B14BF01230023FB757B68E3
:10479400002B2FD0FB68D3F80C34DBB203F00103F9
:1047A400DAB27B681A7025E0FB68D3F85C3403F452
:1047B4008033002B14BF01230023FB757B68002B7F
:1047C4001AD0FB68D3F85C34DBB203F00103DAB22D
:1047D4007B681A7010E0FB68D3F8543403F4803318
:1047E400002B14BF01230023FB7506E0002305E022
:1047F40000BF02E000BF00E000BFFB7D18461C378D
:10480400BD4680BC704700BF90B58FB006AF7860DE
:104814000B46FB70FB78194678680FF0EFFCF861E3
:10482400FB691B68BB61FB695B687B61FB690022F8
:104834001A60FB69083318460FF0B5FD0323032BF8
:1048440021D90123FB74FB7C83F00103DBB2002B31
:1048540019D1134B1C68FB78194678680FF0E4FCF7
:1048640003469B6804930F4B03930F4B0293082357
:1048740001930023009300230422214600200FF01B
:104884009FFC0023FB60BB69002B05D0FB78194615
:10489400BB697A697868984700BF2437BD4690BDE4
:1048A4004C000020BCE30100D0D4010080B483B0EC
:1048B40000AF044B7B607B68783318460C37BD46E9
:1048C40080BC70477C0A002080B588B000AF00230C
:1048D400FB77EFF311837B617B693B612023FB60F2
:1048E400FB6883F3128800BFBFF36F8F00BF3B697F
:1048F400BB611B4B1B6843F002031A46184B1A603A
:10490400174B1B6803F00103002B0FD0FB1C194647
:1049140001200FF043FCFB78012B07D10123FB7727
:10492400FFF7C4FF034618460FF03DFDBB69BB60AB
:10493400BB687B607B6883F3118800BFBFF36F8F14
:1049440000BF00BFFB7F002B04D000210548FFF708
:104954005BFF01E00FF060FD2037BD4680BD00BF66
:10496400780A0020A8C7010080B586B000AFEFF335
:1049740011833B613B69FB602023BB60BB6883F30D
:10498400128800BFBFF36F8F00BFFB687B610F4BC2
:104994001B6823F002030D4A13600C4B1B6803F0E1
:1049A4000103002B01D10FF03DFD7B697B607B6827
:1049B4003B603B6883F3118800BFBFF36F8F00BF78
:1049C40000BF00BF1837BD4680BD00BF780A002075
:1049D40080B58AB000AF7860396007F10C03FB60E2
:1049E40007F10C033B6100237B610123BB6107F1E9
:1049F4000C031033FB6107F10C0310333B6207F126
:104A04000C030D4A396878680FF092FD78627B6A6E
:104A1400002B01DA796A09E04FF480424FF0000379
:104A240007F10C0108460FF0F3FA01460B4618464D
:104A34002837BD4680BD00BF5D45010080B485B008
:104A440000AF7860074BFB60FB687A68D31A9B1051
:104A5400054A02FB03F3BB60BB6818461437BD4626
:104A640080BC70477C0A0020B76DDBB680B584B08B
:104A740000AF786039607868FFF7E0FF03464022B2
:104A8400194606480FF0F0FCF8603B68F96878684E
:104A9400984700BF1037BD4680BD00BFA8C70100BE
:104AA40080B586B002AF786039607868FFF7C6FFDA
:104AB4000146402300933B68074A08480FF00AFD6B
:104AC400F860FB68002B03DA3B68F968786898475C
:104AD40000BF1037BD4680BD7B450100A8C701005B
:104AE40080B58AB000AF0346FB71FB79012B0BD173
:104AF400534B1B78022B07D14FF050200FF022FBB1
:104B04000346022B00F0978016F0DCFA0346002BD4
:104B140004D1FFF7EDFD0346002B01D0012300E093
:104B2400002387F8273097F8273003F0010387F82C
:104B3400273097F82730002B0FD0EFF31183FB6158
:104B4400FB69BB6120237B617B6983F3128800BF0F
:104B5400BFF36F8F00BFBB6900E000233B6297F88F
:104B6400273083F00103DBB2002B38D002214FF051
:104B740050200FF088FA32E097F82730002B04D049
:104B84003B6A18460FF02BFA02E001200FF0F9F906
:104B94002B4B1B78022B22D14FF050200FF0C5FA7B
:104BA4000346012B1BD14FF482714FF050200FF0BC
:104BB4009DFA0346002B12D04FF482714FF050201F
:104BC4000FF07FFA02214FF050200FF09FFA0520DA
:104BD400FFF770FD08214FF050200FF062FA194BD7
:104BE4001B7807F10B02114618460FF0D7FA03465B
:104BF40083F00103DBB2002BBED1FA7A104B1B7891
:104C04009A4202D0FB79012BB6D197F82730002BBA
:104C14000BD03B6A3B613B69FB60FB6883F3118803
:104C240000BFBFF36F8F00BF06E002214FF050209A
:104C34000FF01BFA00E000BF2837BD4680BD00BF5F
:104C4400F4E80100F5E8010080B584B000AF034644
:104C5400FB71012111480FF063F90346002B0CD1BD
:104C640001210F480FF0F5FAF8600E480FF0EBF948
:104C74000D49F8680DF08FF9B860FB79002B09D065
:104C8400002B08DB013B012B05D8FB791846FFF705
:104C940027FF00E000BF1037BD4680BD1C0B00207D
:104CA400A8C70100240B0020200B002080B584B08D
:104CB40000AF0346FB71214BFB60FB79092B36D80F
:104CC40001A252F823F000BFF54C0000294D00006A
:104CD400334D0000334D0000334D0000334D0000D0
:104CE400334D0000334D00001F4D0000154D0000F2
:104CF4000021F8680FF082FAB860BB689B6803F083
:104D04000703002B15D10021F868FFF77DFD10E0A3
:104D14000221F868FFF778FD0CE00321F868FFF73B
:104D240073FD07E00121F868FFF76EFD02E000BFA4
:104D340000E000BF00BF1037BD4680BDA8C701001A
:104D440080B586B000AF78600022012105200EF006
:104D54008EFB1B4805F0FAFC38613B69194A934203
:104D640002D06FF0040326E00FF01DFC05F034FDC3
:104D74000023FB751BE0FB7D194678680FF03EFAB3
:104D8400F860FB7D194678680FF063FA03460E4914
:104D940018460CF05AFFB860BB68002B01DABB68F8
:104DA40009E0FB6801229A60FB7D0133FB75FB7D02
:104DB400032BE0D9002318461837BD4680BD00BF39
:104DC400B14C00000000AD0BD0E3010080B582B00F
:104DD40000AF7860124B18460FF019FC0346002B05
:104DE40001DA796817E07B680A2B04D10C4B0D219A
:104DF40018460FF0FDFB0A4A7B68DBB219461046E1
:104E04000FF0F6FB06494FF021024FF0000308466D
:104E14000FF007FC79680B4618460837BD4680BD7D
:104E240008C8010080B500AF0348FFF77DFA0248C7
:104E3400FCF776F900BF80BDD14D000080B500AF0E
:104E4400084B18460FF0B5FB034683F00103DBB2B1
:104E5400002B02D06FF0120302E0FFF7E3FF002300
:104E6400184680BD08C8010080B584B000AF7860E2
:104E74000023FB6078680FF094FD0346002B02D0FA
:104E8400012B03D004E0054BFB6001E0044BFB6005
:104E9400FB6818461037BD4680BD00BF002584500E
:104EA4000028845080B596B002AFF8600B467A6053
:104EB400FB720023BB64AB4BFB64002387F84730D1
:104EC400F8680FF051FE3864FB7A03F01F023B6C64
:104ED4001B7B5B011343FB6378680FF060FE0346A2
:104EE40087F83A307A6840F206331340B3F5407FCE
:104EF40031D0B3F5407F42D840F2022293423AD0F7
:104F040040F2022293423AD8B3F5007F1BD0B3F5A6
:104F1400007F34D8B3F5837F25D0B3F5837F2ED8B3
:104F2400B3F5807F13D0B3F5807F28D8062B16D035
:104F3400062B24D8002B02D0022B18D01FE000230C
:104F440087F839301EE0022387F839301AE001234C
:104F540087F8393016E0032387F8393012E0062346
:104F640087F839300EE0072387F839300AE0042344
:104F740087F8393006E0052387F8393002E06FF00E
:104F84001503EAE0F8680FF041FDB864BB6C002B30
:104F940001DABB6CE1E0FB7A012202FA03F3194661
:104FA400F8680FF01EFE7B6803F40023002B0AD080
:104FB4003B6C5A68FB7A012101FA03F31946104647
:104FC4000FF0D5FC0EE07B6803F48023002B09D09E
:104FD4003B6C5A68FB7A012101FA03F31946104627
:104FE4000FF0D2FC386C0FF0CAFD034683F00103C6
:104FF400DBB2002B21D07B685B0CDBB203F0010336
:10500400DBB287F838307B6803F48033002B0CBFA5
:1050140001230023DBB287F8373007F13A0007F1A8
:10502400370207F138010023019307F13903009394
:105034000346F86B0FF0F9FB83E03B6C103307F188
:105044003B02F96B184614F07BFBF864FB6C454A91
:1050540093420CBF0123002387F847307B6803F495
:105064004033002B06D13B6C1033F96B184614F017
:1050740093FB57E007F12C0300221A605A6007F1F2
:10508400200300221A605A609A6007F12C037B62A5
:105094003B6C103307F12002F96B184614F01FFB28
:1050A400F864FB6C2F4A934203D06FF01503BB6482
:1050B40047E07B6803F40033002B19D097F83930AC
:1050C4003B777B6803F48033002B0CBF0123002360
:1050D400DBB27B7797F83A30BB773B6C03F1100077
:1050E40007F11C020023F96B14F009FBF86411E0CA
:1050F40007F1100300221A605A609A6007F13A031C
:105104003B613B6C103307F11002F96B184614F045
:10511400E6FAF864FB6C134A934203D06FF015036C
:10512400BB640EE097F84730002B09D03B6C10337A
:1051340097F83B201146184614F03CFBF86400E055
:1051440000BFFB7A012202FA03F31946F8680FF054
:105154003EFDF8680FF064FC034618465037BD4620
:1051640080BD00BF0000AD0B80B58EB000AFF8600D
:105174007A603B600B46FB72F8680FF0F5FC7863CD
:10518400FB7A03F01F027B6B1B7B5B0113433B63C6
:10519400786B0FF0F4FC034683F00103DBB2002BC1
:1051A40002D06FF0850382E07B68B3F5001F07D15E
:1051B4007B6B1033396B184614F02BFB002376E01D
:1051C40007F1200300221A605A60396878680FF0EA
:1051D400EAFD034687F8203007F1140300221A6021
:1051E4005A609A6007F12003BB617B6B9A68FB7A73
:1051F40022FA03F303F00103002B2AD17B68B3F1F5
:10520400A07F26D1386B0FF086FB0346002B20D1FC
:105214007B6B103307F12B02396B184614F090FAAC
:10522400F862FB6A244A93420FD17B6B103307F177
:105234002B021146184614F0CDFAF862FB6A1F4A95
:10524400934202D06FF00B0331E007F12B037B6232
:1052540015E07B6B103307F12B02396B184614F001
:105264006FFAF862FB6A154A934208D17B6B1033DC
:1052740097F82B201146184614F09CFAF8627B6BC1
:10528400103307F11402396B184614F028FAF86247
:10529400FB6A0A4A934202D06FF0150307E07B6B66
:1052A40010330122396B184614F0A2FA0023184671
:1052B4003837BD4680BD00BF0400AD0B0000AD0B08
:1052C40080B485B000AF78600023FB607B68002B5E
:1052D40002D1074BFB6004E07B68012B01D1054B35
:1052E400FB60FB6818461437BD4680BC704700BF9E
:1052F400C8C70100E8C7010080B584B000AF78607A
:1053040078680FF031FCF860F8680FF038FC034659
:1053140083F00103DBB2002B22D1FB681033184663
:1053240014F02EFA0346002B1CD1FB681033002125
:10533400184614F015FAB860BB680F4A934202D0BD
:105344006FF0040314E0FB68103300220B49184685
:1053540014F0E7F9002205210D200EF088F802E090
:1053640000BF00E000BF064978680FF02DFB03463C
:1053740018461037BD4680BD0000AD0B1D4E010020
:105384009B4E010080B582B000AF7860034807F0FF
:10539400A9FD00BF0837BD4680BD00BF50000020F6
:1053A40080B500AF0FF0D8FD0246024B1B68D31A3C
:1053B400184680BD480B002080B500AF02480FF0AE
:1053C400F5FD00BF80BD00BF200200202DE9B043E1
:1053D40084B002AF78607B6800221C4615464FF00B
:1053E40000024FF00003EB0343EA5443E20340F2AC
:1053F400E73112EB010843F100094FF47A724FF0E0
:10540400000340464946FAF7A3FE02460B461046FF
:1054140019464FF000024FF00003CDE90023024685
:105424000B4604480FF0AFFD00BF0837BD46BDE88A
:10543400B08300BF2002002080B500AF0FF08CFDC8
:105444000346034A1360024B1B68184680BD00BF25
:10545400480B002080B400AF024B1B681846BD46C1
:1054640080BC7047480B002080B582B000AF7860E4
:105474007B6844330222012118460FF031FE0346B3
:1054840083F00103DBB2002B01D000230BE0084BB7
:10549400DB6A98477B6800225A607B68443318466D
:1054A4000FF053FE012318460837BD4680BD00BFE8
:1054B400C4E5010090B589B002AFF8600846114612
:1054C4001A4603467B810B463B811346FB712F4BE7
:1054D4005B687B612D4B9B68002B14D02C4B5B6B62
:1054E40000209847294B9C68284B1868274BDB6899
:1054F400B7F908107A89019397F9073000930B469E
:10550400F968A0473EE00222012122480FF0E8FD9D
:10551400034683F00103DBB2002B32D11B4BDB6C5F
:105524001B781A467B89934204D2184BDB6C7A8928
:10553400D2B21A70154B986C144BDB6C1B781A465C
:10554400F96817F079F8114B1B6D002B03D00F4B42
:105554001B6D3A891A800D4B5B6D002B03D00B4BEE
:105564005B6DFA791A700A4BDB6A9847074B002285
:105574005A6008480FF0E9FD002178690FF004FE35
:1055840000E000BF1C37BD4690BD00BF4C0B00209F
:10559400C4E50100900B002080B582B000AF0A4B37
:1055A4005B687B600848FFF75FFF0346002B06D06B
:1055B4007B68002B03D0002178680FF0E5FD00BF65
:1055C4000837BD4680BD00BF4C0B002080B500AF3E
:1055D4000248FFF749FF00BF80BD00BF4C0B00200D
:1055E40080B582B000AF0E4B5B687B600C4B9B6850
:1055F400002B04D00B4B5B6B002098470DE0084850
:10560400FFF732FF0346002B07D07B68002B04D042
:105614006FF0040178680FF0B7FD0837BD4680BD10
:105624004C0B0020C4E501002DE9F0439BB006AF0C
:10563400F860B9607A6007F12803BB6207F12803B8
:10564400FB6200233B6300237B6307F11403002206
:105654001A605A609A60DA601A6197F82130012260
:1056640062F3050387F8213007F128037B62594B65
:105674005B6B002B02D16FF01503A5E007F1280343
:105684007A68B968F86800F0B1F8F864FB6C002B2C
:1056940001DAFB6C98E0504B5E6A4E4B93F838305D
:1056A4009C464C4B93F839309E464A4B93F83A103B
:1056B400484B9B8F7A68D2B2012003900292002259
:1056C400019200930B46724661460120B047B864CC
:1056D4000323032B1ED9012387F8473097F847305B
:1056E40083F00103DBB2002B14D13C4B1968BB6C73
:1056F40005937B6804933A4B03933A4B0293082334
:105704000193002300930023042200200FF04AFD9C
:1057140000233B64BB6C5B0000221C4615464FF023
:1057240000024FF00003EB0343EA5443E20340F268
:10573400E73112EB010843F100094FF47A724FF09C
:10574400000340464946FAF703FD02460B4610465D
:10575400194607F1140402460B46012120460FF0B6
:1057640001FDF864FB6C002B2DDA0323002B18D009
:10577400012387F83F3097F83F3083F00103DBB211
:10578400002B0ED1154B1968174B0293002301937C
:10579400002300930023012200200FF003FD0023C7
:1057A400BB630C48FFF760FE034683F00103DBB2E2
:1057B400002B08D04FF0FF324FF0FF3307F11400F5
:1057C40001210FF0CFFCFB6C18465437BD46BDE8F1
:1057D400F08300BF4C0B0020C4E5010060000020F2
:1057E4000CE4010080D50100ACD5010080B584B083
:1057F40000AFF860B9607A603B6011480FF0F0FCCC
:10580400034683F00103DBB2002B02D06FF00F03D9
:1058140011E00B4A3B6853600A4B5B6D7A68D2B265
:10582400114601209847074B9B6A7A68D2B2114609
:10583400B8689847002318461037BD4680BD00BF9E
:105844004C0B0020C4E5010090B597B004AFF8609C
:10585400B9601346FB7107F124037B6207F124034B
:10586400BB620023FB6200233B6307F110030022A9
:105874001A605A609A60DA601A617B7F012262F3CF
:1058840005037B7707F124033B6247480FF0A8FC2C
:10589400034683F00103DBB2002B02D06FF00F0349
:1058A4007DE0414B00229A603F4A07F12403536094
:1058B4003D4ABB6893643C4AFB1DD3643A4A3B6E41
:1058C4001365394A7B6E5365384B5B6DFF210120AC
:1058D4009847364B5B6B0020984707F11000D7E9D7
:1058E400162301210FF03EFC78647B6C002B34DA24
:1058F4002D48FFF7B9FD034683F00103DBB2002B0B
:105904000DD04FF0FF304FF0FF3107F11004024685
:105914000B46012120460FF025FCFB793FE00323D1
:10592400022B18D9012387F83B3097F83B3083F0DA
:105934000103DBB2002B0ED11D4B19681D4B0293E2
:1059440000230193002300930023032200200FF07F
:1059540029FC00237B637B6C21E03B6B002B1DDA6D
:105964000323002B18D0012387F8433097F84330E2
:1059740083F00103DBB2002B0ED10D4B19680E4BE3
:1059840002930023019300230093002301220020AB
:105994000FF008FC0023FB633B6B00E0FB79184627
:1059A4004C37BD4690BD00BF4C0B0020C4E5010040
:1059B40060000020C8D50100D8D5010080B584B0AE
:1059C40000AFF860B9607A60BB68002B0DD117484E
:1059D400FFF74AFD034683F00103DBB2002B02D03C
:1059E4006FF015031DE000231BE010480FF0F8FBD7
:1059F400034683F00103DBB2002B02D06FF00F03E8
:105A04000FE00A4ABB689360084A7B68D360084B7E
:105A14005B6DFF2101209847054B5B6B0020984785
:105A2400002318461037BD4680BD00BF4C0B002034
:105A3400C4E50100F0B58DB00AAF786039603A482A
:105A44000FF0CEFB034683F00103DBB2002B02D040
:105A54006FF00F0363E0354BDB683A681268104659
:105A640098473B68DB7A002B2AD0102239683048EB
:105A740016F0E2FD2D4BDC693B6893F90A003B68A4
:105A84001B799C463B685B791E463B689B793A6868
:105A940012893968097B4FF47A65089507910021CA
:105AA40006910021059101210491002103910292A4
:105AB400019300966346002201460120A04724E09A
:105AC4001A4B9C693B681B791D463B685B791E46F3
:105AD4003B6899793B681B893A68127B01200990DD
